:100000006F00D01D1300000013000000130000005B
:100010001300000013000000130000001300000094
:100020001300000013000000130000001300000084
:08003000130000007300100032
:100038000000000000000000A8020000AC02000060
:10004800000000002209000000000000000000007D
:10005800240900002609000000000000000000003C
:1000680028090000000000002A0900000000000024
:100078002C0900002E090000300900003209000098
:100088003409000036090000380900003A09000068
:100098003C0900003E090000400900004209000038
:1000A8004409000046090000480900004A09000008
:1000B8004C0900004E0900005009000052090000D8
:1000C8005409000056090000580900005A090000A8
:1000D8005C0900005E090000600900006209000078
:1000E8006409000066090000680900006A09000048
:1000F8006C0900006E090000700900007209000018
:100108007409000076090000780900007A090000E7
:100118007C0900007E0900008009000082090000B7
:100128008409000086090000880900008A09000087
:100138008C0900008E090000900900009209000057
:100148009409000096090000980900009A09000027
:100158009C0900009E090000A0090000A2090000F7
:10016800A4090000A6090000A8090000AA090000C7
:10017800AC090000AE090000B0090000B209000097
:10018800B4090000B6090000B8090000BA09000067
:10019800BC090000BE090000C0090000C209000037
:1001A800C4090000C6090000C8090000CA09000007
:1001B800CC090000CE090000D0090000D2090000D7
:1001C800D4090000D6090000D8090000DA090000A7
:1001D8000000000000000000000000000000000017
:1001E8000000000000000000000000000000000007
:0801F8000000000000000000FF
:100200003D432A876373C3029377F700BDEFADE5E3
:10021000937606FF3D8ABA960CC34CC30CC74CC7F5
:100220004107E36BD7FE11E28280B306C3408A0622
:100230009702000096966780A6002307B700A306E2
:10024000B7002306B700A305B7002305B700A30432
:10025000B7002304B700A303B7002303B700A3022A
:10026000B7002302B700A301B7002301B700A30022
:10027000B7002300B700828093F5F50F93968500B1
:10028000D58D93960501D58D61B79396270097027A
:10029000000096968682E78086FA9680C1171D8FA9
:1002A0003E96E374C3F8A5B77300203001A0011196
:1002B00085451305400606CE22CC26CA4AC8EF0063
:1002C000701837250140930480040D449307E00320
:1002D0004C00130505802312F10026C622C43719ED
:1002E0000140EF00807885474C00130509802312F8
:1002F000F10026C622C4EF00407789679387070480
:100300004C001305094026C622C42312F100EF0059
:10031000C075F2406244D244424905618280411175
:1003200022C437240140C1451305048006C6EF00EE
:10033000E07F0DE15145EF001026C1451305048013
:10034000EF00C07E994711C18147B24022443E85EB
:10035000410182809305000213050480EF00007DB7
:1003600001ED5145EF003023930500021305048091
:10037000EF00C07B9D47C1BF894513050480EF0096
:10038000E07A01ED5145EF00102189451305048005
:10039000EF00C079933715004DBF914513050480D8
:1003A000EF00C07819E95145EF00F01E91451305A3
:1003B0000480EF00A077894779B7A1451305048031
:1003C000EF00C07619E95145EF00F01CA145130577
:1003D0000480EF00A0759147BDB737140140930525
:1003E000000413050440EF00607401ED5145EF0077
:1003F000901A9305000413050440EF0020738D4705
:1004000099B7896513050440EF004072E31E05F2B9
:100410005145EF005018896513050440EF00007145
:10042000E31405F2954715B7373500004111130560
:10043000C5A406C6EF005037B2403735000013059B
:1004400005A541016F005036411106C6C93D194747
:10045000B7470020631AE50003A747DA7D17B240CB
:1004600023A2E7DA4101828003A747DA0507C5BF67
:10047000011122CC26CAB704002006CE4AC84EC6B7
:1004800052C456C2814793844409138401961306CB
:10049000D0049386170013972600B3059700884170
:1004A0008A07B385970088C122971843A29798C3FB
:1004B000B687E390C6FEB749002083A789DAA5EF87
:1004C00083A7C195374A00201D49232AF4128327A8
:1004D0000ADA23AAF412EF00D02D3365250319059B
:1004E00023A4A9DAEF00F02C33652503110523AE10
:1004F000A194EF00102C91473365F5020D052320E0
:10050000AADAB747002003A747DABE866357E000A0
:1005100003A647DA4947635BC70223A00182D1479C
:1005200023A2F6DAF2406244D2444249B249224A56
:10053000924A05618280232A0412C94723AAF41231
:1005400083A789DAFD1723A4F9DA65BF304803A72A
:1005500047DAE344C7FC3848AC4803A647DAB30798
:10056000B700E3CCC7FA374700208327C7DA8507EF
:100570002326F7DA45BF011126CA1166B704002009
:10058000130686A981451385843006CE4AC84EC617
:1005900052C456C25AC022CCA531373500001305CB
:1005A000C5A4EF007020B747002003A6C7DAB7350F
:1005B00000009385058213858430EF00102885495B
:1005C000130A401F373B0000CD4A1389843033851E
:1005D00049031384843093050B9085092295EF001D
:1005E000302AE39659FFB735000037350020938550
:1005F000459513054582EF00B028B747002003A7B3
:1006000047DA6350E00283A647DA4947634BD700D5
:1006100083A747DA13073004B3874703A297238AD7
:10062000E700370500200547938501969308401F92
:100630001303800513054509454E930EF0049307F7
:10064000F7FF8A0701463388B70001A80506B306FD
:100650001603CA96BA962380660083260800E347ED
:10066000D6FEAA97832608009C43B697635EFE02D7
:100670000507E316D7FD896493840471A294373982
:100680000000A285130589A41304441FEF00807D98
:10069000E31994FEF2406244D2444249B249224AEC
:1006A000924A024B056182808507B3861703CA967A
:1006B000BA96238066005DBF411106C622C426C2D9
:1006C0001D44EF00100F33658502B7470020190560
:1006D00023A4A7DAEF00F00D33658502110523AEE0
:1006E000A194EF00100D91473365F502B747002044
:1006F0000547B7460020B684138601969305E004AB
:100700000D0523A0A7DA23A0E1823747002023228A
:1007100087DA23A606DAB706002001473E849386CF
:1007200046094945931727003388C700232008004E
:10073000B69788C30507E317B7FE83A70182A9E729
:100740003725000013058576EF00100637250000D9
:1007500013058577EF00500583A5C4DA372500001F
:100760001305057B0127372500001305857EEF0063
:10077000B0031D446D36E31F85FE2244B24092440F
:10078000314541016F000072C131DD31ED33130598
:10079000400611255DB7411106C622C426C24AC0D3
:1007A000F123716513050520292DB707002083A5C6
:1007B0000707373500001305C5226D2537350000C2
:1007C0001305C523EF00407EDD3413054006E12309
:1007D0003735000013058524EF00007D5145652B5A
:1007E0001D449944373900001D3EE30F85FE2D3925
:1007F0003D36630785002536E31C95FE753DEDB754
:1008000013050925EF00407A193EE31F95FEE9BF65
:10081000B71702409843B706FFF841111367170056
:1008200098C3D84337060200758FD8C39843B706DC
:10083000F7FEFD16758F98C39843B706FCFFFD16AB
:10084000758F98C3D843B70681FFFD16758FD8C33F
:1008500037079F0098C702C402C69843C166558FE8
:1008600098C3B7160240130700509C42F18F3EC652
:10087000A24785073EC4B24781E7A247E397E7FE58
:10088000B71702409C431397E70063580708854752
:100890003EC6324785476310F708B72702409843A2
:1008A000B706C1FFFD161367070198C39843719BF4
:1008B00098C398431367270098C3B7170240D843DB
:1008C000D8C3D843D8C3D84313670740D8C3D84345
:1008D000758FD8C3D843B7061D00558FD8C33717B7
:1008E00002401C43B7060001D58F1CC3B717024056
:1008F000984393166700E3DD06FED843B71602401F
:10090000719BD8C3D84313672700D8C32147DC4263
:10091000B18BE39EE7FE4101828002C69DBF01A02C
:1009200001A001A001A001A001A001A001A001A0BF
:1009300001A001A001A001A001A001A001A001A0AF
:1009400001A001A001A001A001A001A001A001A09F
:1009500001A001A001A001A001A001A001A001A08F
:1009600001A001A001A001A001A001A001A001A07F
:1009700001A001A001A001A001A001A001A001A06F
:1009800001A001A001A001A001A001A001A001A05F
:1009900001A001A001A001A001A001A001A001A04F
:1009A00001A001A001A001A001A001A001A001A03F
:1009B00001A001A001A001A001A001A001A001A02F
:1009C00001A001A001A001A001A001A001A001A01F
:1009D00001A001A001A001A001A001A09701002099
:1009E000938141E9177100201301C161173500009F
:1009F0001305459397F5FF1F9385C5601386018105
:100A000063FAC5008322050023A055001105910556
:100A1000E3EAC5FE13850181973500209385C5392A
:100A20006377B500232005001105E36DB5FEFD4297
:100A3000739002BCFD4273904280B76200009382C3
:100A4000820873A0023097F2FFFF9382225F93E245
:100A5000320073905230EFF0BFDB970200009382B8
:100A6000C2D373901234730020309C4513F70701F2
:100A700013F8F70001C7D8413368E80083D50500B3
:100A800013F7F50F39C318418146854E3D4F930F3B
:100A9000800293028004214E3396DE00B3F8C50035
:100AA000631116039398260033131F011343F3FFBA
:100AB0003377E300B318180133E7E800639FF705C5
:100AC00050C98506E39AC6FD18C11307F00F637578
:100AD000B70454412146854E3D4F930F8002930247
:100AE0008004414EB398CE0033F715016392E802BB
:100AF0001317260001173313EF001343F3FFB376E8
:100B0000D3003317E800D98E639DF701232A15011E
:100B10000506E319C6FD54C18280E39457FA10C953
:100B20004DB7E39757FE23281501DDB708456D8DB6
:100B30003335A0008280371702405C439146B18B69
:100B40006385D700A1466386D706B7177A009387D7
:100B500007201CC1371602405C42370700201307EC
:100B600007009183BD8BBA9783C607001C41B3D79A
:100B7000D7005CC15442A1829D8ABA9683C6060002
:100B8000B3D6D70014C55442AD829D8A3697034729
:100B90000700B3D7E7005CC5584239839376370026
:100BA00013874180369703470700B3D7E7021CC974
:100BB00082805C4354434167C983F98E37F7FF1F36
:100BC0000327C770BD8B89071316170163480600FA
:100BD000454601476392C702C94739A80947638957
:100BE000E7023D476388E70241476388E7024546DD
:100BF00001476393C700C14785E6B746024083A615
:100C00000680C18A8DC6B7167A009386062025A075
:100C10000147D9B70547B547C5B70147BD47E9BF44
:100C2000B7160240D4421396E600E35E06FCB71600
:100C30003D0093860690B387D7021CC101DF1C419B
:100C4000858301BF99C5371702401C4F5D8D08CFC2
:100C50008280B7170240984F1345F5FF798D88CFF2
:100C6000828083560501F577FD17F58F83D66500E1
:100C7000397122DC06DED58F03D7C5002318F500B5
:100C80008356C500FD779387379FF58F83D6450040
:100C90002A842EC6D58F83D68500D58F83D6A5000E
:100CA000D58F2316F50083574501C207C18393F7FB
:100CB000F7CFD98F231AF5006808B53DB747014033
:100CC00093870780B245631EF404A2578356C4007D
:100CD0006547B387E702C206C186984163D506041B
:100CE00006070356C4004206B3D7E70213074006BF
:100CF0004186B3D6E702B3F7E702920663570602CE
:100D00008E0793872703B3D7E70213F77700B367FC
:100D1000D700C207C1832314F400F250625421614A
:100D20008280925765B70A076DBF920793872703A2
:100D3000B3D7E702BD8BD58FE9BF81C98357C50003
:100D40000967D98F2316F50082800357C500F9770C
:100D5000FD17F98FC5BF93F5F51F2312B5008280EB
:100D6000035505006D8D3335A0008280B707002044
:100D700083A7070737177A0013070720B3D7E702BF
:100D800093F7F70F2389F1801307803EB387E702BB
:100D90002398F1808280B7F700E0414798C303D7DA
:100DA000018181463306A70290CBD4CB98431367C9
:100DB000170298C3D843058B75DFD843799BD8C3F6
:100DC0008280797122D42A8411658545110506D661
:100DD000953D930700202312F100371501408D4700
:100DE0003EC44C00E147130505803EC6BD3922C80C
:100DF00037440140B70708000C08130504803ECCB7
:100E000002CA231E0100B13D130504808545353714
:100E1000B250225445618280011126CAB744014074
:100E200022CC4AC84EC606CEAE893289014493848C
:100E30000480634A2401F24062444A85D244424914
:100E4000B24905618280930500042685113F65DD66
:100E5000B38789008385070026850504C205C18103
:100E6000DD3DC1BF39713EDA2ED232D436D63AD802
:100E700042DC46DE9387818022CC804326CA06CEA0
:100E8000AA8409C41C4C99E322853D250C445410C6
:100E90002686228536C6EF00705EF2406244D24458
:100EA0002161828001119387818022CC804306CE0C
:100EB000AA8519C41C4C89E72AC62285F52BB245A0
:100EC000104422856244F24005616F1020400111F8
:100ED00026CA4AC806CE22CC4EC652C4AA842E893F
:100EE00001C51C4D91E3C92B9C4C804499E3268598
:100EF000E123972700009387273B631CF402C0403F
:100F00008357C400A18BB1C71C48A1C7FD59294A0A
:100F10001C4483450900FD17B1E91CC463DE0706C4
:100F20002286A9452685B522FD576308F502294585
:100F300035A097270000938727396314F400804475
:100F4000C1B79727000093872734E31BF4FAC04406
:100F500045BFA2852685F52A55D97D55F2406244C4
:100F6000D2444249B249224A056182801CC4050923
:100F700063D70700184C63CBE700638945011C4029
:100F80001387170018C02380B70059B7228626851B
:100F90000922E31F35F7D1B71C401387170018C08B
:100FA00029472380E70061B793878180AA8588431A
:100FB00039BF41119387818022C4804306C61C5CDF
:100FC0009DEB6145EF00A075B737CDAB08DC93878B
:100FD000E7301CC1B7176DE6938747235CC1B7E7BD
:100FE00005009387C7EE1CC5AD472316F5000547DE
:100FF000814718C95CC9105C3787954CB7F75158C1
:10100000144A484A1307D7F29387D742B387F602A8
:10101000B24022443305E5023E95B387E60233B77A
:10102000E6029386170014CA2A9733B5F6003A955C
:1010300048CA060505814101828035713ECBB7075C
:10104000008093C7F7FF3ECE3EC8C17793878720C5
:1010500032C536C73AC942CD46CF3ECA9387818052
:101060002AC42ACC884334012E862C0086DE36C260
:10107000EF005012A24723800700F6500D618280D6
:10108000AA8703C7050085078505A38FE7FE75FBC3
:101090008280011122CC26CA4AC806CE4EC6AA8436
:1010A0002E89328401C51C4D91E339219727000018
:1010B0009387871F6319F406C0401C4C1CC48357D8
:1010C000C400A18BC9C31C48BDCF1C4808409379FC
:1010D000F90F1379F90F1D8D5C486346F500A28561
:1010E0002685652C2DE51C440505FD171CC41C40F8
:1010F0001387170018C0238037015C486389A70055
:101100008357C400858B81CBA9476316F900A2855C
:10111000268561240DEDF24062444A85D24442495D
:10112000B24905618280972700009387E71963140D
:10113000F400804459B7972700009387E714E31E13
:10114000F4F6C0449DBFA285268521203DDD7D5952
:10115000D9B741119387818026C2844322C44AC0F3
:1011600006C62A892E8489C49C4C99E32685A92623
:101170009727000093874713631CF402C0400317AE
:10118000C40093170701C18393F68700B5EE93F669
:1011900007019DEEA5472320F900136707042316D6
:1011A000E4007D55B24022449244024941018280CC
:1011B00097270000938747116314F4008044C1B758
:1011C000972700009387470CE31BF4FAC04445BF00
:1011D000918B8DC74C5889C9930744046384F500EB
:1011E0004A859923232A04028357C400232204003A
:1011F00093F7B7FD2316F4001C481CC08357C400A6
:1012000093E787002316F4001C4881EF8357C4003E
:101210001307002093F707286385E700A2854A8516
:1012200085218357C40013F7170005C75C482324A2
:101230000400B307F0401CCC1C480145A5F78317F8
:10124000C40013F7070839DF93E707042316F400F7
:1012500089BF898B014791E3584818C4F1BF83D7F0
:10126000C500011122CC26CA06CE4AC84EC613F7C5
:101270008700AA842E8471EFD841634DE000B84105
:10128000634AE0000145F2406244D2444249B24917
:101290000561828058547DD703A9040093963701D5
:1012A00023A0040063DD060670488357C400918BB9
:1012B00099C75C401D8E5C5899C33C401D8E5C54A0
:1012C0000C50814626858297FD570357C400631D45
:1012D000F5009440F54763E8D706B7074020850737
:1012E000B3D7D700858BA5C31C48232204001CC09C
:1012F0009317370163D80700FD576314F5009C402E
:1013000091E368C84C5823A02401ADDD9307440441
:101310006384F50026850929232A0402A5B70C5009
:101320000146854626850297FD572A86E31FF5F676
:101330009C40A5DF75476385E70059476394E70440
:1013400023A0240181B7136707042316E4007D5509
:101350001DBF83A90501E38709F203A905008D8B51
:1013600023A0350133093941014791E3D84918C415
:10137000E35A20F11C540C50CA864E86268582976B
:101380006349A0008357C40093E707042316F400C1
:101390007DBFAA993309A940E1BF9C49B9CF01118A
:1013A00022CC06CE2A8411C51C4D81E72EC62922E7
:1013B000B24597270000938727EF639BF5004C40C9
:1013C0008397C50095C722856244F240056141BDFF
:1013D00097270000938747EF6394F5000C44CDB73F
:1013E00097270000938747EAE39CF5FC4C44C9BF6C
:1013F000F2406244014505618280014582804111CD
:1014000022C406C62A842316B5002317C50023204C
:101410000500232205002324050023220506232896
:101420000500232A0500232C0500214681451305CC
:10143000C505EFE0FFDC971700009387C7F45CD089
:1014400097170000938727F71CD4971700009387FE
:1014500067FB5CD497170000938727FE00D01CD849
:10146000B24022444101828097050000938525F314
:10147000A9A2411126C2130680069384F5FFB38406
:10148000C4024AC02E8922C406C693854407892611
:101490002A8401CD2320050023222501310508C41B
:1014A000138684068145EFE0BFD52285B2402244F1
:1014B00092440249410182801C4DADE3411106C6B0
:1014C00022C497070000938767FA1CD59387C180D1
:1014D0009C432324050423260504232805046314C0
:1014E000F50085471CCD2A841D2848C02285052883
:1014F00008C422852D2048C4484001469145013743
:1015000008440546A545E53D48440946C945C53D4D
:1015100085471CCCB2402244410182808280411127
:101520009387C18026C284434AC006C69C4C22C40D
:101530002A8999E326854937938484048044DC40D2
:10154000FD1763D607009C40B9CF8440C5BF031781
:10155000C40039E7C177850723220406232004004D
:1015600023220400232404005CC423280400232A2B
:101570000400232C0400214681451305C405EFE037
:101580003FC8232A0402232C040223240404232614
:1015900004042285B24022449244024941018280DF
:1015A0001304840671BF91454A85E13588C051FD19
:1015B000B1472320F9000144E9BF797122D44AD010
:1015C00052CC56CA5AC85EC606D626D24ECE2A8AF3
:1015D000AE8A130485040149054BFD5B09ECB2504A
:1015E00022544A8592540259F249624AD24A424BE5
:1015F000B24B45618280044483294400FD1963D4C1
:1016000009000040E1BF83D7C400637BFB008397E0
:10161000E40063877701A6855285829A3369A90021
:1016200093848406E1BF1971A6DAAE848395E50040
:10163000A2DC86DE328463DC050083D7C40023A0ED
:10164000060093F7070885E7930700401DA03008C0
:1016500036C6EF001065B246E34105FE7247BD672E
:10166000F98F7977BA9793B717009CC2F1BF9307A8
:1016700000041CC0F6506654D654014509618280AE
:1016800083D7C500011122CC06CE26CA4AC8898B51
:101690002E8489CF930774041CC01CC885475CC87E
:1016A000F2406244D24442490561828074003000B5
:1016B000AA84953FA2452A892685192A01ED831718
:1016C000C40013F7072069FFF19B93E72700231657
:1016D000F400C9B797070000938747D99CD4835774
:1016E000C40008C008C893E707082316F400A247FF
:1016F0005CC8B24791CF8315E4002685EF00905D6A
:1017000001C98357C400F19B93E717002316F40027
:101710008357C4003369F9002316240151B7938716
:101720008180AA8588436DA0DDC183A7C5FF4111D3
:1017300022C406C626C21384C5FF63D307003E94A5
:10174000AA84EF001071938741819C4381EF23228B
:10175000040023AA81802244B2402685924441019C
:101760006F00506F637EF40014403307D40063961B
:10177000E7009843DC43369718C05CC0D9BFBA87EE
:10178000D84319C3E37DE4FE94433386D700631F37
:1017900086001040B29694C33386D700E31DC7FA83
:1017A00010435843B29694C3D8C375B76375C40049
:1017B000B1479CC04DB71040B306C4006316D700B4
:1017C00014435843B29614C058C0C0C369B782804E
:1017D000011126CA93843500F19806CE22CC4AC85E
:1017E0004EC6A104B14763F5F404B14463E4B40404
:1017F0002A89EF0010669387418198433A8429E44F
:10180000938781819C4399E781454A85EF00703435
:1018100023ACA180A6854A85EF00B033FD5963193A
:101820003507B1472320F9004A85EF00B06229A0AF
:10183000E3DE04FAB1471CC10145F2406244D244E0
:101840004249B249056182801C40858F63CF0702FF
:10185000AD4663F6F6001CC03E9404C031A05C4067
:101860006313870223AAF1804A85EF00B05E130557
:10187000B4009307440061993307F5405DDF3A9463
:10188000898F1CC05DBF5CC3C5B72287404085BF40
:10189000130435007198E30285FCB305A4404A8522
:1018A000EF00302BE31B35FBADBF01114AC803A984
:1018B000850022CC52C45AC006CE26CA4EC656C295
:1018C0002E84328B368A63ED260983D7C50013F741
:1018D000074849C704408C495848AA8AB389B4408C
:1018E0008D44B384E4020947B3C4E40213871600AD
:1018F0004E9763F3E400BA8493F70740D1C3A685FB
:101900005685F9352A890DE5B14723A0FA0083579A
:10191000C4007D5593E707042316F400F2406244A7
:10192000D2444249B249224A924A024B056182801E
:101930000C484E86EF00F0418357C40093F7F7B789
:1019400093E707082316F4002328240144C84E997E
:10195000B38434412320240104C4528963732A01CF
:10196000528908404A86DA85EF00104A1C44014536
:10197000B38727411CC41C403E992320240179BF12
:1019800026865685EF00304D2A895DFD0C48568528
:10199000613B9DBF83D7C500717126D34AD14ECF1D
:1019A00006D722D552CD56CB5AC95EC762C566C38B
:1019B00093F70708AA892E89B284B1C39C49A1E391
:1019C0009305000436C629352320A9002328A90041
:1019D000B24615E1B14723A0F9007D55BA502A540B
:1019E0009A540A59FA496A4ADA4A4A4BBA4B2A4C7B
:1019F0009A4C4D61828093070004232AF9009307D3
:101A00000002A30CF1029307000302DA230DF10296
:101A100036CE930B5002972A0000938AEA8C054C2D
:101A2000294B26848347040099C3639C7709B30C30
:101A30009440638D0C00E6862686CA854E85B535B2
:101A4000FD576304F51AD256E69636DA834704004A
:101A5000638D0718FD579304140002D002D63ED2BE
:101A600002D4A301010682DC83C504001546568515
:101A7000EF00902C13841400825731E513F707010F
:101A800009C713070002A301E10613F7870009C77E
:101A90001307B002A301E10683C604001307A002E6
:101AA000638BE602B257268481462546034704002D
:101AB00093051400130707FD6374E6068DC63ED632
:101AC0001DA0050485B7330555413315AC00C98FFA
:101AD0003ED0A28451BF724793064700184336CECA
:101AE000634907023AD6034704009307E002631FE5
:101AF000F704034714009307A002631BF702F247A1
:101B00000904138747009C433ACE63C107023ED2C3
:101B100035A83307E04093E727003AD63ED0E1B737
:101B2000B387670385462E84BA9749B7FD57C5B773
:101B3000050402D2814681472546034704009305E8
:101B40001400130707FD6378E606F1F283450400ED
:101B50000D46171500001305A579EF00F01D11CDF6
:101B6000971700009387C7781D8D93070004B397DC
:101B7000A700025505045D8D2AD08345040019464F
:101B8000171500001305057793041400230CB10208
:101B9000EF00901A25C597E7FFFF9387A74695E7C3
:101BA0000257F2471377071009CF91073ECED2575D
:101BB000D2973EDABDB5B387670385462E84BA97C0
:101BC000ADBF9D07E19BA107D5B778089706000038
:101BD0009386E6CD4A860C104E8597000000E700FC
:101BE0000000FD572A8AE314F5FC8357C9007D5590
:101BF00093F70704E39407DE5255CDB378089706B0
:101C000000009386C6CA4A860C104E852129D1BF92
:101C10001C46FD171CC663DA0700184E63C5E700B3
:101C2000A9476394F5006FF0CFC61C422E85138739
:101C3000170018C22380B7008280011122CC26CA67
:101C40004AC84EC652C406CE2A89AE893284B3042D
:101C5000D6007D5A63149400014509A88345040009
:101C60004E864A8575370504E31645FFF240624407
:101C7000D2444249B249224A05618280357122CD5F
:101C800026CB4AC94EC706CF52C556C35AC1DEDE5F
:101C9000E2DCE6DAAA89AE843289368409C51C4DB5
:101CA00099E3EFF07F81971700009387E75F639CCC
:101CB000F40C83A4490083D7C400A18BFDC79C48C2
:101CC000EDC793070002A304F1029307000302D2B9
:101CD0002305F10222C6930B5002971A0000938A43
:101CE000AA60054C294B4A848347040099C3639139
:101CF000770FB30C2441638D0C00E6864A86A685D7
:101D00004E85253FFD576307F51E9256E69636D25F
:101D1000834704006380071EFD571309140002C89F
:101D200002CE3ECA02CCA309010482D48345090035
:101D300015465685EF00500013041900C24759E9B3
:101D400013F7070109C713070002A309E10413F7FA
:101D5000870009C71307B002A309E10483460900FD
:101D60001307A0026380E608F2474A8481462546AD
:101D70000347040093051400130707FD6379E60A7F
:101D8000B5CA3ECE85A8971700009387E7536395A1
:101D9000F40083A4890005B7971700009387C74E06
:101DA000E39BF4F083A4C90039B7A6854E85EFF014
:101DB0004FBA01D97D55FA406A44DA444A49BA49D2
:101DC0002A4A9A4A0A4BF65B665CD65C0D618280B1
:101DD000050419BF330555413315AC00C98F3EC802
:101DE0002289A9B7324793064700184336C663498C
:101DF00007023ACE034704009307E002631FF7048B
:101E0000034714009307A002631BF702B2470904BB
:101E1000138747009C433AC663C107023ECA35A8F0
:101E20003307E04093E727003ACE3EC8E1B7B387D7
:101E3000670385462E84BA9725BFFD57C5B70504AD
:101E400002CA8146814725460347040093051400D2
:101E5000130707FD6376E606F1F2834504000D469D
:101E6000171500001305C548C12D11CD97170000A7
:101E7000938707481D8D93070004B397A700424539
:101E800005045D8D2AC88345040019461715000016
:101E900013054546130914002304B102712D3DC1F9
:101EA00097E7FFFF9387071695E74247B2471377F7
:101EB000071009CF91073EC69257D2973ED225B55B
:101EC000B387670385462E84BA97BDBF9D07E19B04
:101ED000A107D5B7780097060000938646D62686D8
:101EE0000C084E8597000000E7000000FD572A8A85
:101EF000E314F5FC83D7C40093F70704E39C07EAD7
:101F0000125555BD780097060000938646D3268665
:101F10000C084E85012AD9BF797156CA9C49BA8AE4
:101F2000984522D426D24ECE52CC06D64AD05AC894
:101F30005EC6AA892E84B284368A63D3E700BA8744
:101F40009CC00347340419C385079CC01C4093F709
:101F5000070281C79C4089079CC0032904001379AC
:101F60006900631A0900130B9401FD5B5C449840FF
:101F7000998F634CF9041C408346340493F707029D
:101F8000B336D000A5EB13063404D2854E85829A71
:101F9000FD576303F5041C4011469840998B544447
:101FA00081446397C700B384E64063D3040081444F
:101FB0001C4418486354F700998FBE940149690482
:101FC0007D5B63982405014509A885465A86D2851C
:101FD0004E85829A631E75017D55B25022549254EB
:101FE0000259F249624AD24A424BB24B4561828061
:101FF0000509ADBF3307D40013060003A301C704CE
:102000000347540493871600A2978906A381E70427
:102010009DBF85462286D2854E85829AE30E65FB5A
:10202000050945B7797122D426D24AD04ECE06D6BC
:1020300052CC56CA5AC8B68983C685019307900602
:102040003289AA842E8413863504638DF60263E2F6
:10205000D706930780056387F61863EDD700638082
:10206000062293073004638EF60A930A24042301A0
:10207000D404C9A0930730066385F60A9307400687
:10208000E395F6FE1C40084393F6070893054500C8
:10209000C5C61C410CC363D807001307D002B307A1
:1020A000F040A301E40497160000938626252947F3
:1020B0006DA8930700076383F61663E5D7029307BD
:1020C000E006638AF6189307F006E390F6FA0C40F0
:1020D0001C4313F80508138547006307080608C367
:1020E0009C438DA893075007E383F6FE9307800770
:1020F000638AF61293073007E399F6F61C43D04142
:1021000081459386470014C383AA070056852D2175
:1021100001C53305554148C05C401CC8A3010404F7
:1021200071A81C43930A2404938647009C4314C35C
:102130002301F4048547D5B793F607041C410CC36B
:10214000B9DAC207C18781BF93F5050408C3C9D9AD
:1021500083D707001307F0066387E60E9716000083
:102160009386C6192947A30104044C400CC463C5D7
:10217000050008406D9908C099E3B28A91CDB28AF2
:10218000B3F5E702FD1AB69583C505002380BA00B2
:10219000B3D5E70263FFE70AA147631EF7001C40BF
:1021A000858B91CB58401C4863C7E7009307000319
:1021B000A38FFAFEFD1A3306564110C84E87CA8611
:1021C0007000A2852685893B7D5A631E450B7D558F
:1021D000B250225492540259F249624AD24A424BB6
:1021E00045618280A382D50497160000938606116C
:1021F0000C40084313F805081C411105630D080243
:1022000008C313F7150001C793E505020CC0414749
:10221000B9FB0C4093F5F5FD0CC0B1B79C4193E7B9
:1022200007029CC193078007A302F40497160000DD
:102230009386060E75BF13F8050408C3E30308FC74
:10224000C207C1837DBF971600009386260B2147E6
:1022500019BFAE8735B794411C43CC4913F8060823
:10226000138547006306080008C39C438CC301A87C
:1022700008C393F606049C43F5DA2390B70023289D
:102280000400B28A25BF14485686CA8526858299DD
:10229000E30F45F31C40898B8DE7B2474844E3596F
:1022A000F5F23E8535B785465686CA8526858299DC
:1022B000E30F65F1050A5C443247998FE345FAFE66
:1022C000E9BF014A930A94017D5BF5B7011122CC65
:1022D00006CE2A8409C91C4D99E732C62EC4EFF0F8
:1022E000AF9D3246A245971700009387E7FB631620
:1022F000F60250401C46FD171CC663D00704184E5A
:1023000063C7E70093F7F50F29476398E702228533
:102310006244F24005616FE0DFD7971700009387B2
:10232000A7FA6314F6001044F1B7971700009387DB
:10233000A7F5E311F6FC504475BF1C4213F5F50FE9
:102340001387170018C22380B700F240624405616A
:102350008280411122C42A842E859727002023AB36
:1023600007A406C6C526FD576319F5009727002068
:10237000938747A49C4391C31CC0B24022444101AF
:102380008280411122C42E848395E50006C6392E31
:10239000634905007C48AA977CC8B24022444101A9
:1023A00082808357C4007D777D17F98F2316F40050
:1023B000EDB783D7C500011122CC26CA4AC84EC644
:1023C00006CE93F70710AA842E843289B68991C766
:1023D0008395E5008946014635228357C4007D7701
:1023E0007D17F98F2316F4008315E4006244F24050
:1023F000CE864A86B24942492685D24405613DA827
:10240000411122C42E848395E50006C6E528FD57B8
:102410000357C400631BF500FD77FD17F98F2316E2
:10242000F400B2402244410182808567D98F23168F
:10243000F40068C8FDB78395E50025A8411122C4C2
:102440002A842E85B28536869727002023A40796F6
:1024500006C6EFE07F9CFD576319F5009727002023
:10246000938747959C4391C31CC0B24022444101CD
:102470008280411122C42A842E859727002023AB15
:10248000079206C6852CFD576319F5009727002093
:10249000938747929C4391C31CC0B24022444101A0
:1024A0008280411122C42A842E85B285972700207C
:1024B00023A2079006C6B924FD576319F500972794
:1024C00000209387278F9C4391C31CC0B2402244B5
:1024D00041018280411122C42A842E859727002041
:1024E00023AA078C06C63D24FD576319F5009727DC
:1024F00000209387278C9C4391C31CC0B240224488
:1025000041018280411122C42A842E85B2853686FB
:102510009727002023A0078A06C62924FD576319A0
:10252000F500972700209387E7889C4391C31CC040
:10253000B24022444101828093F5F50F2A9663143C
:10254000C5000145828083470500E38DB7FE050580
:10255000FDB7B3C7A5008D8B3307C50081E78D4755
:1025600063EEC700AA876370E50A83C60500850786
:102570008505A38FD7FEE3EAE7FE828093763500D8
:10258000AA8791CA83C6050085078505A38FD7FE54
:1025900093F63700FDB79376C7FF138606FE63F008
:1025A000C70683A3050083A2450083AF850003AF60
:1025B000C50083AE050103AE450103A3850183A8D1
:1025C000C5019385450223A0770003A8C5FF23A278
:1025D000570023A4F70123A6E70123A8D70123AAC4
:1025E000C70123AC670023AE17019387470223AED0
:1025F00007FF75B790419107910523AEC7FEE3EB46
:10260000D7FEE3E4E7F6828063F3A504B386C50052
:10261000637FD5029345F6FF8147FD176393F5006D
:1026200082803387F600034807003387C7002A9764
:1026300023000701DDB73387F50083460700330722
:10264000F50085072300D700E317F6FE8280814757
:10265000E5BF8280828081E5B2856FF06F970111BE
:1026600022CC06CE26CA4AC84EC6328401EEEFF00E
:10267000AF8B0149F24062444A85D2444249B24993
:1026800005618280AE84AA89A1282689E37485FE2B
:10269000A2854E85EFF0CF932A8969DDA685228633
:1026A0004D3DA6854E85EFF02F88E9B7411122C434
:1026B0002A842E85B28536869717002023AC076EB4
:1026C00006C68D28FD576319F500971700209387DC
:1026D000676E9C4391C31CC0B2402244410182807A
:1026E00083A7C5FF1385C7FF63D50700AA959C4143
:1026F0003E9582809307800517170020232CF76AE8
:102700007D55828093078005171700202324F76AE0
:102710007D5582809307800517170020232CF768CA
:102720000145828093078005171700202324F7684E
:102730007D5582809307800517170020232CF766AC
:102740007D5582809387C1819C4391C73E9523AE7E
:10275000A1803E858280971700209387E7653E958C
:1027600023AEA1803E8582800C0D0A0D0A0D0A0D54
:102770000A0D0A0D0000000020202020202020202B
:102780002020202020202020202020202020202049
:102790002020203D3D3D3D3D3D3D3D47414D4520B7
:1027A0004F5645523D3D3D3D3D3D3D3D0D000000F8
:1027B0002020202020202020202020202020202019
:1027C00020202020202020202020203D3D3D3D3D78
:1027D0003D3D53434F52453A20253034643D3D3D05
:1027E0003D3D3D3D0D0A00002020202020202020DE
:1027F00020202020202020202020202020202020D9
:102800002020203D3D507265737320535732207451
:102810006F20636F6E74696E75653D3D0D0000003D
:10282000E2948CE29480E29480E29480E29480E2EC
:102830009480E29480E29480E29480E29480E29436
:1028400080E29480E29480E29480E29480E294803A
:10285000E29480E29480E29480E29480E29480E2C8
:102860009480E29480E29480E29480E29480E29406
:1028700080E29480E29480E29480E29480E294800A
:10288000E29480E29480E2948053636F72653A250B
:10289000303464E29480E29480E29480E29480E2B6
:1028A0009480E29480E29480E29480E29480E294C6
:1028B00080E29480E29480E29480E29480E29480CA
:1028C000E29480E29480E29480E29480E29480E258
:1028D0009480E29480E29480E29480E29480E29496
:1028E00080E29480E29480E29480E29480E294809A
:1028F000E29480E29480E29480E294900D0A0000D9
:102900007C2020202020202020202020202020206B
:1029100020202020202020202020202020202020B7
:1029200020202020202020202020202020202020A7
:102930002020202020202020202020202020202097
:102940002020202020202020202020202020207C2B
:102950000D0A0000E29494E29480E29480E2948074
:10296000E29480E29480E29480E29480E29480E2B7
:102970009480E29480E29480E29480E29480E294F5
:1029800080E29480E29480E29480E29480E29480F9
:10299000E29480E29480E29480E29480E29480E287
:1029A0009480E29480E29480E29480E29480E294C5
:1029B00080E29480E29480E29480E29480E29480C9
:1029C000E29480E29480E29480E29480E29480E257
:1029D0009480E29480E29480E29480E29480E29495
:1029E00080E29480E29480E29480E29480E2948099
:1029F000E29480E29480E29480E29480E29480E227
:102A00009480E29480E29480E29480E29480E29464
:102A100080E29480E29480E29480E29480E2948068
:102A2000E29480E29480E29480E29480E29480E2F6
:102A30009480E29480E29480E29480E29480E29434
:102A400080E294980D0A0000257300000C0D000030
:102A5000E2948CE29480E29480E29480E29480E2BA
:102A60009480E29480E29480E29480E29480E29404
:102A700080E29480E29480E29480E29480E2948008
:102A8000E29480E29480E29480E29480E29480E296
:102A90009480E29480E29480E29480E29480E294D4
:102AA00080E29480E29480E29480E29480E29480D8
:102AB000E29480E29480E2948053636F72653A30CE
:102AC000303030E29480E29480E29480E29480E2BC
:102AD0009480E29480E29480E29480E29480E29494
:102AE00080E29480E29480E29480E29480E2948098
:102AF000E29480E29480E29480E29480E29480E226
:102B00009480E29480E29480E29480E29480E29463
:102B100080E29480E29480E29480E29480E2948067
:102B2000E29480E29480E29480E294900D0AE29430
:102B30008220202020202020202020202020202033
:102B40002020202020202020202020202020202085
:102B50002020202020202020202020202020202075
:102B60002020202020202020202020202020202065
:102B7000202020202020202020202020202020E293
:102B800094820D0AE2948220202020202020202000
:102B90002020202020202020202020202020202035
:102BA0002020202020202020202020202020202025
:102BB0002020202020202020202020202020202015
:102BC0002020202020202020202020202020202005
:102BD0002020202020E294820D0AE29482202020EE
:102BE000202020202020205F5F5F5F5F205F20206B
:102BF00020202020202020202020202020202020D5
:102C0000202020202020202020205F5F5F5F205F89
:102C100020202020205F205F202020202020202036
:102C20002020202020202020202020E294820D0A35
:102C3000E294822020202020202020207C20205F61
:102C40005F5F7C207C205F5F205F205F205F5F20D4
:102C5000205F205F5F20205F2020205F2020202F2A
:102C6000205F5F5F7C207C5F5F20285F29207C5F86
:102C7000205F2020205F20202020202020202020D6
:102C800020E294820D0AE29482202020202020203D
:102C900020207C207C5F20207C207C2F205F6020F7
:102CA0007C20275F205C7C20275F205C7C207C20B0
:102CB0007C207C207C207C2020207C20275F205CC6
:102CC0007C207C205F5F7C207C207C207C2020205E
:102CD00020202020202020E294820D0AE2948220ED
:102CE00020202020202020207C20205F7C207C2091
:102CF0007C20435F7C207C207C5F29207C207C5FC3
:102D000029207C207C5F7C207C207C207C5F5F5F96
:102D10007C207C207C207C207C207C5F7C207C5F55
:102D20007C207C20202020202020202020E2948253
:102D30000D0AE294822020202020202020207C5F89
:102D40007C2020207C5F7C5C5F5F2C5F7C202E5F82
:102D50005F2F7C202E5F5F2F205C5F5F2C207C200C
:102D6000205C5F5F5F5F7C5F7C207C5F7C5F7C5C66
:102D70005F5F7C5C5F5F2C5F7C2020202020202018
:102D8000202020E294820D0AE2948220202020203C
:102D90002020202020202020202020202020202033
:102DA00020207C5F7C2020207C5F7C202020207CD9
:102DB0005F5F5F2F20202020202020202020202047
:102DC0002020202020202020202020202020202003
:102DD000202020202020202020E294820D0AE2944E
:102DE0008220202020202020202020202020202081
:102DF00020202020202020202020202020202020D3
:102E000020202020202020202020202020202020C2
:102E100020202020202020202020202020202020B2
:102E2000202020202020202020202020202020E2E0
:102E300094820D0AE294822020202020202020204D
:102E40002020202020202020202020202020202082
:102E50002020202020202020202020202020202072
:102E60002020202020202020202020202020202062
:102E70002020202020202020202020202020202052
:102E80002020202020E294820D0AE294822020203B
:102E90002020202020202020202020202020202032
:102EA0002020202020202020202020202020202022
:102EB0002020202020202020202020202020202012
:102EC0002020202020202020202020202020202002
:102ED0002020202020202020202020E294820D0A83
:102EE000E29482202020202020202020202020204A
:102EF00020202020202020202020202020202020D2
:102F0000507265737320275357312720746F2053F5
:102F10007461727420202020202020202020202076
:102F200020202020202020202020202020202020A1
:102F300020E294820D0AE29482202020202020208A
:102F40002020202020202020202020202020202081
:102F50002020202020202020202753573227207493
:102F60006F206578697420202020202020202020D8
:102F70002020202020202020202020202020202051
:102F800020202020202020E294820D0AE29482203A
:102F90002020202020202020202020202020202031
:102FA0002020202020202020202020202020202021
:102FB0002020202020202020202020202020202011
:102FC0002020202020202020202020202020202001
:102FD00020202020202020202020202020E2948259
:102FE0000D0AE29482202020202020202020202072
:102FF00020202020202020202020202020202020D1
:1030000020202020202020202020202020202020C0
:1030100020202020202020202020202020202020B0
:1030200020202020202020202020202020202020A0
:10303000202020E294820D0AE29482202020202089
:103040002020202020202020202020202020202080
:103050002020202020202020202020202020202070
:103060002020202020202020202020202020202060
:103070002020202020202020202020202020202050
:10308000202020202020202020E294820D0AE2949B
:1030900082202020202020202020202020202020CE
:1030A000202020202020202020202052756E206FFC
:1030B0006E206F70656E43482043686974752042C6
:1030C0006F617264202020202020202020202020DA
:1030D000202020202020202020202020202020E22E
:1030E00094820D0AE294822020202020202020209B
:1030F00020202020202020202020202020202020D0
:1031000020202020202020566572694D616B6520AB
:103110003232303220202020202020202020202069
:10312000202020202020202020202020202020209F
:103130002020202020E294820D0AE29494E29480E0
:10314000E29480E29480E29480E29480E29480E2CF
:103150009480E29480E29480E29480E29480E2940D
:1031600080E29480E29480E29480E29480E2948011
:10317000E29480E29480E29480E29480E29480E29F
:103180009480E29480E29480E29480E29480E294DD
:1031900080E29480E29480E29480E29480E29480E1
:1031A000E29480E29480E29480E29480E29480E26F
:1031B0009480E29480E29480E29480E29480E294AD
:1031C00080E29480E29480E29480E29480E29480B1
:1031D000E29480E29480E29480E29480E29480E23F
:1031E0009480E29480E29480E29480E29480E2947D
:1031F00080E29480E29480E29480E29480E2948081
:10320000E29480E29480E29480E29480E29480E20E
:103210009480E29480E29480E29480E29480E2944C
:1032200080E29480E29480E294980D005379737464
:10323000656D436C6B3A25640D0A000057434820C6
:103240005E565E0D000000005374617274200D0024
:103250000C0D0A627965206279657E0D0A0D0A50AF
:10326000726573732053573120746F2072657475C3
:10327000726E20746F207468652067616D652E0D15
:10328000000000000000000000000000000000003E
:10329000000000000000000000000000000000002E
:1032A000000000000000000000000000000000001E
:1032B000000000000000000000000000000000000E
:1032C00000000000000000000000000000000000FE
:1032D00000000000000000000000000000000000EE
:1032E00000000000232D302B20000000686C4C00F3
:1032F000656667454647000030313233343536372E
:1033000038394142434445460000000030313233F1
:103310003435363738396162636465660000000011
:10332000000000000102030401020304060708096B
:1033300000000000A4320000C4320000843200000B
:10334000000000000000000000000000000000007D
:10335000000000000000000000000000000000006D
:10336000000000000000000000000000000000005D
:10337000000000000000000000000000000000004D
:10338000000000000000000000000000000000003D
:1033900000A24A04020406081000002010000020C9
:00000001FF
