
CH32V307VCT6.elf:     file format elf32-littleriscv
CH32V307VCT6.elf
architecture: riscv:rv32, flags 0x00000112:
EXEC_P, HAS_SYMS, D_PAGED
start address 0x00000000

Program Header:
    LOAD off    0x00001000 vaddr 0x00000000 paddr 0x00000000 align 2**12
         filesz 0x00003320 memsz 0x00003320 flags r-x
    LOAD off    0x00005000 vaddr 0x20000000 paddr 0x00003320 align 2**12
         filesz 0x00000080 memsz 0x00003db4 flags rw-
    LOAD off    0x00005800 vaddr 0x20007800 paddr 0x20007800 align 2**12
         filesz 0x00000000 memsz 0x00000800 flags rw-

Sections:
Idx Name          Size      VMA       LMA       File off  Algn
  0 .init         00000038  00000000  00000000  00001000  2**1
                  CONTENTS, ALLOC, LOAD, READONLY, CODE
  1 .vector       000001c8  00000038  00000038  00001038  2**1
                  CONTENTS, ALLOC, LOAD, READONLY, CODE
  2 .text         00003120  00000200  00000200  00001200  2**2
                  CONTENTS, ALLOC, LOAD, READONLY, CODE
  3 .fini         00000000  00003320  00003320  00005080  2**0
                  CONTENTS, ALLOC, LOAD, CODE
  4 .dalign       00000000  20000000  20000000  00005080  2**0
                  CONTENTS
  5 .dlalign      00000000  00003320  00003320  00005080  2**0
                  CONTENTS
  6 .data         00000080  20000000  00003320  00005000  2**2
                  CONTENTS, ALLOC, LOAD, DATA
  7 .bss          00003d34  20000080  000033a0  00005080  2**2
                  ALLOC
  8 .stack        00000800  20007800  20007800  00005800  2**0
                  ALLOC
  9 .debug_info   00007c5b  00000000  00000000  00005080  2**0
                  CONTENTS, READONLY, DEBUGGING
 10 .debug_abbrev 00001792  00000000  00000000  0000ccdb  2**0
                  CONTENTS, READONLY, DEBUGGING
 11 .debug_aranges 00000488  00000000  00000000  0000e470  2**3
                  CONTENTS, READONLY, DEBUGGING
 12 .debug_ranges 000004d0  00000000  00000000  0000e8f8  2**3
                  CONTENTS, READONLY, DEBUGGING
 13 .debug_line   00005899  00000000  00000000  0000edc8  2**0
                  CONTENTS, READONLY, DEBUGGING
 14 .debug_str    000016a0  00000000  00000000  00014661  2**0
                  CONTENTS, READONLY, DEBUGGING
 15 .comment      00000033  00000000  00000000  00015d01  2**0
                  CONTENTS, READONLY
 16 .debug_frame  00001568  00000000  00000000  00015d34  2**2
                  CONTENTS, READONLY, DEBUGGING
 17 .debug_loc    00001dd6  00000000  00000000  0001729c  2**0
                  CONTENTS, READONLY, DEBUGGING
 18 .stab         00000084  00000000  00000000  00019074  2**2
                  CONTENTS, READONLY, DEBUGGING
 19 .stabstr      00000117  00000000  00000000  000190f8  2**0
                  CONTENTS, READONLY, DEBUGGING
SYMBOL TABLE:
00000000 l    d  .init	00000000 .init
00000038 l    d  .vector	00000000 .vector
00000200 l    d  .text	00000000 .text
00003320 l    d  .fini	00000000 .fini
20000000 l    d  .dalign	00000000 .dalign
00003320 l    d  .dlalign	00000000 .dlalign
20000000 l    d  .data	00000000 .data
20000080 l    d  .bss	00000000 .bss
20007800 l    d  .stack	00000000 .stack
00000000 l    d  .debug_info	00000000 .debug_info
00000000 l    d  .debug_abbrev	00000000 .debug_abbrev
00000000 l    d  .debug_aranges	00000000 .debug_aranges
00000000 l    d  .debug_ranges	00000000 .debug_ranges
00000000 l    d  .debug_line	00000000 .debug_line
00000000 l    d  .debug_str	00000000 .debug_str
00000000 l    d  .comment	00000000 .comment
00000000 l    d  .debug_frame	00000000 .debug_frame
00000000 l    d  .debug_loc	00000000 .debug_loc
00000000 l    d  .stab	00000000 .stab
00000000 l    d  .stabstr	00000000 .stabstr
00000000 l    df *ABS*	00000000 ./Startup/startup_ch32v30x.o
00000038 l       .vector	00000000 _vector_base
00000000 l    df *ABS*	00000000 ch32v30x_it.c
00000000 l    df *ABS*	00000000 flappyBird.c
00000000 l    df *ABS*	00000000 main.c
00000000 l    df *ABS*	00000000 system_ch32v30x.c
00000000 l    df *ABS*	00000000 ch32v30x_gpio.c
00000000 l    df *ABS*	00000000 ch32v30x_rcc.c
20000000 l     O .data	00000010 APBAHBPrescTable
20000074 l     O .data	00000004 ADCPrescTable
00000000 l    df *ABS*	00000000 ch32v30x_usart.c
00000000 l    df *ABS*	00000000 debug.c
20000080 l     O .bss	00000002 p_ms
20000082 l     O .bss	00000001 p_us
00000000 l    df *ABS*	00000000 printf.c
00000000 l    df *ABS*	00000000 putchar.c
00000000 l    df *ABS*	00000000 puts.c
00000000 l    df *ABS*	00000000 rand.c
00000000 l    df *ABS*	00000000 sprintf.c
00000000 l    df *ABS*	00000000 strcpy.c
00000000 l    df *ABS*	00000000 wbuf.c
00000000 l    df *ABS*	00000000 wsetup.c
00000000 l    df *ABS*	00000000 fflush.c
00000000 l    df *ABS*	00000000 findfp.c
000013fe l     F .text	0000006a std
00000000 l    df *ABS*	00000000 fwalk.c
00000000 l    df *ABS*	00000000 makebuf.c
00000000 l    df *ABS*	00000000 malloc.c
00000000 l    df *ABS*	00000000 nano-mallocr.c
00000000 l    df *ABS*	00000000 nano-mallocr.c
00000000 l    df *ABS*	00000000 nano-vfprintf.c
00000000 l    df *ABS*	00000000 nano-vfprintf.c
00001c10 l     F .text	0000002a __sfputc_r
00000000 l    df *ABS*	00000000 nano-vfprintf_i.c
00000000 l    df *ABS*	00000000 putc.c
00000000 l    df *ABS*	00000000 sbrkr.c
00000000 l    df *ABS*	00000000 stdio.c
00000000 l    df *ABS*	00000000 writer.c
00000000 l    df *ABS*	00000000 closer.c
00000000 l    df *ABS*	00000000 fstatr.c
00000000 l    df *ABS*	00000000 isattyr.c
00000000 l    df *ABS*	00000000 lseekr.c
00000000 l    df *ABS*	00000000 memchr.c
00000000 l    df *ABS*	00000000 memcpy.c
00000000 l    df *ABS*	00000000 memmove.c
00000000 l    df *ABS*	00000000 mlock.c
00000000 l    df *ABS*	00000000 nano-mallocr.c
00000000 l    df *ABS*	00000000 readr.c
00000000 l    df *ABS*	00000000 nano-mallocr.c
00000000 l    df *ABS*	00000000 close.c
00000000 l    df *ABS*	00000000 fstat.c
00000000 l    df *ABS*	00000000 isatty.c
00000000 l    df *ABS*	00000000 lseek.c
00000000 l    df *ABS*	00000000 read.c
00000000 l    df *ABS*	00000000 sbrk.c
2000008c l     O .bss	00000004 heap_end.1520
00000000 l    df *ABS*	00000000 impure.c
20000010 l     O .data	00000060 impure_data
00000000 l    df *ABS*	00000000 reent.c
000026e0 g     F .text	00000014 _malloc_usable_size_r
0000093c  w      .text	00000000 EXTI2_IRQHandler
00000ea4 g     F .text	0000002a putchar
00000986  w      .text	00000000 TIM8_TRG_COM_IRQHandler
00000988  w      .text	00000000 TIM8_CC_IRQHandler
000024d4 g     F .text	00000030 _isatty_r
00001080 g     F .text	00000012 strcpy
00000ece g     F .text	000000da _puts_r
00002504 g     F .text	00000034 _lseek_r
000009be  w      .text	00000000 UART8_IRQHandler
00000470 g     F .text	00000106 gameProcess
000002ae g     F .text	00000070 GPIO_INIT
00000e64 g     F .text	00000040 printf
20000870 g       .data	00000000 __global_pointer$
00000962  w      .text	00000000 TIM1_CC_IRQHandler
00002400 g     F .text	00000036 __sseek
000014b8 g     F .text	00000066 __sinit
00001092 g     F .text	000000c0 __swbuf_r
000002ac g     F .text	00000002 HardFault_Handler
20000090 g     O .bss	00000004 birdAlive
00001472 g     F .text	00000046 __sfmoreglue
00002654 g     F .text	00000002 __malloc_unlock
00000998  w      .text	00000000 TIM6_IRQHandler
00000928  w      .text	00000000 SysTick_Handler
0000092e  w      .text	00000000 PVD_IRQHandler
0000098e  w      .text	00000000 SDIO_IRQHandler
00002608 g     F .text	0000004a memmove
000009c0  w      .text	00000000 TIM9_BRK_IRQHandler
000009d4  w      .text	00000000 DMA2_Channel8_IRQHandler
000002a8 g     F .text	00000004 NMI_Handler
0000031e g     F .text	0000010a Basic_Key_Handle
000009ae  w      .text	00000000 CAN2_RX1_IRQHandler
0000093e  w      .text	00000000 EXTI3_IRQHandler
00000448 g     F .text	00000028 gameInput
000009b6  w      .text	00000000 USBHS_IRQHandler
0000092a  w      .text	00000000 SW_handler
00000d60 g     F .text	0000000c USART_GetFlagStatus
000009d6  w      .text	00000000 DMA2_Channel9_IRQHandler
000024a2 g     F .text	00000032 _fstat_r
000009ce  w      .text	00000000 TIM10_CC_IRQHandler
20003db0 g     O .bss	00000004 errno
20000080 g       .bss	00000000 _sbss
00000800 g       *ABS*	00000000 __stack_size
00000dc2 g     F .text	00000056 USART_Printf_Init
000006b8 g     F .text	000000de mainGame
00000428 g     F .text	00000020 showMainMenu
00002552 g     F .text	000000b6 memcpy
00001468 g     F .text	0000000a _cleanup_r
00001994 g     F .text	0000027c _svfprintf_r
00000938  w      .text	00000000 EXTI0_IRQHandler
0000096e  w      .text	00000000 I2C2_EV_IRQHandler
000009cc  w      .text	00000000 TIM10_TRG_COM_IRQHandler
00000fa8 g     F .text	0000000a puts
20000070 g     O .data	00000004 SystemCoreClock
0000171e g     F .text	0000000a malloc
00002704 g     F .text	00000010 _fstat
00000038 g       .init	00000000 _einit
20000094 g     O .bss	00000138 pipeSpace
00000c44 g     F .text	0000001e RCC_APB2PeriphClockCmd
000009b0  w      .text	00000000 CAN2_SCE_IRQHandler
00000950  w      .text	00000000 ADC1_2_IRQHandler
200001cc g     O .bss	00000004 nextPipeHeight
00000a6a g     F .text	000000c2 GPIO_Init
00000926  w      .text	00000000 Break_Point_Handler
00000972  w      .text	00000000 SPI1_IRQHandler
00000d3a g     F .text	0000001c USART_Cmd
00002352 g     F .text	00000030 _sbrk_r
00000930  w      .text	00000000 TAMPER_IRQHandler
000026ac g     F .text	00000034 _read_r
000009ac  w      .text	00000000 CAN2_RX0_IRQHandler
00000984  w      .text	00000000 TIM8_UP_IRQHandler
00000922  w      .text	00000000 Ecall_M_Mode_Handler
00002714 g     F .text	00000010 _isatty
2000007c g     O .data	00000004 _global_impure_ptr
00002656 g     F .text	00000056 _realloc_r
0000099e  w      .text	00000000 DMA2_Channel2_IRQHandler
00000948  w      .text	00000000 DMA1_Channel4_IRQHandler
00002744 g     F .text	00000024 _sbrk
000009c2  w      .text	00000000 TIM9_UP_IRQHandler
0000097a  w      .text	00000000 USART3_IRQHandler
00000932  w      .text	00000000 RTC_IRQHandler
20003db4 g       .bss	00000000 _ebss
0000094e  w      .text	00000000 DMA1_Channel7_IRQHandler
00000956  w      .text	00000000 CAN1_RX1_IRQHandler
200001d0 g     O .bss	00000138 pipeHeight
00000d6c g     F .text	0000002a Delay_Init
000009b8  w      .text	00000000 DVP_IRQHandler
00000996  w      .text	00000000 UART5_IRQHandler
000022cc g     F .text	00000086 _putc_r
00000968  w      .text	00000000 TIM4_IRQHandler
0000099c  w      .text	00000000 DMA2_Channel1_IRQHandler
00003284 g     O .text	00000020 __sf_fake_stderr
20003db4 g       .bss	00000000 end
0000096a  w      .text	00000000 I2C1_EV_IRQHandler
000018aa g     F .text	000000ea __ssputs_r
00000b36 g     F .text	0000010e RCC_GetClocksFreq
20000308 g     O .bss	00003a98 graph
0000094c  w      .text	00000000 DMA1_Channel6_IRQHandler
00001c3a g     F .text	00000042 __sfputs_r
00000994  w      .text	00000000 UART4_IRQHandler
000009a2  w      .text	00000000 DMA2_Channel4_IRQHandler
00002538 g     F .text	0000001a memchr
00000c62 g     F .text	000000d8 USART_Init
20003da0 g     O .bss	00000004 nextPipeSpace
00001728 g     F .text	000000a8 _free_r
00000966  w      .text	00000000 TIM3_IRQHandler
00000936  w      .text	00000000 RCC_IRQHandler
00000960  w      .text	00000000 TIM1_TRG_COM_IRQHandler
00000942  w      .text	00000000 DMA1_Channel1_IRQHandler
00000000 g       .init	00000000 _start
000009d2  w      .text	00000000 DMA2_Channel7_IRQHandler
00000fb2 g     F .text	00000088 rand
00002724 g     F .text	00000010 _lseek
0000097c  w      .text	00000000 EXTI15_10_IRQHandler
20003da4 g     O .bss	00000004 birdHeight
0000099a  w      .text	00000000 TIM7_IRQHandler
00002472 g     F .text	00000030 _close_r
000009aa  w      .text	00000000 CAN2_TX_IRQHandler
20000000 g       .dalign	00000000 _data_vma
00000990  w      .text	00000000 TIM5_IRQHandler
00001152 g     F .text	0000010c __swsetup_r
0000095a  w      .text	00000000 EXTI9_5_IRQHandler
0000151e g     F .text	0000009c __sfp
00002382 g     F .text	00000030 __sread
000009a8  w      .text	00000000 ETH_WKUP_IRQHandler
00002652 g     F .text	00000002 __malloc_lock
0000139a g     F .text	00000064 _fflush_r
00000974  w      .text	00000000 SPI2_IRQHandler
000032a4 g     O .text	00000020 __sf_fake_stdin
00000200 g     F .text	000000a8 memset
00000796 g     F .text	0000007a main
000009c8  w      .text	00000000 TIM10_BRK_IRQHandler
000009c6  w      .text	00000000 TIM9_CC_IRQHandler
00002436 g     F .text	00000006 __sclose
000009a4  w      .text	00000000 DMA2_Channel5_IRQHandler
000017d0 g     F .text	000000da _malloc_r
0000094a  w      .text	00000000 DMA1_Channel5_IRQHandler
00000940  w      .text	00000000 EXTI4_IRQHandler
00000d96 g     F .text	0000002c Delay_Ms
00000954  w      .text	00000000 USB_LP_CAN1_RX0_IRQHandler
00000810 g     F .text	0000010e SystemInit
0000098a  w      .text	00000000 RNG_IRQHandler
00000e64 g     F .text	00000040 iprintf
00000952  w      .text	00000000 USB_HP_CAN1_TX_IRQHandler
0000103a g     F .text	00000046 sprintf
00000000 g       .init	00000000 _sinit
0000243c g     F .text	00000036 _write_r
00000946  w      .text	00000000 DMA1_Channel3_IRQHandler
0000098c  w      .text	00000000 FSMC_IRQHandler
000009a6  w      .text	00000000 ETH_IRQHandler
00001f18 g     F .text	0000010c _printf_common
20000078 g     O .data	00000004 _impure_ptr
0000095e  w      .text	00000000 TIM1_UP_IRQHandler
0000125e g     F .text	0000013c __sflush_r
00001994 g     F .text	0000027c _svfiprintf_r
0000092c  w      .text	00000000 WWDG_IRQHandler
000009b4  w      .text	00000000 USBHSWakeup_IRQHandler
000009da  w      .text	00000000 DMA2_Channel11_IRQHandler
00000924  w      .text	00000000 Ecall_U_Mode_Handler
000009d0  w      .text	00000000 DMA2_Channel6_IRQHandler
00000964  w      .text	00000000 TIM2_IRQHandler
20008000 g       .stack	00000000 _eusrstack
0000095c  w      .text	00000000 TIM1_BRK_IRQHandler
00001626 g     F .text	0000005a __swhatbuf_r
00000d56 g     F .text	0000000a USART_SendData
00000576 g     F .text	00000142 refreshGraph
000009d8  w      .text	00000000 DMA2_Channel10_IRQHandler
0000093a  w      .text	00000000 EXTI1_IRQHandler
20003da8 g     O .bss	00000004 nextPipeInterval
00000e18 g     F .text	0000004c _write
20000080 g       .data	00000000 _edata
0000097e  w      .text	00000000 RTCAlarm_IRQHandler
00003320 g       .dlalign	00000000 _data_lma
000009ca  w      .text	00000000 TIM10_UP_IRQHandler
000009c4  w      .text	00000000 TIM9_TRG_COM_IRQHandler
000009bc  w      .text	00000000 UART7_IRQHandler
00000978  w      .text	00000000 USART2_IRQHandler
000009ba  w      .text	00000000 UART6_IRQHandler
000023b2 g     F .text	0000004e __swrite
00001c7c g     F .text	0000029c _vfiprintf_r
000015ba g     F .text	0000006c _fwalk_reent
00000970  w      .text	00000000 I2C2_ER_IRQHandler
00000944  w      .text	00000000 DMA1_Channel2_IRQHandler
000032c4 g     O .text	00000020 __sf_fake_stdout
0000103a g     F .text	00000046 siprintf
00000982  w      .text	00000000 TIM8_BRK_IRQHandler
00002734 g     F .text	00000010 _read
000009dc  w      .text	00000000 handle_reset
00000958  w      .text	00000000 CAN1_SCE_IRQHandler
00000934  w      .text	00000000 FLASH_IRQHandler
00000976  w      .text	00000000 USART1_IRQHandler
00001680 g     F .text	0000009e __smakebuf_r
000009b2  w      .text	00000000 OTG_FS_IRQHandler
00002024 g     F .text	000002a8 _printf_i
00000992  w      .text	00000000 SPI3_IRQHandler
20000088 g     O .bss	00000004 __malloc_sbrk_start
0000096c  w      .text	00000000 I2C1_ER_IRQHandler
20000084 g     O .bss	00000004 __malloc_free_list
00001c7c g     F .text	0000029c _vfprintf_r
00000b2c g     F .text	0000000a GPIO_ReadInputDataBit
20003dac g     O .bss	00000004 birdScore
00000980  w      .text	00000000 USBWakeUp_IRQHandler
000026f4 g     F .text	00000010 _close
000009a0  w      .text	00000000 DMA2_Channel3_IRQHandler



Disassembly of section .init:

00000000 <_sinit>:
   0:	1dd0006f          	j	9dc <handle_reset>
   4:	00000013          	nop
   8:	00000013          	nop
   c:	00000013          	nop
  10:	00000013          	nop
  14:	00000013          	nop
  18:	00000013          	nop
  1c:	00000013          	nop
  20:	00000013          	nop
  24:	00000013          	nop
  28:	00000013          	nop
  2c:	00000013          	nop
  30:	00000013          	nop
  34:	00100073          	ebreak

Disassembly of section .vector:

00000038 <_vector_base>:
	...
  40:	02a8                	addi	a0,sp,328
  42:	0000                	unimp
  44:	02ac                	addi	a1,sp,328
  46:	0000                	unimp
  48:	0000                	unimp
  4a:	0000                	unimp
  4c:	0922                	slli	s2,s2,0x8
	...
  56:	0000                	unimp
  58:	0924                	addi	s1,sp,152
  5a:	0000                	unimp
  5c:	0926                	slli	s2,s2,0x9
	...
  66:	0000                	unimp
  68:	0928                	addi	a0,sp,152
  6a:	0000                	unimp
  6c:	0000                	unimp
  6e:	0000                	unimp
  70:	092a                	slli	s2,s2,0xa
  72:	0000                	unimp
  74:	0000                	unimp
  76:	0000                	unimp
  78:	092c                	addi	a1,sp,152
  7a:	0000                	unimp
  7c:	092e                	slli	s2,s2,0xb
  7e:	0000                	unimp
  80:	0930                	addi	a2,sp,152
  82:	0000                	unimp
  84:	0932                	slli	s2,s2,0xc
  86:	0000                	unimp
  88:	0934                	addi	a3,sp,152
  8a:	0000                	unimp
  8c:	0936                	slli	s2,s2,0xd
  8e:	0000                	unimp
  90:	0938                	addi	a4,sp,152
  92:	0000                	unimp
  94:	093a                	slli	s2,s2,0xe
  96:	0000                	unimp
  98:	093c                	addi	a5,sp,152
  9a:	0000                	unimp
  9c:	093e                	slli	s2,s2,0xf
  9e:	0000                	unimp
  a0:	0940                	addi	s0,sp,148
  a2:	0000                	unimp
  a4:	0942                	slli	s2,s2,0x10
  a6:	0000                	unimp
  a8:	0944                	addi	s1,sp,148
  aa:	0000                	unimp
  ac:	0946                	slli	s2,s2,0x11
  ae:	0000                	unimp
  b0:	0948                	addi	a0,sp,148
  b2:	0000                	unimp
  b4:	094a                	slli	s2,s2,0x12
  b6:	0000                	unimp
  b8:	094c                	addi	a1,sp,148
  ba:	0000                	unimp
  bc:	094e                	slli	s2,s2,0x13
  be:	0000                	unimp
  c0:	0950                	addi	a2,sp,148
  c2:	0000                	unimp
  c4:	0952                	slli	s2,s2,0x14
  c6:	0000                	unimp
  c8:	0954                	addi	a3,sp,148
  ca:	0000                	unimp
  cc:	0956                	slli	s2,s2,0x15
  ce:	0000                	unimp
  d0:	0958                	addi	a4,sp,148
  d2:	0000                	unimp
  d4:	095a                	slli	s2,s2,0x16
  d6:	0000                	unimp
  d8:	095c                	addi	a5,sp,148
  da:	0000                	unimp
  dc:	095e                	slli	s2,s2,0x17
  de:	0000                	unimp
  e0:	0960                	addi	s0,sp,156
  e2:	0000                	unimp
  e4:	0962                	slli	s2,s2,0x18
  e6:	0000                	unimp
  e8:	0964                	addi	s1,sp,156
  ea:	0000                	unimp
  ec:	0966                	slli	s2,s2,0x19
  ee:	0000                	unimp
  f0:	0968                	addi	a0,sp,156
  f2:	0000                	unimp
  f4:	096a                	slli	s2,s2,0x1a
  f6:	0000                	unimp
  f8:	096c                	addi	a1,sp,156
  fa:	0000                	unimp
  fc:	096e                	slli	s2,s2,0x1b
  fe:	0000                	unimp
 100:	0970                	addi	a2,sp,156
 102:	0000                	unimp
 104:	0972                	slli	s2,s2,0x1c
 106:	0000                	unimp
 108:	0974                	addi	a3,sp,156
 10a:	0000                	unimp
 10c:	0976                	slli	s2,s2,0x1d
 10e:	0000                	unimp
 110:	0978                	addi	a4,sp,156
 112:	0000                	unimp
 114:	097a                	slli	s2,s2,0x1e
 116:	0000                	unimp
 118:	097c                	addi	a5,sp,156
 11a:	0000                	unimp
 11c:	097e                	slli	s2,s2,0x1f
 11e:	0000                	unimp
 120:	0980                	addi	s0,sp,208
 122:	0000                	unimp
 124:	0982                	c.slli64	s3
 126:	0000                	unimp
 128:	0984                	addi	s1,sp,208
 12a:	0000                	unimp
 12c:	0986                	slli	s3,s3,0x1
 12e:	0000                	unimp
 130:	0988                	addi	a0,sp,208
 132:	0000                	unimp
 134:	098a                	slli	s3,s3,0x2
 136:	0000                	unimp
 138:	098c                	addi	a1,sp,208
 13a:	0000                	unimp
 13c:	098e                	slli	s3,s3,0x3
 13e:	0000                	unimp
 140:	0990                	addi	a2,sp,208
 142:	0000                	unimp
 144:	0992                	slli	s3,s3,0x4
 146:	0000                	unimp
 148:	0994                	addi	a3,sp,208
 14a:	0000                	unimp
 14c:	0996                	slli	s3,s3,0x5
 14e:	0000                	unimp
 150:	0998                	addi	a4,sp,208
 152:	0000                	unimp
 154:	099a                	slli	s3,s3,0x6
 156:	0000                	unimp
 158:	099c                	addi	a5,sp,208
 15a:	0000                	unimp
 15c:	099e                	slli	s3,s3,0x7
 15e:	0000                	unimp
 160:	09a0                	addi	s0,sp,216
 162:	0000                	unimp
 164:	09a2                	slli	s3,s3,0x8
 166:	0000                	unimp
 168:	09a4                	addi	s1,sp,216
 16a:	0000                	unimp
 16c:	09a6                	slli	s3,s3,0x9
 16e:	0000                	unimp
 170:	09a8                	addi	a0,sp,216
 172:	0000                	unimp
 174:	09aa                	slli	s3,s3,0xa
 176:	0000                	unimp
 178:	09ac                	addi	a1,sp,216
 17a:	0000                	unimp
 17c:	09ae                	slli	s3,s3,0xb
 17e:	0000                	unimp
 180:	09b0                	addi	a2,sp,216
 182:	0000                	unimp
 184:	09b2                	slli	s3,s3,0xc
 186:	0000                	unimp
 188:	09b4                	addi	a3,sp,216
 18a:	0000                	unimp
 18c:	09b6                	slli	s3,s3,0xd
 18e:	0000                	unimp
 190:	09b8                	addi	a4,sp,216
 192:	0000                	unimp
 194:	09ba                	slli	s3,s3,0xe
 196:	0000                	unimp
 198:	09bc                	addi	a5,sp,216
 19a:	0000                	unimp
 19c:	09be                	slli	s3,s3,0xf
 19e:	0000                	unimp
 1a0:	09c0                	addi	s0,sp,212
 1a2:	0000                	unimp
 1a4:	09c2                	slli	s3,s3,0x10
 1a6:	0000                	unimp
 1a8:	09c4                	addi	s1,sp,212
 1aa:	0000                	unimp
 1ac:	09c6                	slli	s3,s3,0x11
 1ae:	0000                	unimp
 1b0:	09c8                	addi	a0,sp,212
 1b2:	0000                	unimp
 1b4:	09ca                	slli	s3,s3,0x12
 1b6:	0000                	unimp
 1b8:	09cc                	addi	a1,sp,212
 1ba:	0000                	unimp
 1bc:	09ce                	slli	s3,s3,0x13
 1be:	0000                	unimp
 1c0:	09d0                	addi	a2,sp,212
 1c2:	0000                	unimp
 1c4:	09d2                	slli	s3,s3,0x14
 1c6:	0000                	unimp
 1c8:	09d4                	addi	a3,sp,212
 1ca:	0000                	unimp
 1cc:	09d6                	slli	s3,s3,0x15
 1ce:	0000                	unimp
 1d0:	09d8                	addi	a4,sp,212
 1d2:	0000                	unimp
 1d4:	09da                	slli	s3,s3,0x16
	...

Disassembly of section .text:

00000200 <memset>:
     200:	433d                	li	t1,15
     202:	872a                	mv	a4,a0
     204:	02c37363          	bgeu	t1,a2,22a <memset+0x2a>
     208:	00f77793          	andi	a5,a4,15
     20c:	efbd                	bnez	a5,28a <memset+0x8a>
     20e:	e5ad                	bnez	a1,278 <memset+0x78>
     210:	ff067693          	andi	a3,a2,-16
     214:	8a3d                	andi	a2,a2,15
     216:	96ba                	add	a3,a3,a4
     218:	c30c                	sw	a1,0(a4)
     21a:	c34c                	sw	a1,4(a4)
     21c:	c70c                	sw	a1,8(a4)
     21e:	c74c                	sw	a1,12(a4)
     220:	0741                	addi	a4,a4,16
     222:	fed76be3          	bltu	a4,a3,218 <memset+0x18>
     226:	e211                	bnez	a2,22a <memset+0x2a>
     228:	8082                	ret
     22a:	40c306b3          	sub	a3,t1,a2
     22e:	068a                	slli	a3,a3,0x2
     230:	00000297          	auipc	t0,0x0
     234:	9696                	add	a3,a3,t0
     236:	00a68067          	jr	10(a3)
     23a:	00b70723          	sb	a1,14(a4)
     23e:	00b706a3          	sb	a1,13(a4)
     242:	00b70623          	sb	a1,12(a4)
     246:	00b705a3          	sb	a1,11(a4)
     24a:	00b70523          	sb	a1,10(a4)
     24e:	00b704a3          	sb	a1,9(a4)
     252:	00b70423          	sb	a1,8(a4)
     256:	00b703a3          	sb	a1,7(a4)
     25a:	00b70323          	sb	a1,6(a4)
     25e:	00b702a3          	sb	a1,5(a4)
     262:	00b70223          	sb	a1,4(a4)
     266:	00b701a3          	sb	a1,3(a4)
     26a:	00b70123          	sb	a1,2(a4)
     26e:	00b700a3          	sb	a1,1(a4)
     272:	00b70023          	sb	a1,0(a4)
     276:	8082                	ret
     278:	0ff5f593          	andi	a1,a1,255
     27c:	00859693          	slli	a3,a1,0x8
     280:	8dd5                	or	a1,a1,a3
     282:	01059693          	slli	a3,a1,0x10
     286:	8dd5                	or	a1,a1,a3
     288:	b761                	j	210 <memset+0x10>
     28a:	00279693          	slli	a3,a5,0x2
     28e:	00000297          	auipc	t0,0x0
     292:	9696                	add	a3,a3,t0
     294:	8286                	mv	t0,ra
     296:	fa8680e7          	jalr	-88(a3)
     29a:	8096                	mv	ra,t0
     29c:	17c1                	addi	a5,a5,-16
     29e:	8f1d                	sub	a4,a4,a5
     2a0:	963e                	add	a2,a2,a5
     2a2:	f8c374e3          	bgeu	t1,a2,22a <memset+0x2a>
     2a6:	b7a5                	j	20e <memset+0xe>

000002a8 <NMI_Handler>:
     2a8:	30200073          	mret

000002ac <HardFault_Handler>:
     2ac:	a001                	j	2ac <HardFault_Handler>

000002ae <GPIO_INIT>:
     2ae:	1101                	addi	sp,sp,-32
     2b0:	4585                	li	a1,1
     2b2:	06400513          	li	a0,100
     2b6:	ce06                	sw	ra,28(sp)
     2b8:	cc22                	sw	s0,24(sp)
     2ba:	ca26                	sw	s1,20(sp)
     2bc:	c84a                	sw	s2,16(sp)
     2be:	187000ef          	jal	ra,c44 <RCC_APB2PeriphClockCmd>
     2c2:	40012537          	lui	a0,0x40012
     2c6:	04800493          	li	s1,72
     2ca:	440d                	li	s0,3
     2cc:	03e00793          	li	a5,62
     2d0:	004c                	addi	a1,sp,4
     2d2:	80050513          	addi	a0,a0,-2048 # 40011800 <_eusrstack+0x20009800>
     2d6:	00f11223          	sh	a5,4(sp)
     2da:	c626                	sw	s1,12(sp)
     2dc:	c422                	sw	s0,8(sp)
     2de:	40011937          	lui	s2,0x40011
     2e2:	788000ef          	jal	ra,a6a <GPIO_Init>
     2e6:	4785                	li	a5,1
     2e8:	004c                	addi	a1,sp,4
     2ea:	80090513          	addi	a0,s2,-2048 # 40010800 <_eusrstack+0x20008800>
     2ee:	00f11223          	sh	a5,4(sp)
     2f2:	c626                	sw	s1,12(sp)
     2f4:	c422                	sw	s0,8(sp)
     2f6:	774000ef          	jal	ra,a6a <GPIO_Init>
     2fa:	6789                	lui	a5,0x2
     2fc:	04078793          	addi	a5,a5,64 # 2040 <_printf_i+0x1c>
     300:	004c                	addi	a1,sp,4
     302:	40090513          	addi	a0,s2,1024
     306:	c626                	sw	s1,12(sp)
     308:	c422                	sw	s0,8(sp)
     30a:	00f11223          	sh	a5,4(sp)
     30e:	75c000ef          	jal	ra,a6a <GPIO_Init>
     312:	40f2                	lw	ra,28(sp)
     314:	4462                	lw	s0,24(sp)
     316:	44d2                	lw	s1,20(sp)
     318:	4942                	lw	s2,16(sp)
     31a:	6105                	addi	sp,sp,32
     31c:	8082                	ret

0000031e <Basic_Key_Handle>:
     31e:	1141                	addi	sp,sp,-16
     320:	c422                	sw	s0,8(sp)
     322:	40012437          	lui	s0,0x40012
     326:	45c1                	li	a1,16
     328:	80040513          	addi	a0,s0,-2048 # 40011800 <_eusrstack+0x20009800>
     32c:	c606                	sw	ra,12(sp)
     32e:	7fe000ef          	jal	ra,b2c <GPIO_ReadInputDataBit>
     332:	e10d                	bnez	a0,354 <Basic_Key_Handle+0x36>
     334:	4551                	li	a0,20
     336:	261000ef          	jal	ra,d96 <Delay_Ms>
     33a:	45c1                	li	a1,16
     33c:	80040513          	addi	a0,s0,-2048
     340:	7ec000ef          	jal	ra,b2c <GPIO_ReadInputDataBit>
     344:	4799                	li	a5,6
     346:	c111                	beqz	a0,34a <Basic_Key_Handle+0x2c>
     348:	4781                	li	a5,0
     34a:	40b2                	lw	ra,12(sp)
     34c:	4422                	lw	s0,8(sp)
     34e:	853e                	mv	a0,a5
     350:	0141                	addi	sp,sp,16
     352:	8082                	ret
     354:	02000593          	li	a1,32
     358:	80040513          	addi	a0,s0,-2048
     35c:	7d0000ef          	jal	ra,b2c <GPIO_ReadInputDataBit>
     360:	ed01                	bnez	a0,378 <Basic_Key_Handle+0x5a>
     362:	4551                	li	a0,20
     364:	233000ef          	jal	ra,d96 <Delay_Ms>
     368:	02000593          	li	a1,32
     36c:	80040513          	addi	a0,s0,-2048
     370:	7bc000ef          	jal	ra,b2c <GPIO_ReadInputDataBit>
     374:	479d                	li	a5,7
     376:	bfc1                	j	346 <Basic_Key_Handle+0x28>
     378:	4589                	li	a1,2
     37a:	80040513          	addi	a0,s0,-2048
     37e:	7ae000ef          	jal	ra,b2c <GPIO_ReadInputDataBit>
     382:	ed01                	bnez	a0,39a <Basic_Key_Handle+0x7c>
     384:	4551                	li	a0,20
     386:	211000ef          	jal	ra,d96 <Delay_Ms>
     38a:	4589                	li	a1,2
     38c:	80040513          	addi	a0,s0,-2048
     390:	79c000ef          	jal	ra,b2c <GPIO_ReadInputDataBit>
     394:	00153793          	seqz	a5,a0
     398:	bf4d                	j	34a <Basic_Key_Handle+0x2c>
     39a:	4591                	li	a1,4
     39c:	80040513          	addi	a0,s0,-2048
     3a0:	78c000ef          	jal	ra,b2c <GPIO_ReadInputDataBit>
     3a4:	e919                	bnez	a0,3ba <Basic_Key_Handle+0x9c>
     3a6:	4551                	li	a0,20
     3a8:	1ef000ef          	jal	ra,d96 <Delay_Ms>
     3ac:	4591                	li	a1,4
     3ae:	80040513          	addi	a0,s0,-2048
     3b2:	77a000ef          	jal	ra,b2c <GPIO_ReadInputDataBit>
     3b6:	4789                	li	a5,2
     3b8:	b779                	j	346 <Basic_Key_Handle+0x28>
     3ba:	45a1                	li	a1,8
     3bc:	80040513          	addi	a0,s0,-2048
     3c0:	76c000ef          	jal	ra,b2c <GPIO_ReadInputDataBit>
     3c4:	e919                	bnez	a0,3da <Basic_Key_Handle+0xbc>
     3c6:	4551                	li	a0,20
     3c8:	1cf000ef          	jal	ra,d96 <Delay_Ms>
     3cc:	45a1                	li	a1,8
     3ce:	80040513          	addi	a0,s0,-2048
     3d2:	75a000ef          	jal	ra,b2c <GPIO_ReadInputDataBit>
     3d6:	4791                	li	a5,4
     3d8:	b7bd                	j	346 <Basic_Key_Handle+0x28>
     3da:	40011437          	lui	s0,0x40011
     3de:	04000593          	li	a1,64
     3e2:	40040513          	addi	a0,s0,1024 # 40011400 <_eusrstack+0x20009400>
     3e6:	746000ef          	jal	ra,b2c <GPIO_ReadInputDataBit>
     3ea:	ed01                	bnez	a0,402 <Basic_Key_Handle+0xe4>
     3ec:	4551                	li	a0,20
     3ee:	1a9000ef          	jal	ra,d96 <Delay_Ms>
     3f2:	04000593          	li	a1,64
     3f6:	40040513          	addi	a0,s0,1024
     3fa:	732000ef          	jal	ra,b2c <GPIO_ReadInputDataBit>
     3fe:	478d                	li	a5,3
     400:	b799                	j	346 <Basic_Key_Handle+0x28>
     402:	6589                	lui	a1,0x2
     404:	40040513          	addi	a0,s0,1024
     408:	724000ef          	jal	ra,b2c <GPIO_ReadInputDataBit>
     40c:	f2051ee3          	bnez	a0,348 <Basic_Key_Handle+0x2a>
     410:	4551                	li	a0,20
     412:	185000ef          	jal	ra,d96 <Delay_Ms>
     416:	6589                	lui	a1,0x2
     418:	40040513          	addi	a0,s0,1024
     41c:	710000ef          	jal	ra,b2c <GPIO_ReadInputDataBit>
     420:	f20514e3          	bnez	a0,348 <Basic_Key_Handle+0x2a>
     424:	4795                	li	a5,5
     426:	b715                	j	34a <Basic_Key_Handle+0x2c>

00000428 <showMainMenu>:
     428:	00003537          	lui	a0,0x3
     42c:	1141                	addi	sp,sp,-16
     42e:	a4c50513          	addi	a0,a0,-1460 # 2a4c <_sbrk+0x308>
     432:	c606                	sw	ra,12(sp)
     434:	375000ef          	jal	ra,fa8 <puts>
     438:	40b2                	lw	ra,12(sp)
     43a:	00003537          	lui	a0,0x3
     43e:	a5050513          	addi	a0,a0,-1456 # 2a50 <_sbrk+0x30c>
     442:	0141                	addi	sp,sp,16
     444:	3650006f          	j	fa8 <puts>

00000448 <gameInput>:
     448:	1141                	addi	sp,sp,-16
     44a:	c606                	sw	ra,12(sp)
     44c:	3dc9                	jal	31e <Basic_Key_Handle>
     44e:	4719                	li	a4,6
     450:	200047b7          	lui	a5,0x20004
     454:	00e51a63          	bne	a0,a4,468 <gameInput+0x20>
     458:	da47a703          	lw	a4,-604(a5) # 20003da4 <birdHeight>
     45c:	177d                	addi	a4,a4,-1
     45e:	40b2                	lw	ra,12(sp)
     460:	dae7a223          	sw	a4,-604(a5)
     464:	0141                	addi	sp,sp,16
     466:	8082                	ret
     468:	da47a703          	lw	a4,-604(a5)
     46c:	0705                	addi	a4,a4,1
     46e:	bfc5                	j	45e <gameInput+0x16>

00000470 <gameProcess>:
     470:	1101                	addi	sp,sp,-32
     472:	cc22                	sw	s0,24(sp)
     474:	ca26                	sw	s1,20(sp)
     476:	200004b7          	lui	s1,0x20000
     47a:	ce06                	sw	ra,28(sp)
     47c:	c84a                	sw	s2,16(sp)
     47e:	c64e                	sw	s3,12(sp)
     480:	c452                	sw	s4,8(sp)
     482:	c256                	sw	s5,4(sp)
     484:	4781                	li	a5,0
     486:	09448493          	addi	s1,s1,148 # 20000094 <pipeSpace>
     48a:	96018413          	addi	s0,gp,-1696 # 200001d0 <pipeHeight>
     48e:	04d00613          	li	a2,77
     492:	00178693          	addi	a3,a5,1
     496:	00269713          	slli	a4,a3,0x2
     49a:	009705b3          	add	a1,a4,s1
     49e:	4188                	lw	a0,0(a1)
     4a0:	078a                	slli	a5,a5,0x2
     4a2:	009785b3          	add	a1,a5,s1
     4a6:	c188                	sw	a0,0(a1)
     4a8:	9722                	add	a4,a4,s0
     4aa:	4318                	lw	a4,0(a4)
     4ac:	97a2                	add	a5,a5,s0
     4ae:	c398                	sw	a4,0(a5)
     4b0:	87b6                	mv	a5,a3
     4b2:	fec690e3          	bne	a3,a2,492 <gameProcess+0x22>
     4b6:	200049b7          	lui	s3,0x20004
     4ba:	da89a783          	lw	a5,-600(s3) # 20003da8 <nextPipeInterval>
     4be:	efa5                	bnez	a5,536 <gameProcess+0xc6>
     4c0:	95c1a783          	lw	a5,-1700(gp) # 200001cc <nextPipeHeight>
     4c4:	20004a37          	lui	s4,0x20004
     4c8:	491d                	li	s2,7
     4ca:	12f42a23          	sw	a5,308(s0)
     4ce:	da0a2783          	lw	a5,-608(s4) # 20003da0 <nextPipeSpace>
     4d2:	12f4aa23          	sw	a5,308(s1)
     4d6:	2dd000ef          	jal	ra,fb2 <rand>
     4da:	03256533          	rem	a0,a0,s2
     4de:	0519                	addi	a0,a0,6
     4e0:	daa9a423          	sw	a0,-600(s3)
     4e4:	2cf000ef          	jal	ra,fb2 <rand>
     4e8:	03256533          	rem	a0,a0,s2
     4ec:	0511                	addi	a0,a0,4
     4ee:	94a1ae23          	sw	a0,-1700(gp) # 200001cc <nextPipeHeight>
     4f2:	2c1000ef          	jal	ra,fb2 <rand>
     4f6:	4791                	li	a5,4
     4f8:	02f56533          	rem	a0,a0,a5
     4fc:	050d                	addi	a0,a0,3
     4fe:	daaa2023          	sw	a0,-608(s4)
     502:	200047b7          	lui	a5,0x20004
     506:	da47a703          	lw	a4,-604(a5) # 20003da4 <birdHeight>
     50a:	86be                	mv	a3,a5
     50c:	00e05763          	blez	a4,51a <gameProcess+0xaa>
     510:	da47a603          	lw	a2,-604(a5)
     514:	4749                	li	a4,18
     516:	02c75b63          	bge	a4,a2,54c <gameProcess+0xdc>
     51a:	8201a023          	sw	zero,-2016(gp) # 20000090 <birdAlive>
     51e:	47d1                	li	a5,20
     520:	daf6a223          	sw	a5,-604(a3)
     524:	40f2                	lw	ra,28(sp)
     526:	4462                	lw	s0,24(sp)
     528:	44d2                	lw	s1,20(sp)
     52a:	4942                	lw	s2,16(sp)
     52c:	49b2                	lw	s3,12(sp)
     52e:	4a22                	lw	s4,8(sp)
     530:	4a92                	lw	s5,4(sp)
     532:	6105                	addi	sp,sp,32
     534:	8082                	ret
     536:	12042a23          	sw	zero,308(s0)
     53a:	47c9                	li	a5,18
     53c:	12f4aa23          	sw	a5,308(s1)
     540:	da89a783          	lw	a5,-600(s3)
     544:	17fd                	addi	a5,a5,-1
     546:	daf9a423          	sw	a5,-600(s3)
     54a:	bf65                	j	502 <gameProcess+0x92>
     54c:	4830                	lw	a2,80(s0)
     54e:	da47a703          	lw	a4,-604(a5)
     552:	fcc744e3          	blt	a4,a2,51a <gameProcess+0xaa>
     556:	4838                	lw	a4,80(s0)
     558:	48ac                	lw	a1,80(s1)
     55a:	da47a603          	lw	a2,-604(a5)
     55e:	00b707b3          	add	a5,a4,a1
     562:	fac7cce3          	blt	a5,a2,51a <gameProcess+0xaa>
     566:	20004737          	lui	a4,0x20004
     56a:	dac72783          	lw	a5,-596(a4) # 20003dac <birdScore>
     56e:	0785                	addi	a5,a5,1
     570:	daf72623          	sw	a5,-596(a4)
     574:	bf45                	j	524 <gameProcess+0xb4>

00000576 <refreshGraph>:
     576:	1101                	addi	sp,sp,-32
     578:	ca26                	sw	s1,20(sp)
     57a:	6611                	lui	a2,0x4
     57c:	200004b7          	lui	s1,0x20000
     580:	a9860613          	addi	a2,a2,-1384 # 3a98 <_data_lma+0x778>
     584:	4581                	li	a1,0
     586:	30848513          	addi	a0,s1,776 # 20000308 <graph>
     58a:	ce06                	sw	ra,28(sp)
     58c:	c84a                	sw	s2,16(sp)
     58e:	c64e                	sw	s3,12(sp)
     590:	c452                	sw	s4,8(sp)
     592:	c256                	sw	s5,4(sp)
     594:	c05a                	sw	s6,0(sp)
     596:	cc22                	sw	s0,24(sp)
     598:	31a5                	jal	200 <memset>
     59a:	00003537          	lui	a0,0x3
     59e:	a4c50513          	addi	a0,a0,-1460 # 2a4c <_sbrk+0x308>
     5a2:	207000ef          	jal	ra,fa8 <puts>
     5a6:	200047b7          	lui	a5,0x20004
     5aa:	dac7a603          	lw	a2,-596(a5) # 20003dac <birdScore>
     5ae:	000035b7          	lui	a1,0x3
     5b2:	82058593          	addi	a1,a1,-2016 # 2820 <_sbrk+0xdc>
     5b6:	30848513          	addi	a0,s1,776
     5ba:	281000ef          	jal	ra,103a <siprintf>
     5be:	4985                	li	s3,1
     5c0:	1f400a13          	li	s4,500
     5c4:	00003b37          	lui	s6,0x3
     5c8:	4acd                	li	s5,19
     5ca:	30848913          	addi	s2,s1,776
     5ce:	03498533          	mul	a0,s3,s4
     5d2:	30848413          	addi	s0,s1,776
     5d6:	900b0593          	addi	a1,s6,-1792 # 2900 <_sbrk+0x1bc>
     5da:	0985                	addi	s3,s3,1
     5dc:	9522                	add	a0,a0,s0
     5de:	2a3000ef          	jal	ra,1080 <strcpy>
     5e2:	ff5996e3          	bne	s3,s5,5ce <refreshGraph+0x58>
     5e6:	000035b7          	lui	a1,0x3
     5ea:	20003537          	lui	a0,0x20003
     5ee:	95458593          	addi	a1,a1,-1708 # 2954 <_sbrk+0x210>
     5f2:	82450513          	addi	a0,a0,-2012 # 20002824 <__global_pointer$+0x1fb4>
     5f6:	28b000ef          	jal	ra,1080 <strcpy>
     5fa:	200047b7          	lui	a5,0x20004
     5fe:	da47a703          	lw	a4,-604(a5) # 20003da4 <birdHeight>
     602:	02e05063          	blez	a4,622 <refreshGraph+0xac>
     606:	da47a683          	lw	a3,-604(a5)
     60a:	4749                	li	a4,18
     60c:	00d74b63          	blt	a4,a3,622 <refreshGraph+0xac>
     610:	da47a783          	lw	a5,-604(a5)
     614:	04300713          	li	a4,67
     618:	034787b3          	mul	a5,a5,s4
     61c:	97a2                	add	a5,a5,s0
     61e:	00e78a23          	sb	a4,20(a5)
     622:	20000537          	lui	a0,0x20000
     626:	4705                	li	a4,1
     628:	96018593          	addi	a1,gp,-1696 # 200001d0 <pipeHeight>
     62c:	1f400893          	li	a7,500
     630:	05800313          	li	t1,88
     634:	09450513          	addi	a0,a0,148 # 20000094 <pipeSpace>
     638:	4e45                	li	t3,17
     63a:	04f00e93          	li	t4,79
     63e:	fff70793          	addi	a5,a4,-1
     642:	078a                	slli	a5,a5,0x2
     644:	4601                	li	a2,0
     646:	00b78833          	add	a6,a5,a1
     64a:	a801                	j	65a <refreshGraph+0xe4>
     64c:	0605                	addi	a2,a2,1
     64e:	031606b3          	mul	a3,a2,a7
     652:	96ca                	add	a3,a3,s2
     654:	96ba                	add	a3,a3,a4
     656:	00668023          	sb	t1,0(a3)
     65a:	00082683          	lw	a3,0(a6)
     65e:	fed647e3          	blt	a2,a3,64c <refreshGraph+0xd6>
     662:	97aa                	add	a5,a5,a0
     664:	00082683          	lw	a3,0(a6)
     668:	439c                	lw	a5,0(a5)
     66a:	97b6                	add	a5,a5,a3
     66c:	02fe5e63          	bge	t3,a5,6a8 <refreshGraph+0x132>
     670:	0705                	addi	a4,a4,1
     672:	fdd716e3          	bne	a4,t4,63e <refreshGraph+0xc8>
     676:	6489                	lui	s1,0x2
     678:	71048493          	addi	s1,s1,1808 # 2710 <_fstat+0xc>
     67c:	94a2                	add	s1,s1,s0
     67e:	00003937          	lui	s2,0x3
     682:	85a2                	mv	a1,s0
     684:	a4890513          	addi	a0,s2,-1464 # 2a48 <_sbrk+0x304>
     688:	1f440413          	addi	s0,s0,500
     68c:	7d8000ef          	jal	ra,e64 <iprintf>
     690:	fe9419e3          	bne	s0,s1,682 <refreshGraph+0x10c>
     694:	40f2                	lw	ra,28(sp)
     696:	4462                	lw	s0,24(sp)
     698:	44d2                	lw	s1,20(sp)
     69a:	4942                	lw	s2,16(sp)
     69c:	49b2                	lw	s3,12(sp)
     69e:	4a22                	lw	s4,8(sp)
     6a0:	4a92                	lw	s5,4(sp)
     6a2:	4b02                	lw	s6,0(sp)
     6a4:	6105                	addi	sp,sp,32
     6a6:	8082                	ret
     6a8:	0785                	addi	a5,a5,1
     6aa:	031786b3          	mul	a3,a5,a7
     6ae:	96ca                	add	a3,a3,s2
     6b0:	96ba                	add	a3,a3,a4
     6b2:	00668023          	sb	t1,0(a3)
     6b6:	bf5d                	j	66c <refreshGraph+0xf6>

000006b8 <mainGame>:
     6b8:	1141                	addi	sp,sp,-16
     6ba:	c606                	sw	ra,12(sp)
     6bc:	c422                	sw	s0,8(sp)
     6be:	c226                	sw	s1,4(sp)
     6c0:	441d                	li	s0,7
     6c2:	0f1000ef          	jal	ra,fb2 <rand>
     6c6:	02856533          	rem	a0,a0,s0
     6ca:	200047b7          	lui	a5,0x20004
     6ce:	0519                	addi	a0,a0,6
     6d0:	daa7a423          	sw	a0,-600(a5) # 20003da8 <nextPipeInterval>
     6d4:	0df000ef          	jal	ra,fb2 <rand>
     6d8:	02856533          	rem	a0,a0,s0
     6dc:	0511                	addi	a0,a0,4
     6de:	94a1ae23          	sw	a0,-1700(gp) # 200001cc <nextPipeHeight>
     6e2:	0d1000ef          	jal	ra,fb2 <rand>
     6e6:	4791                	li	a5,4
     6e8:	02f56533          	rem	a0,a0,a5
     6ec:	200047b7          	lui	a5,0x20004
     6f0:	4705                	li	a4,1
     6f2:	200046b7          	lui	a3,0x20004
     6f6:	84b6                	mv	s1,a3
     6f8:	96018613          	addi	a2,gp,-1696 # 200001d0 <pipeHeight>
     6fc:	04e00593          	li	a1,78
     700:	050d                	addi	a0,a0,3
     702:	daa7a023          	sw	a0,-608(a5) # 20003da0 <nextPipeSpace>
     706:	82e1a023          	sw	a4,-2016(gp) # 20000090 <birdAlive>
     70a:	20004737          	lui	a4,0x20004
     70e:	da872223          	sw	s0,-604(a4) # 20003da4 <birdHeight>
     712:	da06a623          	sw	zero,-596(a3) # 20003dac <birdScore>
     716:	200006b7          	lui	a3,0x20000
     71a:	4701                	li	a4,0
     71c:	843e                	mv	s0,a5
     71e:	09468693          	addi	a3,a3,148 # 20000094 <pipeSpace>
     722:	4549                	li	a0,18
     724:	00271793          	slli	a5,a4,0x2
     728:	00c78833          	add	a6,a5,a2
     72c:	00082023          	sw	zero,0(a6)
     730:	97b6                	add	a5,a5,a3
     732:	c388                	sw	a0,0(a5)
     734:	0705                	addi	a4,a4,1
     736:	feb717e3          	bne	a4,a1,724 <mainGame+0x6c>
     73a:	8201a783          	lw	a5,-2016(gp) # 20000090 <birdAlive>
     73e:	e7a9                	bnez	a5,788 <mainGame+0xd0>
     740:	00002537          	lui	a0,0x2
     744:	76850513          	addi	a0,a0,1896 # 2768 <_sbrk+0x24>
     748:	061000ef          	jal	ra,fa8 <puts>
     74c:	00002537          	lui	a0,0x2
     750:	77850513          	addi	a0,a0,1912 # 2778 <_sbrk+0x34>
     754:	055000ef          	jal	ra,fa8 <puts>
     758:	dac4a583          	lw	a1,-596(s1)
     75c:	00002537          	lui	a0,0x2
     760:	7b050513          	addi	a0,a0,1968 # 27b0 <_sbrk+0x6c>
     764:	2701                	jal	e64 <iprintf>
     766:	00002537          	lui	a0,0x2
     76a:	7e850513          	addi	a0,a0,2024 # 27e8 <_sbrk+0xa4>
     76e:	03b000ef          	jal	ra,fa8 <puts>
     772:	441d                	li	s0,7
     774:	366d                	jal	31e <Basic_Key_Handle>
     776:	fe851fe3          	bne	a0,s0,774 <mainGame+0xbc>
     77a:	4422                	lw	s0,8(sp)
     77c:	40b2                	lw	ra,12(sp)
     77e:	4492                	lw	s1,4(sp)
     780:	4531                	li	a0,12
     782:	0141                	addi	sp,sp,16
     784:	7200006f          	j	ea4 <putchar>
     788:	31c1                	jal	448 <gameInput>
     78a:	31dd                	jal	470 <gameProcess>
     78c:	33ed                	jal	576 <refreshGraph>
     78e:	06400513          	li	a0,100
     792:	2511                	jal	d96 <Delay_Ms>
     794:	b75d                	j	73a <mainGame+0x82>

00000796 <main>:
     796:	1141                	addi	sp,sp,-16
     798:	c606                	sw	ra,12(sp)
     79a:	c422                	sw	s0,8(sp)
     79c:	c226                	sw	s1,4(sp)
     79e:	c04a                	sw	s2,0(sp)
     7a0:	23f1                	jal	d6c <Delay_Init>
     7a2:	6571                	lui	a0,0x1c
     7a4:	20050513          	addi	a0,a0,512 # 1c200 <_data_lma+0x18ee0>
     7a8:	2d29                	jal	dc2 <USART_Printf_Init>
     7aa:	200007b7          	lui	a5,0x20000
     7ae:	0707a583          	lw	a1,112(a5) # 20000070 <SystemCoreClock>
     7b2:	00003537          	lui	a0,0x3
     7b6:	22c50513          	addi	a0,a0,556 # 322c <_sbrk+0xae8>
     7ba:	256d                	jal	e64 <iprintf>
     7bc:	00003537          	lui	a0,0x3
     7c0:	23c50513          	addi	a0,a0,572 # 323c <_sbrk+0xaf8>
     7c4:	7e4000ef          	jal	ra,fa8 <puts>
     7c8:	34dd                	jal	2ae <GPIO_INIT>
     7ca:	06400513          	li	a0,100
     7ce:	23e1                	jal	d96 <Delay_Ms>
     7d0:	00003537          	lui	a0,0x3
     7d4:	24850513          	addi	a0,a0,584 # 3248 <_sbrk+0xb04>
     7d8:	7d0000ef          	jal	ra,fa8 <puts>
     7dc:	4551                	li	a0,20
     7de:	2b65                	jal	d96 <Delay_Ms>
     7e0:	441d                	li	s0,7
     7e2:	4499                	li	s1,6
     7e4:	00003937          	lui	s2,0x3
     7e8:	3e1d                	jal	31e <Basic_Key_Handle>
     7ea:	fe850fe3          	beq	a0,s0,7e8 <main+0x52>
     7ee:	392d                	jal	428 <showMainMenu>
     7f0:	363d                	jal	31e <Basic_Key_Handle>
     7f2:	00850763          	beq	a0,s0,800 <__stack_size>
     7f6:	3625                	jal	31e <Basic_Key_Handle>
     7f8:	fe951ce3          	bne	a0,s1,7f0 <main+0x5a>
     7fc:	3d75                	jal	6b8 <mainGame>
     7fe:	b7ed                	j	7e8 <main+0x52>
     800:	25090513          	addi	a0,s2,592 # 3250 <_sbrk+0xb0c>
     804:	7a4000ef          	jal	ra,fa8 <puts>
     808:	3e19                	jal	31e <Basic_Key_Handle>
     80a:	fe951fe3          	bne	a0,s1,808 <__stack_size+0x8>
     80e:	bfe9                	j	7e8 <main+0x52>

00000810 <SystemInit>:
     810:	400217b7          	lui	a5,0x40021
     814:	4398                	lw	a4,0(a5)
     816:	f8ff06b7          	lui	a3,0xf8ff0
     81a:	1141                	addi	sp,sp,-16
     81c:	00176713          	ori	a4,a4,1
     820:	c398                	sw	a4,0(a5)
     822:	43d8                	lw	a4,4(a5)
     824:	00020637          	lui	a2,0x20
     828:	8f75                	and	a4,a4,a3
     82a:	c3d8                	sw	a4,4(a5)
     82c:	4398                	lw	a4,0(a5)
     82e:	fef706b7          	lui	a3,0xfef70
     832:	16fd                	addi	a3,a3,-1
     834:	8f75                	and	a4,a4,a3
     836:	c398                	sw	a4,0(a5)
     838:	4398                	lw	a4,0(a5)
     83a:	fffc06b7          	lui	a3,0xfffc0
     83e:	16fd                	addi	a3,a3,-1
     840:	8f75                	and	a4,a4,a3
     842:	c398                	sw	a4,0(a5)
     844:	43d8                	lw	a4,4(a5)
     846:	ff8106b7          	lui	a3,0xff810
     84a:	16fd                	addi	a3,a3,-1
     84c:	8f75                	and	a4,a4,a3
     84e:	c3d8                	sw	a4,4(a5)
     850:	009f0737          	lui	a4,0x9f0
     854:	c798                	sw	a4,8(a5)
     856:	c402                	sw	zero,8(sp)
     858:	c602                	sw	zero,12(sp)
     85a:	4398                	lw	a4,0(a5)
     85c:	66c1                	lui	a3,0x10
     85e:	8f55                	or	a4,a4,a3
     860:	c398                	sw	a4,0(a5)
     862:	400216b7          	lui	a3,0x40021
     866:	50000713          	li	a4,1280
     86a:	429c                	lw	a5,0(a3)
     86c:	8ff1                	and	a5,a5,a2
     86e:	c63e                	sw	a5,12(sp)
     870:	47a2                	lw	a5,8(sp)
     872:	0785                	addi	a5,a5,1
     874:	c43e                	sw	a5,8(sp)
     876:	47b2                	lw	a5,12(sp)
     878:	e781                	bnez	a5,880 <SystemInit+0x70>
     87a:	47a2                	lw	a5,8(sp)
     87c:	fee797e3          	bne	a5,a4,86a <SystemInit+0x5a>
     880:	400217b7          	lui	a5,0x40021
     884:	439c                	lw	a5,0(a5)
     886:	00e79713          	slli	a4,a5,0xe
     88a:	08075863          	bgez	a4,91a <SystemInit+0x10a>
     88e:	4785                	li	a5,1
     890:	c63e                	sw	a5,12(sp)
     892:	4732                	lw	a4,12(sp)
     894:	4785                	li	a5,1
     896:	08f71063          	bne	a4,a5,916 <SystemInit+0x106>
     89a:	400227b7          	lui	a5,0x40022
     89e:	4398                	lw	a4,0(a5)
     8a0:	ffc106b7          	lui	a3,0xffc10
     8a4:	16fd                	addi	a3,a3,-1
     8a6:	01076713          	ori	a4,a4,16
     8aa:	c398                	sw	a4,0(a5)
     8ac:	4398                	lw	a4,0(a5)
     8ae:	9b71                	andi	a4,a4,-4
     8b0:	c398                	sw	a4,0(a5)
     8b2:	4398                	lw	a4,0(a5)
     8b4:	00276713          	ori	a4,a4,2
     8b8:	c398                	sw	a4,0(a5)
     8ba:	400217b7          	lui	a5,0x40021
     8be:	43d8                	lw	a4,4(a5)
     8c0:	c3d8                	sw	a4,4(a5)
     8c2:	43d8                	lw	a4,4(a5)
     8c4:	c3d8                	sw	a4,4(a5)
     8c6:	43d8                	lw	a4,4(a5)
     8c8:	40076713          	ori	a4,a4,1024
     8cc:	c3d8                	sw	a4,4(a5)
     8ce:	43d8                	lw	a4,4(a5)
     8d0:	8f75                	and	a4,a4,a3
     8d2:	c3d8                	sw	a4,4(a5)
     8d4:	43d8                	lw	a4,4(a5)
     8d6:	001d06b7          	lui	a3,0x1d0
     8da:	8f55                	or	a4,a4,a3
     8dc:	c3d8                	sw	a4,4(a5)
     8de:	40021737          	lui	a4,0x40021
     8e2:	431c                	lw	a5,0(a4)
     8e4:	010006b7          	lui	a3,0x1000
     8e8:	8fd5                	or	a5,a5,a3
     8ea:	c31c                	sw	a5,0(a4)
     8ec:	400217b7          	lui	a5,0x40021
     8f0:	4398                	lw	a4,0(a5)
     8f2:	00671693          	slli	a3,a4,0x6
     8f6:	fe06dde3          	bgez	a3,8f0 <SystemInit+0xe0>
     8fa:	43d8                	lw	a4,4(a5)
     8fc:	400216b7          	lui	a3,0x40021
     900:	9b71                	andi	a4,a4,-4
     902:	c3d8                	sw	a4,4(a5)
     904:	43d8                	lw	a4,4(a5)
     906:	00276713          	ori	a4,a4,2
     90a:	c3d8                	sw	a4,4(a5)
     90c:	4721                	li	a4,8
     90e:	42dc                	lw	a5,4(a3)
     910:	8bb1                	andi	a5,a5,12
     912:	fee79ee3          	bne	a5,a4,90e <SystemInit+0xfe>
     916:	0141                	addi	sp,sp,16
     918:	8082                	ret
     91a:	c602                	sw	zero,12(sp)
     91c:	bf9d                	j	892 <SystemInit+0x82>
     91e:	a001                	j	91e <SystemInit+0x10e>
     920:	a001                	j	920 <SystemInit+0x110>

00000922 <Ecall_M_Mode_Handler>:
     922:	a001                	j	922 <Ecall_M_Mode_Handler>

00000924 <Ecall_U_Mode_Handler>:
     924:	a001                	j	924 <Ecall_U_Mode_Handler>

00000926 <Break_Point_Handler>:
     926:	a001                	j	926 <Break_Point_Handler>

00000928 <SysTick_Handler>:
     928:	a001                	j	928 <SysTick_Handler>

0000092a <SW_handler>:
     92a:	a001                	j	92a <SW_handler>

0000092c <WWDG_IRQHandler>:
     92c:	a001                	j	92c <WWDG_IRQHandler>

0000092e <PVD_IRQHandler>:
     92e:	a001                	j	92e <PVD_IRQHandler>

00000930 <TAMPER_IRQHandler>:
     930:	a001                	j	930 <TAMPER_IRQHandler>

00000932 <RTC_IRQHandler>:
     932:	a001                	j	932 <RTC_IRQHandler>

00000934 <FLASH_IRQHandler>:
     934:	a001                	j	934 <FLASH_IRQHandler>

00000936 <RCC_IRQHandler>:
     936:	a001                	j	936 <RCC_IRQHandler>

00000938 <EXTI0_IRQHandler>:
     938:	a001                	j	938 <EXTI0_IRQHandler>

0000093a <EXTI1_IRQHandler>:
     93a:	a001                	j	93a <EXTI1_IRQHandler>

0000093c <EXTI2_IRQHandler>:
     93c:	a001                	j	93c <EXTI2_IRQHandler>

0000093e <EXTI3_IRQHandler>:
     93e:	a001                	j	93e <EXTI3_IRQHandler>

00000940 <EXTI4_IRQHandler>:
     940:	a001                	j	940 <EXTI4_IRQHandler>

00000942 <DMA1_Channel1_IRQHandler>:
     942:	a001                	j	942 <DMA1_Channel1_IRQHandler>

00000944 <DMA1_Channel2_IRQHandler>:
     944:	a001                	j	944 <DMA1_Channel2_IRQHandler>

00000946 <DMA1_Channel3_IRQHandler>:
     946:	a001                	j	946 <DMA1_Channel3_IRQHandler>

00000948 <DMA1_Channel4_IRQHandler>:
     948:	a001                	j	948 <DMA1_Channel4_IRQHandler>

0000094a <DMA1_Channel5_IRQHandler>:
     94a:	a001                	j	94a <DMA1_Channel5_IRQHandler>

0000094c <DMA1_Channel6_IRQHandler>:
     94c:	a001                	j	94c <DMA1_Channel6_IRQHandler>

0000094e <DMA1_Channel7_IRQHandler>:
     94e:	a001                	j	94e <DMA1_Channel7_IRQHandler>

00000950 <ADC1_2_IRQHandler>:
     950:	a001                	j	950 <ADC1_2_IRQHandler>

00000952 <USB_HP_CAN1_TX_IRQHandler>:
     952:	a001                	j	952 <USB_HP_CAN1_TX_IRQHandler>

00000954 <USB_LP_CAN1_RX0_IRQHandler>:
     954:	a001                	j	954 <USB_LP_CAN1_RX0_IRQHandler>

00000956 <CAN1_RX1_IRQHandler>:
     956:	a001                	j	956 <CAN1_RX1_IRQHandler>

00000958 <CAN1_SCE_IRQHandler>:
     958:	a001                	j	958 <CAN1_SCE_IRQHandler>

0000095a <EXTI9_5_IRQHandler>:
     95a:	a001                	j	95a <EXTI9_5_IRQHandler>

0000095c <TIM1_BRK_IRQHandler>:
     95c:	a001                	j	95c <TIM1_BRK_IRQHandler>

0000095e <TIM1_UP_IRQHandler>:
     95e:	a001                	j	95e <TIM1_UP_IRQHandler>

00000960 <TIM1_TRG_COM_IRQHandler>:
     960:	a001                	j	960 <TIM1_TRG_COM_IRQHandler>

00000962 <TIM1_CC_IRQHandler>:
     962:	a001                	j	962 <TIM1_CC_IRQHandler>

00000964 <TIM2_IRQHandler>:
     964:	a001                	j	964 <TIM2_IRQHandler>

00000966 <TIM3_IRQHandler>:
     966:	a001                	j	966 <TIM3_IRQHandler>

00000968 <TIM4_IRQHandler>:
     968:	a001                	j	968 <TIM4_IRQHandler>

0000096a <I2C1_EV_IRQHandler>:
     96a:	a001                	j	96a <I2C1_EV_IRQHandler>

0000096c <I2C1_ER_IRQHandler>:
     96c:	a001                	j	96c <I2C1_ER_IRQHandler>

0000096e <I2C2_EV_IRQHandler>:
     96e:	a001                	j	96e <I2C2_EV_IRQHandler>

00000970 <I2C2_ER_IRQHandler>:
     970:	a001                	j	970 <I2C2_ER_IRQHandler>

00000972 <SPI1_IRQHandler>:
     972:	a001                	j	972 <SPI1_IRQHandler>

00000974 <SPI2_IRQHandler>:
     974:	a001                	j	974 <SPI2_IRQHandler>

00000976 <USART1_IRQHandler>:
     976:	a001                	j	976 <USART1_IRQHandler>

00000978 <USART2_IRQHandler>:
     978:	a001                	j	978 <USART2_IRQHandler>

0000097a <USART3_IRQHandler>:
     97a:	a001                	j	97a <USART3_IRQHandler>

0000097c <EXTI15_10_IRQHandler>:
     97c:	a001                	j	97c <EXTI15_10_IRQHandler>

0000097e <RTCAlarm_IRQHandler>:
     97e:	a001                	j	97e <RTCAlarm_IRQHandler>

00000980 <USBWakeUp_IRQHandler>:
     980:	a001                	j	980 <USBWakeUp_IRQHandler>

00000982 <TIM8_BRK_IRQHandler>:
     982:	a001                	j	982 <TIM8_BRK_IRQHandler>

00000984 <TIM8_UP_IRQHandler>:
     984:	a001                	j	984 <TIM8_UP_IRQHandler>

00000986 <TIM8_TRG_COM_IRQHandler>:
     986:	a001                	j	986 <TIM8_TRG_COM_IRQHandler>

00000988 <TIM8_CC_IRQHandler>:
     988:	a001                	j	988 <TIM8_CC_IRQHandler>

0000098a <RNG_IRQHandler>:
     98a:	a001                	j	98a <RNG_IRQHandler>

0000098c <FSMC_IRQHandler>:
     98c:	a001                	j	98c <FSMC_IRQHandler>

0000098e <SDIO_IRQHandler>:
     98e:	a001                	j	98e <SDIO_IRQHandler>

00000990 <TIM5_IRQHandler>:
     990:	a001                	j	990 <TIM5_IRQHandler>

00000992 <SPI3_IRQHandler>:
     992:	a001                	j	992 <SPI3_IRQHandler>

00000994 <UART4_IRQHandler>:
     994:	a001                	j	994 <UART4_IRQHandler>

00000996 <UART5_IRQHandler>:
     996:	a001                	j	996 <UART5_IRQHandler>

00000998 <TIM6_IRQHandler>:
     998:	a001                	j	998 <TIM6_IRQHandler>

0000099a <TIM7_IRQHandler>:
     99a:	a001                	j	99a <TIM7_IRQHandler>

0000099c <DMA2_Channel1_IRQHandler>:
     99c:	a001                	j	99c <DMA2_Channel1_IRQHandler>

0000099e <DMA2_Channel2_IRQHandler>:
     99e:	a001                	j	99e <DMA2_Channel2_IRQHandler>

000009a0 <DMA2_Channel3_IRQHandler>:
     9a0:	a001                	j	9a0 <DMA2_Channel3_IRQHandler>

000009a2 <DMA2_Channel4_IRQHandler>:
     9a2:	a001                	j	9a2 <DMA2_Channel4_IRQHandler>

000009a4 <DMA2_Channel5_IRQHandler>:
     9a4:	a001                	j	9a4 <DMA2_Channel5_IRQHandler>

000009a6 <ETH_IRQHandler>:
     9a6:	a001                	j	9a6 <ETH_IRQHandler>

000009a8 <ETH_WKUP_IRQHandler>:
     9a8:	a001                	j	9a8 <ETH_WKUP_IRQHandler>

000009aa <CAN2_TX_IRQHandler>:
     9aa:	a001                	j	9aa <CAN2_TX_IRQHandler>

000009ac <CAN2_RX0_IRQHandler>:
     9ac:	a001                	j	9ac <CAN2_RX0_IRQHandler>

000009ae <CAN2_RX1_IRQHandler>:
     9ae:	a001                	j	9ae <CAN2_RX1_IRQHandler>

000009b0 <CAN2_SCE_IRQHandler>:
     9b0:	a001                	j	9b0 <CAN2_SCE_IRQHandler>

000009b2 <OTG_FS_IRQHandler>:
     9b2:	a001                	j	9b2 <OTG_FS_IRQHandler>

000009b4 <USBHSWakeup_IRQHandler>:
     9b4:	a001                	j	9b4 <USBHSWakeup_IRQHandler>

000009b6 <USBHS_IRQHandler>:
     9b6:	a001                	j	9b6 <USBHS_IRQHandler>

000009b8 <DVP_IRQHandler>:
     9b8:	a001                	j	9b8 <DVP_IRQHandler>

000009ba <UART6_IRQHandler>:
     9ba:	a001                	j	9ba <UART6_IRQHandler>

000009bc <UART7_IRQHandler>:
     9bc:	a001                	j	9bc <UART7_IRQHandler>

000009be <UART8_IRQHandler>:
     9be:	a001                	j	9be <UART8_IRQHandler>

000009c0 <TIM9_BRK_IRQHandler>:
     9c0:	a001                	j	9c0 <TIM9_BRK_IRQHandler>

000009c2 <TIM9_UP_IRQHandler>:
     9c2:	a001                	j	9c2 <TIM9_UP_IRQHandler>

000009c4 <TIM9_TRG_COM_IRQHandler>:
     9c4:	a001                	j	9c4 <TIM9_TRG_COM_IRQHandler>

000009c6 <TIM9_CC_IRQHandler>:
     9c6:	a001                	j	9c6 <TIM9_CC_IRQHandler>

000009c8 <TIM10_BRK_IRQHandler>:
     9c8:	a001                	j	9c8 <TIM10_BRK_IRQHandler>

000009ca <TIM10_UP_IRQHandler>:
     9ca:	a001                	j	9ca <TIM10_UP_IRQHandler>

000009cc <TIM10_TRG_COM_IRQHandler>:
     9cc:	a001                	j	9cc <TIM10_TRG_COM_IRQHandler>

000009ce <TIM10_CC_IRQHandler>:
     9ce:	a001                	j	9ce <TIM10_CC_IRQHandler>

000009d0 <DMA2_Channel6_IRQHandler>:
     9d0:	a001                	j	9d0 <DMA2_Channel6_IRQHandler>

000009d2 <DMA2_Channel7_IRQHandler>:
     9d2:	a001                	j	9d2 <DMA2_Channel7_IRQHandler>

000009d4 <DMA2_Channel8_IRQHandler>:
     9d4:	a001                	j	9d4 <DMA2_Channel8_IRQHandler>

000009d6 <DMA2_Channel9_IRQHandler>:
     9d6:	a001                	j	9d6 <DMA2_Channel9_IRQHandler>

000009d8 <DMA2_Channel10_IRQHandler>:
     9d8:	a001                	j	9d8 <DMA2_Channel10_IRQHandler>

000009da <DMA2_Channel11_IRQHandler>:
     9da:	a001                	j	9da <DMA2_Channel11_IRQHandler>

000009dc <handle_reset>:
     9dc:	20000197          	auipc	gp,0x20000
     9e0:	e9418193          	addi	gp,gp,-364 # 20000870 <__global_pointer$>
     9e4:	20007117          	auipc	sp,0x20007
     9e8:	61c10113          	addi	sp,sp,1564 # 20008000 <_eusrstack>
     9ec:	00003517          	auipc	a0,0x3
     9f0:	93450513          	addi	a0,a0,-1740 # 3320 <_data_lma>
     9f4:	1ffff597          	auipc	a1,0x1ffff
     9f8:	60c58593          	addi	a1,a1,1548 # 20000000 <_data_vma>
     9fc:	81018613          	addi	a2,gp,-2032 # 20000080 <_edata>
     a00:	00c5fa63          	bgeu	a1,a2,a14 <handle_reset+0x38>
     a04:	00052283          	lw	t0,0(a0)
     a08:	0055a023          	sw	t0,0(a1)
     a0c:	0511                	addi	a0,a0,4
     a0e:	0591                	addi	a1,a1,4
     a10:	fec5eae3          	bltu	a1,a2,a04 <handle_reset+0x28>
     a14:	81018513          	addi	a0,gp,-2032 # 20000080 <_edata>
     a18:	20003597          	auipc	a1,0x20003
     a1c:	39c58593          	addi	a1,a1,924 # 20003db4 <_ebss>
     a20:	00b57763          	bgeu	a0,a1,a2e <handle_reset+0x52>
     a24:	00052023          	sw	zero,0(a0)
     a28:	0511                	addi	a0,a0,4
     a2a:	feb56de3          	bltu	a0,a1,a24 <handle_reset+0x48>
     a2e:	42fd                	li	t0,31
     a30:	bc029073          	csrw	0xbc0,t0
     a34:	42fd                	li	t0,31
     a36:	80429073          	csrw	0x804,t0
     a3a:	000062b7          	lui	t0,0x6
     a3e:	08828293          	addi	t0,t0,136 # 6088 <_data_lma+0x2d68>
     a42:	3002a073          	csrs	mstatus,t0
     a46:	fffff297          	auipc	t0,0xfffff
     a4a:	5f228293          	addi	t0,t0,1522 # 38 <_einit>
     a4e:	0032e293          	ori	t0,t0,3
     a52:	30529073          	csrw	mtvec,t0
     a56:	dbbff0ef          	jal	ra,810 <SystemInit>
     a5a:	00000297          	auipc	t0,0x0
     a5e:	d3c28293          	addi	t0,t0,-708 # 796 <main>
     a62:	34129073          	csrw	mepc,t0
     a66:	30200073          	mret

00000a6a <GPIO_Init>:
     a6a:	459c                	lw	a5,8(a1)
     a6c:	0107f713          	andi	a4,a5,16
     a70:	00f7f813          	andi	a6,a5,15
     a74:	c701                	beqz	a4,a7c <GPIO_Init+0x12>
     a76:	41d8                	lw	a4,4(a1)
     a78:	00e86833          	or	a6,a6,a4
     a7c:	0005d583          	lhu	a1,0(a1)
     a80:	0ff5f713          	andi	a4,a1,255
     a84:	c339                	beqz	a4,aca <GPIO_Init+0x60>
     a86:	4118                	lw	a4,0(a0)
     a88:	4681                	li	a3,0
     a8a:	4e85                	li	t4,1
     a8c:	4f3d                	li	t5,15
     a8e:	02800f93          	li	t6,40
     a92:	04800293          	li	t0,72
     a96:	4e21                	li	t3,8
     a98:	00de9633          	sll	a2,t4,a3
     a9c:	00c5f8b3          	and	a7,a1,a2
     aa0:	03161163          	bne	a2,a7,ac2 <GPIO_Init+0x58>
     aa4:	00269893          	slli	a7,a3,0x2
     aa8:	011f1333          	sll	t1,t5,a7
     aac:	fff34313          	not	t1,t1
     ab0:	00e37733          	and	a4,t1,a4
     ab4:	011818b3          	sll	a7,a6,a7
     ab8:	00e8e733          	or	a4,a7,a4
     abc:	05f79f63          	bne	a5,t6,b1a <GPIO_Init+0xb0>
     ac0:	c950                	sw	a2,20(a0)
     ac2:	0685                	addi	a3,a3,1
     ac4:	fdc69ae3          	bne	a3,t3,a98 <GPIO_Init+0x2e>
     ac8:	c118                	sw	a4,0(a0)
     aca:	0ff00713          	li	a4,255
     ace:	04b77563          	bgeu	a4,a1,b18 <GPIO_Init+0xae>
     ad2:	4154                	lw	a3,4(a0)
     ad4:	4621                	li	a2,8
     ad6:	4e85                	li	t4,1
     ad8:	4f3d                	li	t5,15
     ada:	02800f93          	li	t6,40
     ade:	04800293          	li	t0,72
     ae2:	4e41                	li	t3,16
     ae4:	00ce98b3          	sll	a7,t4,a2
     ae8:	0115f733          	and	a4,a1,a7
     aec:	02e89263          	bne	a7,a4,b10 <GPIO_Init+0xa6>
     af0:	00261713          	slli	a4,a2,0x2
     af4:	1701                	addi	a4,a4,-32
     af6:	00ef1333          	sll	t1,t5,a4
     afa:	fff34313          	not	t1,t1
     afe:	00d376b3          	and	a3,t1,a3
     b02:	00e81733          	sll	a4,a6,a4
     b06:	8ed9                	or	a3,a3,a4
     b08:	01f79d63          	bne	a5,t6,b22 <GPIO_Init+0xb8>
     b0c:	01152a23          	sw	a7,20(a0)
     b10:	0605                	addi	a2,a2,1
     b12:	fdc619e3          	bne	a2,t3,ae4 <GPIO_Init+0x7a>
     b16:	c154                	sw	a3,4(a0)
     b18:	8082                	ret
     b1a:	fa5794e3          	bne	a5,t0,ac2 <GPIO_Init+0x58>
     b1e:	c910                	sw	a2,16(a0)
     b20:	b74d                	j	ac2 <GPIO_Init+0x58>
     b22:	fe5797e3          	bne	a5,t0,b10 <GPIO_Init+0xa6>
     b26:	01152823          	sw	a7,16(a0)
     b2a:	b7dd                	j	b10 <GPIO_Init+0xa6>

00000b2c <GPIO_ReadInputDataBit>:
     b2c:	4508                	lw	a0,8(a0)
     b2e:	8d6d                	and	a0,a0,a1
     b30:	00a03533          	snez	a0,a0
     b34:	8082                	ret

00000b36 <RCC_GetClocksFreq>:
     b36:	40021737          	lui	a4,0x40021
     b3a:	435c                	lw	a5,4(a4)
     b3c:	4691                	li	a3,4
     b3e:	8bb1                	andi	a5,a5,12
     b40:	00d78563          	beq	a5,a3,b4a <RCC_GetClocksFreq+0x14>
     b44:	46a1                	li	a3,8
     b46:	06d78663          	beq	a5,a3,bb2 <RCC_GetClocksFreq+0x7c>
     b4a:	007a17b7          	lui	a5,0x7a1
     b4e:	20078793          	addi	a5,a5,512 # 7a1200 <_data_lma+0x79dee0>
     b52:	c11c                	sw	a5,0(a0)
     b54:	40021637          	lui	a2,0x40021
     b58:	425c                	lw	a5,4(a2)
     b5a:	20000737          	lui	a4,0x20000
     b5e:	00070713          	mv	a4,a4
     b62:	8391                	srli	a5,a5,0x4
     b64:	8bbd                	andi	a5,a5,15
     b66:	97ba                	add	a5,a5,a4
     b68:	0007c683          	lbu	a3,0(a5)
     b6c:	411c                	lw	a5,0(a0)
     b6e:	00d7d7b3          	srl	a5,a5,a3
     b72:	c15c                	sw	a5,4(a0)
     b74:	4254                	lw	a3,4(a2)
     b76:	82a1                	srli	a3,a3,0x8
     b78:	8a9d                	andi	a3,a3,7
     b7a:	96ba                	add	a3,a3,a4
     b7c:	0006c683          	lbu	a3,0(a3) # 40021000 <_eusrstack+0x20019000>
     b80:	00d7d6b3          	srl	a3,a5,a3
     b84:	c514                	sw	a3,8(a0)
     b86:	4254                	lw	a3,4(a2)
     b88:	82ad                	srli	a3,a3,0xb
     b8a:	8a9d                	andi	a3,a3,7
     b8c:	9736                	add	a4,a4,a3
     b8e:	00074703          	lbu	a4,0(a4) # 20000000 <_data_vma>
     b92:	00e7d7b3          	srl	a5,a5,a4
     b96:	c55c                	sw	a5,12(a0)
     b98:	4258                	lw	a4,4(a2)
     b9a:	8339                	srli	a4,a4,0xe
     b9c:	00377693          	andi	a3,a4,3
     ba0:	80418713          	addi	a4,gp,-2044 # 20000074 <ADCPrescTable>
     ba4:	9736                	add	a4,a4,a3
     ba6:	00074703          	lbu	a4,0(a4)
     baa:	02e7d7b3          	divu	a5,a5,a4
     bae:	c91c                	sw	a5,16(a0)
     bb0:	8082                	ret
     bb2:	435c                	lw	a5,4(a4)
     bb4:	4354                	lw	a3,4(a4)
     bb6:	6741                	lui	a4,0x10
     bb8:	83c9                	srli	a5,a5,0x12
     bba:	8ef9                	and	a3,a3,a4
     bbc:	1ffff737          	lui	a4,0x1ffff
     bc0:	70c72703          	lw	a4,1804(a4) # 1ffff70c <_data_lma+0x1fffc3ec>
     bc4:	8bbd                	andi	a5,a5,15
     bc6:	0789                	addi	a5,a5,2
     bc8:	01171613          	slli	a2,a4,0x11
     bcc:	00064863          	bltz	a2,bdc <RCC_GetClocksFreq+0xa6>
     bd0:	4645                	li	a2,17
     bd2:	4701                	li	a4,0
     bd4:	02c79263          	bne	a5,a2,bf8 <RCC_GetClocksFreq+0xc2>
     bd8:	47c9                	li	a5,18
     bda:	a839                	j	bf8 <RCC_GetClocksFreq+0xc2>
     bdc:	4709                	li	a4,2
     bde:	02e78963          	beq	a5,a4,c10 <RCC_GetClocksFreq+0xda>
     be2:	473d                	li	a4,15
     be4:	02e78863          	beq	a5,a4,c14 <RCC_GetClocksFreq+0xde>
     be8:	4741                	li	a4,16
     bea:	02e78863          	beq	a5,a4,c1a <RCC_GetClocksFreq+0xe4>
     bee:	4645                	li	a2,17
     bf0:	4701                	li	a4,0
     bf2:	00c79363          	bne	a5,a2,bf8 <RCC_GetClocksFreq+0xc2>
     bf6:	47c1                	li	a5,16
     bf8:	e685                	bnez	a3,c20 <RCC_GetClocksFreq+0xea>
     bfa:	400246b7          	lui	a3,0x40024
     bfe:	8006a683          	lw	a3,-2048(a3) # 40023800 <_eusrstack+0x2001b800>
     c02:	8ac1                	andi	a3,a3,16
     c04:	c68d                	beqz	a3,c2e <RCC_GetClocksFreq+0xf8>
     c06:	007a16b7          	lui	a3,0x7a1
     c0a:	20068693          	addi	a3,a3,512 # 7a1200 <_data_lma+0x79dee0>
     c0e:	a025                	j	c36 <RCC_GetClocksFreq+0x100>
     c10:	4701                	li	a4,0
     c12:	b7d9                	j	bd8 <RCC_GetClocksFreq+0xa2>
     c14:	4705                	li	a4,1
     c16:	47b5                	li	a5,13
     c18:	b7c5                	j	bf8 <RCC_GetClocksFreq+0xc2>
     c1a:	4701                	li	a4,0
     c1c:	47bd                	li	a5,15
     c1e:	bfe9                	j	bf8 <RCC_GetClocksFreq+0xc2>
     c20:	400216b7          	lui	a3,0x40021
     c24:	42d4                	lw	a3,4(a3)
     c26:	00e69613          	slli	a2,a3,0xe
     c2a:	fc065ee3          	bgez	a2,c06 <RCC_GetClocksFreq+0xd0>
     c2e:	003d16b7          	lui	a3,0x3d1
     c32:	90068693          	addi	a3,a3,-1792 # 3d0900 <_data_lma+0x3cd5e0>
     c36:	02d787b3          	mul	a5,a5,a3
     c3a:	c11c                	sw	a5,0(a0)
     c3c:	df01                	beqz	a4,b54 <RCC_GetClocksFreq+0x1e>
     c3e:	411c                	lw	a5,0(a0)
     c40:	8385                	srli	a5,a5,0x1
     c42:	bf01                	j	b52 <RCC_GetClocksFreq+0x1c>

00000c44 <RCC_APB2PeriphClockCmd>:
     c44:	c599                	beqz	a1,c52 <RCC_APB2PeriphClockCmd+0xe>
     c46:	40021737          	lui	a4,0x40021
     c4a:	4f1c                	lw	a5,24(a4)
     c4c:	8d5d                	or	a0,a0,a5
     c4e:	cf08                	sw	a0,24(a4)
     c50:	8082                	ret
     c52:	400217b7          	lui	a5,0x40021
     c56:	4f98                	lw	a4,24(a5)
     c58:	fff54513          	not	a0,a0
     c5c:	8d79                	and	a0,a0,a4
     c5e:	cf88                	sw	a0,24(a5)
     c60:	8082                	ret

00000c62 <USART_Init>:
     c62:	01055683          	lhu	a3,16(a0)
     c66:	77f5                	lui	a5,0xffffd
     c68:	17fd                	addi	a5,a5,-1
     c6a:	8ff5                	and	a5,a5,a3
     c6c:	0065d683          	lhu	a3,6(a1)
     c70:	7139                	addi	sp,sp,-64
     c72:	dc22                	sw	s0,56(sp)
     c74:	de06                	sw	ra,60(sp)
     c76:	8fd5                	or	a5,a5,a3
     c78:	00c5d703          	lhu	a4,12(a1)
     c7c:	00f51823          	sh	a5,16(a0)
     c80:	00c55683          	lhu	a3,12(a0)
     c84:	77fd                	lui	a5,0xfffff
     c86:	9f378793          	addi	a5,a5,-1549 # ffffe9f3 <_eusrstack+0xdfff69f3>
     c8a:	8ff5                	and	a5,a5,a3
     c8c:	0045d683          	lhu	a3,4(a1)
     c90:	842a                	mv	s0,a0
     c92:	c62e                	sw	a1,12(sp)
     c94:	8fd5                	or	a5,a5,a3
     c96:	0085d683          	lhu	a3,8(a1)
     c9a:	8fd5                	or	a5,a5,a3
     c9c:	00a5d683          	lhu	a3,10(a1)
     ca0:	8fd5                	or	a5,a5,a3
     ca2:	00f51623          	sh	a5,12(a0)
     ca6:	01455783          	lhu	a5,20(a0)
     caa:	07c2                	slli	a5,a5,0x10
     cac:	83c1                	srli	a5,a5,0x10
     cae:	cff7f793          	andi	a5,a5,-769
     cb2:	8fd9                	or	a5,a5,a4
     cb4:	00f51a23          	sh	a5,20(a0)
     cb8:	0868                	addi	a0,sp,28
     cba:	3db5                	jal	b36 <RCC_GetClocksFreq>
     cbc:	400147b7          	lui	a5,0x40014
     cc0:	80078793          	addi	a5,a5,-2048 # 40013800 <_eusrstack+0x2000b800>
     cc4:	45b2                	lw	a1,12(sp)
     cc6:	04f41e63          	bne	s0,a5,d22 <USART_Init+0xc0>
     cca:	57a2                	lw	a5,40(sp)
     ccc:	00c45683          	lhu	a3,12(s0)
     cd0:	4765                	li	a4,25
     cd2:	02e787b3          	mul	a5,a5,a4
     cd6:	06c2                	slli	a3,a3,0x10
     cd8:	86c1                	srai	a3,a3,0x10
     cda:	4198                	lw	a4,0(a1)
     cdc:	0406d563          	bgez	a3,d26 <USART_Init+0xc4>
     ce0:	0706                	slli	a4,a4,0x1
     ce2:	00c45603          	lhu	a2,12(s0)
     ce6:	0642                	slli	a2,a2,0x10
     ce8:	02e7d7b3          	divu	a5,a5,a4
     cec:	06400713          	li	a4,100
     cf0:	8641                	srai	a2,a2,0x10
     cf2:	02e7d6b3          	divu	a3,a5,a4
     cf6:	02e7f7b3          	remu	a5,a5,a4
     cfa:	0692                	slli	a3,a3,0x4
     cfc:	02065763          	bgez	a2,d2a <USART_Init+0xc8>
     d00:	078e                	slli	a5,a5,0x3
     d02:	03278793          	addi	a5,a5,50
     d06:	02e7d7b3          	divu	a5,a5,a4
     d0a:	0077f713          	andi	a4,a5,7
     d0e:	00d767b3          	or	a5,a4,a3
     d12:	07c2                	slli	a5,a5,0x10
     d14:	83c1                	srli	a5,a5,0x10
     d16:	00f41423          	sh	a5,8(s0)
     d1a:	50f2                	lw	ra,60(sp)
     d1c:	5462                	lw	s0,56(sp)
     d1e:	6121                	addi	sp,sp,64
     d20:	8082                	ret
     d22:	5792                	lw	a5,36(sp)
     d24:	b765                	j	ccc <USART_Init+0x6a>
     d26:	070a                	slli	a4,a4,0x2
     d28:	bf6d                	j	ce2 <USART_Init+0x80>
     d2a:	0792                	slli	a5,a5,0x4
     d2c:	03278793          	addi	a5,a5,50
     d30:	02e7d7b3          	divu	a5,a5,a4
     d34:	8bbd                	andi	a5,a5,15
     d36:	8fd5                	or	a5,a5,a3
     d38:	bfe9                	j	d12 <USART_Init+0xb0>

00000d3a <USART_Cmd>:
     d3a:	c981                	beqz	a1,d4a <USART_Cmd+0x10>
     d3c:	00c55783          	lhu	a5,12(a0)
     d40:	6709                	lui	a4,0x2
     d42:	8fd9                	or	a5,a5,a4
     d44:	00f51623          	sh	a5,12(a0)
     d48:	8082                	ret
     d4a:	00c55703          	lhu	a4,12(a0)
     d4e:	77f9                	lui	a5,0xffffe
     d50:	17fd                	addi	a5,a5,-1
     d52:	8ff9                	and	a5,a5,a4
     d54:	bfc5                	j	d44 <USART_Cmd+0xa>

00000d56 <USART_SendData>:
     d56:	1ff5f593          	andi	a1,a1,511
     d5a:	00b51223          	sh	a1,4(a0)
     d5e:	8082                	ret

00000d60 <USART_GetFlagStatus>:
     d60:	00055503          	lhu	a0,0(a0)
     d64:	8d6d                	and	a0,a0,a1
     d66:	00a03533          	snez	a0,a0
     d6a:	8082                	ret

00000d6c <Delay_Init>:
     d6c:	200007b7          	lui	a5,0x20000
     d70:	0707a783          	lw	a5,112(a5) # 20000070 <SystemCoreClock>
     d74:	007a1737          	lui	a4,0x7a1
     d78:	20070713          	addi	a4,a4,512 # 7a1200 <_data_lma+0x79dee0>
     d7c:	02e7d7b3          	divu	a5,a5,a4
     d80:	0ff7f793          	andi	a5,a5,255
     d84:	80f18923          	sb	a5,-2030(gp) # 20000082 <p_us>
     d88:	3e800713          	li	a4,1000
     d8c:	02e787b3          	mul	a5,a5,a4
     d90:	80f19823          	sh	a5,-2032(gp) # 20000080 <_edata>
     d94:	8082                	ret

00000d96 <Delay_Ms>:
     d96:	e000f7b7          	lui	a5,0xe000f
     d9a:	4741                	li	a4,16
     d9c:	c398                	sw	a4,0(a5)
     d9e:	8101d703          	lhu	a4,-2032(gp) # 20000080 <_edata>
     da2:	4681                	li	a3,0
     da4:	02a70633          	mul	a2,a4,a0
     da8:	cb90                	sw	a2,16(a5)
     daa:	cbd4                	sw	a3,20(a5)
     dac:	4398                	lw	a4,0(a5)
     dae:	02176713          	ori	a4,a4,33
     db2:	c398                	sw	a4,0(a5)
     db4:	43d8                	lw	a4,4(a5)
     db6:	8b05                	andi	a4,a4,1
     db8:	df75                	beqz	a4,db4 <Delay_Ms+0x1e>
     dba:	43d8                	lw	a4,4(a5)
     dbc:	9b79                	andi	a4,a4,-2
     dbe:	c3d8                	sw	a4,4(a5)
     dc0:	8082                	ret

00000dc2 <USART_Printf_Init>:
     dc2:	7179                	addi	sp,sp,-48
     dc4:	d422                	sw	s0,40(sp)
     dc6:	842a                	mv	s0,a0
     dc8:	6511                	lui	a0,0x4
     dca:	4585                	li	a1,1
     dcc:	0511                	addi	a0,a0,4
     dce:	d606                	sw	ra,44(sp)
     dd0:	3d95                	jal	c44 <RCC_APB2PeriphClockCmd>
     dd2:	20000793          	li	a5,512
     dd6:	00f11223          	sh	a5,4(sp)
     dda:	40011537          	lui	a0,0x40011
     dde:	478d                	li	a5,3
     de0:	c43e                	sw	a5,8(sp)
     de2:	004c                	addi	a1,sp,4
     de4:	47e1                	li	a5,24
     de6:	80050513          	addi	a0,a0,-2048 # 40010800 <_eusrstack+0x20008800>
     dea:	c63e                	sw	a5,12(sp)
     dec:	39bd                	jal	a6a <GPIO_Init>
     dee:	c822                	sw	s0,16(sp)
     df0:	40014437          	lui	s0,0x40014
     df4:	000807b7          	lui	a5,0x80
     df8:	080c                	addi	a1,sp,16
     dfa:	80040513          	addi	a0,s0,-2048 # 40013800 <_eusrstack+0x2000b800>
     dfe:	cc3e                	sw	a5,24(sp)
     e00:	ca02                	sw	zero,20(sp)
     e02:	00011e23          	sh	zero,28(sp)
     e06:	3db1                	jal	c62 <USART_Init>
     e08:	80040513          	addi	a0,s0,-2048
     e0c:	4585                	li	a1,1
     e0e:	3735                	jal	d3a <USART_Cmd>
     e10:	50b2                	lw	ra,44(sp)
     e12:	5422                	lw	s0,40(sp)
     e14:	6145                	addi	sp,sp,48
     e16:	8082                	ret

00000e18 <_write>:
     e18:	1101                	addi	sp,sp,-32
     e1a:	ca26                	sw	s1,20(sp)
     e1c:	400144b7          	lui	s1,0x40014
     e20:	cc22                	sw	s0,24(sp)
     e22:	c84a                	sw	s2,16(sp)
     e24:	c64e                	sw	s3,12(sp)
     e26:	ce06                	sw	ra,28(sp)
     e28:	89ae                	mv	s3,a1
     e2a:	8932                	mv	s2,a2
     e2c:	4401                	li	s0,0
     e2e:	80048493          	addi	s1,s1,-2048 # 40013800 <_eusrstack+0x2000b800>
     e32:	01244a63          	blt	s0,s2,e46 <_write+0x2e>
     e36:	40f2                	lw	ra,28(sp)
     e38:	4462                	lw	s0,24(sp)
     e3a:	854a                	mv	a0,s2
     e3c:	44d2                	lw	s1,20(sp)
     e3e:	4942                	lw	s2,16(sp)
     e40:	49b2                	lw	s3,12(sp)
     e42:	6105                	addi	sp,sp,32
     e44:	8082                	ret
     e46:	04000593          	li	a1,64
     e4a:	8526                	mv	a0,s1
     e4c:	3f11                	jal	d60 <USART_GetFlagStatus>
     e4e:	dd65                	beqz	a0,e46 <_write+0x2e>
     e50:	008987b3          	add	a5,s3,s0
     e54:	00078583          	lb	a1,0(a5) # 80000 <_data_lma+0x7cce0>
     e58:	8526                	mv	a0,s1
     e5a:	0405                	addi	s0,s0,1
     e5c:	05c2                	slli	a1,a1,0x10
     e5e:	81c1                	srli	a1,a1,0x10
     e60:	3ddd                	jal	d56 <USART_SendData>
     e62:	bfc1                	j	e32 <_write+0x1a>

00000e64 <iprintf>:
     e64:	7139                	addi	sp,sp,-64
     e66:	da3e                	sw	a5,52(sp)
     e68:	d22e                	sw	a1,36(sp)
     e6a:	d432                	sw	a2,40(sp)
     e6c:	d636                	sw	a3,44(sp)
     e6e:	d83a                	sw	a4,48(sp)
     e70:	dc42                	sw	a6,56(sp)
     e72:	de46                	sw	a7,60(sp)
     e74:	80818793          	addi	a5,gp,-2040 # 20000078 <_impure_ptr>
     e78:	cc22                	sw	s0,24(sp)
     e7a:	4380                	lw	s0,0(a5)
     e7c:	ca26                	sw	s1,20(sp)
     e7e:	ce06                	sw	ra,28(sp)
     e80:	84aa                	mv	s1,a0
     e82:	c409                	beqz	s0,e8c <iprintf+0x28>
     e84:	4c1c                	lw	a5,24(s0)
     e86:	e399                	bnez	a5,e8c <iprintf+0x28>
     e88:	8522                	mv	a0,s0
     e8a:	253d                	jal	14b8 <__sinit>
     e8c:	440c                	lw	a1,8(s0)
     e8e:	1054                	addi	a3,sp,36
     e90:	8626                	mv	a2,s1
     e92:	8522                	mv	a0,s0
     e94:	c636                	sw	a3,12(sp)
     e96:	5e7000ef          	jal	ra,1c7c <_vfiprintf_r>
     e9a:	40f2                	lw	ra,28(sp)
     e9c:	4462                	lw	s0,24(sp)
     e9e:	44d2                	lw	s1,20(sp)
     ea0:	6121                	addi	sp,sp,64
     ea2:	8082                	ret

00000ea4 <putchar>:
     ea4:	1101                	addi	sp,sp,-32
     ea6:	80818793          	addi	a5,gp,-2040 # 20000078 <_impure_ptr>
     eaa:	cc22                	sw	s0,24(sp)
     eac:	4380                	lw	s0,0(a5)
     eae:	ce06                	sw	ra,28(sp)
     eb0:	85aa                	mv	a1,a0
     eb2:	c419                	beqz	s0,ec0 <putchar+0x1c>
     eb4:	4c1c                	lw	a5,24(s0)
     eb6:	e789                	bnez	a5,ec0 <putchar+0x1c>
     eb8:	c62a                	sw	a0,12(sp)
     eba:	8522                	mv	a0,s0
     ebc:	2bf5                	jal	14b8 <__sinit>
     ebe:	45b2                	lw	a1,12(sp)
     ec0:	4410                	lw	a2,8(s0)
     ec2:	8522                	mv	a0,s0
     ec4:	4462                	lw	s0,24(sp)
     ec6:	40f2                	lw	ra,28(sp)
     ec8:	6105                	addi	sp,sp,32
     eca:	4020106f          	j	22cc <_putc_r>

00000ece <_puts_r>:
     ece:	1101                	addi	sp,sp,-32
     ed0:	ca26                	sw	s1,20(sp)
     ed2:	c84a                	sw	s2,16(sp)
     ed4:	ce06                	sw	ra,28(sp)
     ed6:	cc22                	sw	s0,24(sp)
     ed8:	c64e                	sw	s3,12(sp)
     eda:	c452                	sw	s4,8(sp)
     edc:	84aa                	mv	s1,a0
     ede:	892e                	mv	s2,a1
     ee0:	c501                	beqz	a0,ee8 <_puts_r+0x1a>
     ee2:	4d1c                	lw	a5,24(a0)
     ee4:	e391                	bnez	a5,ee8 <_puts_r+0x1a>
     ee6:	2bc9                	jal	14b8 <__sinit>
     ee8:	4c9c                	lw	a5,24(s1)
     eea:	4480                	lw	s0,8(s1)
     eec:	e399                	bnez	a5,ef2 <_puts_r+0x24>
     eee:	8526                	mv	a0,s1
     ef0:	23e1                	jal	14b8 <__sinit>
     ef2:	00002797          	auipc	a5,0x2
     ef6:	3b278793          	addi	a5,a5,946 # 32a4 <__sf_fake_stdin>
     efa:	02f41c63          	bne	s0,a5,f32 <_puts_r+0x64>
     efe:	40c0                	lw	s0,4(s1)
     f00:	00c45783          	lhu	a5,12(s0)
     f04:	8ba1                	andi	a5,a5,8
     f06:	c7b1                	beqz	a5,f52 <_puts_r+0x84>
     f08:	481c                	lw	a5,16(s0)
     f0a:	c7a1                	beqz	a5,f52 <_puts_r+0x84>
     f0c:	59fd                	li	s3,-1
     f0e:	4a29                	li	s4,10
     f10:	441c                	lw	a5,8(s0)
     f12:	00094583          	lbu	a1,0(s2)
     f16:	17fd                	addi	a5,a5,-1
     f18:	e9b1                	bnez	a1,f6c <_puts_r+0x9e>
     f1a:	c41c                	sw	a5,8(s0)
     f1c:	0607de63          	bgez	a5,f98 <_puts_r+0xca>
     f20:	8622                	mv	a2,s0
     f22:	45a9                	li	a1,10
     f24:	8526                	mv	a0,s1
     f26:	22b5                	jal	1092 <__swbuf_r>
     f28:	57fd                	li	a5,-1
     f2a:	02f50863          	beq	a0,a5,f5a <_puts_r+0x8c>
     f2e:	4529                	li	a0,10
     f30:	a035                	j	f5c <_puts_r+0x8e>
     f32:	00002797          	auipc	a5,0x2
     f36:	39278793          	addi	a5,a5,914 # 32c4 <__sf_fake_stdout>
     f3a:	00f41463          	bne	s0,a5,f42 <_puts_r+0x74>
     f3e:	4480                	lw	s0,8(s1)
     f40:	b7c1                	j	f00 <_puts_r+0x32>
     f42:	00002797          	auipc	a5,0x2
     f46:	34278793          	addi	a5,a5,834 # 3284 <__sf_fake_stderr>
     f4a:	faf41be3          	bne	s0,a5,f00 <_puts_r+0x32>
     f4e:	44c0                	lw	s0,12(s1)
     f50:	bf45                	j	f00 <_puts_r+0x32>
     f52:	85a2                	mv	a1,s0
     f54:	8526                	mv	a0,s1
     f56:	2af5                	jal	1152 <__swsetup_r>
     f58:	d955                	beqz	a0,f0c <_puts_r+0x3e>
     f5a:	557d                	li	a0,-1
     f5c:	40f2                	lw	ra,28(sp)
     f5e:	4462                	lw	s0,24(sp)
     f60:	44d2                	lw	s1,20(sp)
     f62:	4942                	lw	s2,16(sp)
     f64:	49b2                	lw	s3,12(sp)
     f66:	4a22                	lw	s4,8(sp)
     f68:	6105                	addi	sp,sp,32
     f6a:	8082                	ret
     f6c:	c41c                	sw	a5,8(s0)
     f6e:	0905                	addi	s2,s2,1
     f70:	0007d763          	bgez	a5,f7e <_puts_r+0xb0>
     f74:	4c18                	lw	a4,24(s0)
     f76:	00e7cb63          	blt	a5,a4,f8c <_puts_r+0xbe>
     f7a:	01458963          	beq	a1,s4,f8c <_puts_r+0xbe>
     f7e:	401c                	lw	a5,0(s0)
     f80:	00178713          	addi	a4,a5,1
     f84:	c018                	sw	a4,0(s0)
     f86:	00b78023          	sb	a1,0(a5)
     f8a:	b759                	j	f10 <_puts_r+0x42>
     f8c:	8622                	mv	a2,s0
     f8e:	8526                	mv	a0,s1
     f90:	2209                	jal	1092 <__swbuf_r>
     f92:	f7351fe3          	bne	a0,s3,f10 <_puts_r+0x42>
     f96:	b7d1                	j	f5a <_puts_r+0x8c>
     f98:	401c                	lw	a5,0(s0)
     f9a:	00178713          	addi	a4,a5,1
     f9e:	c018                	sw	a4,0(s0)
     fa0:	4729                	li	a4,10
     fa2:	00e78023          	sb	a4,0(a5)
     fa6:	b761                	j	f2e <_puts_r+0x60>

00000fa8 <puts>:
     fa8:	80818793          	addi	a5,gp,-2040 # 20000078 <_impure_ptr>
     fac:	85aa                	mv	a1,a0
     fae:	4388                	lw	a0,0(a5)
     fb0:	bf39                	j	ece <_puts_r>

00000fb2 <rand>:
     fb2:	1141                	addi	sp,sp,-16
     fb4:	80818793          	addi	a5,gp,-2040 # 20000078 <_impure_ptr>
     fb8:	c422                	sw	s0,8(sp)
     fba:	4380                	lw	s0,0(a5)
     fbc:	c606                	sw	ra,12(sp)
     fbe:	5c1c                	lw	a5,56(s0)
     fc0:	eb9d                	bnez	a5,ff6 <rand+0x44>
     fc2:	4561                	li	a0,24
     fc4:	75a000ef          	jal	ra,171e <malloc>
     fc8:	abcd37b7          	lui	a5,0xabcd3
     fcc:	dc08                	sw	a0,56(s0)
     fce:	30e78793          	addi	a5,a5,782 # abcd330e <_eusrstack+0x8bccb30e>
     fd2:	c11c                	sw	a5,0(a0)
     fd4:	e66d17b7          	lui	a5,0xe66d1
     fd8:	23478793          	addi	a5,a5,564 # e66d1234 <_eusrstack+0xc66c9234>
     fdc:	c15c                	sw	a5,4(a0)
     fde:	0005e7b7          	lui	a5,0x5e
     fe2:	eec78793          	addi	a5,a5,-276 # 5deec <_data_lma+0x5abcc>
     fe6:	c51c                	sw	a5,8(a0)
     fe8:	47ad                	li	a5,11
     fea:	00f51623          	sh	a5,12(a0)
     fee:	4705                	li	a4,1
     ff0:	4781                	li	a5,0
     ff2:	c918                	sw	a4,16(a0)
     ff4:	c95c                	sw	a5,20(a0)
     ff6:	5c10                	lw	a2,56(s0)
     ff8:	4c958737          	lui	a4,0x4c958
     ffc:	5851f7b7          	lui	a5,0x5851f
    1000:	4a14                	lw	a3,16(a2)
    1002:	4a48                	lw	a0,20(a2)
    1004:	f2d70713          	addi	a4,a4,-211 # 4c957f2d <_eusrstack+0x2c94ff2d>
    1008:	42d78793          	addi	a5,a5,1069 # 5851f42d <_eusrstack+0x3851742d>
    100c:	02f687b3          	mul	a5,a3,a5
    1010:	40b2                	lw	ra,12(sp)
    1012:	4422                	lw	s0,8(sp)
    1014:	02e50533          	mul	a0,a0,a4
    1018:	953e                	add	a0,a0,a5
    101a:	02e687b3          	mul	a5,a3,a4
    101e:	02e6b733          	mulhu	a4,a3,a4
    1022:	00178693          	addi	a3,a5,1
    1026:	ca14                	sw	a3,16(a2)
    1028:	972a                	add	a4,a4,a0
    102a:	00f6b533          	sltu	a0,a3,a5
    102e:	953a                	add	a0,a0,a4
    1030:	ca48                	sw	a0,20(a2)
    1032:	0506                	slli	a0,a0,0x1
    1034:	8105                	srli	a0,a0,0x1
    1036:	0141                	addi	sp,sp,16
    1038:	8082                	ret

0000103a <siprintf>:
    103a:	7135                	addi	sp,sp,-160
    103c:	cb3e                	sw	a5,148(sp)
    103e:	800007b7          	lui	a5,0x80000
    1042:	fff7c793          	not	a5,a5
    1046:	ce3e                	sw	a5,28(sp)
    1048:	c83e                	sw	a5,16(sp)
    104a:	77c1                	lui	a5,0xffff0
    104c:	20878793          	addi	a5,a5,520 # ffff0208 <_eusrstack+0xdffe8208>
    1050:	c532                	sw	a2,136(sp)
    1052:	c736                	sw	a3,140(sp)
    1054:	c93a                	sw	a4,144(sp)
    1056:	cd42                	sw	a6,152(sp)
    1058:	cf46                	sw	a7,156(sp)
    105a:	ca3e                	sw	a5,20(sp)
    105c:	80818793          	addi	a5,gp,-2040 # 20000078 <_impure_ptr>
    1060:	c42a                	sw	a0,8(sp)
    1062:	cc2a                	sw	a0,24(sp)
    1064:	4388                	lw	a0,0(a5)
    1066:	0134                	addi	a3,sp,136
    1068:	862e                	mv	a2,a1
    106a:	002c                	addi	a1,sp,8
    106c:	de86                	sw	ra,124(sp)
    106e:	c236                	sw	a3,4(sp)
    1070:	125000ef          	jal	ra,1994 <_svfiprintf_r>
    1074:	47a2                	lw	a5,8(sp)
    1076:	00078023          	sb	zero,0(a5)
    107a:	50f6                	lw	ra,124(sp)
    107c:	610d                	addi	sp,sp,160
    107e:	8082                	ret

00001080 <strcpy>:
    1080:	87aa                	mv	a5,a0
    1082:	0005c703          	lbu	a4,0(a1)
    1086:	0785                	addi	a5,a5,1
    1088:	0585                	addi	a1,a1,1
    108a:	fee78fa3          	sb	a4,-1(a5)
    108e:	fb75                	bnez	a4,1082 <strcpy+0x2>
    1090:	8082                	ret

00001092 <__swbuf_r>:
    1092:	1101                	addi	sp,sp,-32
    1094:	cc22                	sw	s0,24(sp)
    1096:	ca26                	sw	s1,20(sp)
    1098:	c84a                	sw	s2,16(sp)
    109a:	ce06                	sw	ra,28(sp)
    109c:	c64e                	sw	s3,12(sp)
    109e:	84aa                	mv	s1,a0
    10a0:	892e                	mv	s2,a1
    10a2:	8432                	mv	s0,a2
    10a4:	c501                	beqz	a0,10ac <__swbuf_r+0x1a>
    10a6:	4d1c                	lw	a5,24(a0)
    10a8:	e391                	bnez	a5,10ac <__swbuf_r+0x1a>
    10aa:	2139                	jal	14b8 <__sinit>
    10ac:	00002797          	auipc	a5,0x2
    10b0:	1f878793          	addi	a5,a5,504 # 32a4 <__sf_fake_stdin>
    10b4:	06f41963          	bne	s0,a5,1126 <__swbuf_r+0x94>
    10b8:	40c0                	lw	s0,4(s1)
    10ba:	4c1c                	lw	a5,24(s0)
    10bc:	c41c                	sw	a5,8(s0)
    10be:	00c45783          	lhu	a5,12(s0)
    10c2:	8ba1                	andi	a5,a5,8
    10c4:	c3c9                	beqz	a5,1146 <__swbuf_r+0xb4>
    10c6:	481c                	lw	a5,16(s0)
    10c8:	cfbd                	beqz	a5,1146 <__swbuf_r+0xb4>
    10ca:	481c                	lw	a5,16(s0)
    10cc:	4008                	lw	a0,0(s0)
    10ce:	0ff97993          	andi	s3,s2,255
    10d2:	0ff97913          	andi	s2,s2,255
    10d6:	8d1d                	sub	a0,a0,a5
    10d8:	485c                	lw	a5,20(s0)
    10da:	00f54663          	blt	a0,a5,10e6 <__swbuf_r+0x54>
    10de:	85a2                	mv	a1,s0
    10e0:	8526                	mv	a0,s1
    10e2:	2c65                	jal	139a <_fflush_r>
    10e4:	e52d                	bnez	a0,114e <__swbuf_r+0xbc>
    10e6:	441c                	lw	a5,8(s0)
    10e8:	0505                	addi	a0,a0,1
    10ea:	17fd                	addi	a5,a5,-1
    10ec:	c41c                	sw	a5,8(s0)
    10ee:	401c                	lw	a5,0(s0)
    10f0:	00178713          	addi	a4,a5,1
    10f4:	c018                	sw	a4,0(s0)
    10f6:	01378023          	sb	s3,0(a5)
    10fa:	485c                	lw	a5,20(s0)
    10fc:	00a78963          	beq	a5,a0,110e <__swbuf_r+0x7c>
    1100:	00c45783          	lhu	a5,12(s0)
    1104:	8b85                	andi	a5,a5,1
    1106:	cb81                	beqz	a5,1116 <__swbuf_r+0x84>
    1108:	47a9                	li	a5,10
    110a:	00f91663          	bne	s2,a5,1116 <__swbuf_r+0x84>
    110e:	85a2                	mv	a1,s0
    1110:	8526                	mv	a0,s1
    1112:	2461                	jal	139a <_fflush_r>
    1114:	ed0d                	bnez	a0,114e <__swbuf_r+0xbc>
    1116:	40f2                	lw	ra,28(sp)
    1118:	4462                	lw	s0,24(sp)
    111a:	854a                	mv	a0,s2
    111c:	44d2                	lw	s1,20(sp)
    111e:	4942                	lw	s2,16(sp)
    1120:	49b2                	lw	s3,12(sp)
    1122:	6105                	addi	sp,sp,32
    1124:	8082                	ret
    1126:	00002797          	auipc	a5,0x2
    112a:	19e78793          	addi	a5,a5,414 # 32c4 <__sf_fake_stdout>
    112e:	00f41463          	bne	s0,a5,1136 <__swbuf_r+0xa4>
    1132:	4480                	lw	s0,8(s1)
    1134:	b759                	j	10ba <__swbuf_r+0x28>
    1136:	00002797          	auipc	a5,0x2
    113a:	14e78793          	addi	a5,a5,334 # 3284 <__sf_fake_stderr>
    113e:	f6f41ee3          	bne	s0,a5,10ba <__swbuf_r+0x28>
    1142:	44c0                	lw	s0,12(s1)
    1144:	bf9d                	j	10ba <__swbuf_r+0x28>
    1146:	85a2                	mv	a1,s0
    1148:	8526                	mv	a0,s1
    114a:	2021                	jal	1152 <__swsetup_r>
    114c:	dd3d                	beqz	a0,10ca <__swbuf_r+0x38>
    114e:	597d                	li	s2,-1
    1150:	b7d9                	j	1116 <__swbuf_r+0x84>

00001152 <__swsetup_r>:
    1152:	1141                	addi	sp,sp,-16
    1154:	80818793          	addi	a5,gp,-2040 # 20000078 <_impure_ptr>
    1158:	c226                	sw	s1,4(sp)
    115a:	4384                	lw	s1,0(a5)
    115c:	c422                	sw	s0,8(sp)
    115e:	c04a                	sw	s2,0(sp)
    1160:	c606                	sw	ra,12(sp)
    1162:	892a                	mv	s2,a0
    1164:	842e                	mv	s0,a1
    1166:	c489                	beqz	s1,1170 <__swsetup_r+0x1e>
    1168:	4c9c                	lw	a5,24(s1)
    116a:	e399                	bnez	a5,1170 <__swsetup_r+0x1e>
    116c:	8526                	mv	a0,s1
    116e:	26a9                	jal	14b8 <__sinit>
    1170:	00002797          	auipc	a5,0x2
    1174:	13478793          	addi	a5,a5,308 # 32a4 <__sf_fake_stdin>
    1178:	02f41c63          	bne	s0,a5,11b0 <__swsetup_r+0x5e>
    117c:	40c0                	lw	s0,4(s1)
    117e:	00c41703          	lh	a4,12(s0)
    1182:	01071793          	slli	a5,a4,0x10
    1186:	83c1                	srli	a5,a5,0x10
    1188:	0087f693          	andi	a3,a5,8
    118c:	eeb5                	bnez	a3,1208 <__swsetup_r+0xb6>
    118e:	0107f693          	andi	a3,a5,16
    1192:	ee9d                	bnez	a3,11d0 <__swsetup_r+0x7e>
    1194:	47a5                	li	a5,9
    1196:	00f92023          	sw	a5,0(s2)
    119a:	04076713          	ori	a4,a4,64
    119e:	00e41623          	sh	a4,12(s0)
    11a2:	557d                	li	a0,-1
    11a4:	40b2                	lw	ra,12(sp)
    11a6:	4422                	lw	s0,8(sp)
    11a8:	4492                	lw	s1,4(sp)
    11aa:	4902                	lw	s2,0(sp)
    11ac:	0141                	addi	sp,sp,16
    11ae:	8082                	ret
    11b0:	00002797          	auipc	a5,0x2
    11b4:	11478793          	addi	a5,a5,276 # 32c4 <__sf_fake_stdout>
    11b8:	00f41463          	bne	s0,a5,11c0 <__swsetup_r+0x6e>
    11bc:	4480                	lw	s0,8(s1)
    11be:	b7c1                	j	117e <__swsetup_r+0x2c>
    11c0:	00002797          	auipc	a5,0x2
    11c4:	0c478793          	addi	a5,a5,196 # 3284 <__sf_fake_stderr>
    11c8:	faf41be3          	bne	s0,a5,117e <__swsetup_r+0x2c>
    11cc:	44c0                	lw	s0,12(s1)
    11ce:	bf45                	j	117e <__swsetup_r+0x2c>
    11d0:	8b91                	andi	a5,a5,4
    11d2:	c78d                	beqz	a5,11fc <__swsetup_r+0xaa>
    11d4:	584c                	lw	a1,52(s0)
    11d6:	c989                	beqz	a1,11e8 <__swsetup_r+0x96>
    11d8:	04440793          	addi	a5,s0,68
    11dc:	00f58463          	beq	a1,a5,11e4 <__swsetup_r+0x92>
    11e0:	854a                	mv	a0,s2
    11e2:	2399                	jal	1728 <_free_r>
    11e4:	02042a23          	sw	zero,52(s0)
    11e8:	00c45783          	lhu	a5,12(s0)
    11ec:	00042223          	sw	zero,4(s0)
    11f0:	fdb7f793          	andi	a5,a5,-37
    11f4:	00f41623          	sh	a5,12(s0)
    11f8:	481c                	lw	a5,16(s0)
    11fa:	c01c                	sw	a5,0(s0)
    11fc:	00c45783          	lhu	a5,12(s0)
    1200:	0087e793          	ori	a5,a5,8
    1204:	00f41623          	sh	a5,12(s0)
    1208:	481c                	lw	a5,16(s0)
    120a:	ef81                	bnez	a5,1222 <__swsetup_r+0xd0>
    120c:	00c45783          	lhu	a5,12(s0)
    1210:	20000713          	li	a4,512
    1214:	2807f793          	andi	a5,a5,640
    1218:	00e78563          	beq	a5,a4,1222 <__swsetup_r+0xd0>
    121c:	85a2                	mv	a1,s0
    121e:	854a                	mv	a0,s2
    1220:	2185                	jal	1680 <__smakebuf_r>
    1222:	00c45783          	lhu	a5,12(s0)
    1226:	0017f713          	andi	a4,a5,1
    122a:	c705                	beqz	a4,1252 <__swsetup_r+0x100>
    122c:	485c                	lw	a5,20(s0)
    122e:	00042423          	sw	zero,8(s0)
    1232:	40f007b3          	neg	a5,a5
    1236:	cc1c                	sw	a5,24(s0)
    1238:	481c                	lw	a5,16(s0)
    123a:	4501                	li	a0,0
    123c:	f7a5                	bnez	a5,11a4 <__swsetup_r+0x52>
    123e:	00c41783          	lh	a5,12(s0)
    1242:	0807f713          	andi	a4,a5,128
    1246:	df39                	beqz	a4,11a4 <__swsetup_r+0x52>
    1248:	0407e793          	ori	a5,a5,64
    124c:	00f41623          	sh	a5,12(s0)
    1250:	bf89                	j	11a2 <__swsetup_r+0x50>
    1252:	8b89                	andi	a5,a5,2
    1254:	4701                	li	a4,0
    1256:	e391                	bnez	a5,125a <__swsetup_r+0x108>
    1258:	4858                	lw	a4,20(s0)
    125a:	c418                	sw	a4,8(s0)
    125c:	bff1                	j	1238 <__swsetup_r+0xe6>

0000125e <__sflush_r>:
    125e:	00c5d783          	lhu	a5,12(a1)
    1262:	1101                	addi	sp,sp,-32
    1264:	cc22                	sw	s0,24(sp)
    1266:	ca26                	sw	s1,20(sp)
    1268:	ce06                	sw	ra,28(sp)
    126a:	c84a                	sw	s2,16(sp)
    126c:	c64e                	sw	s3,12(sp)
    126e:	0087f713          	andi	a4,a5,8
    1272:	84aa                	mv	s1,a0
    1274:	842e                	mv	s0,a1
    1276:	ef71                	bnez	a4,1352 <__sflush_r+0xf4>
    1278:	41d8                	lw	a4,4(a1)
    127a:	00e04d63          	bgtz	a4,1294 <__sflush_r+0x36>
    127e:	41b8                	lw	a4,64(a1)
    1280:	00e04a63          	bgtz	a4,1294 <__sflush_r+0x36>
    1284:	4501                	li	a0,0
    1286:	40f2                	lw	ra,28(sp)
    1288:	4462                	lw	s0,24(sp)
    128a:	44d2                	lw	s1,20(sp)
    128c:	4942                	lw	s2,16(sp)
    128e:	49b2                	lw	s3,12(sp)
    1290:	6105                	addi	sp,sp,32
    1292:	8082                	ret
    1294:	5458                	lw	a4,44(s0)
    1296:	d77d                	beqz	a4,1284 <__sflush_r+0x26>
    1298:	0004a903          	lw	s2,0(s1)
    129c:	01379693          	slli	a3,a5,0x13
    12a0:	0004a023          	sw	zero,0(s1)
    12a4:	0606dd63          	bgez	a3,131e <__sflush_r+0xc0>
    12a8:	4870                	lw	a2,84(s0)
    12aa:	00c45783          	lhu	a5,12(s0)
    12ae:	8b91                	andi	a5,a5,4
    12b0:	c799                	beqz	a5,12be <__sflush_r+0x60>
    12b2:	405c                	lw	a5,4(s0)
    12b4:	8e1d                	sub	a2,a2,a5
    12b6:	585c                	lw	a5,52(s0)
    12b8:	c399                	beqz	a5,12be <__sflush_r+0x60>
    12ba:	403c                	lw	a5,64(s0)
    12bc:	8e1d                	sub	a2,a2,a5
    12be:	545c                	lw	a5,44(s0)
    12c0:	500c                	lw	a1,32(s0)
    12c2:	4681                	li	a3,0
    12c4:	8526                	mv	a0,s1
    12c6:	9782                	jalr	a5
    12c8:	57fd                	li	a5,-1
    12ca:	00c45703          	lhu	a4,12(s0)
    12ce:	00f51d63          	bne	a0,a5,12e8 <__sflush_r+0x8a>
    12d2:	4094                	lw	a3,0(s1)
    12d4:	47f5                	li	a5,29
    12d6:	06d7e863          	bltu	a5,a3,1346 <__sflush_r+0xe8>
    12da:	204007b7          	lui	a5,0x20400
    12de:	0785                	addi	a5,a5,1
    12e0:	00d7d7b3          	srl	a5,a5,a3
    12e4:	8b85                	andi	a5,a5,1
    12e6:	c3a5                	beqz	a5,1346 <__sflush_r+0xe8>
    12e8:	481c                	lw	a5,16(s0)
    12ea:	00042223          	sw	zero,4(s0)
    12ee:	c01c                	sw	a5,0(s0)
    12f0:	01371793          	slli	a5,a4,0x13
    12f4:	0007d863          	bgez	a5,1304 <__sflush_r+0xa6>
    12f8:	57fd                	li	a5,-1
    12fa:	00f51463          	bne	a0,a5,1302 <__sflush_r+0xa4>
    12fe:	409c                	lw	a5,0(s1)
    1300:	e391                	bnez	a5,1304 <__sflush_r+0xa6>
    1302:	c868                	sw	a0,84(s0)
    1304:	584c                	lw	a1,52(s0)
    1306:	0124a023          	sw	s2,0(s1)
    130a:	ddad                	beqz	a1,1284 <__sflush_r+0x26>
    130c:	04440793          	addi	a5,s0,68
    1310:	00f58463          	beq	a1,a5,1318 <__sflush_r+0xba>
    1314:	8526                	mv	a0,s1
    1316:	2909                	jal	1728 <_free_r>
    1318:	02042a23          	sw	zero,52(s0)
    131c:	b7a5                	j	1284 <__sflush_r+0x26>
    131e:	500c                	lw	a1,32(s0)
    1320:	4601                	li	a2,0
    1322:	4685                	li	a3,1
    1324:	8526                	mv	a0,s1
    1326:	9702                	jalr	a4
    1328:	57fd                	li	a5,-1
    132a:	862a                	mv	a2,a0
    132c:	f6f51fe3          	bne	a0,a5,12aa <__sflush_r+0x4c>
    1330:	409c                	lw	a5,0(s1)
    1332:	dfa5                	beqz	a5,12aa <__sflush_r+0x4c>
    1334:	4775                	li	a4,29
    1336:	00e78563          	beq	a5,a4,1340 <__sflush_r+0xe2>
    133a:	4759                	li	a4,22
    133c:	04e79463          	bne	a5,a4,1384 <__sflush_r+0x126>
    1340:	0124a023          	sw	s2,0(s1)
    1344:	b781                	j	1284 <__sflush_r+0x26>
    1346:	04076713          	ori	a4,a4,64
    134a:	00e41623          	sh	a4,12(s0)
    134e:	557d                	li	a0,-1
    1350:	bf1d                	j	1286 <__sflush_r+0x28>
    1352:	0105a983          	lw	s3,16(a1)
    1356:	f20987e3          	beqz	s3,1284 <__sflush_r+0x26>
    135a:	0005a903          	lw	s2,0(a1)
    135e:	8b8d                	andi	a5,a5,3
    1360:	0135a023          	sw	s3,0(a1)
    1364:	41390933          	sub	s2,s2,s3
    1368:	4701                	li	a4,0
    136a:	e391                	bnez	a5,136e <__sflush_r+0x110>
    136c:	49d8                	lw	a4,20(a1)
    136e:	c418                	sw	a4,8(s0)
    1370:	f1205ae3          	blez	s2,1284 <__sflush_r+0x26>
    1374:	541c                	lw	a5,40(s0)
    1376:	500c                	lw	a1,32(s0)
    1378:	86ca                	mv	a3,s2
    137a:	864e                	mv	a2,s3
    137c:	8526                	mv	a0,s1
    137e:	9782                	jalr	a5
    1380:	00a04963          	bgtz	a0,1392 <__sflush_r+0x134>
    1384:	00c45783          	lhu	a5,12(s0)
    1388:	0407e793          	ori	a5,a5,64
    138c:	00f41623          	sh	a5,12(s0)
    1390:	bf7d                	j	134e <__sflush_r+0xf0>
    1392:	99aa                	add	s3,s3,a0
    1394:	40a90933          	sub	s2,s2,a0
    1398:	bfe1                	j	1370 <__sflush_r+0x112>

0000139a <_fflush_r>:
    139a:	499c                	lw	a5,16(a1)
    139c:	cfb9                	beqz	a5,13fa <_fflush_r+0x60>
    139e:	1101                	addi	sp,sp,-32
    13a0:	cc22                	sw	s0,24(sp)
    13a2:	ce06                	sw	ra,28(sp)
    13a4:	842a                	mv	s0,a0
    13a6:	c511                	beqz	a0,13b2 <_fflush_r+0x18>
    13a8:	4d1c                	lw	a5,24(a0)
    13aa:	e781                	bnez	a5,13b2 <_fflush_r+0x18>
    13ac:	c62e                	sw	a1,12(sp)
    13ae:	2229                	jal	14b8 <__sinit>
    13b0:	45b2                	lw	a1,12(sp)
    13b2:	00002797          	auipc	a5,0x2
    13b6:	ef278793          	addi	a5,a5,-270 # 32a4 <__sf_fake_stdin>
    13ba:	00f59b63          	bne	a1,a5,13d0 <_fflush_r+0x36>
    13be:	404c                	lw	a1,4(s0)
    13c0:	00c59783          	lh	a5,12(a1)
    13c4:	c795                	beqz	a5,13f0 <_fflush_r+0x56>
    13c6:	8522                	mv	a0,s0
    13c8:	4462                	lw	s0,24(sp)
    13ca:	40f2                	lw	ra,28(sp)
    13cc:	6105                	addi	sp,sp,32
    13ce:	bd41                	j	125e <__sflush_r>
    13d0:	00002797          	auipc	a5,0x2
    13d4:	ef478793          	addi	a5,a5,-268 # 32c4 <__sf_fake_stdout>
    13d8:	00f59463          	bne	a1,a5,13e0 <_fflush_r+0x46>
    13dc:	440c                	lw	a1,8(s0)
    13de:	b7cd                	j	13c0 <_fflush_r+0x26>
    13e0:	00002797          	auipc	a5,0x2
    13e4:	ea478793          	addi	a5,a5,-348 # 3284 <__sf_fake_stderr>
    13e8:	fcf59ce3          	bne	a1,a5,13c0 <_fflush_r+0x26>
    13ec:	444c                	lw	a1,12(s0)
    13ee:	bfc9                	j	13c0 <_fflush_r+0x26>
    13f0:	40f2                	lw	ra,28(sp)
    13f2:	4462                	lw	s0,24(sp)
    13f4:	4501                	li	a0,0
    13f6:	6105                	addi	sp,sp,32
    13f8:	8082                	ret
    13fa:	4501                	li	a0,0
    13fc:	8082                	ret

000013fe <std>:
    13fe:	1141                	addi	sp,sp,-16
    1400:	c422                	sw	s0,8(sp)
    1402:	c606                	sw	ra,12(sp)
    1404:	842a                	mv	s0,a0
    1406:	00b51623          	sh	a1,12(a0)
    140a:	00c51723          	sh	a2,14(a0)
    140e:	00052023          	sw	zero,0(a0)
    1412:	00052223          	sw	zero,4(a0)
    1416:	00052423          	sw	zero,8(a0)
    141a:	06052223          	sw	zero,100(a0)
    141e:	00052823          	sw	zero,16(a0)
    1422:	00052a23          	sw	zero,20(a0)
    1426:	00052c23          	sw	zero,24(a0)
    142a:	4621                	li	a2,8
    142c:	4581                	li	a1,0
    142e:	05c50513          	addi	a0,a0,92
    1432:	dcffe0ef          	jal	ra,200 <memset>
    1436:	00001797          	auipc	a5,0x1
    143a:	f4c78793          	addi	a5,a5,-180 # 2382 <__sread>
    143e:	d05c                	sw	a5,36(s0)
    1440:	00001797          	auipc	a5,0x1
    1444:	f7278793          	addi	a5,a5,-142 # 23b2 <__swrite>
    1448:	d41c                	sw	a5,40(s0)
    144a:	00001797          	auipc	a5,0x1
    144e:	fb678793          	addi	a5,a5,-74 # 2400 <__sseek>
    1452:	d45c                	sw	a5,44(s0)
    1454:	00001797          	auipc	a5,0x1
    1458:	fe278793          	addi	a5,a5,-30 # 2436 <__sclose>
    145c:	d000                	sw	s0,32(s0)
    145e:	d81c                	sw	a5,48(s0)
    1460:	40b2                	lw	ra,12(sp)
    1462:	4422                	lw	s0,8(sp)
    1464:	0141                	addi	sp,sp,16
    1466:	8082                	ret

00001468 <_cleanup_r>:
    1468:	00000597          	auipc	a1,0x0
    146c:	f3258593          	addi	a1,a1,-206 # 139a <_fflush_r>
    1470:	a2a9                	j	15ba <_fwalk_reent>

00001472 <__sfmoreglue>:
    1472:	1141                	addi	sp,sp,-16
    1474:	c226                	sw	s1,4(sp)
    1476:	06800613          	li	a2,104
    147a:	fff58493          	addi	s1,a1,-1
    147e:	02c484b3          	mul	s1,s1,a2
    1482:	c04a                	sw	s2,0(sp)
    1484:	892e                	mv	s2,a1
    1486:	c422                	sw	s0,8(sp)
    1488:	c606                	sw	ra,12(sp)
    148a:	07448593          	addi	a1,s1,116
    148e:	2689                	jal	17d0 <_malloc_r>
    1490:	842a                	mv	s0,a0
    1492:	cd01                	beqz	a0,14aa <__sfmoreglue+0x38>
    1494:	00052023          	sw	zero,0(a0)
    1498:	01252223          	sw	s2,4(a0)
    149c:	0531                	addi	a0,a0,12
    149e:	c408                	sw	a0,8(s0)
    14a0:	06848613          	addi	a2,s1,104
    14a4:	4581                	li	a1,0
    14a6:	d5bfe0ef          	jal	ra,200 <memset>
    14aa:	8522                	mv	a0,s0
    14ac:	40b2                	lw	ra,12(sp)
    14ae:	4422                	lw	s0,8(sp)
    14b0:	4492                	lw	s1,4(sp)
    14b2:	4902                	lw	s2,0(sp)
    14b4:	0141                	addi	sp,sp,16
    14b6:	8082                	ret

000014b8 <__sinit>:
    14b8:	4d1c                	lw	a5,24(a0)
    14ba:	e3ad                	bnez	a5,151c <__sinit+0x64>
    14bc:	1141                	addi	sp,sp,-16
    14be:	c606                	sw	ra,12(sp)
    14c0:	c422                	sw	s0,8(sp)
    14c2:	00000797          	auipc	a5,0x0
    14c6:	fa678793          	addi	a5,a5,-90 # 1468 <_cleanup_r>
    14ca:	d51c                	sw	a5,40(a0)
    14cc:	80c18793          	addi	a5,gp,-2036 # 2000007c <_global_impure_ptr>
    14d0:	439c                	lw	a5,0(a5)
    14d2:	04052423          	sw	zero,72(a0)
    14d6:	04052623          	sw	zero,76(a0)
    14da:	04052823          	sw	zero,80(a0)
    14de:	00f51463          	bne	a0,a5,14e6 <__sinit+0x2e>
    14e2:	4785                	li	a5,1
    14e4:	cd1c                	sw	a5,24(a0)
    14e6:	842a                	mv	s0,a0
    14e8:	281d                	jal	151e <__sfp>
    14ea:	c048                	sw	a0,4(s0)
    14ec:	8522                	mv	a0,s0
    14ee:	2805                	jal	151e <__sfp>
    14f0:	c408                	sw	a0,8(s0)
    14f2:	8522                	mv	a0,s0
    14f4:	202d                	jal	151e <__sfp>
    14f6:	c448                	sw	a0,12(s0)
    14f8:	4048                	lw	a0,4(s0)
    14fa:	4601                	li	a2,0
    14fc:	4591                	li	a1,4
    14fe:	3701                	jal	13fe <std>
    1500:	4408                	lw	a0,8(s0)
    1502:	4605                	li	a2,1
    1504:	45a5                	li	a1,9
    1506:	3de5                	jal	13fe <std>
    1508:	4448                	lw	a0,12(s0)
    150a:	4609                	li	a2,2
    150c:	45c9                	li	a1,18
    150e:	3dc5                	jal	13fe <std>
    1510:	4785                	li	a5,1
    1512:	cc1c                	sw	a5,24(s0)
    1514:	40b2                	lw	ra,12(sp)
    1516:	4422                	lw	s0,8(sp)
    1518:	0141                	addi	sp,sp,16
    151a:	8082                	ret
    151c:	8082                	ret

0000151e <__sfp>:
    151e:	1141                	addi	sp,sp,-16
    1520:	80c18793          	addi	a5,gp,-2036 # 2000007c <_global_impure_ptr>
    1524:	c226                	sw	s1,4(sp)
    1526:	4384                	lw	s1,0(a5)
    1528:	c04a                	sw	s2,0(sp)
    152a:	c606                	sw	ra,12(sp)
    152c:	4c9c                	lw	a5,24(s1)
    152e:	c422                	sw	s0,8(sp)
    1530:	892a                	mv	s2,a0
    1532:	e399                	bnez	a5,1538 <__sfp+0x1a>
    1534:	8526                	mv	a0,s1
    1536:	3749                	jal	14b8 <__sinit>
    1538:	04848493          	addi	s1,s1,72
    153c:	4480                	lw	s0,8(s1)
    153e:	40dc                	lw	a5,4(s1)
    1540:	17fd                	addi	a5,a5,-1
    1542:	0007d663          	bgez	a5,154e <__sfp+0x30>
    1546:	409c                	lw	a5,0(s1)
    1548:	cfb9                	beqz	a5,15a6 <__sfp+0x88>
    154a:	4084                	lw	s1,0(s1)
    154c:	bfc5                	j	153c <__sfp+0x1e>
    154e:	00c41703          	lh	a4,12(s0)
    1552:	e739                	bnez	a4,15a0 <__sfp+0x82>
    1554:	77c1                	lui	a5,0xffff0
    1556:	0785                	addi	a5,a5,1
    1558:	06042223          	sw	zero,100(s0)
    155c:	00042023          	sw	zero,0(s0)
    1560:	00042223          	sw	zero,4(s0)
    1564:	00042423          	sw	zero,8(s0)
    1568:	c45c                	sw	a5,12(s0)
    156a:	00042823          	sw	zero,16(s0)
    156e:	00042a23          	sw	zero,20(s0)
    1572:	00042c23          	sw	zero,24(s0)
    1576:	4621                	li	a2,8
    1578:	4581                	li	a1,0
    157a:	05c40513          	addi	a0,s0,92
    157e:	c83fe0ef          	jal	ra,200 <memset>
    1582:	02042a23          	sw	zero,52(s0)
    1586:	02042c23          	sw	zero,56(s0)
    158a:	04042423          	sw	zero,72(s0)
    158e:	04042623          	sw	zero,76(s0)
    1592:	8522                	mv	a0,s0
    1594:	40b2                	lw	ra,12(sp)
    1596:	4422                	lw	s0,8(sp)
    1598:	4492                	lw	s1,4(sp)
    159a:	4902                	lw	s2,0(sp)
    159c:	0141                	addi	sp,sp,16
    159e:	8082                	ret
    15a0:	06840413          	addi	s0,s0,104
    15a4:	bf71                	j	1540 <__sfp+0x22>
    15a6:	4591                	li	a1,4
    15a8:	854a                	mv	a0,s2
    15aa:	35e1                	jal	1472 <__sfmoreglue>
    15ac:	c088                	sw	a0,0(s1)
    15ae:	fd51                	bnez	a0,154a <__sfp+0x2c>
    15b0:	47b1                	li	a5,12
    15b2:	00f92023          	sw	a5,0(s2)
    15b6:	4401                	li	s0,0
    15b8:	bfe9                	j	1592 <__sfp+0x74>

000015ba <_fwalk_reent>:
    15ba:	7179                	addi	sp,sp,-48
    15bc:	d422                	sw	s0,40(sp)
    15be:	d04a                	sw	s2,32(sp)
    15c0:	cc52                	sw	s4,24(sp)
    15c2:	ca56                	sw	s5,20(sp)
    15c4:	c85a                	sw	s6,16(sp)
    15c6:	c65e                	sw	s7,12(sp)
    15c8:	d606                	sw	ra,44(sp)
    15ca:	d226                	sw	s1,36(sp)
    15cc:	ce4e                	sw	s3,28(sp)
    15ce:	8a2a                	mv	s4,a0
    15d0:	8aae                	mv	s5,a1
    15d2:	04850413          	addi	s0,a0,72
    15d6:	4901                	li	s2,0
    15d8:	4b05                	li	s6,1
    15da:	5bfd                	li	s7,-1
    15dc:	ec09                	bnez	s0,15f6 <_fwalk_reent+0x3c>
    15de:	50b2                	lw	ra,44(sp)
    15e0:	5422                	lw	s0,40(sp)
    15e2:	854a                	mv	a0,s2
    15e4:	5492                	lw	s1,36(sp)
    15e6:	5902                	lw	s2,32(sp)
    15e8:	49f2                	lw	s3,28(sp)
    15ea:	4a62                	lw	s4,24(sp)
    15ec:	4ad2                	lw	s5,20(sp)
    15ee:	4b42                	lw	s6,16(sp)
    15f0:	4bb2                	lw	s7,12(sp)
    15f2:	6145                	addi	sp,sp,48
    15f4:	8082                	ret
    15f6:	4404                	lw	s1,8(s0)
    15f8:	00442983          	lw	s3,4(s0)
    15fc:	19fd                	addi	s3,s3,-1
    15fe:	0009d463          	bgez	s3,1606 <_fwalk_reent+0x4c>
    1602:	4000                	lw	s0,0(s0)
    1604:	bfe1                	j	15dc <_fwalk_reent+0x22>
    1606:	00c4d783          	lhu	a5,12(s1)
    160a:	00fb7b63          	bgeu	s6,a5,1620 <_fwalk_reent+0x66>
    160e:	00e49783          	lh	a5,14(s1)
    1612:	01778763          	beq	a5,s7,1620 <_fwalk_reent+0x66>
    1616:	85a6                	mv	a1,s1
    1618:	8552                	mv	a0,s4
    161a:	9a82                	jalr	s5
    161c:	00a96933          	or	s2,s2,a0
    1620:	06848493          	addi	s1,s1,104
    1624:	bfe1                	j	15fc <_fwalk_reent+0x42>

00001626 <__swhatbuf_r>:
    1626:	7119                	addi	sp,sp,-128
    1628:	daa6                	sw	s1,116(sp)
    162a:	84ae                	mv	s1,a1
    162c:	00e59583          	lh	a1,14(a1)
    1630:	dca2                	sw	s0,120(sp)
    1632:	de86                	sw	ra,124(sp)
    1634:	8432                	mv	s0,a2
    1636:	0005dc63          	bgez	a1,164e <__swhatbuf_r+0x28>
    163a:	00c4d783          	lhu	a5,12(s1)
    163e:	0006a023          	sw	zero,0(a3)
    1642:	0807f793          	andi	a5,a5,128
    1646:	e785                	bnez	a5,166e <__swhatbuf_r+0x48>
    1648:	40000793          	li	a5,1024
    164c:	a01d                	j	1672 <__swhatbuf_r+0x4c>
    164e:	0830                	addi	a2,sp,24
    1650:	c636                	sw	a3,12(sp)
    1652:	651000ef          	jal	ra,24a2 <_fstat_r>
    1656:	46b2                	lw	a3,12(sp)
    1658:	fe0541e3          	bltz	a0,163a <__swhatbuf_r+0x14>
    165c:	4772                	lw	a4,28(sp)
    165e:	67bd                	lui	a5,0xf
    1660:	8ff9                	and	a5,a5,a4
    1662:	7779                	lui	a4,0xffffe
    1664:	97ba                	add	a5,a5,a4
    1666:	0017b793          	seqz	a5,a5
    166a:	c29c                	sw	a5,0(a3)
    166c:	bff1                	j	1648 <__swhatbuf_r+0x22>
    166e:	04000793          	li	a5,64
    1672:	c01c                	sw	a5,0(s0)
    1674:	50f6                	lw	ra,124(sp)
    1676:	5466                	lw	s0,120(sp)
    1678:	54d6                	lw	s1,116(sp)
    167a:	4501                	li	a0,0
    167c:	6109                	addi	sp,sp,128
    167e:	8082                	ret

00001680 <__smakebuf_r>:
    1680:	00c5d783          	lhu	a5,12(a1)
    1684:	1101                	addi	sp,sp,-32
    1686:	cc22                	sw	s0,24(sp)
    1688:	ce06                	sw	ra,28(sp)
    168a:	ca26                	sw	s1,20(sp)
    168c:	c84a                	sw	s2,16(sp)
    168e:	8b89                	andi	a5,a5,2
    1690:	842e                	mv	s0,a1
    1692:	cf89                	beqz	a5,16ac <__smakebuf_r+0x2c>
    1694:	04740793          	addi	a5,s0,71
    1698:	c01c                	sw	a5,0(s0)
    169a:	c81c                	sw	a5,16(s0)
    169c:	4785                	li	a5,1
    169e:	c85c                	sw	a5,20(s0)
    16a0:	40f2                	lw	ra,28(sp)
    16a2:	4462                	lw	s0,24(sp)
    16a4:	44d2                	lw	s1,20(sp)
    16a6:	4942                	lw	s2,16(sp)
    16a8:	6105                	addi	sp,sp,32
    16aa:	8082                	ret
    16ac:	0074                	addi	a3,sp,12
    16ae:	0030                	addi	a2,sp,8
    16b0:	84aa                	mv	s1,a0
    16b2:	3f95                	jal	1626 <__swhatbuf_r>
    16b4:	45a2                	lw	a1,8(sp)
    16b6:	892a                	mv	s2,a0
    16b8:	8526                	mv	a0,s1
    16ba:	2a19                	jal	17d0 <_malloc_r>
    16bc:	ed01                	bnez	a0,16d4 <__smakebuf_r+0x54>
    16be:	00c41783          	lh	a5,12(s0)
    16c2:	2007f713          	andi	a4,a5,512
    16c6:	ff69                	bnez	a4,16a0 <__smakebuf_r+0x20>
    16c8:	9bf1                	andi	a5,a5,-4
    16ca:	0027e793          	ori	a5,a5,2
    16ce:	00f41623          	sh	a5,12(s0)
    16d2:	b7c9                	j	1694 <__smakebuf_r+0x14>
    16d4:	00000797          	auipc	a5,0x0
    16d8:	d9478793          	addi	a5,a5,-620 # 1468 <_cleanup_r>
    16dc:	d49c                	sw	a5,40(s1)
    16de:	00c45783          	lhu	a5,12(s0)
    16e2:	c008                	sw	a0,0(s0)
    16e4:	c808                	sw	a0,16(s0)
    16e6:	0807e793          	ori	a5,a5,128
    16ea:	00f41623          	sh	a5,12(s0)
    16ee:	47a2                	lw	a5,8(sp)
    16f0:	c85c                	sw	a5,20(s0)
    16f2:	47b2                	lw	a5,12(sp)
    16f4:	cf91                	beqz	a5,1710 <__smakebuf_r+0x90>
    16f6:	00e41583          	lh	a1,14(s0)
    16fa:	8526                	mv	a0,s1
    16fc:	5d9000ef          	jal	ra,24d4 <_isatty_r>
    1700:	c901                	beqz	a0,1710 <__smakebuf_r+0x90>
    1702:	00c45783          	lhu	a5,12(s0)
    1706:	9bf1                	andi	a5,a5,-4
    1708:	0017e793          	ori	a5,a5,1
    170c:	00f41623          	sh	a5,12(s0)
    1710:	00c45783          	lhu	a5,12(s0)
    1714:	00f96933          	or	s2,s2,a5
    1718:	01241623          	sh	s2,12(s0)
    171c:	b751                	j	16a0 <__smakebuf_r+0x20>

0000171e <malloc>:
    171e:	80818793          	addi	a5,gp,-2040 # 20000078 <_impure_ptr>
    1722:	85aa                	mv	a1,a0
    1724:	4388                	lw	a0,0(a5)
    1726:	a06d                	j	17d0 <_malloc_r>

00001728 <_free_r>:
    1728:	c1dd                	beqz	a1,17ce <_free_r+0xa6>
    172a:	ffc5a783          	lw	a5,-4(a1)
    172e:	1141                	addi	sp,sp,-16
    1730:	c422                	sw	s0,8(sp)
    1732:	c606                	sw	ra,12(sp)
    1734:	c226                	sw	s1,4(sp)
    1736:	ffc58413          	addi	s0,a1,-4
    173a:	0007d363          	bgez	a5,1740 <_free_r+0x18>
    173e:	943e                	add	s0,s0,a5
    1740:	84aa                	mv	s1,a0
    1742:	711000ef          	jal	ra,2652 <__malloc_lock>
    1746:	81418793          	addi	a5,gp,-2028 # 20000084 <__malloc_free_list>
    174a:	439c                	lw	a5,0(a5)
    174c:	ef81                	bnez	a5,1764 <_free_r+0x3c>
    174e:	00042223          	sw	zero,4(s0)
    1752:	8081aa23          	sw	s0,-2028(gp) # 20000084 <__malloc_free_list>
    1756:	4422                	lw	s0,8(sp)
    1758:	40b2                	lw	ra,12(sp)
    175a:	8526                	mv	a0,s1
    175c:	4492                	lw	s1,4(sp)
    175e:	0141                	addi	sp,sp,16
    1760:	6f50006f          	j	2654 <__malloc_unlock>
    1764:	00f47e63          	bgeu	s0,a5,1780 <_free_r+0x58>
    1768:	4014                	lw	a3,0(s0)
    176a:	00d40733          	add	a4,s0,a3
    176e:	00e79663          	bne	a5,a4,177a <_free_r+0x52>
    1772:	4398                	lw	a4,0(a5)
    1774:	43dc                	lw	a5,4(a5)
    1776:	9736                	add	a4,a4,a3
    1778:	c018                	sw	a4,0(s0)
    177a:	c05c                	sw	a5,4(s0)
    177c:	bfd9                	j	1752 <_free_r+0x2a>
    177e:	87ba                	mv	a5,a4
    1780:	43d8                	lw	a4,4(a5)
    1782:	c319                	beqz	a4,1788 <_free_r+0x60>
    1784:	fee47de3          	bgeu	s0,a4,177e <_free_r+0x56>
    1788:	4394                	lw	a3,0(a5)
    178a:	00d78633          	add	a2,a5,a3
    178e:	00861f63          	bne	a2,s0,17ac <_free_r+0x84>
    1792:	4010                	lw	a2,0(s0)
    1794:	96b2                	add	a3,a3,a2
    1796:	c394                	sw	a3,0(a5)
    1798:	00d78633          	add	a2,a5,a3
    179c:	fac71de3          	bne	a4,a2,1756 <_free_r+0x2e>
    17a0:	4310                	lw	a2,0(a4)
    17a2:	4358                	lw	a4,4(a4)
    17a4:	96b2                	add	a3,a3,a2
    17a6:	c394                	sw	a3,0(a5)
    17a8:	c3d8                	sw	a4,4(a5)
    17aa:	b775                	j	1756 <_free_r+0x2e>
    17ac:	00c47563          	bgeu	s0,a2,17b6 <_free_r+0x8e>
    17b0:	47b1                	li	a5,12
    17b2:	c09c                	sw	a5,0(s1)
    17b4:	b74d                	j	1756 <_free_r+0x2e>
    17b6:	4010                	lw	a2,0(s0)
    17b8:	00c406b3          	add	a3,s0,a2
    17bc:	00d71663          	bne	a4,a3,17c8 <_free_r+0xa0>
    17c0:	4314                	lw	a3,0(a4)
    17c2:	4358                	lw	a4,4(a4)
    17c4:	96b2                	add	a3,a3,a2
    17c6:	c014                	sw	a3,0(s0)
    17c8:	c058                	sw	a4,4(s0)
    17ca:	c3c0                	sw	s0,4(a5)
    17cc:	b769                	j	1756 <_free_r+0x2e>
    17ce:	8082                	ret

000017d0 <_malloc_r>:
    17d0:	1101                	addi	sp,sp,-32
    17d2:	ca26                	sw	s1,20(sp)
    17d4:	00358493          	addi	s1,a1,3
    17d8:	98f1                	andi	s1,s1,-4
    17da:	ce06                	sw	ra,28(sp)
    17dc:	cc22                	sw	s0,24(sp)
    17de:	c84a                	sw	s2,16(sp)
    17e0:	c64e                	sw	s3,12(sp)
    17e2:	04a1                	addi	s1,s1,8
    17e4:	47b1                	li	a5,12
    17e6:	04f4f563          	bgeu	s1,a5,1830 <_malloc_r+0x60>
    17ea:	44b1                	li	s1,12
    17ec:	04b4e463          	bltu	s1,a1,1834 <_malloc_r+0x64>
    17f0:	892a                	mv	s2,a0
    17f2:	661000ef          	jal	ra,2652 <__malloc_lock>
    17f6:	81418793          	addi	a5,gp,-2028 # 20000084 <__malloc_free_list>
    17fa:	4398                	lw	a4,0(a5)
    17fc:	843a                	mv	s0,a4
    17fe:	e429                	bnez	s0,1848 <_malloc_r+0x78>
    1800:	81818793          	addi	a5,gp,-2024 # 20000088 <__malloc_sbrk_start>
    1804:	439c                	lw	a5,0(a5)
    1806:	e799                	bnez	a5,1814 <_malloc_r+0x44>
    1808:	4581                	li	a1,0
    180a:	854a                	mv	a0,s2
    180c:	347000ef          	jal	ra,2352 <_sbrk_r>
    1810:	80a1ac23          	sw	a0,-2024(gp) # 20000088 <__malloc_sbrk_start>
    1814:	85a6                	mv	a1,s1
    1816:	854a                	mv	a0,s2
    1818:	33b000ef          	jal	ra,2352 <_sbrk_r>
    181c:	59fd                	li	s3,-1
    181e:	07351963          	bne	a0,s3,1890 <_malloc_r+0xc0>
    1822:	47b1                	li	a5,12
    1824:	00f92023          	sw	a5,0(s2)
    1828:	854a                	mv	a0,s2
    182a:	62b000ef          	jal	ra,2654 <__malloc_unlock>
    182e:	a029                	j	1838 <_malloc_r+0x68>
    1830:	fa04dee3          	bgez	s1,17ec <_malloc_r+0x1c>
    1834:	47b1                	li	a5,12
    1836:	c11c                	sw	a5,0(a0)
    1838:	4501                	li	a0,0
    183a:	40f2                	lw	ra,28(sp)
    183c:	4462                	lw	s0,24(sp)
    183e:	44d2                	lw	s1,20(sp)
    1840:	4942                	lw	s2,16(sp)
    1842:	49b2                	lw	s3,12(sp)
    1844:	6105                	addi	sp,sp,32
    1846:	8082                	ret
    1848:	401c                	lw	a5,0(s0)
    184a:	8f85                	sub	a5,a5,s1
    184c:	0207cf63          	bltz	a5,188a <_malloc_r+0xba>
    1850:	46ad                	li	a3,11
    1852:	00f6f663          	bgeu	a3,a5,185e <_malloc_r+0x8e>
    1856:	c01c                	sw	a5,0(s0)
    1858:	943e                	add	s0,s0,a5
    185a:	c004                	sw	s1,0(s0)
    185c:	a031                	j	1868 <_malloc_r+0x98>
    185e:	405c                	lw	a5,4(s0)
    1860:	02871363          	bne	a4,s0,1886 <_malloc_r+0xb6>
    1864:	80f1aa23          	sw	a5,-2028(gp) # 20000084 <__malloc_free_list>
    1868:	854a                	mv	a0,s2
    186a:	5eb000ef          	jal	ra,2654 <__malloc_unlock>
    186e:	00b40513          	addi	a0,s0,11
    1872:	00440793          	addi	a5,s0,4
    1876:	9961                	andi	a0,a0,-8
    1878:	40f50733          	sub	a4,a0,a5
    187c:	df5d                	beqz	a4,183a <_malloc_r+0x6a>
    187e:	943a                	add	s0,s0,a4
    1880:	8f89                	sub	a5,a5,a0
    1882:	c01c                	sw	a5,0(s0)
    1884:	bf5d                	j	183a <_malloc_r+0x6a>
    1886:	c35c                	sw	a5,4(a4)
    1888:	b7c5                	j	1868 <_malloc_r+0x98>
    188a:	8722                	mv	a4,s0
    188c:	4040                	lw	s0,4(s0)
    188e:	bf85                	j	17fe <_malloc_r+0x2e>
    1890:	00350413          	addi	s0,a0,3
    1894:	9871                	andi	s0,s0,-4
    1896:	fc8502e3          	beq	a0,s0,185a <_malloc_r+0x8a>
    189a:	40a405b3          	sub	a1,s0,a0
    189e:	854a                	mv	a0,s2
    18a0:	2b3000ef          	jal	ra,2352 <_sbrk_r>
    18a4:	fb351be3          	bne	a0,s3,185a <_malloc_r+0x8a>
    18a8:	bfad                	j	1822 <_malloc_r+0x52>

000018aa <__ssputs_r>:
    18aa:	1101                	addi	sp,sp,-32
    18ac:	c84a                	sw	s2,16(sp)
    18ae:	0085a903          	lw	s2,8(a1)
    18b2:	cc22                	sw	s0,24(sp)
    18b4:	c452                	sw	s4,8(sp)
    18b6:	c05a                	sw	s6,0(sp)
    18b8:	ce06                	sw	ra,28(sp)
    18ba:	ca26                	sw	s1,20(sp)
    18bc:	c64e                	sw	s3,12(sp)
    18be:	c256                	sw	s5,4(sp)
    18c0:	842e                	mv	s0,a1
    18c2:	8b32                	mv	s6,a2
    18c4:	8a36                	mv	s4,a3
    18c6:	0926ed63          	bltu	a3,s2,1960 <__ssputs_r+0xb6>
    18ca:	00c5d783          	lhu	a5,12(a1)
    18ce:	4807f713          	andi	a4,a5,1152
    18d2:	c749                	beqz	a4,195c <__ssputs_r+0xb2>
    18d4:	4004                	lw	s1,0(s0)
    18d6:	498c                	lw	a1,16(a1)
    18d8:	4858                	lw	a4,20(s0)
    18da:	8aaa                	mv	s5,a0
    18dc:	40b489b3          	sub	s3,s1,a1
    18e0:	448d                	li	s1,3
    18e2:	02e484b3          	mul	s1,s1,a4
    18e6:	4709                	li	a4,2
    18e8:	02e4c4b3          	div	s1,s1,a4
    18ec:	00168713          	addi	a4,a3,1
    18f0:	974e                	add	a4,a4,s3
    18f2:	00e4f363          	bgeu	s1,a4,18f8 <__ssputs_r+0x4e>
    18f6:	84ba                	mv	s1,a4
    18f8:	4007f793          	andi	a5,a5,1024
    18fc:	c3d1                	beqz	a5,1980 <__ssputs_r+0xd6>
    18fe:	85a6                	mv	a1,s1
    1900:	8556                	mv	a0,s5
    1902:	35f9                	jal	17d0 <_malloc_r>
    1904:	892a                	mv	s2,a0
    1906:	e50d                	bnez	a0,1930 <__ssputs_r+0x86>
    1908:	47b1                	li	a5,12
    190a:	00faa023          	sw	a5,0(s5)
    190e:	00c45783          	lhu	a5,12(s0)
    1912:	557d                	li	a0,-1
    1914:	0407e793          	ori	a5,a5,64
    1918:	00f41623          	sh	a5,12(s0)
    191c:	40f2                	lw	ra,28(sp)
    191e:	4462                	lw	s0,24(sp)
    1920:	44d2                	lw	s1,20(sp)
    1922:	4942                	lw	s2,16(sp)
    1924:	49b2                	lw	s3,12(sp)
    1926:	4a22                	lw	s4,8(sp)
    1928:	4a92                	lw	s5,4(sp)
    192a:	4b02                	lw	s6,0(sp)
    192c:	6105                	addi	sp,sp,32
    192e:	8082                	ret
    1930:	480c                	lw	a1,16(s0)
    1932:	864e                	mv	a2,s3
    1934:	41f000ef          	jal	ra,2552 <memcpy>
    1938:	00c45783          	lhu	a5,12(s0)
    193c:	b7f7f793          	andi	a5,a5,-1153
    1940:	0807e793          	ori	a5,a5,128
    1944:	00f41623          	sh	a5,12(s0)
    1948:	01242823          	sw	s2,16(s0)
    194c:	c844                	sw	s1,20(s0)
    194e:	994e                	add	s2,s2,s3
    1950:	413484b3          	sub	s1,s1,s3
    1954:	01242023          	sw	s2,0(s0)
    1958:	c404                	sw	s1,8(s0)
    195a:	8952                	mv	s2,s4
    195c:	012a7363          	bgeu	s4,s2,1962 <__ssputs_r+0xb8>
    1960:	8952                	mv	s2,s4
    1962:	4008                	lw	a0,0(s0)
    1964:	864a                	mv	a2,s2
    1966:	85da                	mv	a1,s6
    1968:	4a1000ef          	jal	ra,2608 <memmove>
    196c:	441c                	lw	a5,8(s0)
    196e:	4501                	li	a0,0
    1970:	412787b3          	sub	a5,a5,s2
    1974:	c41c                	sw	a5,8(s0)
    1976:	401c                	lw	a5,0(s0)
    1978:	993e                	add	s2,s2,a5
    197a:	01242023          	sw	s2,0(s0)
    197e:	bf79                	j	191c <__ssputs_r+0x72>
    1980:	8626                	mv	a2,s1
    1982:	8556                	mv	a0,s5
    1984:	4d3000ef          	jal	ra,2656 <_realloc_r>
    1988:	892a                	mv	s2,a0
    198a:	fd5d                	bnez	a0,1948 <__ssputs_r+0x9e>
    198c:	480c                	lw	a1,16(s0)
    198e:	8556                	mv	a0,s5
    1990:	3b61                	jal	1728 <_free_r>
    1992:	bf9d                	j	1908 <__ssputs_r+0x5e>

00001994 <_svfiprintf_r>:
    1994:	00c5d783          	lhu	a5,12(a1)
    1998:	7171                	addi	sp,sp,-176
    199a:	d326                	sw	s1,164(sp)
    199c:	d14a                	sw	s2,160(sp)
    199e:	cf4e                	sw	s3,156(sp)
    19a0:	d706                	sw	ra,172(sp)
    19a2:	d522                	sw	s0,168(sp)
    19a4:	cd52                	sw	s4,152(sp)
    19a6:	cb56                	sw	s5,148(sp)
    19a8:	c95a                	sw	s6,144(sp)
    19aa:	c75e                	sw	s7,140(sp)
    19ac:	c562                	sw	s8,136(sp)
    19ae:	c366                	sw	s9,132(sp)
    19b0:	0807f793          	andi	a5,a5,128
    19b4:	89aa                	mv	s3,a0
    19b6:	892e                	mv	s2,a1
    19b8:	84b2                	mv	s1,a2
    19ba:	c3b1                	beqz	a5,19fe <_svfiprintf_r+0x6a>
    19bc:	499c                	lw	a5,16(a1)
    19be:	e3a1                	bnez	a5,19fe <_svfiprintf_r+0x6a>
    19c0:	04000593          	li	a1,64
    19c4:	c636                	sw	a3,12(sp)
    19c6:	3529                	jal	17d0 <_malloc_r>
    19c8:	00a92023          	sw	a0,0(s2)
    19cc:	00a92823          	sw	a0,16(s2)
    19d0:	46b2                	lw	a3,12(sp)
    19d2:	e115                	bnez	a0,19f6 <_svfiprintf_r+0x62>
    19d4:	47b1                	li	a5,12
    19d6:	00f9a023          	sw	a5,0(s3)
    19da:	557d                	li	a0,-1
    19dc:	50ba                	lw	ra,172(sp)
    19de:	542a                	lw	s0,168(sp)
    19e0:	549a                	lw	s1,164(sp)
    19e2:	590a                	lw	s2,160(sp)
    19e4:	49fa                	lw	s3,156(sp)
    19e6:	4a6a                	lw	s4,152(sp)
    19e8:	4ada                	lw	s5,148(sp)
    19ea:	4b4a                	lw	s6,144(sp)
    19ec:	4bba                	lw	s7,140(sp)
    19ee:	4c2a                	lw	s8,136(sp)
    19f0:	4c9a                	lw	s9,132(sp)
    19f2:	614d                	addi	sp,sp,176
    19f4:	8082                	ret
    19f6:	04000793          	li	a5,64
    19fa:	00f92a23          	sw	a5,20(s2)
    19fe:	02000793          	li	a5,32
    1a02:	02f10ca3          	sb	a5,57(sp)
    1a06:	03000793          	li	a5,48
    1a0a:	da02                	sw	zero,52(sp)
    1a0c:	02f10d23          	sb	a5,58(sp)
    1a10:	ce36                	sw	a3,28(sp)
    1a12:	02500b93          	li	s7,37
    1a16:	00002a97          	auipc	s5,0x2
    1a1a:	8cea8a93          	addi	s5,s5,-1842 # 32e4 <__sf_fake_stdout+0x20>
    1a1e:	4c05                	li	s8,1
    1a20:	4b29                	li	s6,10
    1a22:	8426                	mv	s0,s1
    1a24:	00044783          	lbu	a5,0(s0)
    1a28:	c399                	beqz	a5,1a2e <_svfiprintf_r+0x9a>
    1a2a:	09779c63          	bne	a5,s7,1ac2 <_svfiprintf_r+0x12e>
    1a2e:	40940cb3          	sub	s9,s0,s1
    1a32:	000c8d63          	beqz	s9,1a4c <_svfiprintf_r+0xb8>
    1a36:	86e6                	mv	a3,s9
    1a38:	8626                	mv	a2,s1
    1a3a:	85ca                	mv	a1,s2
    1a3c:	854e                	mv	a0,s3
    1a3e:	35b5                	jal	18aa <__ssputs_r>
    1a40:	57fd                	li	a5,-1
    1a42:	1af50463          	beq	a0,a5,1bea <_svfiprintf_r+0x256>
    1a46:	56d2                	lw	a3,52(sp)
    1a48:	96e6                	add	a3,a3,s9
    1a4a:	da36                	sw	a3,52(sp)
    1a4c:	00044783          	lbu	a5,0(s0)
    1a50:	18078d63          	beqz	a5,1bea <_svfiprintf_r+0x256>
    1a54:	57fd                	li	a5,-1
    1a56:	00140493          	addi	s1,s0,1
    1a5a:	d002                	sw	zero,32(sp)
    1a5c:	d602                	sw	zero,44(sp)
    1a5e:	d23e                	sw	a5,36(sp)
    1a60:	d402                	sw	zero,40(sp)
    1a62:	060101a3          	sb	zero,99(sp)
    1a66:	dc82                	sw	zero,120(sp)
    1a68:	0004c583          	lbu	a1,0(s1)
    1a6c:	4615                	li	a2,5
    1a6e:	8556                	mv	a0,s5
    1a70:	2c9000ef          	jal	ra,2538 <memchr>
    1a74:	00148413          	addi	s0,s1,1
    1a78:	5782                	lw	a5,32(sp)
    1a7a:	e531                	bnez	a0,1ac6 <_svfiprintf_r+0x132>
    1a7c:	0107f713          	andi	a4,a5,16
    1a80:	c709                	beqz	a4,1a8a <_svfiprintf_r+0xf6>
    1a82:	02000713          	li	a4,32
    1a86:	06e101a3          	sb	a4,99(sp)
    1a8a:	0087f713          	andi	a4,a5,8
    1a8e:	c709                	beqz	a4,1a98 <_svfiprintf_r+0x104>
    1a90:	02b00713          	li	a4,43
    1a94:	06e101a3          	sb	a4,99(sp)
    1a98:	0004c683          	lbu	a3,0(s1)
    1a9c:	02a00713          	li	a4,42
    1aa0:	02e68b63          	beq	a3,a4,1ad6 <_svfiprintf_r+0x142>
    1aa4:	57b2                	lw	a5,44(sp)
    1aa6:	8426                	mv	s0,s1
    1aa8:	4681                	li	a3,0
    1aaa:	4625                	li	a2,9
    1aac:	00044703          	lbu	a4,0(s0)
    1ab0:	00140593          	addi	a1,s0,1
    1ab4:	fd070713          	addi	a4,a4,-48 # ffffdfd0 <_eusrstack+0xdfff5fd0>
    1ab8:	06e67463          	bgeu	a2,a4,1b20 <_svfiprintf_r+0x18c>
    1abc:	c68d                	beqz	a3,1ae6 <_svfiprintf_r+0x152>
    1abe:	d63e                	sw	a5,44(sp)
    1ac0:	a01d                	j	1ae6 <_svfiprintf_r+0x152>
    1ac2:	0405                	addi	s0,s0,1
    1ac4:	b785                	j	1a24 <_svfiprintf_r+0x90>
    1ac6:	41550533          	sub	a0,a0,s5
    1aca:	00ac1533          	sll	a0,s8,a0
    1ace:	8fc9                	or	a5,a5,a0
    1ad0:	d03e                	sw	a5,32(sp)
    1ad2:	84a2                	mv	s1,s0
    1ad4:	bf51                	j	1a68 <_svfiprintf_r+0xd4>
    1ad6:	4772                	lw	a4,28(sp)
    1ad8:	00470693          	addi	a3,a4,4
    1adc:	4318                	lw	a4,0(a4)
    1ade:	ce36                	sw	a3,28(sp)
    1ae0:	02074963          	bltz	a4,1b12 <_svfiprintf_r+0x17e>
    1ae4:	d63a                	sw	a4,44(sp)
    1ae6:	00044703          	lbu	a4,0(s0)
    1aea:	02e00793          	li	a5,46
    1aee:	04f71f63          	bne	a4,a5,1b4c <_svfiprintf_r+0x1b8>
    1af2:	00144703          	lbu	a4,1(s0)
    1af6:	02a00793          	li	a5,42
    1afa:	02f71b63          	bne	a4,a5,1b30 <_svfiprintf_r+0x19c>
    1afe:	47f2                	lw	a5,28(sp)
    1b00:	0409                	addi	s0,s0,2
    1b02:	00478713          	addi	a4,a5,4
    1b06:	439c                	lw	a5,0(a5)
    1b08:	ce3a                	sw	a4,28(sp)
    1b0a:	0207c163          	bltz	a5,1b2c <_svfiprintf_r+0x198>
    1b0e:	d23e                	sw	a5,36(sp)
    1b10:	a835                	j	1b4c <_svfiprintf_r+0x1b8>
    1b12:	40e00733          	neg	a4,a4
    1b16:	0027e793          	ori	a5,a5,2
    1b1a:	d63a                	sw	a4,44(sp)
    1b1c:	d03e                	sw	a5,32(sp)
    1b1e:	b7e1                	j	1ae6 <_svfiprintf_r+0x152>
    1b20:	036787b3          	mul	a5,a5,s6
    1b24:	4685                	li	a3,1
    1b26:	842e                	mv	s0,a1
    1b28:	97ba                	add	a5,a5,a4
    1b2a:	b749                	j	1aac <_svfiprintf_r+0x118>
    1b2c:	57fd                	li	a5,-1
    1b2e:	b7c5                	j	1b0e <_svfiprintf_r+0x17a>
    1b30:	0405                	addi	s0,s0,1
    1b32:	d202                	sw	zero,36(sp)
    1b34:	4681                	li	a3,0
    1b36:	4781                	li	a5,0
    1b38:	4625                	li	a2,9
    1b3a:	00044703          	lbu	a4,0(s0)
    1b3e:	00140593          	addi	a1,s0,1
    1b42:	fd070713          	addi	a4,a4,-48
    1b46:	06e67863          	bgeu	a2,a4,1bb6 <_svfiprintf_r+0x222>
    1b4a:	f2f1                	bnez	a3,1b0e <_svfiprintf_r+0x17a>
    1b4c:	00044583          	lbu	a1,0(s0)
    1b50:	460d                	li	a2,3
    1b52:	00001517          	auipc	a0,0x1
    1b56:	79a50513          	addi	a0,a0,1946 # 32ec <__sf_fake_stdout+0x28>
    1b5a:	1df000ef          	jal	ra,2538 <memchr>
    1b5e:	cd11                	beqz	a0,1b7a <_svfiprintf_r+0x1e6>
    1b60:	00001797          	auipc	a5,0x1
    1b64:	78c78793          	addi	a5,a5,1932 # 32ec <__sf_fake_stdout+0x28>
    1b68:	8d1d                	sub	a0,a0,a5
    1b6a:	04000793          	li	a5,64
    1b6e:	00a797b3          	sll	a5,a5,a0
    1b72:	5502                	lw	a0,32(sp)
    1b74:	0405                	addi	s0,s0,1
    1b76:	8d5d                	or	a0,a0,a5
    1b78:	d02a                	sw	a0,32(sp)
    1b7a:	00044583          	lbu	a1,0(s0)
    1b7e:	4619                	li	a2,6
    1b80:	00001517          	auipc	a0,0x1
    1b84:	77050513          	addi	a0,a0,1904 # 32f0 <__sf_fake_stdout+0x2c>
    1b88:	00140493          	addi	s1,s0,1
    1b8c:	02b10c23          	sb	a1,56(sp)
    1b90:	1a9000ef          	jal	ra,2538 <memchr>
    1b94:	c525                	beqz	a0,1bfc <_svfiprintf_r+0x268>
    1b96:	ffffe797          	auipc	a5,0xffffe
    1b9a:	46a78793          	addi	a5,a5,1130 # 0 <_sinit>
    1b9e:	e795                	bnez	a5,1bca <_svfiprintf_r+0x236>
    1ba0:	5702                	lw	a4,32(sp)
    1ba2:	47f2                	lw	a5,28(sp)
    1ba4:	10077713          	andi	a4,a4,256
    1ba8:	cf09                	beqz	a4,1bc2 <_svfiprintf_r+0x22e>
    1baa:	0791                	addi	a5,a5,4
    1bac:	ce3e                	sw	a5,28(sp)
    1bae:	57d2                	lw	a5,52(sp)
    1bb0:	97d2                	add	a5,a5,s4
    1bb2:	da3e                	sw	a5,52(sp)
    1bb4:	b5bd                	j	1a22 <_svfiprintf_r+0x8e>
    1bb6:	036787b3          	mul	a5,a5,s6
    1bba:	4685                	li	a3,1
    1bbc:	842e                	mv	s0,a1
    1bbe:	97ba                	add	a5,a5,a4
    1bc0:	bfad                	j	1b3a <_svfiprintf_r+0x1a6>
    1bc2:	079d                	addi	a5,a5,7
    1bc4:	9be1                	andi	a5,a5,-8
    1bc6:	07a1                	addi	a5,a5,8
    1bc8:	b7d5                	j	1bac <_svfiprintf_r+0x218>
    1bca:	0878                	addi	a4,sp,28
    1bcc:	00000697          	auipc	a3,0x0
    1bd0:	cde68693          	addi	a3,a3,-802 # 18aa <__ssputs_r>
    1bd4:	864a                	mv	a2,s2
    1bd6:	100c                	addi	a1,sp,32
    1bd8:	854e                	mv	a0,s3
    1bda:	00000097          	auipc	ra,0x0
    1bde:	000000e7          	jalr	zero # 0 <_sinit>
    1be2:	57fd                	li	a5,-1
    1be4:	8a2a                	mv	s4,a0
    1be6:	fcf514e3          	bne	a0,a5,1bae <_svfiprintf_r+0x21a>
    1bea:	00c95783          	lhu	a5,12(s2)
    1bee:	557d                	li	a0,-1
    1bf0:	0407f793          	andi	a5,a5,64
    1bf4:	de0794e3          	bnez	a5,19dc <_svfiprintf_r+0x48>
    1bf8:	5552                	lw	a0,52(sp)
    1bfa:	b3cd                	j	19dc <_svfiprintf_r+0x48>
    1bfc:	0878                	addi	a4,sp,28
    1bfe:	00000697          	auipc	a3,0x0
    1c02:	cac68693          	addi	a3,a3,-852 # 18aa <__ssputs_r>
    1c06:	864a                	mv	a2,s2
    1c08:	100c                	addi	a1,sp,32
    1c0a:	854e                	mv	a0,s3
    1c0c:	2921                	jal	2024 <_printf_i>
    1c0e:	bfd1                	j	1be2 <_svfiprintf_r+0x24e>

00001c10 <__sfputc_r>:
    1c10:	461c                	lw	a5,8(a2)
    1c12:	17fd                	addi	a5,a5,-1
    1c14:	c61c                	sw	a5,8(a2)
    1c16:	0007da63          	bgez	a5,1c2a <__sfputc_r+0x1a>
    1c1a:	4e18                	lw	a4,24(a2)
    1c1c:	00e7c563          	blt	a5,a4,1c26 <__sfputc_r+0x16>
    1c20:	47a9                	li	a5,10
    1c22:	00f59463          	bne	a1,a5,1c2a <__sfputc_r+0x1a>
    1c26:	c6cff06f          	j	1092 <__swbuf_r>
    1c2a:	421c                	lw	a5,0(a2)
    1c2c:	852e                	mv	a0,a1
    1c2e:	00178713          	addi	a4,a5,1
    1c32:	c218                	sw	a4,0(a2)
    1c34:	00b78023          	sb	a1,0(a5)
    1c38:	8082                	ret

00001c3a <__sfputs_r>:
    1c3a:	1101                	addi	sp,sp,-32
    1c3c:	cc22                	sw	s0,24(sp)
    1c3e:	ca26                	sw	s1,20(sp)
    1c40:	c84a                	sw	s2,16(sp)
    1c42:	c64e                	sw	s3,12(sp)
    1c44:	c452                	sw	s4,8(sp)
    1c46:	ce06                	sw	ra,28(sp)
    1c48:	892a                	mv	s2,a0
    1c4a:	89ae                	mv	s3,a1
    1c4c:	8432                	mv	s0,a2
    1c4e:	00d604b3          	add	s1,a2,a3
    1c52:	5a7d                	li	s4,-1
    1c54:	00941463          	bne	s0,s1,1c5c <__sfputs_r+0x22>
    1c58:	4501                	li	a0,0
    1c5a:	a809                	j	1c6c <__sfputs_r+0x32>
    1c5c:	00044583          	lbu	a1,0(s0)
    1c60:	864e                	mv	a2,s3
    1c62:	854a                	mv	a0,s2
    1c64:	3775                	jal	1c10 <__sfputc_r>
    1c66:	0405                	addi	s0,s0,1
    1c68:	ff4516e3          	bne	a0,s4,1c54 <__sfputs_r+0x1a>
    1c6c:	40f2                	lw	ra,28(sp)
    1c6e:	4462                	lw	s0,24(sp)
    1c70:	44d2                	lw	s1,20(sp)
    1c72:	4942                	lw	s2,16(sp)
    1c74:	49b2                	lw	s3,12(sp)
    1c76:	4a22                	lw	s4,8(sp)
    1c78:	6105                	addi	sp,sp,32
    1c7a:	8082                	ret

00001c7c <_vfiprintf_r>:
    1c7c:	7135                	addi	sp,sp,-160
    1c7e:	cd22                	sw	s0,152(sp)
    1c80:	cb26                	sw	s1,148(sp)
    1c82:	c94a                	sw	s2,144(sp)
    1c84:	c74e                	sw	s3,140(sp)
    1c86:	cf06                	sw	ra,156(sp)
    1c88:	c552                	sw	s4,136(sp)
    1c8a:	c356                	sw	s5,132(sp)
    1c8c:	c15a                	sw	s6,128(sp)
    1c8e:	dede                	sw	s7,124(sp)
    1c90:	dce2                	sw	s8,120(sp)
    1c92:	dae6                	sw	s9,116(sp)
    1c94:	89aa                	mv	s3,a0
    1c96:	84ae                	mv	s1,a1
    1c98:	8932                	mv	s2,a2
    1c9a:	8436                	mv	s0,a3
    1c9c:	c509                	beqz	a0,1ca6 <_vfiprintf_r+0x2a>
    1c9e:	4d1c                	lw	a5,24(a0)
    1ca0:	e399                	bnez	a5,1ca6 <_vfiprintf_r+0x2a>
    1ca2:	817ff0ef          	jal	ra,14b8 <__sinit>
    1ca6:	00001797          	auipc	a5,0x1
    1caa:	5fe78793          	addi	a5,a5,1534 # 32a4 <__sf_fake_stdin>
    1cae:	0cf49c63          	bne	s1,a5,1d86 <_vfiprintf_r+0x10a>
    1cb2:	0049a483          	lw	s1,4(s3)
    1cb6:	00c4d783          	lhu	a5,12(s1)
    1cba:	8ba1                	andi	a5,a5,8
    1cbc:	c7fd                	beqz	a5,1daa <_vfiprintf_r+0x12e>
    1cbe:	489c                	lw	a5,16(s1)
    1cc0:	c7ed                	beqz	a5,1daa <_vfiprintf_r+0x12e>
    1cc2:	02000793          	li	a5,32
    1cc6:	02f104a3          	sb	a5,41(sp)
    1cca:	03000793          	li	a5,48
    1cce:	d202                	sw	zero,36(sp)
    1cd0:	02f10523          	sb	a5,42(sp)
    1cd4:	c622                	sw	s0,12(sp)
    1cd6:	02500b93          	li	s7,37
    1cda:	00001a97          	auipc	s5,0x1
    1cde:	60aa8a93          	addi	s5,s5,1546 # 32e4 <__sf_fake_stdout+0x20>
    1ce2:	4c05                	li	s8,1
    1ce4:	4b29                	li	s6,10
    1ce6:	844a                	mv	s0,s2
    1ce8:	00044783          	lbu	a5,0(s0)
    1cec:	c399                	beqz	a5,1cf2 <_vfiprintf_r+0x76>
    1cee:	0f779163          	bne	a5,s7,1dd0 <_vfiprintf_r+0x154>
    1cf2:	41240cb3          	sub	s9,s0,s2
    1cf6:	000c8d63          	beqz	s9,1d10 <_vfiprintf_r+0x94>
    1cfa:	86e6                	mv	a3,s9
    1cfc:	864a                	mv	a2,s2
    1cfe:	85a6                	mv	a1,s1
    1d00:	854e                	mv	a0,s3
    1d02:	3f25                	jal	1c3a <__sfputs_r>
    1d04:	57fd                	li	a5,-1
    1d06:	1ef50763          	beq	a0,a5,1ef4 <_vfiprintf_r+0x278>
    1d0a:	5692                	lw	a3,36(sp)
    1d0c:	96e6                	add	a3,a3,s9
    1d0e:	d236                	sw	a3,36(sp)
    1d10:	00044783          	lbu	a5,0(s0)
    1d14:	1e078063          	beqz	a5,1ef4 <_vfiprintf_r+0x278>
    1d18:	57fd                	li	a5,-1
    1d1a:	00140913          	addi	s2,s0,1
    1d1e:	c802                	sw	zero,16(sp)
    1d20:	ce02                	sw	zero,28(sp)
    1d22:	ca3e                	sw	a5,20(sp)
    1d24:	cc02                	sw	zero,24(sp)
    1d26:	040109a3          	sb	zero,83(sp)
    1d2a:	d482                	sw	zero,104(sp)
    1d2c:	00094583          	lbu	a1,0(s2)
    1d30:	4615                	li	a2,5
    1d32:	8556                	mv	a0,s5
    1d34:	005000ef          	jal	ra,2538 <memchr>
    1d38:	00190413          	addi	s0,s2,1
    1d3c:	47c2                	lw	a5,16(sp)
    1d3e:	e959                	bnez	a0,1dd4 <_vfiprintf_r+0x158>
    1d40:	0107f713          	andi	a4,a5,16
    1d44:	c709                	beqz	a4,1d4e <_vfiprintf_r+0xd2>
    1d46:	02000713          	li	a4,32
    1d4a:	04e109a3          	sb	a4,83(sp)
    1d4e:	0087f713          	andi	a4,a5,8
    1d52:	c709                	beqz	a4,1d5c <_vfiprintf_r+0xe0>
    1d54:	02b00713          	li	a4,43
    1d58:	04e109a3          	sb	a4,83(sp)
    1d5c:	00094683          	lbu	a3,0(s2)
    1d60:	02a00713          	li	a4,42
    1d64:	08e68063          	beq	a3,a4,1de4 <_vfiprintf_r+0x168>
    1d68:	47f2                	lw	a5,28(sp)
    1d6a:	844a                	mv	s0,s2
    1d6c:	4681                	li	a3,0
    1d6e:	4625                	li	a2,9
    1d70:	00044703          	lbu	a4,0(s0)
    1d74:	00140593          	addi	a1,s0,1
    1d78:	fd070713          	addi	a4,a4,-48
    1d7c:	0ae67963          	bgeu	a2,a4,1e2e <_vfiprintf_r+0x1b2>
    1d80:	cab5                	beqz	a3,1df4 <_vfiprintf_r+0x178>
    1d82:	ce3e                	sw	a5,28(sp)
    1d84:	a885                	j	1df4 <_vfiprintf_r+0x178>
    1d86:	00001797          	auipc	a5,0x1
    1d8a:	53e78793          	addi	a5,a5,1342 # 32c4 <__sf_fake_stdout>
    1d8e:	00f49563          	bne	s1,a5,1d98 <_vfiprintf_r+0x11c>
    1d92:	0089a483          	lw	s1,8(s3)
    1d96:	b705                	j	1cb6 <_vfiprintf_r+0x3a>
    1d98:	00001797          	auipc	a5,0x1
    1d9c:	4ec78793          	addi	a5,a5,1260 # 3284 <__sf_fake_stderr>
    1da0:	f0f49be3          	bne	s1,a5,1cb6 <_vfiprintf_r+0x3a>
    1da4:	00c9a483          	lw	s1,12(s3)
    1da8:	b739                	j	1cb6 <_vfiprintf_r+0x3a>
    1daa:	85a6                	mv	a1,s1
    1dac:	854e                	mv	a0,s3
    1dae:	ba4ff0ef          	jal	ra,1152 <__swsetup_r>
    1db2:	d901                	beqz	a0,1cc2 <_vfiprintf_r+0x46>
    1db4:	557d                	li	a0,-1
    1db6:	40fa                	lw	ra,156(sp)
    1db8:	446a                	lw	s0,152(sp)
    1dba:	44da                	lw	s1,148(sp)
    1dbc:	494a                	lw	s2,144(sp)
    1dbe:	49ba                	lw	s3,140(sp)
    1dc0:	4a2a                	lw	s4,136(sp)
    1dc2:	4a9a                	lw	s5,132(sp)
    1dc4:	4b0a                	lw	s6,128(sp)
    1dc6:	5bf6                	lw	s7,124(sp)
    1dc8:	5c66                	lw	s8,120(sp)
    1dca:	5cd6                	lw	s9,116(sp)
    1dcc:	610d                	addi	sp,sp,160
    1dce:	8082                	ret
    1dd0:	0405                	addi	s0,s0,1
    1dd2:	bf19                	j	1ce8 <_vfiprintf_r+0x6c>
    1dd4:	41550533          	sub	a0,a0,s5
    1dd8:	00ac1533          	sll	a0,s8,a0
    1ddc:	8fc9                	or	a5,a5,a0
    1dde:	c83e                	sw	a5,16(sp)
    1de0:	8922                	mv	s2,s0
    1de2:	b7a9                	j	1d2c <_vfiprintf_r+0xb0>
    1de4:	4732                	lw	a4,12(sp)
    1de6:	00470693          	addi	a3,a4,4
    1dea:	4318                	lw	a4,0(a4)
    1dec:	c636                	sw	a3,12(sp)
    1dee:	02074963          	bltz	a4,1e20 <_vfiprintf_r+0x1a4>
    1df2:	ce3a                	sw	a4,28(sp)
    1df4:	00044703          	lbu	a4,0(s0)
    1df8:	02e00793          	li	a5,46
    1dfc:	04f71f63          	bne	a4,a5,1e5a <_vfiprintf_r+0x1de>
    1e00:	00144703          	lbu	a4,1(s0)
    1e04:	02a00793          	li	a5,42
    1e08:	02f71b63          	bne	a4,a5,1e3e <_vfiprintf_r+0x1c2>
    1e0c:	47b2                	lw	a5,12(sp)
    1e0e:	0409                	addi	s0,s0,2
    1e10:	00478713          	addi	a4,a5,4
    1e14:	439c                	lw	a5,0(a5)
    1e16:	c63a                	sw	a4,12(sp)
    1e18:	0207c163          	bltz	a5,1e3a <_vfiprintf_r+0x1be>
    1e1c:	ca3e                	sw	a5,20(sp)
    1e1e:	a835                	j	1e5a <_vfiprintf_r+0x1de>
    1e20:	40e00733          	neg	a4,a4
    1e24:	0027e793          	ori	a5,a5,2
    1e28:	ce3a                	sw	a4,28(sp)
    1e2a:	c83e                	sw	a5,16(sp)
    1e2c:	b7e1                	j	1df4 <_vfiprintf_r+0x178>
    1e2e:	036787b3          	mul	a5,a5,s6
    1e32:	4685                	li	a3,1
    1e34:	842e                	mv	s0,a1
    1e36:	97ba                	add	a5,a5,a4
    1e38:	bf25                	j	1d70 <_vfiprintf_r+0xf4>
    1e3a:	57fd                	li	a5,-1
    1e3c:	b7c5                	j	1e1c <_vfiprintf_r+0x1a0>
    1e3e:	0405                	addi	s0,s0,1
    1e40:	ca02                	sw	zero,20(sp)
    1e42:	4681                	li	a3,0
    1e44:	4781                	li	a5,0
    1e46:	4625                	li	a2,9
    1e48:	00044703          	lbu	a4,0(s0)
    1e4c:	00140593          	addi	a1,s0,1
    1e50:	fd070713          	addi	a4,a4,-48
    1e54:	06e67663          	bgeu	a2,a4,1ec0 <_vfiprintf_r+0x244>
    1e58:	f2f1                	bnez	a3,1e1c <_vfiprintf_r+0x1a0>
    1e5a:	00044583          	lbu	a1,0(s0)
    1e5e:	460d                	li	a2,3
    1e60:	00001517          	auipc	a0,0x1
    1e64:	48c50513          	addi	a0,a0,1164 # 32ec <__sf_fake_stdout+0x28>
    1e68:	2dc1                	jal	2538 <memchr>
    1e6a:	cd11                	beqz	a0,1e86 <_vfiprintf_r+0x20a>
    1e6c:	00001797          	auipc	a5,0x1
    1e70:	48078793          	addi	a5,a5,1152 # 32ec <__sf_fake_stdout+0x28>
    1e74:	8d1d                	sub	a0,a0,a5
    1e76:	04000793          	li	a5,64
    1e7a:	00a797b3          	sll	a5,a5,a0
    1e7e:	4542                	lw	a0,16(sp)
    1e80:	0405                	addi	s0,s0,1
    1e82:	8d5d                	or	a0,a0,a5
    1e84:	c82a                	sw	a0,16(sp)
    1e86:	00044583          	lbu	a1,0(s0)
    1e8a:	4619                	li	a2,6
    1e8c:	00001517          	auipc	a0,0x1
    1e90:	46450513          	addi	a0,a0,1124 # 32f0 <__sf_fake_stdout+0x2c>
    1e94:	00140913          	addi	s2,s0,1
    1e98:	02b10423          	sb	a1,40(sp)
    1e9c:	2d71                	jal	2538 <memchr>
    1e9e:	c13d                	beqz	a0,1f04 <_vfiprintf_r+0x288>
    1ea0:	ffffe797          	auipc	a5,0xffffe
    1ea4:	16078793          	addi	a5,a5,352 # 0 <_sinit>
    1ea8:	e795                	bnez	a5,1ed4 <_vfiprintf_r+0x258>
    1eaa:	4742                	lw	a4,16(sp)
    1eac:	47b2                	lw	a5,12(sp)
    1eae:	10077713          	andi	a4,a4,256
    1eb2:	cf09                	beqz	a4,1ecc <_vfiprintf_r+0x250>
    1eb4:	0791                	addi	a5,a5,4
    1eb6:	c63e                	sw	a5,12(sp)
    1eb8:	5792                	lw	a5,36(sp)
    1eba:	97d2                	add	a5,a5,s4
    1ebc:	d23e                	sw	a5,36(sp)
    1ebe:	b525                	j	1ce6 <_vfiprintf_r+0x6a>
    1ec0:	036787b3          	mul	a5,a5,s6
    1ec4:	4685                	li	a3,1
    1ec6:	842e                	mv	s0,a1
    1ec8:	97ba                	add	a5,a5,a4
    1eca:	bfbd                	j	1e48 <_vfiprintf_r+0x1cc>
    1ecc:	079d                	addi	a5,a5,7
    1ece:	9be1                	andi	a5,a5,-8
    1ed0:	07a1                	addi	a5,a5,8
    1ed2:	b7d5                	j	1eb6 <_vfiprintf_r+0x23a>
    1ed4:	0078                	addi	a4,sp,12
    1ed6:	00000697          	auipc	a3,0x0
    1eda:	d6468693          	addi	a3,a3,-668 # 1c3a <__sfputs_r>
    1ede:	8626                	mv	a2,s1
    1ee0:	080c                	addi	a1,sp,16
    1ee2:	854e                	mv	a0,s3
    1ee4:	00000097          	auipc	ra,0x0
    1ee8:	000000e7          	jalr	zero # 0 <_sinit>
    1eec:	57fd                	li	a5,-1
    1eee:	8a2a                	mv	s4,a0
    1ef0:	fcf514e3          	bne	a0,a5,1eb8 <_vfiprintf_r+0x23c>
    1ef4:	00c4d783          	lhu	a5,12(s1)
    1ef8:	0407f793          	andi	a5,a5,64
    1efc:	ea079ce3          	bnez	a5,1db4 <_vfiprintf_r+0x138>
    1f00:	5512                	lw	a0,36(sp)
    1f02:	bd55                	j	1db6 <_vfiprintf_r+0x13a>
    1f04:	0078                	addi	a4,sp,12
    1f06:	00000697          	auipc	a3,0x0
    1f0a:	d3468693          	addi	a3,a3,-716 # 1c3a <__sfputs_r>
    1f0e:	8626                	mv	a2,s1
    1f10:	080c                	addi	a1,sp,16
    1f12:	854e                	mv	a0,s3
    1f14:	2a01                	jal	2024 <_printf_i>
    1f16:	bfd9                	j	1eec <_vfiprintf_r+0x270>

00001f18 <_printf_common>:
    1f18:	7179                	addi	sp,sp,-48
    1f1a:	ca56                	sw	s5,20(sp)
    1f1c:	499c                	lw	a5,16(a1)
    1f1e:	8aba                	mv	s5,a4
    1f20:	4598                	lw	a4,8(a1)
    1f22:	d422                	sw	s0,40(sp)
    1f24:	d226                	sw	s1,36(sp)
    1f26:	ce4e                	sw	s3,28(sp)
    1f28:	cc52                	sw	s4,24(sp)
    1f2a:	d606                	sw	ra,44(sp)
    1f2c:	d04a                	sw	s2,32(sp)
    1f2e:	c85a                	sw	s6,16(sp)
    1f30:	c65e                	sw	s7,12(sp)
    1f32:	89aa                	mv	s3,a0
    1f34:	842e                	mv	s0,a1
    1f36:	84b2                	mv	s1,a2
    1f38:	8a36                	mv	s4,a3
    1f3a:	00e7d363          	bge	a5,a4,1f40 <_printf_common+0x28>
    1f3e:	87ba                	mv	a5,a4
    1f40:	c09c                	sw	a5,0(s1)
    1f42:	04344703          	lbu	a4,67(s0)
    1f46:	c319                	beqz	a4,1f4c <_printf_common+0x34>
    1f48:	0785                	addi	a5,a5,1
    1f4a:	c09c                	sw	a5,0(s1)
    1f4c:	401c                	lw	a5,0(s0)
    1f4e:	0207f793          	andi	a5,a5,32
    1f52:	c781                	beqz	a5,1f5a <_printf_common+0x42>
    1f54:	409c                	lw	a5,0(s1)
    1f56:	0789                	addi	a5,a5,2
    1f58:	c09c                	sw	a5,0(s1)
    1f5a:	00042903          	lw	s2,0(s0)
    1f5e:	00697913          	andi	s2,s2,6
    1f62:	00091a63          	bnez	s2,1f76 <_printf_common+0x5e>
    1f66:	01940b13          	addi	s6,s0,25
    1f6a:	5bfd                	li	s7,-1
    1f6c:	445c                	lw	a5,12(s0)
    1f6e:	4098                	lw	a4,0(s1)
    1f70:	8f99                	sub	a5,a5,a4
    1f72:	04f94c63          	blt	s2,a5,1fca <_printf_common+0xb2>
    1f76:	401c                	lw	a5,0(s0)
    1f78:	04344683          	lbu	a3,67(s0)
    1f7c:	0207f793          	andi	a5,a5,32
    1f80:	00d036b3          	snez	a3,a3
    1f84:	eba5                	bnez	a5,1ff4 <_printf_common+0xdc>
    1f86:	04340613          	addi	a2,s0,67
    1f8a:	85d2                	mv	a1,s4
    1f8c:	854e                	mv	a0,s3
    1f8e:	9a82                	jalr	s5
    1f90:	57fd                	li	a5,-1
    1f92:	04f50363          	beq	a0,a5,1fd8 <_printf_common+0xc0>
    1f96:	401c                	lw	a5,0(s0)
    1f98:	4611                	li	a2,4
    1f9a:	4098                	lw	a4,0(s1)
    1f9c:	8b99                	andi	a5,a5,6
    1f9e:	4454                	lw	a3,12(s0)
    1fa0:	4481                	li	s1,0
    1fa2:	00c79763          	bne	a5,a2,1fb0 <_printf_common+0x98>
    1fa6:	40e684b3          	sub	s1,a3,a4
    1faa:	0004d363          	bgez	s1,1fb0 <_printf_common+0x98>
    1fae:	4481                	li	s1,0
    1fb0:	441c                	lw	a5,8(s0)
    1fb2:	4818                	lw	a4,16(s0)
    1fb4:	00f75463          	bge	a4,a5,1fbc <_printf_common+0xa4>
    1fb8:	8f99                	sub	a5,a5,a4
    1fba:	94be                	add	s1,s1,a5
    1fbc:	4901                	li	s2,0
    1fbe:	0469                	addi	s0,s0,26
    1fc0:	5b7d                	li	s6,-1
    1fc2:	05249863          	bne	s1,s2,2012 <_printf_common+0xfa>
    1fc6:	4501                	li	a0,0
    1fc8:	a809                	j	1fda <_printf_common+0xc2>
    1fca:	4685                	li	a3,1
    1fcc:	865a                	mv	a2,s6
    1fce:	85d2                	mv	a1,s4
    1fd0:	854e                	mv	a0,s3
    1fd2:	9a82                	jalr	s5
    1fd4:	01751e63          	bne	a0,s7,1ff0 <_printf_common+0xd8>
    1fd8:	557d                	li	a0,-1
    1fda:	50b2                	lw	ra,44(sp)
    1fdc:	5422                	lw	s0,40(sp)
    1fde:	5492                	lw	s1,36(sp)
    1fe0:	5902                	lw	s2,32(sp)
    1fe2:	49f2                	lw	s3,28(sp)
    1fe4:	4a62                	lw	s4,24(sp)
    1fe6:	4ad2                	lw	s5,20(sp)
    1fe8:	4b42                	lw	s6,16(sp)
    1fea:	4bb2                	lw	s7,12(sp)
    1fec:	6145                	addi	sp,sp,48
    1fee:	8082                	ret
    1ff0:	0905                	addi	s2,s2,1
    1ff2:	bfad                	j	1f6c <_printf_common+0x54>
    1ff4:	00d40733          	add	a4,s0,a3
    1ff8:	03000613          	li	a2,48
    1ffc:	04c701a3          	sb	a2,67(a4)
    2000:	04544703          	lbu	a4,69(s0)
    2004:	00168793          	addi	a5,a3,1
    2008:	97a2                	add	a5,a5,s0
    200a:	0689                	addi	a3,a3,2
    200c:	04e781a3          	sb	a4,67(a5)
    2010:	bf9d                	j	1f86 <_printf_common+0x6e>
    2012:	4685                	li	a3,1
    2014:	8622                	mv	a2,s0
    2016:	85d2                	mv	a1,s4
    2018:	854e                	mv	a0,s3
    201a:	9a82                	jalr	s5
    201c:	fb650ee3          	beq	a0,s6,1fd8 <_printf_common+0xc0>
    2020:	0905                	addi	s2,s2,1
    2022:	b745                	j	1fc2 <_printf_common+0xaa>

00002024 <_printf_i>:
    2024:	7179                	addi	sp,sp,-48
    2026:	d422                	sw	s0,40(sp)
    2028:	d226                	sw	s1,36(sp)
    202a:	d04a                	sw	s2,32(sp)
    202c:	ce4e                	sw	s3,28(sp)
    202e:	d606                	sw	ra,44(sp)
    2030:	cc52                	sw	s4,24(sp)
    2032:	ca56                	sw	s5,20(sp)
    2034:	c85a                	sw	s6,16(sp)
    2036:	89b6                	mv	s3,a3
    2038:	0185c683          	lbu	a3,24(a1)
    203c:	06900793          	li	a5,105
    2040:	8932                	mv	s2,a2
    2042:	84aa                	mv	s1,a0
    2044:	842e                	mv	s0,a1
    2046:	04358613          	addi	a2,a1,67
    204a:	02f68d63          	beq	a3,a5,2084 <_printf_i+0x60>
    204e:	06d7e263          	bltu	a5,a3,20b2 <_printf_i+0x8e>
    2052:	05800793          	li	a5,88
    2056:	18f68763          	beq	a3,a5,21e4 <_printf_i+0x1c0>
    205a:	00d7ed63          	bltu	a5,a3,2074 <_printf_i+0x50>
    205e:	22068063          	beqz	a3,227e <_printf_i+0x25a>
    2062:	04300793          	li	a5,67
    2066:	0af68e63          	beq	a3,a5,2122 <_printf_i+0xfe>
    206a:	04240a93          	addi	s5,s0,66
    206e:	04d40123          	sb	a3,66(s0)
    2072:	a0c9                	j	2134 <_printf_i+0x110>
    2074:	06300793          	li	a5,99
    2078:	0af68563          	beq	a3,a5,2122 <_printf_i+0xfe>
    207c:	06400793          	li	a5,100
    2080:	fef695e3          	bne	a3,a5,206a <_printf_i+0x46>
    2084:	401c                	lw	a5,0(s0)
    2086:	4308                	lw	a0,0(a4)
    2088:	0807f693          	andi	a3,a5,128
    208c:	00450593          	addi	a1,a0,4
    2090:	c6c5                	beqz	a3,2138 <_printf_i+0x114>
    2092:	411c                	lw	a5,0(a0)
    2094:	c30c                	sw	a1,0(a4)
    2096:	0007d863          	bgez	a5,20a6 <_printf_i+0x82>
    209a:	02d00713          	li	a4,45
    209e:	40f007b3          	neg	a5,a5
    20a2:	04e401a3          	sb	a4,67(s0)
    20a6:	00001697          	auipc	a3,0x1
    20aa:	25268693          	addi	a3,a3,594 # 32f8 <__sf_fake_stdout+0x34>
    20ae:	4729                	li	a4,10
    20b0:	a86d                	j	216a <_printf_i+0x146>
    20b2:	07000793          	li	a5,112
    20b6:	16f68363          	beq	a3,a5,221c <_printf_i+0x1f8>
    20ba:	02d7e563          	bltu	a5,a3,20e4 <_printf_i+0xc0>
    20be:	06e00793          	li	a5,110
    20c2:	18f68a63          	beq	a3,a5,2256 <_printf_i+0x232>
    20c6:	06f00793          	li	a5,111
    20ca:	faf690e3          	bne	a3,a5,206a <_printf_i+0x46>
    20ce:	400c                	lw	a1,0(s0)
    20d0:	431c                	lw	a5,0(a4)
    20d2:	0805f813          	andi	a6,a1,128
    20d6:	00478513          	addi	a0,a5,4
    20da:	06080763          	beqz	a6,2148 <_printf_i+0x124>
    20de:	c308                	sw	a0,0(a4)
    20e0:	439c                	lw	a5,0(a5)
    20e2:	a88d                	j	2154 <_printf_i+0x130>
    20e4:	07500793          	li	a5,117
    20e8:	fef683e3          	beq	a3,a5,20ce <_printf_i+0xaa>
    20ec:	07800793          	li	a5,120
    20f0:	12f68a63          	beq	a3,a5,2224 <_printf_i+0x200>
    20f4:	07300793          	li	a5,115
    20f8:	f6f699e3          	bne	a3,a5,206a <_printf_i+0x46>
    20fc:	431c                	lw	a5,0(a4)
    20fe:	41d0                	lw	a2,4(a1)
    2100:	4581                	li	a1,0
    2102:	00478693          	addi	a3,a5,4
    2106:	c314                	sw	a3,0(a4)
    2108:	0007aa83          	lw	s5,0(a5)
    210c:	8556                	mv	a0,s5
    210e:	212d                	jal	2538 <memchr>
    2110:	c501                	beqz	a0,2118 <_printf_i+0xf4>
    2112:	41550533          	sub	a0,a0,s5
    2116:	c048                	sw	a0,4(s0)
    2118:	405c                	lw	a5,4(s0)
    211a:	c81c                	sw	a5,16(s0)
    211c:	040401a3          	sb	zero,67(s0)
    2120:	a871                	j	21bc <_printf_i+0x198>
    2122:	431c                	lw	a5,0(a4)
    2124:	04240a93          	addi	s5,s0,66
    2128:	00478693          	addi	a3,a5,4
    212c:	439c                	lw	a5,0(a5)
    212e:	c314                	sw	a3,0(a4)
    2130:	04f40123          	sb	a5,66(s0)
    2134:	4785                	li	a5,1
    2136:	b7d5                	j	211a <_printf_i+0xf6>
    2138:	0407f693          	andi	a3,a5,64
    213c:	411c                	lw	a5,0(a0)
    213e:	c30c                	sw	a1,0(a4)
    2140:	dab9                	beqz	a3,2096 <_printf_i+0x72>
    2142:	07c2                	slli	a5,a5,0x10
    2144:	87c1                	srai	a5,a5,0x10
    2146:	bf81                	j	2096 <_printf_i+0x72>
    2148:	0405f593          	andi	a1,a1,64
    214c:	c308                	sw	a0,0(a4)
    214e:	d9c9                	beqz	a1,20e0 <_printf_i+0xbc>
    2150:	0007d783          	lhu	a5,0(a5)
    2154:	06f00713          	li	a4,111
    2158:	0ee68763          	beq	a3,a4,2246 <_printf_i+0x222>
    215c:	00001697          	auipc	a3,0x1
    2160:	19c68693          	addi	a3,a3,412 # 32f8 <__sf_fake_stdout+0x34>
    2164:	4729                	li	a4,10
    2166:	040401a3          	sb	zero,67(s0)
    216a:	404c                	lw	a1,4(s0)
    216c:	c40c                	sw	a1,8(s0)
    216e:	0005c563          	bltz	a1,2178 <_printf_i+0x154>
    2172:	4008                	lw	a0,0(s0)
    2174:	996d                	andi	a0,a0,-5
    2176:	c008                	sw	a0,0(s0)
    2178:	e399                	bnez	a5,217e <_printf_i+0x15a>
    217a:	8ab2                	mv	s5,a2
    217c:	cd91                	beqz	a1,2198 <_printf_i+0x174>
    217e:	8ab2                	mv	s5,a2
    2180:	02e7f5b3          	remu	a1,a5,a4
    2184:	1afd                	addi	s5,s5,-1
    2186:	95b6                	add	a1,a1,a3
    2188:	0005c583          	lbu	a1,0(a1)
    218c:	00ba8023          	sb	a1,0(s5)
    2190:	02e7d5b3          	divu	a1,a5,a4
    2194:	0ae7ff63          	bgeu	a5,a4,2252 <_printf_i+0x22e>
    2198:	47a1                	li	a5,8
    219a:	00f71e63          	bne	a4,a5,21b6 <_printf_i+0x192>
    219e:	401c                	lw	a5,0(s0)
    21a0:	8b85                	andi	a5,a5,1
    21a2:	cb91                	beqz	a5,21b6 <_printf_i+0x192>
    21a4:	4058                	lw	a4,4(s0)
    21a6:	481c                	lw	a5,16(s0)
    21a8:	00e7c763          	blt	a5,a4,21b6 <_printf_i+0x192>
    21ac:	03000793          	li	a5,48
    21b0:	fefa8fa3          	sb	a5,-1(s5)
    21b4:	1afd                	addi	s5,s5,-1
    21b6:	41560633          	sub	a2,a2,s5
    21ba:	c810                	sw	a2,16(s0)
    21bc:	874e                	mv	a4,s3
    21be:	86ca                	mv	a3,s2
    21c0:	0070                	addi	a2,sp,12
    21c2:	85a2                	mv	a1,s0
    21c4:	8526                	mv	a0,s1
    21c6:	3b89                	jal	1f18 <_printf_common>
    21c8:	5a7d                	li	s4,-1
    21ca:	0b451e63          	bne	a0,s4,2286 <_printf_i+0x262>
    21ce:	557d                	li	a0,-1
    21d0:	50b2                	lw	ra,44(sp)
    21d2:	5422                	lw	s0,40(sp)
    21d4:	5492                	lw	s1,36(sp)
    21d6:	5902                	lw	s2,32(sp)
    21d8:	49f2                	lw	s3,28(sp)
    21da:	4a62                	lw	s4,24(sp)
    21dc:	4ad2                	lw	s5,20(sp)
    21de:	4b42                	lw	s6,16(sp)
    21e0:	6145                	addi	sp,sp,48
    21e2:	8082                	ret
    21e4:	04d582a3          	sb	a3,69(a1)
    21e8:	00001697          	auipc	a3,0x1
    21ec:	11068693          	addi	a3,a3,272 # 32f8 <__sf_fake_stdout+0x34>
    21f0:	400c                	lw	a1,0(s0)
    21f2:	4308                	lw	a0,0(a4)
    21f4:	0805f813          	andi	a6,a1,128
    21f8:	411c                	lw	a5,0(a0)
    21fa:	0511                	addi	a0,a0,4
    21fc:	02080d63          	beqz	a6,2236 <_printf_i+0x212>
    2200:	c308                	sw	a0,0(a4)
    2202:	0015f713          	andi	a4,a1,1
    2206:	c701                	beqz	a4,220e <_printf_i+0x1ea>
    2208:	0205e593          	ori	a1,a1,32
    220c:	c00c                	sw	a1,0(s0)
    220e:	4741                	li	a4,16
    2210:	fbb9                	bnez	a5,2166 <_printf_i+0x142>
    2212:	400c                	lw	a1,0(s0)
    2214:	fdf5f593          	andi	a1,a1,-33
    2218:	c00c                	sw	a1,0(s0)
    221a:	b7b1                	j	2166 <_printf_i+0x142>
    221c:	419c                	lw	a5,0(a1)
    221e:	0207e793          	ori	a5,a5,32
    2222:	c19c                	sw	a5,0(a1)
    2224:	07800793          	li	a5,120
    2228:	04f402a3          	sb	a5,69(s0)
    222c:	00001697          	auipc	a3,0x1
    2230:	0e068693          	addi	a3,a3,224 # 330c <__sf_fake_stdout+0x48>
    2234:	bf75                	j	21f0 <_printf_i+0x1cc>
    2236:	0405f813          	andi	a6,a1,64
    223a:	c308                	sw	a0,0(a4)
    223c:	fc0803e3          	beqz	a6,2202 <_printf_i+0x1de>
    2240:	07c2                	slli	a5,a5,0x10
    2242:	83c1                	srli	a5,a5,0x10
    2244:	bf7d                	j	2202 <_printf_i+0x1de>
    2246:	00001697          	auipc	a3,0x1
    224a:	0b268693          	addi	a3,a3,178 # 32f8 <__sf_fake_stdout+0x34>
    224e:	4721                	li	a4,8
    2250:	bf19                	j	2166 <_printf_i+0x142>
    2252:	87ae                	mv	a5,a1
    2254:	b735                	j	2180 <_printf_i+0x15c>
    2256:	4194                	lw	a3,0(a1)
    2258:	431c                	lw	a5,0(a4)
    225a:	49cc                	lw	a1,20(a1)
    225c:	0806f813          	andi	a6,a3,128
    2260:	00478513          	addi	a0,a5,4
    2264:	00080663          	beqz	a6,2270 <_printf_i+0x24c>
    2268:	c308                	sw	a0,0(a4)
    226a:	439c                	lw	a5,0(a5)
    226c:	c38c                	sw	a1,0(a5)
    226e:	a801                	j	227e <_printf_i+0x25a>
    2270:	c308                	sw	a0,0(a4)
    2272:	0406f693          	andi	a3,a3,64
    2276:	439c                	lw	a5,0(a5)
    2278:	daf5                	beqz	a3,226c <_printf_i+0x248>
    227a:	00b79023          	sh	a1,0(a5)
    227e:	00042823          	sw	zero,16(s0)
    2282:	8ab2                	mv	s5,a2
    2284:	bf25                	j	21bc <_printf_i+0x198>
    2286:	4814                	lw	a3,16(s0)
    2288:	8656                	mv	a2,s5
    228a:	85ca                	mv	a1,s2
    228c:	8526                	mv	a0,s1
    228e:	9982                	jalr	s3
    2290:	f3450fe3          	beq	a0,s4,21ce <_printf_i+0x1aa>
    2294:	401c                	lw	a5,0(s0)
    2296:	8b89                	andi	a5,a5,2
    2298:	e78d                	bnez	a5,22c2 <_printf_i+0x29e>
    229a:	47b2                	lw	a5,12(sp)
    229c:	4448                	lw	a0,12(s0)
    229e:	f2f559e3          	bge	a0,a5,21d0 <_printf_i+0x1ac>
    22a2:	853e                	mv	a0,a5
    22a4:	b735                	j	21d0 <_printf_i+0x1ac>
    22a6:	4685                	li	a3,1
    22a8:	8656                	mv	a2,s5
    22aa:	85ca                	mv	a1,s2
    22ac:	8526                	mv	a0,s1
    22ae:	9982                	jalr	s3
    22b0:	f1650fe3          	beq	a0,s6,21ce <_printf_i+0x1aa>
    22b4:	0a05                	addi	s4,s4,1
    22b6:	445c                	lw	a5,12(s0)
    22b8:	4732                	lw	a4,12(sp)
    22ba:	8f99                	sub	a5,a5,a4
    22bc:	fefa45e3          	blt	s4,a5,22a6 <_printf_i+0x282>
    22c0:	bfe9                	j	229a <_printf_i+0x276>
    22c2:	4a01                	li	s4,0
    22c4:	01940a93          	addi	s5,s0,25
    22c8:	5b7d                	li	s6,-1
    22ca:	b7f5                	j	22b6 <_printf_i+0x292>

000022cc <_putc_r>:
    22cc:	1101                	addi	sp,sp,-32
    22ce:	cc22                	sw	s0,24(sp)
    22d0:	ce06                	sw	ra,28(sp)
    22d2:	842a                	mv	s0,a0
    22d4:	c909                	beqz	a0,22e6 <_putc_r+0x1a>
    22d6:	4d1c                	lw	a5,24(a0)
    22d8:	e799                	bnez	a5,22e6 <_putc_r+0x1a>
    22da:	c632                	sw	a2,12(sp)
    22dc:	c42e                	sw	a1,8(sp)
    22de:	9daff0ef          	jal	ra,14b8 <__sinit>
    22e2:	4632                	lw	a2,12(sp)
    22e4:	45a2                	lw	a1,8(sp)
    22e6:	00001797          	auipc	a5,0x1
    22ea:	fbe78793          	addi	a5,a5,-66 # 32a4 <__sf_fake_stdin>
    22ee:	02f61663          	bne	a2,a5,231a <_putc_r+0x4e>
    22f2:	4050                	lw	a2,4(s0)
    22f4:	461c                	lw	a5,8(a2)
    22f6:	17fd                	addi	a5,a5,-1
    22f8:	c61c                	sw	a5,8(a2)
    22fa:	0407d063          	bgez	a5,233a <_putc_r+0x6e>
    22fe:	4e18                	lw	a4,24(a2)
    2300:	00e7c763          	blt	a5,a4,230e <_putc_r+0x42>
    2304:	0ff5f793          	andi	a5,a1,255
    2308:	4729                	li	a4,10
    230a:	02e79863          	bne	a5,a4,233a <_putc_r+0x6e>
    230e:	8522                	mv	a0,s0
    2310:	4462                	lw	s0,24(sp)
    2312:	40f2                	lw	ra,28(sp)
    2314:	6105                	addi	sp,sp,32
    2316:	d7dfe06f          	j	1092 <__swbuf_r>
    231a:	00001797          	auipc	a5,0x1
    231e:	faa78793          	addi	a5,a5,-86 # 32c4 <__sf_fake_stdout>
    2322:	00f61463          	bne	a2,a5,232a <_putc_r+0x5e>
    2326:	4410                	lw	a2,8(s0)
    2328:	b7f1                	j	22f4 <_putc_r+0x28>
    232a:	00001797          	auipc	a5,0x1
    232e:	f5a78793          	addi	a5,a5,-166 # 3284 <__sf_fake_stderr>
    2332:	fcf611e3          	bne	a2,a5,22f4 <_putc_r+0x28>
    2336:	4450                	lw	a2,12(s0)
    2338:	bf75                	j	22f4 <_putc_r+0x28>
    233a:	421c                	lw	a5,0(a2)
    233c:	0ff5f513          	andi	a0,a1,255
    2340:	00178713          	addi	a4,a5,1
    2344:	c218                	sw	a4,0(a2)
    2346:	00b78023          	sb	a1,0(a5)
    234a:	40f2                	lw	ra,28(sp)
    234c:	4462                	lw	s0,24(sp)
    234e:	6105                	addi	sp,sp,32
    2350:	8082                	ret

00002352 <_sbrk_r>:
    2352:	1141                	addi	sp,sp,-16
    2354:	c422                	sw	s0,8(sp)
    2356:	842a                	mv	s0,a0
    2358:	852e                	mv	a0,a1
    235a:	20002797          	auipc	a5,0x20002
    235e:	a407ab23          	sw	zero,-1450(a5) # 20003db0 <errno>
    2362:	c606                	sw	ra,12(sp)
    2364:	26c5                	jal	2744 <_sbrk>
    2366:	57fd                	li	a5,-1
    2368:	00f51963          	bne	a0,a5,237a <_sbrk_r+0x28>
    236c:	20002797          	auipc	a5,0x20002
    2370:	a4478793          	addi	a5,a5,-1468 # 20003db0 <errno>
    2374:	439c                	lw	a5,0(a5)
    2376:	c391                	beqz	a5,237a <_sbrk_r+0x28>
    2378:	c01c                	sw	a5,0(s0)
    237a:	40b2                	lw	ra,12(sp)
    237c:	4422                	lw	s0,8(sp)
    237e:	0141                	addi	sp,sp,16
    2380:	8082                	ret

00002382 <__sread>:
    2382:	1141                	addi	sp,sp,-16
    2384:	c422                	sw	s0,8(sp)
    2386:	842e                	mv	s0,a1
    2388:	00e59583          	lh	a1,14(a1)
    238c:	c606                	sw	ra,12(sp)
    238e:	2e39                	jal	26ac <_read_r>
    2390:	00054963          	bltz	a0,23a2 <__sread+0x20>
    2394:	487c                	lw	a5,84(s0)
    2396:	97aa                	add	a5,a5,a0
    2398:	c87c                	sw	a5,84(s0)
    239a:	40b2                	lw	ra,12(sp)
    239c:	4422                	lw	s0,8(sp)
    239e:	0141                	addi	sp,sp,16
    23a0:	8082                	ret
    23a2:	00c45783          	lhu	a5,12(s0)
    23a6:	777d                	lui	a4,0xfffff
    23a8:	177d                	addi	a4,a4,-1
    23aa:	8ff9                	and	a5,a5,a4
    23ac:	00f41623          	sh	a5,12(s0)
    23b0:	b7ed                	j	239a <__sread+0x18>

000023b2 <__swrite>:
    23b2:	00c5d783          	lhu	a5,12(a1)
    23b6:	1101                	addi	sp,sp,-32
    23b8:	cc22                	sw	s0,24(sp)
    23ba:	ca26                	sw	s1,20(sp)
    23bc:	c84a                	sw	s2,16(sp)
    23be:	c64e                	sw	s3,12(sp)
    23c0:	ce06                	sw	ra,28(sp)
    23c2:	1007f793          	andi	a5,a5,256
    23c6:	84aa                	mv	s1,a0
    23c8:	842e                	mv	s0,a1
    23ca:	8932                	mv	s2,a2
    23cc:	89b6                	mv	s3,a3
    23ce:	c791                	beqz	a5,23da <__swrite+0x28>
    23d0:	00e59583          	lh	a1,14(a1)
    23d4:	4689                	li	a3,2
    23d6:	4601                	li	a2,0
    23d8:	2235                	jal	2504 <_lseek_r>
    23da:	00c45783          	lhu	a5,12(s0)
    23de:	777d                	lui	a4,0xfffff
    23e0:	177d                	addi	a4,a4,-1
    23e2:	8ff9                	and	a5,a5,a4
    23e4:	00f41623          	sh	a5,12(s0)
    23e8:	00e41583          	lh	a1,14(s0)
    23ec:	4462                	lw	s0,24(sp)
    23ee:	40f2                	lw	ra,28(sp)
    23f0:	86ce                	mv	a3,s3
    23f2:	864a                	mv	a2,s2
    23f4:	49b2                	lw	s3,12(sp)
    23f6:	4942                	lw	s2,16(sp)
    23f8:	8526                	mv	a0,s1
    23fa:	44d2                	lw	s1,20(sp)
    23fc:	6105                	addi	sp,sp,32
    23fe:	a83d                	j	243c <_write_r>

00002400 <__sseek>:
    2400:	1141                	addi	sp,sp,-16
    2402:	c422                	sw	s0,8(sp)
    2404:	842e                	mv	s0,a1
    2406:	00e59583          	lh	a1,14(a1)
    240a:	c606                	sw	ra,12(sp)
    240c:	28e5                	jal	2504 <_lseek_r>
    240e:	57fd                	li	a5,-1
    2410:	00c45703          	lhu	a4,12(s0)
    2414:	00f51b63          	bne	a0,a5,242a <__sseek+0x2a>
    2418:	77fd                	lui	a5,0xfffff
    241a:	17fd                	addi	a5,a5,-1
    241c:	8ff9                	and	a5,a5,a4
    241e:	00f41623          	sh	a5,12(s0)
    2422:	40b2                	lw	ra,12(sp)
    2424:	4422                	lw	s0,8(sp)
    2426:	0141                	addi	sp,sp,16
    2428:	8082                	ret
    242a:	6785                	lui	a5,0x1
    242c:	8fd9                	or	a5,a5,a4
    242e:	00f41623          	sh	a5,12(s0)
    2432:	c868                	sw	a0,84(s0)
    2434:	b7fd                	j	2422 <__sseek+0x22>

00002436 <__sclose>:
    2436:	00e59583          	lh	a1,14(a1)
    243a:	a825                	j	2472 <_close_r>

0000243c <_write_r>:
    243c:	1141                	addi	sp,sp,-16
    243e:	c422                	sw	s0,8(sp)
    2440:	842a                	mv	s0,a0
    2442:	852e                	mv	a0,a1
    2444:	85b2                	mv	a1,a2
    2446:	8636                	mv	a2,a3
    2448:	20002797          	auipc	a5,0x20002
    244c:	9607a423          	sw	zero,-1688(a5) # 20003db0 <errno>
    2450:	c606                	sw	ra,12(sp)
    2452:	9c7fe0ef          	jal	ra,e18 <_write>
    2456:	57fd                	li	a5,-1
    2458:	00f51963          	bne	a0,a5,246a <_write_r+0x2e>
    245c:	20002797          	auipc	a5,0x20002
    2460:	95478793          	addi	a5,a5,-1708 # 20003db0 <errno>
    2464:	439c                	lw	a5,0(a5)
    2466:	c391                	beqz	a5,246a <_write_r+0x2e>
    2468:	c01c                	sw	a5,0(s0)
    246a:	40b2                	lw	ra,12(sp)
    246c:	4422                	lw	s0,8(sp)
    246e:	0141                	addi	sp,sp,16
    2470:	8082                	ret

00002472 <_close_r>:
    2472:	1141                	addi	sp,sp,-16
    2474:	c422                	sw	s0,8(sp)
    2476:	842a                	mv	s0,a0
    2478:	852e                	mv	a0,a1
    247a:	20002797          	auipc	a5,0x20002
    247e:	9207ab23          	sw	zero,-1738(a5) # 20003db0 <errno>
    2482:	c606                	sw	ra,12(sp)
    2484:	2c85                	jal	26f4 <_close>
    2486:	57fd                	li	a5,-1
    2488:	00f51963          	bne	a0,a5,249a <_close_r+0x28>
    248c:	20002797          	auipc	a5,0x20002
    2490:	92478793          	addi	a5,a5,-1756 # 20003db0 <errno>
    2494:	439c                	lw	a5,0(a5)
    2496:	c391                	beqz	a5,249a <_close_r+0x28>
    2498:	c01c                	sw	a5,0(s0)
    249a:	40b2                	lw	ra,12(sp)
    249c:	4422                	lw	s0,8(sp)
    249e:	0141                	addi	sp,sp,16
    24a0:	8082                	ret

000024a2 <_fstat_r>:
    24a2:	1141                	addi	sp,sp,-16
    24a4:	c422                	sw	s0,8(sp)
    24a6:	842a                	mv	s0,a0
    24a8:	852e                	mv	a0,a1
    24aa:	85b2                	mv	a1,a2
    24ac:	20002797          	auipc	a5,0x20002
    24b0:	9007a223          	sw	zero,-1788(a5) # 20003db0 <errno>
    24b4:	c606                	sw	ra,12(sp)
    24b6:	24b9                	jal	2704 <_fstat>
    24b8:	57fd                	li	a5,-1
    24ba:	00f51963          	bne	a0,a5,24cc <_fstat_r+0x2a>
    24be:	20002797          	auipc	a5,0x20002
    24c2:	8f278793          	addi	a5,a5,-1806 # 20003db0 <errno>
    24c6:	439c                	lw	a5,0(a5)
    24c8:	c391                	beqz	a5,24cc <_fstat_r+0x2a>
    24ca:	c01c                	sw	a5,0(s0)
    24cc:	40b2                	lw	ra,12(sp)
    24ce:	4422                	lw	s0,8(sp)
    24d0:	0141                	addi	sp,sp,16
    24d2:	8082                	ret

000024d4 <_isatty_r>:
    24d4:	1141                	addi	sp,sp,-16
    24d6:	c422                	sw	s0,8(sp)
    24d8:	842a                	mv	s0,a0
    24da:	852e                	mv	a0,a1
    24dc:	20002797          	auipc	a5,0x20002
    24e0:	8c07aa23          	sw	zero,-1836(a5) # 20003db0 <errno>
    24e4:	c606                	sw	ra,12(sp)
    24e6:	243d                	jal	2714 <_isatty>
    24e8:	57fd                	li	a5,-1
    24ea:	00f51963          	bne	a0,a5,24fc <_isatty_r+0x28>
    24ee:	20002797          	auipc	a5,0x20002
    24f2:	8c278793          	addi	a5,a5,-1854 # 20003db0 <errno>
    24f6:	439c                	lw	a5,0(a5)
    24f8:	c391                	beqz	a5,24fc <_isatty_r+0x28>
    24fa:	c01c                	sw	a5,0(s0)
    24fc:	40b2                	lw	ra,12(sp)
    24fe:	4422                	lw	s0,8(sp)
    2500:	0141                	addi	sp,sp,16
    2502:	8082                	ret

00002504 <_lseek_r>:
    2504:	1141                	addi	sp,sp,-16
    2506:	c422                	sw	s0,8(sp)
    2508:	842a                	mv	s0,a0
    250a:	852e                	mv	a0,a1
    250c:	85b2                	mv	a1,a2
    250e:	8636                	mv	a2,a3
    2510:	20002797          	auipc	a5,0x20002
    2514:	8a07a023          	sw	zero,-1888(a5) # 20003db0 <errno>
    2518:	c606                	sw	ra,12(sp)
    251a:	2429                	jal	2724 <_lseek>
    251c:	57fd                	li	a5,-1
    251e:	00f51963          	bne	a0,a5,2530 <_lseek_r+0x2c>
    2522:	20002797          	auipc	a5,0x20002
    2526:	88e78793          	addi	a5,a5,-1906 # 20003db0 <errno>
    252a:	439c                	lw	a5,0(a5)
    252c:	c391                	beqz	a5,2530 <_lseek_r+0x2c>
    252e:	c01c                	sw	a5,0(s0)
    2530:	40b2                	lw	ra,12(sp)
    2532:	4422                	lw	s0,8(sp)
    2534:	0141                	addi	sp,sp,16
    2536:	8082                	ret

00002538 <memchr>:
    2538:	0ff5f593          	andi	a1,a1,255
    253c:	962a                	add	a2,a2,a0
    253e:	00c51463          	bne	a0,a2,2546 <memchr+0xe>
    2542:	4501                	li	a0,0
    2544:	8082                	ret
    2546:	00054783          	lbu	a5,0(a0)
    254a:	feb78de3          	beq	a5,a1,2544 <memchr+0xc>
    254e:	0505                	addi	a0,a0,1
    2550:	b7fd                	j	253e <memchr+0x6>

00002552 <memcpy>:
    2552:	00a5c7b3          	xor	a5,a1,a0
    2556:	8b8d                	andi	a5,a5,3
    2558:	00c50733          	add	a4,a0,a2
    255c:	e781                	bnez	a5,2564 <memcpy+0x12>
    255e:	478d                	li	a5,3
    2560:	00c7ee63          	bltu	a5,a2,257c <memcpy+0x2a>
    2564:	87aa                	mv	a5,a0
    2566:	0ae57063          	bgeu	a0,a4,2606 <memcpy+0xb4>
    256a:	0005c683          	lbu	a3,0(a1)
    256e:	0785                	addi	a5,a5,1
    2570:	0585                	addi	a1,a1,1
    2572:	fed78fa3          	sb	a3,-1(a5)
    2576:	fee7eae3          	bltu	a5,a4,256a <memcpy+0x18>
    257a:	8082                	ret
    257c:	00357693          	andi	a3,a0,3
    2580:	87aa                	mv	a5,a0
    2582:	ca91                	beqz	a3,2596 <memcpy+0x44>
    2584:	0005c683          	lbu	a3,0(a1)
    2588:	0785                	addi	a5,a5,1
    258a:	0585                	addi	a1,a1,1
    258c:	fed78fa3          	sb	a3,-1(a5)
    2590:	0037f693          	andi	a3,a5,3
    2594:	b7fd                	j	2582 <memcpy+0x30>
    2596:	ffc77693          	andi	a3,a4,-4
    259a:	fe068613          	addi	a2,a3,-32
    259e:	06c7f063          	bgeu	a5,a2,25fe <memcpy+0xac>
    25a2:	0005a383          	lw	t2,0(a1)
    25a6:	0045a283          	lw	t0,4(a1)
    25aa:	0085af83          	lw	t6,8(a1)
    25ae:	00c5af03          	lw	t5,12(a1)
    25b2:	0105ae83          	lw	t4,16(a1)
    25b6:	0145ae03          	lw	t3,20(a1)
    25ba:	0185a303          	lw	t1,24(a1)
    25be:	01c5a883          	lw	a7,28(a1)
    25c2:	02458593          	addi	a1,a1,36
    25c6:	0077a023          	sw	t2,0(a5)
    25ca:	ffc5a803          	lw	a6,-4(a1)
    25ce:	0057a223          	sw	t0,4(a5)
    25d2:	01f7a423          	sw	t6,8(a5)
    25d6:	01e7a623          	sw	t5,12(a5)
    25da:	01d7a823          	sw	t4,16(a5)
    25de:	01c7aa23          	sw	t3,20(a5)
    25e2:	0067ac23          	sw	t1,24(a5)
    25e6:	0117ae23          	sw	a7,28(a5)
    25ea:	02478793          	addi	a5,a5,36
    25ee:	ff07ae23          	sw	a6,-4(a5)
    25f2:	b775                	j	259e <memcpy+0x4c>
    25f4:	4190                	lw	a2,0(a1)
    25f6:	0791                	addi	a5,a5,4
    25f8:	0591                	addi	a1,a1,4
    25fa:	fec7ae23          	sw	a2,-4(a5)
    25fe:	fed7ebe3          	bltu	a5,a3,25f4 <memcpy+0xa2>
    2602:	f6e7e4e3          	bltu	a5,a4,256a <memcpy+0x18>
    2606:	8082                	ret

00002608 <memmove>:
    2608:	04a5f363          	bgeu	a1,a0,264e <memmove+0x46>
    260c:	00c586b3          	add	a3,a1,a2
    2610:	02d57f63          	bgeu	a0,a3,264e <memmove+0x46>
    2614:	fff64593          	not	a1,a2
    2618:	4781                	li	a5,0
    261a:	17fd                	addi	a5,a5,-1
    261c:	00f59363          	bne	a1,a5,2622 <memmove+0x1a>
    2620:	8082                	ret
    2622:	00f68733          	add	a4,a3,a5
    2626:	00074803          	lbu	a6,0(a4) # fffff000 <_eusrstack+0xdfff7000>
    262a:	00c78733          	add	a4,a5,a2
    262e:	972a                	add	a4,a4,a0
    2630:	01070023          	sb	a6,0(a4)
    2634:	b7dd                	j	261a <memmove+0x12>
    2636:	00f58733          	add	a4,a1,a5
    263a:	00074683          	lbu	a3,0(a4)
    263e:	00f50733          	add	a4,a0,a5
    2642:	0785                	addi	a5,a5,1
    2644:	00d70023          	sb	a3,0(a4)
    2648:	fef617e3          	bne	a2,a5,2636 <memmove+0x2e>
    264c:	8082                	ret
    264e:	4781                	li	a5,0
    2650:	bfe5                	j	2648 <memmove+0x40>

00002652 <__malloc_lock>:
    2652:	8082                	ret

00002654 <__malloc_unlock>:
    2654:	8082                	ret

00002656 <_realloc_r>:
    2656:	e581                	bnez	a1,265e <_realloc_r+0x8>
    2658:	85b2                	mv	a1,a2
    265a:	976ff06f          	j	17d0 <_malloc_r>
    265e:	1101                	addi	sp,sp,-32
    2660:	cc22                	sw	s0,24(sp)
    2662:	ce06                	sw	ra,28(sp)
    2664:	ca26                	sw	s1,20(sp)
    2666:	c84a                	sw	s2,16(sp)
    2668:	c64e                	sw	s3,12(sp)
    266a:	8432                	mv	s0,a2
    266c:	ee01                	bnez	a2,2684 <_realloc_r+0x2e>
    266e:	8baff0ef          	jal	ra,1728 <_free_r>
    2672:	4901                	li	s2,0
    2674:	40f2                	lw	ra,28(sp)
    2676:	4462                	lw	s0,24(sp)
    2678:	854a                	mv	a0,s2
    267a:	44d2                	lw	s1,20(sp)
    267c:	4942                	lw	s2,16(sp)
    267e:	49b2                	lw	s3,12(sp)
    2680:	6105                	addi	sp,sp,32
    2682:	8082                	ret
    2684:	84ae                	mv	s1,a1
    2686:	89aa                	mv	s3,a0
    2688:	28a1                	jal	26e0 <_malloc_usable_size_r>
    268a:	8926                	mv	s2,s1
    268c:	fe8574e3          	bgeu	a0,s0,2674 <_realloc_r+0x1e>
    2690:	85a2                	mv	a1,s0
    2692:	854e                	mv	a0,s3
    2694:	93cff0ef          	jal	ra,17d0 <_malloc_r>
    2698:	892a                	mv	s2,a0
    269a:	dd69                	beqz	a0,2674 <_realloc_r+0x1e>
    269c:	85a6                	mv	a1,s1
    269e:	8622                	mv	a2,s0
    26a0:	3d4d                	jal	2552 <memcpy>
    26a2:	85a6                	mv	a1,s1
    26a4:	854e                	mv	a0,s3
    26a6:	882ff0ef          	jal	ra,1728 <_free_r>
    26aa:	b7e9                	j	2674 <_realloc_r+0x1e>

000026ac <_read_r>:
    26ac:	1141                	addi	sp,sp,-16
    26ae:	c422                	sw	s0,8(sp)
    26b0:	842a                	mv	s0,a0
    26b2:	852e                	mv	a0,a1
    26b4:	85b2                	mv	a1,a2
    26b6:	8636                	mv	a2,a3
    26b8:	20001797          	auipc	a5,0x20001
    26bc:	6e07ac23          	sw	zero,1784(a5) # 20003db0 <errno>
    26c0:	c606                	sw	ra,12(sp)
    26c2:	288d                	jal	2734 <_read>
    26c4:	57fd                	li	a5,-1
    26c6:	00f51963          	bne	a0,a5,26d8 <_read_r+0x2c>
    26ca:	20001797          	auipc	a5,0x20001
    26ce:	6e678793          	addi	a5,a5,1766 # 20003db0 <errno>
    26d2:	439c                	lw	a5,0(a5)
    26d4:	c391                	beqz	a5,26d8 <_read_r+0x2c>
    26d6:	c01c                	sw	a5,0(s0)
    26d8:	40b2                	lw	ra,12(sp)
    26da:	4422                	lw	s0,8(sp)
    26dc:	0141                	addi	sp,sp,16
    26de:	8082                	ret

000026e0 <_malloc_usable_size_r>:
    26e0:	ffc5a783          	lw	a5,-4(a1)
    26e4:	ffc78513          	addi	a0,a5,-4
    26e8:	0007d563          	bgez	a5,26f2 <_malloc_usable_size_r+0x12>
    26ec:	95aa                	add	a1,a1,a0
    26ee:	419c                	lw	a5,0(a1)
    26f0:	953e                	add	a0,a0,a5
    26f2:	8082                	ret

000026f4 <_close>:
    26f4:	05800793          	li	a5,88
    26f8:	20001717          	auipc	a4,0x20001
    26fc:	6af72c23          	sw	a5,1720(a4) # 20003db0 <errno>
    2700:	557d                	li	a0,-1
    2702:	8082                	ret

00002704 <_fstat>:
    2704:	05800793          	li	a5,88
    2708:	20001717          	auipc	a4,0x20001
    270c:	6af72423          	sw	a5,1704(a4) # 20003db0 <errno>
    2710:	557d                	li	a0,-1
    2712:	8082                	ret

00002714 <_isatty>:
    2714:	05800793          	li	a5,88
    2718:	20001717          	auipc	a4,0x20001
    271c:	68f72c23          	sw	a5,1688(a4) # 20003db0 <errno>
    2720:	4501                	li	a0,0
    2722:	8082                	ret

00002724 <_lseek>:
    2724:	05800793          	li	a5,88
    2728:	20001717          	auipc	a4,0x20001
    272c:	68f72423          	sw	a5,1672(a4) # 20003db0 <errno>
    2730:	557d                	li	a0,-1
    2732:	8082                	ret

00002734 <_read>:
    2734:	05800793          	li	a5,88
    2738:	20001717          	auipc	a4,0x20001
    273c:	66f72c23          	sw	a5,1656(a4) # 20003db0 <errno>
    2740:	557d                	li	a0,-1
    2742:	8082                	ret

00002744 <_sbrk>:
    2744:	81c18793          	addi	a5,gp,-2020 # 2000008c <heap_end.1520>
    2748:	439c                	lw	a5,0(a5)
    274a:	c791                	beqz	a5,2756 <_sbrk+0x12>
    274c:	953e                	add	a0,a0,a5
    274e:	80a1ae23          	sw	a0,-2020(gp) # 2000008c <heap_end.1520>
    2752:	853e                	mv	a0,a5
    2754:	8082                	ret
    2756:	20001797          	auipc	a5,0x20001
    275a:	65e78793          	addi	a5,a5,1630 # 20003db4 <_ebss>
    275e:	953e                	add	a0,a0,a5
    2760:	80a1ae23          	sw	a0,-2020(gp) # 2000008c <heap_end.1520>
    2764:	853e                	mv	a0,a5
    2766:	8082                	ret
    2768:	0d0c                	addi	a1,sp,656
    276a:	0d0a                	slli	s10,s10,0x2
    276c:	0d0a                	slli	s10,s10,0x2
    276e:	0d0a                	slli	s10,s10,0x2
    2770:	0d0a                	slli	s10,s10,0x2
    2772:	0d0a                	slli	s10,s10,0x2
    2774:	0000                	unimp
    2776:	0000                	unimp
    2778:	2020                	fld	fs0,64(s0)
    277a:	2020                	fld	fs0,64(s0)
    277c:	2020                	fld	fs0,64(s0)
    277e:	2020                	fld	fs0,64(s0)
    2780:	2020                	fld	fs0,64(s0)
    2782:	2020                	fld	fs0,64(s0)
    2784:	2020                	fld	fs0,64(s0)
    2786:	2020                	fld	fs0,64(s0)
    2788:	2020                	fld	fs0,64(s0)
    278a:	2020                	fld	fs0,64(s0)
    278c:	2020                	fld	fs0,64(s0)
    278e:	2020                	fld	fs0,64(s0)
    2790:	2020                	fld	fs0,64(s0)
    2792:	3d20                	fld	fs0,120(a0)
    2794:	3d3d                	jal	25d2 <memcpy+0x80>
    2796:	3d3d                	jal	25d4 <memcpy+0x82>
    2798:	3d3d                	jal	25d6 <memcpy+0x84>
    279a:	473d                	li	a4,15
    279c:	4d41                	li	s10,16
    279e:	2045                	jal	283e <_sbrk+0xfa>
    27a0:	5245564f          	fnmadd.d	fa2,fa0,ft4,fa0,unknown
    27a4:	3d3d                	jal	25e2 <memcpy+0x90>
    27a6:	3d3d                	jal	25e4 <memcpy+0x92>
    27a8:	3d3d                	jal	25e6 <memcpy+0x94>
    27aa:	3d3d                	jal	25e8 <memcpy+0x96>
    27ac:	000d                	c.nop	3
    27ae:	0000                	unimp
    27b0:	2020                	fld	fs0,64(s0)
    27b2:	2020                	fld	fs0,64(s0)
    27b4:	2020                	fld	fs0,64(s0)
    27b6:	2020                	fld	fs0,64(s0)
    27b8:	2020                	fld	fs0,64(s0)
    27ba:	2020                	fld	fs0,64(s0)
    27bc:	2020                	fld	fs0,64(s0)
    27be:	2020                	fld	fs0,64(s0)
    27c0:	2020                	fld	fs0,64(s0)
    27c2:	2020                	fld	fs0,64(s0)
    27c4:	2020                	fld	fs0,64(s0)
    27c6:	2020                	fld	fs0,64(s0)
    27c8:	2020                	fld	fs0,64(s0)
    27ca:	3d20                	fld	fs0,120(a0)
    27cc:	3d3d                	jal	260a <memmove+0x2>
    27ce:	3d3d                	jal	260c <memmove+0x4>
    27d0:	3d3d                	jal	260e <memmove+0x6>
    27d2:	524f4353          	0x524f4353
    27d6:	3a45                	jal	2186 <_printf_i+0x162>
    27d8:	2520                	fld	fs0,72(a0)
    27da:	3430                	fld	fa2,104(s0)
    27dc:	3d64                	fld	fs1,248(a0)
    27de:	3d3d                	jal	261c <memmove+0x14>
    27e0:	3d3d                	jal	261e <memmove+0x16>
    27e2:	3d3d                	jal	2620 <memmove+0x18>
    27e4:	0a0d                	addi	s4,s4,3
    27e6:	0000                	unimp
    27e8:	2020                	fld	fs0,64(s0)
    27ea:	2020                	fld	fs0,64(s0)
    27ec:	2020                	fld	fs0,64(s0)
    27ee:	2020                	fld	fs0,64(s0)
    27f0:	2020                	fld	fs0,64(s0)
    27f2:	2020                	fld	fs0,64(s0)
    27f4:	2020                	fld	fs0,64(s0)
    27f6:	2020                	fld	fs0,64(s0)
    27f8:	2020                	fld	fs0,64(s0)
    27fa:	2020                	fld	fs0,64(s0)
    27fc:	2020                	fld	fs0,64(s0)
    27fe:	2020                	fld	fs0,64(s0)
    2800:	2020                	fld	fs0,64(s0)
    2802:	3d20                	fld	fs0,120(a0)
    2804:	503d                	c.li	zero,-17
    2806:	6572                	flw	fa0,28(sp)
    2808:	53207373          	csrrci	t1,0x532,0
    280c:	74203257          	0x74203257
    2810:	6f63206f          	j	34f06 <_data_lma+0x31be6>
    2814:	746e                	flw	fs0,248(sp)
    2816:	6e69                	lui	t3,0x1a
    2818:	6575                	lui	a0,0x1d
    281a:	3d3d                	jal	2658 <_realloc_r+0x2>
    281c:	000d                	c.nop	3
    281e:	0000                	unimp
    2820:	94e2                	add	s1,s1,s8
    2822:	e28c                	fsw	fa1,0(a3)
    2824:	8094                	0x8094
    2826:	94e2                	add	s1,s1,s8
    2828:	e280                	fsw	fs0,0(a3)
    282a:	8094                	0x8094
    282c:	94e2                	add	s1,s1,s8
    282e:	e280                	fsw	fs0,0(a3)
    2830:	8094                	0x8094
    2832:	94e2                	add	s1,s1,s8
    2834:	e280                	fsw	fs0,0(a3)
    2836:	8094                	0x8094
    2838:	94e2                	add	s1,s1,s8
    283a:	e280                	fsw	fs0,0(a3)
    283c:	8094                	0x8094
    283e:	94e2                	add	s1,s1,s8
    2840:	e280                	fsw	fs0,0(a3)
    2842:	8094                	0x8094
