:100000006F10000613000000130000001300000032
:100010001300000013000000130000001300000094
:100020001300000013000000130000001300000084
:08003000130000007300100032
:100038000000000000000000A8020000AC02000060
:1000480000000000A60F00000000000000000000F3
:10005800A80F0000AA0F0000000000000000000028
:10006800AC0F000000000000AE0F00000000000010
:10007800B00F0000B20F0000B40F0000B60F000070
:10008800B80F0000BA0F0000BC0F0000BE0F000040
:10009800C00F0000C20F0000C40F0000C60F000010
:1000A800C80F0000CA0F0000CC0F0000CE0F0000E0
:1000B800D00F0000D20F0000D40F0000D60F0000B0
:1000C800D80F0000DA0F0000DC0F0000DE0F000080
:1000D800E00F0000E20F0000E40F0000E60F000050
:1000E800E80F0000EA0F0000EC0F0000EE0F000020
:1000F800F00F0000F20F0000F40F0000F60F0000F0
:10010800F80F0000FA0F0000FC0F0000FE0F0000BF
:10011800001000000210000004100000061000008B
:10012800081000000A1000000C1000000E1000005B
:10013800101000001210000014100000161000002B
:10014800181000001A1000001C1000001E100000FB
:1001580020100000221000002410000026100000CB
:10016800281000002A1000002C1000002E1000009B
:10017800301000003210000034100000361000006B
:10018800381000003A1000003C1000003E1000003B
:10019800401000004210000044100000461000000B
:1001A800481000004A1000004C1000004E100000DB
:1001B80050100000521000005410000056100000AB
:1001C800581000005A1000005C1000005E1000007B
:1001D8000000000000000000000000000000000017
:1001E8000000000000000000000000000000000007
:0801F8000000000000000000FF
:100200003D432A876373C3029377F700BDEFADE5E3
:10021000937606FF3D8ABA960CC34CC30CC74CC7F5
:100220004107E36BD7FE11E28280B306C3408A0622
:100230009702000096966780A6002307B700A306E2
:10024000B7002306B700A305B7002305B700A30432
:10025000B7002304B700A303B7002303B700A3022A
:10026000B7002302B700A301B7002301B700A30022
:10027000B7002300B700828093F5F50F93968500B1
:10028000D58D93960501D58D61B79396270097027A
:10029000000096968682E78086FA9680C1171D8FA9
:1002A0003E96E374C3F8A5B77300203001A013573E
:1002B0008500B70702602380E7001375F50F2380E0
:1002C000A7008280B707026083C70700411193F738
:1002D000F70FA307F1000345F1004101828035715A
:1002E0001306C0038145C80006CF22CD26CB4AC9DC
:1002F0004EC752C556C35AC1930AC10002C002C2BA
:1003000002C4FD3D714681455685DD3D130A8102DB
:10031000714681455285ED35854513050010EF1076
:100320006008854513058016EF10A009B714014039
:100330000D449167414B8A85138504C02310F10059
:100340005AC422C2EF00F067F177E149938737730F
:100350008A85138504402310F1004EC422C2EF00A9
:10036000506637250140930700F88A8513050580FC
:100370002310F1004EC422C2EF00B0648A851385B9
:1003800004400569231021014EC422C2EF007063AE
:100390008A851385044013090980231021015AC45A
:1003A00022C20569EF00F0619305098013850440BE
:1003B000EF00306E85473EC6BD473ECAC800916714
:1003C00022D8CAD4BED8D6DCD2DE02C802CC02CE35
:1003D00002D002D202D402D602DA02DC02DE82C0ED
:1003E00082C282C482C682C882CA82CE82CC82D0B5
:1003F00082D282D682DAEF00504F85450145EF0068
:10040000705AFA406A44DA444A49BA492A4A9A4A2E
:100410000A4B0D618280011185451305000206CE4D
:1004200022CCEF00107A8967371401402312F100C3
:10043000C1473EC64C008D47130504403EC4EF0043
:100440005058130504408965EF00706489651305F1
:100450000440EF00106413054006EF10C00D1305B3
:1004600004408965EF00B062F24062440561828019
:10047000B70702601307A002A38FE7FE135785009A
:100480002380E7001375F50F2380A700135786001C
:100490002380E7001376F60F2380C7001307B0020E
:1004A000A38FE7FE13D785002380E70093F5F50FB0
:1004B0002380B70013D786002380E70093F6F60F5A
:1004C0002380D7001307C002A38FE7FE828041116B
:1004D00022C426C29306F00E935485001374F50FC0
:1004E0001306F00E8145014506C659371307000F64
:1004F000B70602609307000FFD1723809600C2071E
:1005000023808600C183EDFB7D17420741837DF385
:10051000B2402244924441018280411106C622C465
:1005200026C2D53D6D3B370402609147A30FF4FE10
:10053000513B493B413B93140501C180A204C204D5
:100540005133C180458D9315050137650000C18188
:10055000130585CAEF10002413052003EF00B07DBA
:1005600093076003A30FF4FE230004001306A00307
:10057000A30FC4FE95472300F400930720FBA30FAD
:10058000F4FEB1462300D4002300D400230004006D
:10059000930730032300F4002300F400130770FBDB
:1005A000A30FE4FE230004001307B0FBA30FE4FE37
:1005B0001303F00323006400130700FCA30FE4FE01
:1005C0001307C0022300E400130720FCA30FE4FE7E
:1005D00005472300E400130730FCA30FE4FEB548F1
:1005E00023001401130740FCA30FE4FE13070002CD
:1005F0002300E400130760FCA30FE4FE0D47230073
:10060000E400930500FDA30FB4FE930540FA230018
:10061000B400930510FA2300B4008155A30FB4FE73
:100620004158230004012300E400A5452300B40041
:100630002300E40041452300E4009305D002230099
:10064000A4002300B400130730042300E4002300B7
:1006500064002300F4002300140139472300E40060
:1006600093049002230094009308200323001401B4
:100670008558A30F14FF230004012300D400230096
:10068000A4002300E4002300E40029472300E40041
:100690002300B4002300F400930750042300F40067
:1006A0002300C400D1472300F400E5472300F400F1
:1006B000930710032300F400930770032300F40052
:1006C00093071002A30FF4FEC547A30FF4FE130512
:1006D0004006EF0050660145DD3B3715014091654E
:1006E000130505C0EF00B03AA30F94FEB2402244B8
:1006F000924441018280011122CC4AC84EC652C4A4
:1007000056C206CE26CAAA892E84328A3689BA8A69
:10071000853363768902F2406244D2444249B24949
:10072000224A924A0561828085045685C204413678
:10073000C180E37B9AFE050442044180D9BFCE8488
:10074000CDBF93D816001308000FB308184163EF0C
:10075000A8183308D840636BB818797122D406D62C
:10076000130406FE26D24AD04ECE52CC56CA5AC8E0
:100770005EC662C441461374F40F639AC60693863C
:10078000F50013067500C2064206C18241820D6A59
:10079000C53112048149130A8ADAB70B0020C14A15
:1007A000B3073401D29703C90700A1449317890105
:1007B000E18763DB070203D50B07FD14060993F4F9
:1007C000F40FF5341379F90FF5F08509E39A59FD23
:1007D000B250225492540259F249624AD24A424BD0
:1007E000B24B224C4561828003D58181F9B76146C5
:1007F000639BC606938675011306B500C2064206C2
:10080000C1824182B531930700183304F4020D6AA6
:100810008144130B0003130A8A38370C00200D8023
:1008200093F7F40FE38664FB330794005297858BAC
:1008300083490700914A91E3A14A014993978901AD
:10084000E18763DF070003550C0705098609137963
:10085000F90FB13C93F9F90FE3922AFF8504C9B768
:1008600003D58181DDB7130600026390C606938627
:10087000F5011306F500C2064206C1824182116AE3
:10088000C53E1A048149130A8A52B70B0020930A05
:100890000004B3878900D29703C90700A1449317C6
:1008A0008901E18763D0070203D50B07FD14060910
:1008B00093F4F40FED3A1379F90FF5F08509E39A03
:1008C00059FD39B703D58181D5B72254B25092541E
:1008D0000259F249624AD24A424BB24B224C376526
:1008E0000000130545CB45616F00D06A82805571C9
:1008F00026DB4AD94ED7AA84B2892E89130600086E
:100900008145080822DDBAC1BEC306DF52D556D3E1
:100910005AD15ECF3684C2C5C6C7DD3013F779FF22
:10092000C147630DF700930700026389F90037653B
:100930000000CE85130505D0EF00D0659401228616
:1009400093054006080836C6EF00B07F13D719009C
:100950009307000F131B0701C16AB38BE740135BBA
:100960000B010008338A3741938A0A8083470400C9
:1009700081EFFA506A54DA544A59BA592A5A9A5AA3
:100980000A5BFA4B6961828063F79B004E994209CA
:1009900013590901814463762A0156850D3E0149A8
:1009A0008144034604002685DA94CE86CA85C204B3
:1009B000493BC18005045DBF411122C43724014079
:1009C000C1451305048006C6EF00D00B0DE1294593
:1009D000EF007036C14513050480EF00B00A994757
:1009E00011C18147B24022443E8541018280930576
:1009F000000213050480EF00F00801ED2945EF0027
:100A000090339305000213050480EF00B0079D4763
:100A1000C1BF894513050480EF00D00601ED2945CB
:100A2000EF007031894513050480EF00B00593375E
:100A300015004DBF914513050480EF00B00419E97E
:100A40002945EF00502F914513050480EF009003D6
:100A5000894779B7A14513050480EF00B00219E971
:100A60002945EF00502DA14513050480EF009001AA
:100A70009147BDB7371401409305000413050440A6
:100A8000EF00500001ED2945EF00F02A9305000426
:100A900013050440EF00007F8D4799B78965130562
:100AA0000440EF00207EE31E05F22945EF00B02848
:100AB000896513050440EF00E07CE31405F29547D7
:100AC00015B74111314506C622C426C2EF00903346
:100AD000AA8423AAA1823145EF00D0322A8431456D
:100AE000EF005032C94771471CC080C458C008C4C9
:100AF000B24022449CC0DCC01CC1930760025CC1B0
:100B000023240500924441018280411126C2C16420
:100B100022C406C603A441839384048081470356FC
:100B200004008356440018441305C6FF9385C6FF8E
:100B3000110691064205C2054206C2064181C181E5
:100B40004182C18201EB2244B24092441307007EED
:100B5000410155B6268791C37D47713E85470044C4
:100B60007DBF01114EC683A7418326CA4AC884436C
:100B700003A9470006CE22CC81359387B18119C1E4
:100B80002380A70083C7070089466389D71263EFD4
:100B9000F60E0547638AE71003A441831C40639562
:100BA00097005C40638127153145EF00B02504C1F3
:100BB00023222501C2044209C18013590901930669
:100BC0004900138644007119F11400C523AAA182BB
:100BD000416713950401C2064206931509011307E4
:100BE0000780C1824182C1814181313603550400B1
:100BF000835544007D4713064500938645007115D3
:100C0000F115C2064206C2054205C1824182C18178
:100C10004181D534A2841C44E1E703550400835587
:100C20004400416713064500938645007115F11590
:100C3000C2064206C20542057D17C1824182C181BA
:100C40004181553C03D5040083D5440023A404000E
:100C500013064500938645007115F115C20642063C
:100C6000C20542051307007EC1824182C1814181D4
:100C700059342285EF00B0196244F240D24442490F
:100C8000B2491305A00F05616F00F00A8D4663801D
:100C9000D7041147E392E7F01387A18103460700C9
:100CA000E30CD6EEA90401A81387A181034607002F
:100CB000E304D6EE59192300F700F9BD1387A1818B
:100CC000034607008546E309D6EC2909EDB71387EB
:100CD000A181034607009146E300D6ECD914E1BF99
:100CE000A2843E840DBFF2406244D2444249B249DC
:100CF00005618280011122CC26CA4AC84EC652C460
:100D000006CEDD4429499389C182FD2533759502BC
:100D100033052503210523A6A182F92DB37695027B
:100D200083A7418303A5C1820547B3862603A10695
:100D300023A2D900904711CA8C436316B500DC4347
:100D40006393F6000147B287F5B761D34205C20647
:100D50004181C1826244130645009385C6FFF2407B
:100D6000D2444249B249224A7115C205416742063E
:100D70004205C181130707809106418241810561C7
:100D80006FF07F97411122C403A7418383A6C182DC
:100D9000104306C66313D6029387C1825843DC43CF
:100DA000631DF700813F3145EF00D00583A74183E4
:100DB000984701EB88C723240500B2402244410133
:100DC0008280BA87F5B783A741838D460145984352
:100DD00063D1E604D4431306600E9385C6FF636AAD
:100DE000B6021306A00E6346E6029C478C4790436A
:100DF00089E90545631FC700C843158D3335A00039
:100E000082806315C700DC436384F600AE87F9BFB8
:100E100001458280411106C6D52D71651305052057
:100E20008927B707002083A547073765000013050A
:100E300005D2EF00301637650000130505D3EF002B
:100E40001027854513050020B12B0545512BEFF0E8
:100E5000CFEC41677D179306F00E1306F00E814527
:100E60000145EFF05F89B1394D316935A93F05E1A1
:100E7000B7660000130520039386C6D3130600024D
:100E800093058007AD34B240014541018280D139DC
:100E9000D53DE9BFB71702409843B706FFF84111A7
:100EA0001367170098C3D84337060200758FD8C35D
:100EB0009843B706F7FEFD16758F98C39843B7069B
:100EC000FCFFFD16758F98C3D843B70681FFFD164A
:100ED000758FD8C337079F0098C702C402C69843CE
:100EE000C166558F98C3B7160240130700509C4245
:100EF000F18F3EC6A24785073EC4B24781E7A247AD
:100F0000E397E7FEB71702409C431397E700635847
:100F1000070885473EC6324785476310F708B7275D
:100F200002409843B706C1FFFD161367070198C337
:100F30009843719B98C398431367270098C3B717CA
:100F40000240D843D8C3D843D8C3D8431367074017
:100F5000D8C3D843758FD8C3D843B7061D00558F63
:100F6000D8C3371702401C43B7060001D58F1CC3F6
:100F7000B7170240984393166700E3DD06FED84397
:100F8000B7160240719BD8C3D84313672700D8C354
:100F90002147DC42B18BE39EE7FE4101828002C61D
:100FA0009DBF01A001A001A001A001A001A001A07E
:100FB00001A001A001A001A001A001A001A001A029
:100FC00001A001A001A001A001A001A001A001A019
:100FD00001A001A001A001A001A001A001A001A009
:100FE00001A001A001A001A001A001A001A001A0F9
:100FF00001A001A001A001A001A001A001A001A0E9
:1010000001A001A001A001A001A001A001A001A0D8
:1010100001A001A001A001A001A001A001A001A0C8
:1010200001A001A001A001A001A001A001A001A0B8
:1010300001A001A001A001A001A001A001A001A0A8
:1010400001A001A001A001A001A001A001A001A098
:1010500001A001A001A001A001A001A001A001A088
:10106000970100209381018117710020130181F9FC
:1010700017550000130545D797F5FF1F938585F891
:101080001386818163FAC5008322050023A05500E1
:1010900011059105E3EAC5FE138581819385C1831E
:1010A0006377B500232005001105E36DB5FEFD4211
:1010B000739002BCFD4273904280B762000093823D
:1010C000820873A0023097F2FFFF938222F793E227
:1010D000320073905230EFF0FFDB970200009382F2
:1010E000A2D3739012347300203014455C415845EC
:1010F0000328C502D58FD98F1849370600A0D98F8C
:101100005849D98F184DD98F584DD98F1851D98F2B
:101110005851D98F1855D98F1859B3E70701D98F6E
:1011200018410A073A961CC2A1476396F6001C4272
:1011300093E707041CC254598C4E9C42CD8FCC427D
:101140009205CD8F8C46A205CD8FCC46C205CD8FA2
:101150008C4AD44AD205CD8FE206D58F5CC2916706
:101160006319F802145D904E9C42D18FD042120652
:10117000D18F90462206D18F904AD44A5206E20679
:10118000D18FD58FB70600A09386461036971CC323
:101190008280B70700A0938747103E97B7070010DB
:1011A000FD17F5B7B70700A00A053E951C4189C594
:1011B00093E717001CC18280370710007917F98F59
:1011C000D5BF9C4513F7070113F8F70001C7D841B5
:1011D0003368E80083D5050013F7F50F39C31841CC
:1011E0008146854E3D4F930F800293028004214E2D
:1011F0003396DE00B3F8C5006311160393982600FA
:1012000033131F011343F3FF3377E300B3181801BF
:1012100033E7E800639FF70550C98506E39AC6FDEA
:1012200018C11307F00F6375B70454412146854E6A
:101230003D4F930F800293028004414EB398CE003D
:1012400033F715016392E8021317260001173313D1
:10125000EF001343F3FFB376D3003317E800D98EC2
:10126000639DF701232A15010506E319C6FD54C144
:101270008280E39457FA10C94DB7E39757FE2328AD
:101280001501DDB708456D8D3335A00082800CC98E
:1012900082804CC98280371702405C439146B18BF3
:1012A0006385D700A1466386D706B7177A00938770
:1012B00007201CC1371602405C4237070020130785
:1012C00007009183BD8BBA9783C607001C41B3D733
:1012D000D7005CC15442A1829D8ABA9683C606009B
:1012E000B3D6D70014C55442AD829D8A36970347C2
:1012F0000700B3D7E7005CC55842398393763700BF
:1013000013878180369703470700B3D7E7021CC9CC
:1013100082805C4354434167C983F98E37F7FF1FCE
:101320000327C770BD8B8907131617016348060092
:10133000454601476392C702C94739A809476389EF
:10134000E7023D476388E70241476388E702454675
:1013500001476393C700C14785E6B746024083A6AD
:101360000680C18A8DC6B7167A009386062025A00E
:101370000147D9B70547B547C5B70147BD47E9BFDD
:10138000B7160240D4421396E600E35E06FCB71699
:101390003D0093860690B387D7021CC101DF1C4134
:1013A000858301BF99C5371702405C4B5D8D48CBE3
:1013B0008280B7170240D84B1345F5FF798DC8CB13
:1013C000828099C5371702401C4F5D8D08CF8280FF
:1013D000B7170240984F1345F5FF798D88CF82806B
:1013E00037470240832707C011C593E747002320F2
:1013F000F7C08280ED9BE5BFB747024003A587C0D9
:10140000828083560501F577FD17F58F83D6650039
:10141000397122DC06DED58F03D7C5002318F5000D
:101420008356C500FD779387379FF58F83D6450098
:101430002A842EC6D58F83D68500D58F83D6A50066
:10144000D58F2316F50083574501C207C18393F753
:10145000F7CFD98F231AF5006808353DB74701400B
:1014600093870780B245631EF404A2578356C400D5
:101470006547B387E702C206C186984163D5060473
:1014800006070356C4004206B3D7E7021307400617
:101490004186B3D6E702B3F7E70292066357060226
:1014A0008E0793872703B3D7E70213F77700B36755
:1014B000D700C207C1832314F400F25062542161A3
:1014C0008280925765B70A076DBF920793872703FB
:1014D000B3D7E702BD8BD58FE9BF81C98357C5005C
:1014E0000967D98F2316F50082800357C500F97765
:1014F000FD17F98FC5BF93F5F51F2312B500828044
:10150000035505006D8D3335A0008280B70700209C
:1015100083A7470737177A0013070720B3D7E702D7
:1015200093F7F70F238FF1801307803EB387E7020D
:10153000239EF1808280B7F700E0414798C303D72C
:10154000C18181463306A70290CBD4CB9843136761
:10155000170298C3D843058B75DFD843799BD8C34E
:101560008280797122D42A8411658545110506D6B9
:10157000893D930700202312F100371501408D4764
:101580003EC44C00E147130505803EC61D3922C804
:1015900037440140B70708000C08130504803ECC0F
:1015A00002CA231E0100B13D13050480854535376D
:1015B000B250225445618280011126CAB7440140CD
:1015C00022CC4AC84EC606CEAE89328901449384E5
:1015D0000480634A2401F24062444A85D24442496D
:1015E000B24905618280930500042685113F65DDBF
:1015F000B38789008385070026850504C205C1815C
:10160000DD3DC1BF9387C180AA85884355A89387D4
:10161000C180AA85884309A0DDC183A7C5FF411108
:1016200022C406C626C21384C5FF63D307003E94B6
:10163000AA84EF00301B938701829C4381EF232211
:10164000040023A081822244B240268592444101B5
:101650006F007019637EF40014403307D400639662
:10166000E7009843DC43369718C05CC0D9BFBA87FF
:10167000D84319C3E37DE4FE94433386D700631F48
:1016800086001040B29694C33386D700E31DC7FA94
:1016900010435843B29694C3D8C375B76375C4005A
:1016A000B1479CC04DB71040B306C4006316D700C5
:1016B00014435843B29614C058C0C0C369B782805F
:1016C000011126CA93843500F19806CE22CC4AC86F
:1016D0004EC6A104B14763F3F404B14463E2B40419
:1016E0002A89EF0030109387018298433A8439E0C9
:1016F000938741829C4391E781454A85752A23A2BD
:10170000A182A6854A854D2AFD5963193507B1473F
:101710002320F9004A85EF00100D29A0E3D004FC36
:10172000B1471CC10145F2406244D2444249B2492A
:10173000056182801C40858F63CF0702AD4663F64A
:10174000F6001CC03E9404C031A05C4063138702C5
:1017500023A0F1824A85EF0010091305B400930716
:10176000440061993307F5405DDF3A94898F1CC0CE
:101770005DBF5CC3C5B72287404095BF13043500E9
:101780007198E30285FCB305A4404A853522E31C29
:1017900035FBB5BF39713EDA2ED232D436D63AD8BF
:1017A00042DC46DE9387C18022CC804326CA06CE27
:1017B000AA8409C41C4C99E32285C9230C44541003
:1017C0002686228536C6EF00B03FF2406244D244FE
:1017D00021618280011126CA4AC806CE22CC4EC69B
:1017E00052C4AA842E8901C51C4D91E3412B9C4C07
:1017F000804499E32685592397470000938707572C
:10180000631CF402C0408357C400A18BB1C71C48BD
:10181000A1C7FD59294A1C4483450900FD17B1E9B8
:101820001CC463DE07062286A94526851D22FD57B6
:101830006308F502294535A09747000093870755AF
:101840006314F4008044C1B79747000093870750A2
:10185000E31BF4FAC04445BFA28526855D2A55D90D
:101860007D55F2406244D2444249B249224A056160
:1018700082801CC4050963D70700184C63CBE700BE
:10188000638945011C401387170018C02380B700E7
:1018900059B7228626857528E31F35F7D1B71C4036
:1018A0001387170018C029472380E70061B7938783
:1018B000C180AA85884339BF411122C42A842E855C
:1018C00023AC018206C6EF10204CFD576317F500CC
:1018D000938781839C4391C31CC0B2402244410141
:1018E00082801971A2DC86DEA6DA3284635B060090
:1018F0009307B0081CC17D55F6506654D654096153
:1019000082803686930680202EC42ECC231AD100E6
:10191000814519C09305F4FFFD572EC82ECEBA8617
:101920002C00231BF100AA84EF00E07AFD576355D9
:10193000F5009307B0089CC061D0A2472380070040
:1019400065BF9387C1803687B2862E86AA85884375
:1019500049BF011122CC26CA4AC806CE4EC6AA8467
:101960002E89328401C51C4D91E309299747000057
:101970009387C73F6319F406C0401C4C1CC48357AF
:10198000C400A18BC9C31C48BDCF1C480840937933
:10199000F90F1379F90F1D8D5C486346F500A28598
:1019A00026856D2C2DE51C440505FD171CC41C4027
:1019B0001387170018C0238037015C486389A7008C
:1019C0008357C400858B81CBA9476316F900A28594
:1019D000268569240DEDF24062444A85D24442498D
:1019E000B24905618280974700009387273A6314C4
:1019F000F400804459B79747000093872735E31ECA
:101A0000F4F6C0449DBFA285268521203DDD7D5989
:101A1000D9B741119387C18026C2844322C44AC0EA
:101A200006C62A892E8489C49C4C99E32685B9264A
:101A30009747000093878733631CF402C040031765
:101A4000C40093170701C18393F68700B5EE93F6A0
:101A500007019DEEA5472320F9001367070423160D
:101A6000E4007D55B2402244924402494101828003
:101A700097470000938787316314F4008044C1B70F
:101A8000974700009387872CE31BF4FAC04445BFB7
:101A9000918B8DC74C5889C9930744046384F50022
:101AA0004A859D3E232A04028357C4002322040052
:101AB00093F7B7FD2316F4001C481CC08357C400DD
:101AC00093E787002316F4001C4881EF8357C40076
:101AD0001307002093F707286385E700A2854A854E
:101AE00095218357C40013F7170005C75C482324CA
:101AF0000400B307F0401CCC1C480145A5F7831730
:101B0000C40013F7070839DF93E707042316F4002E
:101B100089BF898B014791E3584818C4F1BF83D727
:101B2000C500011122CC26CA06CE4AC84EC613F7FC
:101B30008700AA842E8479EFD841634DE000B84134
:101B4000634AE0000145F2406244D2444249B2494E
:101B50000561828058547DD703A90400939637010C
:101B600023A0040063DE060670488357C400918BEF
:101B700099C75C401D8E5C5899C33C401D8E5C54D7
:101B80000C50814626858297FD570357C400631D7C
:101B9000F5009440F54763E9D706B707402085076D
:101BA000B3D7D700858BADC31C48232204001CC0CB
:101BB0009317370163D80700FD576314F5009C4065
:101BC00091E368C84C5823A02401ADDD9307440479
:101BD0006385F5002685EFF03FA4232A04029DB714
:101BE0000C500146854626850297FD572A86E31E3E
:101BF000F5F69C40BDDB75476385E7005947639464
:101C0000E70423A024013DBF136707042316E40063
:101C10007D5515BF83A90501E38609F203A90500D7
:101C20008D8B23A0350133093941014791E3D84910
:101C300018C4E35920F11C540C50CA864E862685E0
:101C400082976349A0008357C40093E707042316D3
:101C5000F4007DBFAA993309A940E1BF9C49B9CFDF
:101C6000011122CC06CE2A8411C51C4D81E72EC657
:101C70003122B245974700009387470F639BF500D9
:101C80004C408397C50095C722856244F2400561A8
:101C900079B5974700009387670F6394F5000C446C
:101CA000CDB7974700009387670AE39CF5FC4C4447
:101CB000C9BFF240624401450561828001458280CE
:101CC000411122C406C62A842316B5002317C50075
:101CD00023200500232205002324050023220506D6
:101CE00023280500232A0500232C050021468145D1
:101CF0001305C505EFE0CFD097170000938767D194
:101D00005CD0971700009387C7D31CD497170000A7
:101D1000938707D85CD4971700009387C7DA00D061
:101D20001CD8B2402244410182809705000093856F
:101D300025F3B1A2411126C2130680069384F5FF54
:101D4000B384C4024AC02E8922C406C693854407C0
:101D5000EFF01F972A8401CD2320050023222501BF
:101D6000310508C4138684068145EFE06FC92285DA
:101D7000B240224492440249410182801C4DADE3AD
:101D8000411106C622C497070000938747FA1CD565
:101D9000938701819C4323240504232605042328DB
:101DA00005046314F50085471CCD2A841D2848C00E
:101DB0002285052808C422852D2048C448400146B4
:101DC0009145FD3D08440546A545DD3D484409468D
:101DD000C945FD3585471CCCB24022444101828073
:101DE000828041119387018126C284434AC006C67E
:101DF0009C4C22C42A8999E326854937938484041C
:101E00008044DC40FD1763D607009C40B9CF844076
:101E1000C5BF0317C40039E7C1778507232204062D
:101E20002320040023220400232404005CC423286C
:101E30000400232A0400232C0400214681451305B5
:101E4000C405EFE0EFBB232A0402232C0402232461
:101E50000404232604042285B24022449244024909
:101E6000410182801304840671BF91454A85D935AA
:101E700088C051FDB1472320F9000144E9BF7971C1
:101E800022D44AD052CC56CA5AC85EC606D626D2EA
:101E90004ECE2A8AAE8A130485040149054BFD5BA8
:101EA00009ECB25022544A8592540259F249624ACE
:101EB000D24A424BB24B456182800444832944009C
:101EC000FD1963D409000040E1BF83D7C400637BE0
:101ED000FB008397E40063877701A6855285829A89
:101EE0003369A90093848406E1BF1971A6DAAE8430
:101EF0008395E500A2DC86DE328463DC050083D7AF
:101F0000C40023A0060093F7070885E79307004065
:101F10001DA0300836C6EF009040B246E34105FEF2
:101F20007247BD67F98F7977BA9793B717009CC24C
:101F3000F1BF930700041CC0F6506654D654014507
:101F40000961828083D7C500011122CC06CE26CA42
:101F50004AC8898B2E8489CF930774041CC01CC87F
:101F600085475CC8F2406244D244424905618280A0
:101F700074003000AA84953FA2452A892685EFF097
:101F80002FF401ED8317C40013F7072061FFF19BC5
:101F900093E727002316F400C1B797070000938743
:101FA00007D99CD48357C40008C008C893E7070822
:101FB0002316F400A2475CC8B24791CF8315E40012
:101FC0002685EF00703801C98357C400F19B93E761
:101FD00017002316F4008357C4003369F900231651
:101FE000240149B78280828001114AC803A9850073
:101FF00022CC52C45AC006CE26CA4EC656C22E8421
:10200000328B368A63EE260983D7C50013F707485B
:1020100051C704408C495848AA8AB389B4408D44BA
:10202000B384E4020947B3C4E402138716004E9751
:1020300063F3E400BA8493F70740D9C3A6855685B5
:10204000EFF00FE82A890DE5B14723A0FA00835786
:10205000C4007D5593E707042316F400F240624460
:10206000D2444249B249224A924A024B05618280D7
:102070000C484E86EF0030348357C40093F7F7B70F
:1020800093E707082316F4002328240144C84E9937
:10209000B38434412320240104C4528963732A0188
:1020A000528908404A86DA85EF00503C1C440145BD
:1020B000B38727411CC41C403E992320240179BFCB
:1020C00026865685EF00303F2A895DFD0C485685EF
:1020D000EFF08FD495BF83D7C500717126D34AD155
:1020E0004ECF06D722D552CD56CB5AC95EC762C550
:1020F00066C393F70708AA892E89B284B9C39C499D
:10210000A9E39305000436C6EFF08FDB2320A90076
:102110002328A900B24615E1B14723A0F9007D5557
:10212000BA502A549A540A59FA496A4ADA4A4A4B26
:10213000BA4B2A4C9A4C4D61828093070004232AA3
:10214000F90093070002A30CF1029307000302DADF
:10215000230DF10236CE930B5002974A0000938A6A
:10216000EAC4054C294B26848347040099C3639C29
:102170007709B30C9440638D0C00E6862686CA85E9
:102180004E859D35FD576304F51AD256E69636DA2C
:1021900083470400638D0718FD579304140002D091
:1021A00002D63ED202D4A301010682DC83C504001C
:1021B00015465685EF00901E13841400825731E5B2
:1021C00013F7070109C713070002A301E10613F77C
:1021D000870009C71307B002A301E10683C6040004
:1021E0001307A002638BE602B25726848146254678
:1021F0000347040093051400130707FD6374E60604
:102200008DC63ED61DA0050485B73305554133154F
:10221000AC00C98F3ED0A28451BF724793064700DD
:10222000184336CE634907023AD6034704009307A2
:10223000E002631FF704034714009307A002631B27
:10224000F702F2470904138747009C433ACE63C163
:1022500007023ED235A83307E04093E727003AD67D
:102260003ED0E1B7B387670385462E84BA9749B756
:10227000FD57C5B7050402D281468147254603476D
:10228000040093051400130707FD6378E606F1F2D6
:10229000834504000D46174500001305A5B1EF0066
:1022A000F00F11CD974700009387C7B01D8D93079E
:1022B0000004B397A700025505045D8D2AD083451D
:1022C0000400194617450000130505AF93041400D8
:1022D000230CB102EF00900C25C597E7FFFF938711
:1022E00067D295E70257F2471377071009CF910796
:1022F0003ECED257D2973EDABDB5B3876703854647
:102300002E84BA97ADBF9D07E19BA107D5B778088A
:1023100097060000938686CD4A860C104E8597005E
:102320000000E7000000FD572A8AE314F5FC8357FC
:10233000C9007D5593F70704E39407DE5255CDB3EA
:10234000780897060000938666CA4A860C104E8568
:102350001929D1BF1C46FD171CC663DA0700184EA9
:1023600063C5E700A9476394F5006FF08FDE1C4258
:102370002E851387170018C22380B70082800111B1
:1023800022CC26CA4AC84EC652C406CE2A89AE8975
:102390003284B304D6007D5A63149400014509A821
:1023A000834504004E864A8575370504E31645FFCC
:1023B000F2406244D2444249B249224A05618280D5
:1023C000357122CD26CB4AC94EC706CF52C556C35A
:1023D0005AC1DEDEE2DCE6DAAA89AE8432893684CE
:1023E00009C51C4D99E3EFF07F999747000093874B
:1023F000E797639BF40C83A4490083D7C400A18BA7
:10240000F5C79C48E5C793070002A304F1029307B0
:10241000000302D22305F10222C6930B5002974A11
:102420000000938AAA98054C294B4A8483470400EC
:1024300099C36390770FB30C2441638D0C00E6863B
:102440004A86A6854E85253FFD576306F51E9256A2
:10245000E69636D283470400638F071CFD571309A5
:10246000140002C802CE3ECA02CCA309010482D4E1
:102470008345090015465685152713041900C247E0
:1024800059E913F7070109C713070002A309E1047B
:1024900013F7870009C71307B002A309E1048346B5
:1024A00009001307A0026380E608F2474A848146C8
:1024B00025460347040093051400130707FD6379BD
:1024C000E60AB5CA3ECE85A8974700009387078CD9
:1024D0006395F40083A489000DB7974700009387A4
:1024E000E786E39CF4F083A4C90001BFA6854E856E
:1024F000EFF02FD209D97D55FA406A44DA444A49AF
:10250000BA492A4A9A4A0A4BF65B665CD65C0D6168
:102510008280050421BF330555413315AC00C98FB6
:102520003EC82289B1B7324793064700184336C6E2
:10253000634907023ACE034704009307E002631F92
:10254000F704034714009307A002631BF702B24786
:102550000904138747009C433AC663C107023ECA79
:1025600035A83307E04093E727003ACE3EC8E1B7ED
:10257000B387670385462E84BA9725BFFD57C5B735
:10258000050402CA81468147254603470400930596
:102590001400130707FD6376E606F1F28345040095
:1025A0000D46174500001305E580CD2B11CD97474B
:1025B0000000938727801D8D93070004B397A70021
:1025C000424505045D8D2AC8834504001946173528
:1025D00000001305657E130914002304B1027D2B4E
:1025E0003DC197E7FFFF9387E7A195E74247B247D1
:1025F0001377071009CF91073EC69257D2973ED264
:102600002DB5B387670385462E84BA97BDBF9D0756
:10261000E19BA107D5B7780097060000938666D6A0
:1026200026860C084E8597000000E7000000FD5745
:102630002A8AE314F5FC83D7C40093F70704E39CCC
:1026400007EA125555BD780097060000938666D3B9
:1026500026860C084E85012AD9BF797156CA9C4935
:10266000BA8A984522D426D24ECE52CC06D64AD02B
:102670005AC85EC6AA892E84B284368A63D3E7001C
:10268000BA879CC00347340419C385079CC01C400B
:1026900093F7070281C79C4089079CC00329040067
:1026A00013796900631A0900130B9401FD5B5C4404
:1026B0009840998F634CF9041C408346340493F787
:1026C0000702B336D000A5EB13063404D2854E853D
:1026D000829AFD576303F5041C4011469840998B7C
:1026E000544481446397C700B384E64063D3040035
:1026F00081441C4418486354F700998FBE940149E3
:1027000069047D5B63982405014509A885465A86BE
:10271000D2854E85829A631E75017D55B250225432
:1027200092540259F249624AD24A424BB24B456135
:1027300082800509ADBF3307D40013060003A3014F
:10274000C7040347540493871600A2978906A38100
:10275000E7049DBF85462286D2854E85829AE30E88
:1027600065FB050945B7797122D426D24AD04ECEF1
:1027700006D652CC56CA5AC8B68983C68501930775
:1027800090063289AA842E8413863504638DF6025E
:1027900063E2D706930780056387F61863EDD700D9
:1027A0006380062293073004638EF60A930A24049A
:1027B0002301D404C9A0930730066385F60A930762
:1027C0004006E395F6FE1C40084393F60708930580
:1027D0004500C5C61C410CC363D807001307D002CF
:1027E000B307F040A301E404973600009386465DEA
:1027F00029476DA8930700076383F61663E5D702A0
:102800009307E006638AF6189307F006E390F6FA5A
:102810000C401C4313F8050813854700630708069E
:1028200008C39C438DA893075007E383F6FE9307E4
:102830008007638AF61293073007E399F6F61C4384
:10284000D04181459386470014C383AA070056856B
:10285000B12601C53305554148C05C401CC8A301E1
:10286000040471A81C43930A2404938647009C43E4
:1028700014C32301F4048547D5B793F607041C411C
:102880000CC3B9DAC207C18781BF93F5050408C339
:10289000C9D983D707001307F0066387E60E97367A
:1028A00000009386E6512947A30104044C400CC460
:1028B00063C5050008406D9908C099E3B28A91CDBF
:1028C000B28AB3F5E702FD1AB69583C505002380E9
:1028D000BA00B3D5E70263FFE70AA147631EF7001A
:1028E0001C40858B91CB58401C4863C7E700930779
:1028F0000003A38FFAFEFD1A3306564110C84E8717
:10290000CA867000A2852685893B7D5A631E450BC9
:102910007D55B250225492540259F249624AD24A29
:10292000424B45618280A382D5049736000093868E
:1029300026490C40084313F805081C411105630D96
:10294000080208C313F7150001C793E505020CC080
:102950004147B9FB0C4093F5F5FD0CC0B1B79C4164
:1029600093E707029CC193078007A302F4049736FC
:1029700000009386264675BF13F8050408C3E303D9
:1029800008FCC207C1837DBF97360000938646438B
:10299000214719BFAE8735B794411C43CC4913F882
:1029A0000608138547006306080008C39C438CC3D0
:1029B00001A808C393F606049C43F5DA2390B700F8
:1029C00023280400B28A25BF14485686CA85268566
:1029D0008299E30F45F31C40898B8DE7B247484449
:1029E000E359F5F23E8535B785465686CA85268574
:1029F0008299E30F65F1050A5C443247998FE345FC
:102A0000FAFEE9BF014A930A94017D5BF5B74111D3
:102A100022C42E848395E50006C6CD2C63490500AB
:102A20007C48AA977CC8B2402244410182808357E7
:102A3000C4007D777D17F98F2316F400EDB783D797
:102A4000C500011122CC26CA4AC84EC606CE93F74D
:102A50000710AA842E843289B68991C78395E50030
:102A60008946014631228357C4007D777D17F98F4F
:102A70002316F4008315E4006244F240CE864A86B1
:102A8000B24942492685D24405613DA8411122C47C
:102A90002E848395E50006C6E128FD570357C40040
:102AA000631BF500FD77FD17F98F2316F400B24084
:102AB0002244410182808567D98F2316F40068C8BB
:102AC000FDB78395E50005A8411122C42A842E850F
:102AD000B285368623AC018206C6EFE0FFADFD5716
:102AE0006317F500938781839C4391C31CC0B24058
:102AF000224441018280411122C42A842E8523ACC4
:102B0000018206C6A124FD576317F50093878183D0
:102B10009C4391C31CC0B2402244410182804111B8
:102B200022C42A842E85B28523AC018206C62D24B8
:102B3000FD576317F500938781839C4391C31CC0A5
:102B4000B240224441018280411122C42A842E8550
:102B500023AC018206C63924FD576317F50093871D
:102B600081839C4391C31CC0B240224441018280B6
:102B7000411122C42A842E85B285368623AC018277
:102B800006C6FD22FD576317F500938781839C439A
:102B900091C31CC0B24022444101828093F5F50FDD
:102BA0002A966314C5000145828083470500E38DA2
:102BB000B7FE0505FDB7B3C7A5008D8B3307C5006C
:102BC00081E78D4763EEC700AA876370E50A83C675
:102BD000050085078505A38FD7FEE3EAE7FE82801F
:102BE00093763500AA8791CA83C6050085078505B7
:102BF000A38FD7FE93F63700FDB79376C7FF1386F2
:102C000006FE63F0C70683A3050083A2450083AFD9
:102C1000850003AFC50083AE050103AE450103A3E4
:102C2000850183A8C5019385450223A0770003A8E9
:102C3000C5FF23A2570023A4F70123A6E70123A879
:102C4000D70123AAC70123AC670023AE17019387DE
:102C5000470223AE07FF75B790419107910523AE58
:102C6000C7FEE3EBD7FEE3E4E7F6828063F3A50457
:102C7000B386C500637FD5029345F6FF8147FD17F4
:102C80006393F50082803387F6000348070033879B
:102C9000C7002A9723000701DDB73387F500834675
:102CA00007003307F50085072300D700E317F6FE7A
:102CB00082808147E5BF81E5B2856FE07FA0011189
:102CC00022CC06CE26CA4AC84EC6328401EEEFE0B8
:102CD000BF940149F24062444A85D2444249B24914
:102CE00005618280AE84AA8981282689E37485FEE5
:102CF000A2854E85EFE0DF9C2A8969DDA6852286C4
:102D00005D3DA6854E85EFE03F91E9B7411122C4B4
:102D10002A842E85B285368623AC018206C6B92860
:102D2000FD576317F500938781839C4391C31CC0B3
:102D3000B24022444101828083A7C5FF1385C7FFAB
:102D400063D50700AA959C413E9582809307800534
:102D500023ACF1827D5582809307800523ACF182FC
:102D60007D5582809307800523ACF18201458280E6
:102D70009307800523ACF1827D55828093078005FF
:102D800023ACF1827D558280938781829C4391C7D9
:102D90003E9523A4A1823E8582809387C1833E9580
:102DA00023A4A1823E858280000000000000000074
:102DB00000000000000000000000001010101010C3
:102DC0001000001010000000000000282828280033
:102DD00000000000000000000000001212167F2416
:102DE00024FE284848000000000008083E494868C2
:102DF0003E0B09493E080800000000609090620CFC
:102E000030460909060000000000001C2020303078
:102E1000494545623D000000000000101010100000
:102E2000000000000000000000000C080810101056
:102E300010101008080400000000301010080808E6
:102E4000080808101030000000000008493E1C6B04
:102E5000080000000000000000000000001010103A
:102E6000FE10101000000000000000000000000034
:102E700000000018181020000000000000000000F2
:102E8000003800000000000000000000000000000A
:102E900000000018180000000000000204040408EC
:102EA00008101020202040000000001C2241414951
:102EB000414141221C0000000000001828080808B9
:102EC000080808083E0000000000003E430101021F
:102ED000060C10207F0000000000003E4101031C92
:102EE000030101433E000000000000060A1A1222FE
:102EF000427F0202020000000000007E40407C424F
:102F0000010101423C0000000000001E3160405EF3
:102F1000634141231E0000000000007F03020404FF
:102F200008081010200000000000003E4141413E12
:102F3000634141633E0000000000003C6241416388
:102F40003D0103463C00000000000000000018188E
:102F50000000001818000000000000000000181811
:102F600000000018181020000000000000010E38BA
:102F700040380E01000000000000000000007F004B
:102F8000007F000000000000000000000040380E3C
:102F9000010E3840000000000000003844040C1806
:102FA00010100010100000000000001E33214749DF
:102FB0004949494720300E00000000081414141439
:102FC000223E2241410000000000007E4141417E3E
:102FD000434141437E0000000000001E214040406C
:102FE000404040211E0000000000007C4241414161
:102FF000414141427C0000000000007F4040407F92
:10300000404040407F0000000000007F4040407F83
:1030100040404040400000000000001E2140404071
:10302000434141211E000000000000414141417F19
:1030300041414141410000000000007C101010108F
:10304000101010107C0000000000001C0404040498
:10305000040404443800000000000042444850705A
:103060007848444642000000000000404040404094
:10307000404040407F00000000000063635555550C
:103080004941414141000000000000616151514946
:1030900049454543430000000000001C22414141D6
:1030A000414141221C0000000000007E4341414399
:1030B0007E404040400000000000001C2241414191
:1030C000414141221E0602000000007E434141436F
:1030D0007C424141400000000000001E6140403041
:1030E0000E0101433E000000000000FE1010101011
:1030F000101010101000000000000041414141413B
:10310000414141633E000000000000414122222273
:1031100014141414080000000000008181815A5A20
:103120005A6666666600000000000041221414081A
:103130001414222241000000000000824444283878
:1031400010101010100000000000007F030204089F
:10315000081020607F00000000001C1010101010EC
:1031600010101010101C0000000000402020201043
:1031700010080804040402000000380808080808C1
:103180000808080808380000000000102844C6009D
:10319000000000000000000000000000000000002F
:1031A00000000000000000FF0030100800000000D8
:1031B000000000000000000000000000001C2202CF
:1031C0003E4242463A00000000004040407C6442DB
:1031D000424242645C00000000000000001C2240EB
:1031E000404040221C00000000000202023E264235
:1031F000424242263A00000000000000003C264205
:103200007E4040221C00000000000C10107C1010BA
:10321000101010101000000000000000003A2642BC
:10322000424242263A02221C00004040405C624278
:103230004242424242000000000010100070101094
:10324000101010107C00000000000808003808086A
:10325000080808080808087000004040404448502A
:103260007048484442000000000070101010101018
:10327000101010100E00000000000000007E4949F0
:10328000494949494900000000000000005C6242D1
:10329000424242424200000000000000003C664200
:1032A000424242663C00000000000000005C6442B4
:1032B000424242647C40404000000000003A264206
:1032C000424242263A02020200000000003C322044
:1032D000202020202000000000000000003C424090
:1032E000700E02423C00000000000010107E101022
:1032F000101010100E0000000000000000424242BA
:10330000424242463A0000000000000000424224CF
:103310002424181818000000000000000081815AC1
:103320005A5A5A24240000000000000000422418C9
:10333000181824244200000000000000004222244B
:10334000241418180808103000000000007E020441
:10335000081020407E00000000000C10101010101B
:103360006010101010100C00000010101010101041
:10337000101010101010101000006010101010101D
:103380000C10101010106000000000000000000081
:10339000000000000000000000000000000000002D
:1033A000000000000000000000000000000000001D
:1033B000000000000000000000000000000000000D
:1033C00006000600060006000600060006000600CD
:1033D00006000600000000000600060006000000CF
:1033E00000000000000000000000000000000000DD
:1033F0001980198019801980198019800000000037
:1034000000000000000000000000000000000000BC
:1034100000000000000000000000000000000000AC
:10342000066004400CC00CC07FF07FF0088019805B
:103430001980FFE0FFE0330033002200220000008B
:10344000000000000000000000000000000002007A
:1034500002000F801FC03A40320032003A001F00C5
:1034600007C002E00260026022E03FC01F8002004D
:103470000200020000000000000000000000000048
:1034800078004800CC00CC00CC00484079C00E0049
:1034900073C00240066006600660024003C0000080
:1034A000000000000000000000000000000000001C
:1034B0000F801F801800180018000C001E00363006
:1034C000633063B061A060E030C03F600E70000008
:1034D00000000000000000000000000000000000EC
:1034E00006000600060006000600060000000000B8
:1034F00000000000000000000000000000000000CC
:1035000000000000000000000000000000000100BA
:10351000020002000600060004000C000C000C0073
:103520000C000C000C000C00040006000600020059
:103530000200010000000000000000000000080080
:10354000040004000600060002000300030003005C
:10355000030003000300030002000600060004004D
:10356000040008000000000000000000000000004F
:1035700004000400444035800E000E0035804440B5
:103580000400040000000000000000000000000033
:10359000000000000000000000000000000000002B
:1035A00000000000060006000600060006007FE09E
:1035B0007FE006000600060006000600000000008E
:1035C00000000000000000000000000000000000FB
:1035D00000000000000000000000000000000000EB
:1035E00000000000000000000600060006000600C3
:1035F0000C000C00000000000000000000000000B3
:1036000000000000000000000000000000000000BA
:103610001F001F000000000000000000000000006C
:10362000000000000000000000000000000000009A
:10363000000000000000000000000000000000008A
:103640000000000000000000060006000600000068
:10365000000000000000000000000000000000006A
:10366000006000C000C0018001800300030006006C
:10367000060006000C000C00180018003000300096
:1036800060000000000000000000000000000000DA
:103690001E003F80318071C060C060C066C066C0DF
:1036A00060C060C060C071C031803F800E0000000B
:1036B000000000000000000000000000000000000A
:1036C00007001F001B0003000300030003000300AA
:1036D000030003000300030003001FE01FE00000DD
:1036E00000000000000000000000000000000000DA
:1036F0003F007F8041C000C000C000C001C0018009
:10370000030006000C00180030007FC07FC00000DE
:1037100000000000000000000000000000000000A9
:103720003F007F8041C000C000C001C00F800F80FB
:10373000018000C000C000C041C07F803F00000089
:103740000000000000000000000000000000000079
:1037500003800380078005800D80098019803180F7
:10376000318061807FE07FE0018001800180000086
:103770000000000000000000000000000000000049
:103780003F803F803000300030003F003F8021C04C
:1037900000C000C000C000C041807F803E0000002B
:1037A0000000000000000000000000000000000019
:1037B0000F001F8038803000700060006F007F8035
:1037C00071C060C060C060C031C03F801F00000099
:1037D00000000000000000000000000000000000E9
:1037E0007FC07FC0018001800180030003000300CF
:1037F0000600060006000C000C000C00180000007B
:1038000000000000000000000000000000000000B8
:103810001F003F8071C060C060C031801F003F80CA
:10382000318060C060C060C071C03F801F00000078
:103830000000000000000000000000000000000088
:103840001F003F80718060C060C060C071C03FC019
:103850001EC000C000C0018023803F001E00000089
:103860000000000000000000000000000000000058
:103870000000000000000000060006000600000036
:103880000000000000000000060006000600000026
:103890000000000000000000000000000000000028
:1038A0000000000000000000060006000600000006
:1038B00000000000000000000600060006000600F0
:1038C0000C000C00000000000000000000000000E0
:1038D000000000000000002001E007801E007000D2
:1038E00070001E00078001E00020000000000000C2
:1038F00000000000000000000000000000000000C8
:103900000000000000000000000000007FE07FE0F9
:10391000000000007FE07FE00000000000000000E9
:103920000000000000000000000000000000000097
:10393000000000000000400078001E00078000E04A
:1039400000E007801E00780040000000000000003A
:103950000000000000000000000000000000000067
:103960000F801FC01060006000E001C003800600EF
:103970000600060000000000060006000600000029
:103980000000000000000000000000000000000037
:103990000000078018C03060306023E0626066601D
:1039A0006660666066606660626033E030001800E2
:1039B0001C00078000000000000000000000000064
:1039C000060006000F000F000F001F8019801980ED
:1039D00019803FC03FC030C030C0606060600000F0
:1039E00000000000000000000000000000000000D7
:1039F0007F007F8061C060C060C061C07F807F80C9
:103A000060C060606060606060E07FC07F800000D8
:103A100000000000000000000000000000000000A6
:103A200007C01FE0382030006000600060006000C8
:103A3000600060006000300038201FE007C0000018
:103A40000000000000000000000000000000000076
:103A50007E007F8061C060C06060606060606060A8
:103A600060606060606060C061C07F807E00000058
:103A70000000000000000000000000000000000046
:103A80007FE07FE060006000600060007FE07FE03A
:103A9000600060006000600060007FE07FE0000088
:103AA0000000000000000000000000000000000016
:103AB0007FE07FE060006000600060007FC07FC04A
:103AC0006000600060006000600060006000000056
:103AD00000000000000000000000000000000000E6
:103AE0000F801FC03840300060006000600061E05F
:103AF00061E060606060306038601FE00F8000004F
:103B000000000000000000000000000000000000B5
:103B10006060606060606060606060607FE07FE067
:103B20006060606060606060606060606060000055
:103B30000000000000000000000000000000000085
:103B40003FC03FC006000600060006000600060053
:103B5000060006000600060006003FC03FC0000049
:103B60000000000000000000000000000000000055
:103B70001F801F8001800180018001800180018001
:103B8000018001800180018043807F003E000000B1
:103B90000000000000000000000000000000000025
:103BA000606060C06180630066006C007C007E0025
:103BB000760063006380618060C060E06060000048
:103BC00000000000000000000000000000000000F5
:103BD00060006000600060006000600060006000E5
:103BE000600060006000600060007FE07FE0000037
:103BF00000000000000000000000000000000000C5
:103C000070E070E070E079E0696069606F60666044
:103C10006660666060606060606060606060000058
:103C20000000000000000000000000000000000094
:103C300070607060786078606C606C606460666012
:103C400062606360636061E061E060E060E000002A
:103C50000000000000000000000000000000000064
:103C60000F003FC030C070E0606060606060606006
:103C700060606060606070E030C03FC00F000000B6
:103C80000000000000000000000000000000000034
:103C90007F807FC060E060606060606060E07FC0E7
:103CA0007F806000600060006000600060000000D5
:103CB0000000000000000000000000000000000004
:103CC0000F003FC030C070E06060606060606060A6
:103CD00060606060606070E030C01F800F00018035
:103CE00000C0008000000000000000000000000094
:103CF0007F007FC060E060606060606060C07FC027
:103D00007F8061C060C060606060603060300000D3
:103D100000000000000000000000000000000000A3
:103D20001F803FC070406000600070003E001F8038
:103D300001C000600060006040E07FC03F80000084
:103D40000000000000000000000000000000000073
:103D5000FFF0FFF006000600060006000600060061
:103D60000600060006000600060006000600000029
:103D70000000000000000000000000000000000043
:103D80006060606060606060606060606060606033
:103D9000606060606060606070E03FC01F80000035
:103DA0000000000000000000000000000000000013
:103DB0006060606030C030C030C030C01980198091
:103DC00019801F800F000F000F0006000600000082
:103DD00000000000000000000000000000000000E3
:103DE000C030C030C0306060666066606F606F6019
:103DF0006960696039C039C039C030C030C0000066
:103E000000000000000000000000000000000000B2
:103E100070E030C039C019800F000F0006000600A6
:103E20000F000F001B80198031C030C060E000001F
:103E30000000000000000000000000000000000082
:103E4000E070606030C030C019801F800F00060035
:103E50000600060006000600060006000600000038
:103E60000000000000000000000000000000000052
:103E70007FE07FE000C001C0018003000700060072
:103E80000E000C001800380030007FE07FE00000DA
:103E9000000000000000000000000000000007809B
:103EA0000780060006000600060006000600060061
:103EB00006000600060006000600060006000600D2
:103EC00007800780000000000000000000000000E4
:103ED000600030003000180018000C000C000600D4
:103EE00006000600030003000180018000C000C03E
:103EF00000600000000000000000000000000F0053
:103F00000F0003000300030003000300030003008D
:103F10000300030003000300030003000300030089
:103F20000F000F0000000000000000000000000073
:103F300007000F800D8018C0306060300000000066
:103F40000000000000000000000000000000000071
:103F50000000000000000000000000000000000061
:103F60000000000000000000000000000000000051
:103F70000000000000000000000000000000000041
:103F800000000000FFF0FFF00000000018000C002F
:103F90000600030000000000000000000000000018
:103FA0000000000000000000000000000000000011
:103FB0000000000000000000000000000000000001
:103FC00000000000000000001F003F8021C000C072
:103FD0001FC03FC070C060C061C07FC01CC0000077
:103FE0000000000000000000000000000000600071
:103FF00060006000600060006F007F80718060C0C2
:1040000060C060C060C060C071807F806F000000D1
:1040100000000000000000000000000000000000A0
:1040200000000000000000000F003F8030806000B2
:10403000600060006000600030803F800F00000082
:10404000000000000000000000000000000000C0B0
:1040500000C000C000C000C01EC03FC031C060C072
:1040600060C060C060C060C031C03FC01EC0000002
:104070000000000000000000000000000000000040
:1040800000000000000000000F003F8031C060C051
:104090007FC07FC06000600030403FC00F800000E4
:1040A000000000000000000000000000000001E02F
:1040B00003E00600060006003FE03FE006000600C1
:1040C00006000600060006000600060006000000C6
:1040D00000000000000000000000000000000000E0
:1040E00000000000000000001EC03FC031C060C0E2
:1040F00060C060C060C060C031C03FC01EC000C0B2
:1041000021C03F801F000000000000000000600090
:10411000600060006000600067007F8071C060C068
:1041200060C060C060C060C060C060C060C00000AF
:104130000000000000000000000000000000060079
:1041400006000000000000003E003E0006000600E1
:10415000060006000600060006007FE07FE0000083
:10416000000000000000000000000000000003004C
:1041700003000000000000001F001F0003000300F8
:104180000300030003000300030003000300030017
:1041900003003E003C000000000000000000600042
:1041A000600060006000600061C0638067006E00B6
:1041B0007C007C00760067006300618061C00000C5
:1041C0000000000000000000000000000000FC00F3
:1041D000FC000C000C000C000C000C000C000C008F
:1041E0000C000C000C000C000E0007C003C0000007
:1041F00000000000000000000000000000000000BF
:1042000000000000000000006DC07FE06660666096
:104210006660666066606660666066606660000034
:10422000000000000000000000000000000000008E
:10423000000000000000000067007F8071C060C0C7
:1042400060C060C060C060C060C060C060C000008E
:10425000000000000000000000000000000000005E
:1042600000000000000000001F003F80318060C09F
:1042700060C060C060C060C031803F801F0000002F
:10428000000000000000000000000000000000002E
:1042900000000000000000006F007F80718060C09F
:1042A00060C060C060C060C071807F806F006000CF
:1042B00060006000600000000000000000000000DE
:1042C00000000000000000001EC03FC031C060C000
:1042D00060C060C060C060C031C03FC01EC000C0D0
:1042E00000C000C000C0000000000000000000008E
:1042F00000000000000000000CE00DF00F100E00A8
:104300000C000C000C000C000C000C000C00000059
:10431000000000000000000000000000000000009D
:1043200000000000000000001F803FC060406000EF
:104330007F001F8001C000C041C07F803F0000009F
:10434000000000000000000000000000000000006D
:1043500000000C000C000C007FC07FC00C000C00A3
:104360000C000C000C000C000C000FC007C000007B
:10437000000000000000000000000000000000003D
:10438000000000000000000060C060C060C060C0AD
:1043900060C060C060C060C071C03FC01CC0000091
:1043A000000000000000000000000000000000000D
:1043B000000000000000000060C071C0318031804A
:1043C0003B801B001B001B000E000E000E000000B7
:1043D00000000000000000000000000000000000DD
:1043E0000000000000000000C030C0306060666067
:1043F000666066603FC039C039C039C030C0000057
:1044000000000000000000000000000000000000AC
:10441000000000000000000071C031801B001F0080
:104420000E000E000E001F001B00318071C0000046
:10443000000000000000000000000000000000007C
:10444000000000000000000060C031803180318039
:104450001B001B001F000E000E0006000C000C00CD
:104460000C003800380000000000000000000000D0
:1044700000000000000000007FC07FC00380030038
:1044800007000E001C00180030007FC07FC0000035
:10449000000000000000000000000000000003C059
:1044A00007C00600060006000600060006003C00E5
:1044B0003C000E000600060006000600060006008E
:1044C00007C003C00000000000000000000006005C
:1044D00006000600060006000600060006000600AC
:1044E000060006000600060006000600060006009C
:1044F00006000600060006000000000000003C0068
:104500003E0006000600060006000600060003C086
:1045100003C00700060006000600060006000600AD
:104520003E003C0000000000000000000000000011
:10453000000000000000000000000000000000007B
:10454000000000000000000000000000000000006B
:10455000000000000000000000000000000000005B
:10456000000000000000000000000000000000004B
:104570000000000001C001C001C001C001C001C0B5
:1045800001C001C001C001C001C001C001C001C023
:1045900000000000000001C001C001C000000000D8
:1045A000000000000000000000000000000000000B
:1045B00000000000063006300630063006300630B7
:1045C000063006300000000000000000000000007F
:1045D00000000000000000000000000000000000DB
:1045E00000000000000000000000000000000000CB
:1045F0000000018C038C030C0318031803187FFFC1
:104600007FFF063006300E300C700C60FFFEFFFEA0
:10461000186018C018C018C030C0318000000000F9
:10462000000000000000000000000000000000008A
:10463000000000800080008003F00FFC0E8C1C80C6
:104640001C801C801C800E800FE003F800FC009E84
:10465000008E008E008E109C1FF807F000800080F6
:10466000008000800000000000000000000000004A
:10467000000000003C007E00E700C300C300C30050
:10468000E7007E1C3C7801C007003C7870FC01CE3E
:1046900001860186018601CE00FC00780000000042
:1046A000000000000000000000000000000000000A
:1046B0000000000007C00FE01E201C001C001C00B2
:1046C0001E000E000F001F003F8333C371E370E331
:1046D00070F6707E783C3C3E1FEE07CF0000000075
:1046E00000000000000000000000000000000000CA
:1046F00000000000018001800180018001800180B4
:1047000001800180000000000000000000000000A7
:104710000000000000000000000000000000000099
:104720000000000000000000000000000000000089
:10473000000000300060006000E000C001C001C067
:104740000180038003800380038003800380038053
:1047500003800380018001C001C000C000E0006050
:1047600000600030000000000000000000000000B9
:1047700000000600030003000380018001C001C0A7
:1047800000C000E000E000E000E000E000E000E049
:1047900000E000E000C001C001C001800380030010
:1047A0000300060000000000000000000000000000
:1047B00000000000018001802184399C0FF003C0BB
:1047C00003C00FF0399C21840180018000000000AB
:1047D00000000000000000000000000000000000D9
:1047E00000000000000000000000000000000000C9
:1047F00000000000000000000000000001800180B7
:1048000001800180018001807FFE7FFE01800180A8
:104810000180018001800180000000000000000094
:104820000000000000000000000000000000000088
:104830000000000000000000000000000000000078
:104840000000000000000000000000000000000068
:104850000000000001C001C001C001C00180038050
:1048600003800300000000000000000000000000C2
:104870000000000000000000000000000000000038
:104880000000000000000000000007F007F000003A
:104890000000000000000000000000000000000018
:1048A0000000000000000000000000000000000008
:1048B00000000000000000000000000000000000F8
:1048C00000000000000000000000000000000000E8
:1048D00000000000038003800380038000000000CC
:1048E00000000000000000000000000000000000C8
:1048F00000000000001C00380038007000700070DC
:1049000000E000E001C001C00380038003800700D5
:1049100007000E000E001C001C001C0038003800B0
:104920007000000000000000000000000000000017
:104930000000000003E00FF80E381C1C1C1C380E91
:10494000380E380E39CE39CE39CE380E380E380EF4
:10495000380E1C1C1C1C0E380FF803E00000000071
:104960000000000000000000000000000000000047
:104970000000000003E00FE00CE000E000E000E0D9
:1049800000E000E000E000E000E000E000E000E027
:1049900000E000E000E000E00FFE0FFE000000007D
:1049A0000000000000000000000000000000000007
:1049B000000000000FE03FF8383C201E000E000E03
:1049C000000E000E001E003C007C00F800F001E02C
:1049D00003C007000E001C003FFE3FFE0000000069
:1049E00000000000000000000000000000000000C7
:1049F0000000000007F01FF8181C000E000E000E4B
:104A0000000E003C07F007F0003C001C000E000EFA
:104A1000000E000E001E303C3FF80FE000000000CA
:104A20000000000000000000000000000000000086
:104A300000000000007000F001F001F0037007704A
:104A400006700C700C7018703870307060707FFEDB
:104A50007FFE0070007000700070007000000000A9
:104A60000000000000000000000000000000000046
:104A7000000000001FFC1FFC1C001C001C001C0090
:104A80001FE01FF8103C001C000E000E000E000E70
:104A9000000E000E001C203C3FF81FE0000000004C
:104AA0000000000000000000000000000000000006
:104AB0000000000001F807FC0F041E001C001C0091
:104AC000380039F03BF83E3C3C1E380E380E380EAC
:104AD000380E180E1C1C0E3C0FF803F000000000EE
:104AE00000000000000000000000000000000000C6
:104AF000000000003FFE3FFE001E001C001C0038AE
:104B0000003800380070007000F000E000E001E0C4
:104B100001C001C003800380038007000000000083
:104B20000000000000000000000000000000000085
:104B30000000000007F01FFC1C1C380E380E380E59
:104B4000380E1C1C07F00FF81E3C1C1C380E380ECB
:104B5000380E380E3C1E1E3C0FF807F00000000017
:104B60000000000000000000000000000000000045
:104B70000000000007E00FF81E383C1C380C380E0F
:104B8000380E380E380E3C1E1E3E0FEE07CE000EBD
:104B9000001C001C003C10781FF00FC0000000003B
:104BA0000000000000000000000000000000000005
:104BB00000000000000000000000000000000000F5
:104BC00003800380038003800000000000000000D9
:104BD00000000000038003800380038000000000C9
:104BE00000000000000000000000000000000000C5
:104BF00000000000000000000000000000000000B5
:104C00000380038003800380000000000000000098
:104C1000000000000380038003800380030007007E
:104C20000700060000000000000000000000000077
:104C30000000000000000000000000000002001E54
:104C4000007E01F80FC03F00780078003F000FC0E1
:104C500001F8007E001E00020000000000000000BD
:104C60000000000000000000000000000000000044
:104C70000000000000000000000000000000000034
:104C8000000000007FFE7FFE0000000000007FFEAD
:104C90007FFE000000000000000000000000000097
:104CA0000000000000000000000000000000000004
:104CB000000000000000000000000000400078003C
:104CC0007E001F8003F000FC001E001E00FC03F0AD
:104CD0001F807E00780040000000000000000000FF
:104CE00000000000000000000000000000000000C4
:104CF0000000000003E00FF81C38101C001C003CF2
:104D0000003C007800F001E003C0038003800380D2
:104D10000380000000000380038003800000000087
:104D20000000000000000000000000000000000083
:104D300000000000000001F807FC0E0E1C0618031E
:104D40003003307B61FF61876303630363036303A5
:104D50006303618771FF307B300018001C000F0473
:104D600003FC00FC00000000000000000000000048
:104D70000000000001C003E003E003E003E007706F
:104D8000077007700F780E380E380E381FFC1FFCA6
:104D90001C1C380E380E380E780F7007000000000B
:104DA0000000000000000000000000000000000003
:104DB000000000003FE03FF83838381C381C381C31
:104DC000381C38383FF03FF0383C381C380E380E6D
:104DD000380E380E381E383C3FF83FE00000000027
:104DE00000000000000000000000000000000000C3
:104DF0000000000001F807FC0F0C1E041C001C0042
:104E000038003800380038003800380038003800E2
:104E10001C001C001E040F0C07FC01F80000000021
:104E20000000000000000000000000000000000082
:104E3000000000003FC03FF03878381C381C380CA8
:104E4000380E380E380E380E380E380E380E380E32
:104E5000380C381C381C38783FF03FC00000000088
:104E60000000000000000000000000000000000042
:104E7000000000001FFE1FFE1C001C001C001C0088
:104E80001C001C001FFC1FFC1C001C001C001C0044
:104E90001C001C001C001C001FFE1FFE0000000068
:104EA0000000000000000000000000000000000002
:104EB000000000001FFE1FFE1C001C001C001C0048
:104EC0001C001C001FFC1FFC1C001C001C001C0004
:104ED0001C001C001C001C001C001C00000000002A
:104EE00000000000000000000000000000000000C2
:104EF0000000000001F807FC0F0C1E041C001C0041
:104F0000380038003800387E387E380E380E380EBB
:104F10001C0E1C0E1C0E0F1E07FE01F800000000E8
:104F20000000000000000000000000000000000081
:104F300000000000380E380E380E380E380E380ECD
:104F4000380E380E3FFE3FFE380E380E380E380E43
:104F5000380E380E380E380E380E380E00000000AD
:104F60000000000000000000000000000000000041
:104F7000000000001FFC1FFC01C001C001C001C0F7
:104F800001C001C001C001C001C001C001C001C019
:104F900001C001C001C001C01FFC1FFC00000000D7
:104FA0000000000000000000000000000000000001
:104FB0000000000007F807F8003800380038003813
:104FC0000038003800380038003800380038003821
:104FD00000380038203830703FF00FC0000000006B
:104FE00000000000000000000000000000000000C1
:104FF000000000003807380E381C3838387038E0A8
:1050000039C03B803F803FC03FC03DE038F0387042
:105010003878383C381C381E380F3807000000003C
:105020000000000000000000000000000000000080
:10503000000000001C001C001C001C001C001C00C8
:105040001C001C001C001C001C001C001C001C0080
:105050001C001C001C001C001FFE1FFE00000000A6
:105060000000000000000000000000000000000040
:1050700000000000781E781E7C3E7C3E7C3E766EF2
:10508000766E766E724E73CE73CE718E718E700E9A
:10509000700E700E700E700E700E700E000000001C
:1050A0000000000000000000000000000000000000
:1050B000000000003C0E3C0E3E0E3E0E3E0E3B0E2F
:1050C0003B0E3B8E398E398E38CE38CE38EE386E68
:1050D000386E383E383E383E381E381E000000001C
:1050E00000000000000000000000000000000000C0
:1050F0000000000003E00FF80E381C1C1C1C380ECA
:10510000380E380E380E380E380E380E380E380E6F
:10511000380E1C1C1C1C0E380FF803E000000000A9
:10512000000000000000000000000000000000007F
:10513000000000001FF01FFC1C1E1C0F1C071C079A
:105140001C071C071C0F1C1E1FFC1FF01C001C0052
:105150001C001C001C001C001C001C0000000000A7
:10516000000000000000000000000000000000003F
:105170000000000003E00FF80E381C1C1C1C380E49
:10518000380E380E380E380E380E380E380E380EEF
:10519000380E1C1C1C1C0E380FF803E00070003881
:1051A000001C0010000000000000000000000000D3
:1051B000000000003FE03FF03878383C381C381CD5
:1051C000381C381C381C38383FF03FE038F038784D
:1051D0003838383C381C381E380E380F00000000B4
:1051E00000000000000000000000000000000000BF
:1051F0000000000003F00FFC1E0C3C0438003800D7
:1052000038003E001FC00FF803FC003C001E000EDB
:10521000000E000E201E383C3FF80FE0000000009A
:10522000000000000000000000000000000000007E
:10523000000000007FFF7FFF01C001C001C001C06E
:1052400001C001C001C001C001C001C001C001C056
:1052500001C001C001C001C001C001C000000000C8
:10526000000000000000000000000000000000003E
:1052700000000000381C381C381C381C381C381C36
:10528000381C381C381C381C381C381C381C381C7E
:10529000381C381C381C1C380FF007E000000000D8
:1052A00000000000000000000000000000000000FE
:1052B000000000007007780F380E380E380E1C1CE6
:1052C0001C1C1C1C1E3C0E380E380E380770077054
:1052D000077003E003E003E003E001C0000000000A
:1052E00000000000000000000000000000000000BE
:1052F00000000000E007E007E007700E700E700E7F
:1053000073CE73CE73CE73CE3BDC3E7C3E7C3E7C54
:105310003E7C3C3C3C3C1C381C381818000000000B
:10532000000000000000000000000000000000007D
:105330000000000078073C0F1C0E1E1E0F3C0738B3
:1053400007F003F001E001E001E003F007F0077867
:105350000F3C0E1C1E1E3C0E380778070000000094
:10536000000000000000000000000000000000003D
:1053700000000000780F380E3C1E1C1C1E3C0E382E
:10538000077007F003E003E001C001C001C001C0E5
:1053900001C001C001C001C001C001C00000000087
:1053A00000000000000000000000000000000000FD
:1053B000000000003FFE3FFE001E001C003C007885
:1053C000007000F000E001E003C0038007800700E8
:1053D0000F001E001C003C003FFE3FFE00000000CE
:1053E00000000000000000000000000000000000BD
:1053F000000003F003F00380038003800380038038
:105400000380038003800380038003800380038084
:105410000380038003800380038003800380038074
:1054200003F003F000000000000000000000000096
:10543000000000007000380038001C001C001C0038
:105440000E000E000700070003800380038001C0E8
:1054500001C000E000E0007000700070003800380B
:10546000001C000000000000000000000000000020
:10547000000007E007E000E000E000E000E000E0FE
:1054800000E000E000E000E000E000E000E000E01C
:1054900000E000E000E000E000E000E000E000E00C
:1054A00007E007E00000000000000000000000002E
:1054B0000000000003C003C007E00E700C30181895
:1054C000381C700E0000000000000000000000000A
:1054D00000000000000000000000000000000000CC
:1054E00000000000000000000000000000000000BC
:1054F00000000000000000000000000000000000AC
:10550000000000000000000000000000000000009B
:10551000000000000000000000000000000000008B
:10552000000000000000FFFF00000000000000007D
:105530000E0007000300018000C000000000000012
:10554000000000000000000000000000000000005B
:10555000000000000000000000000000000000004B
:10556000000000000000000000000000000000003B
:10557000000000000000000000000000000007F034
:105580001FFC181C000E000E07FE0FFE1C0E380E2E
:10559000380E381E381E3C3E1FEE07CE00000000BD
:1055A00000000000000000000000000000000000FB
:1055B00000001C001C001C001C001C001C001CF82F
:1055C0001FFC1F1E1E0E1C071C071C071C071C07A8
:1055D0001C071C071E0E1F1E1FFC1CF800000000ED
:1055E00000000000000000000000000000000000BB
:1055F000000000000000000000000000000001F0BA
:1056000007F80F0C0E001C001C001C001C001C00E6
:105610001C001E000E000F0C07F801F00000000037
:10562000000000000000000000000000000000007A
:105630000000000E000E000E000E000E000E07CE41
:105640000FFE1E3E1C1E380E380E380E380E380E59
:10565000380E380E1C1E1E3E0FFE07CE0000000046
:10566000000000000000000000000000000000003A
:10567000000000000000000000000000000003E047
:105680000FF81E3C1C1C3C0E380E380E3FFE3FFE31
:10569000380038001C041E0C0FF803E00000000066
:1056A00000000000000000000000000000000000FA
:1056B0000000007E00FE01E001C001C001C01FFE2D
:1056C0001FFE01C001C001C001C001C001C001C076
:1056D00001C001C001C001C001C001C00000000044
:1056E00000000000000000000000000000000000BA
:1056F000000000000000000000000000000007CED5
:105700000FEE1E3E1C1E380E380E380E380E380EA8
:10571000380E380E1C1E1E3E0FEE07CE000E000E79
:10572000001C083C0FF807E000000000000000002B
:1057300000001C001C001C001C001C001C001CF0B5
:105740001DF81E3C1E1C1C1C1C1C1C1C1C1C1C1C98
:105750001C1C1C1C1C1C1C1C1C1C1C1C00000000F9
:105760000000000000000000000000000000000039
:10577000000001C001C001C00000000000001FC007
:105780001FC001C001C001C001C001C001C001C0F3
:1057900001C001C001C001C03FFE3FFE000000008B
:1057A00000000000000000000000000000000000F9
:1057B000000000E000E000E00000000000000FE05A
:1057C0000FE000E000E000E000E000E000E000E0CA
:1057D00000E000E000E000E000E000E000E000E0C9
:1057E00000E001C01FC01F0000000000000000001A
:1057F00000001C001C001C001C001C001C001C0FD6
:105800001C1E1C3C1C781CF01DE01FC01FE01FE08C
:105810001EF01C781C3C1C1C1C1E1C0F00000000F1
:105820000000000000000000000000000000000078
:1058300000007F807F8003800380038003800380DB
:105840000380038003800380038003800380038040
:1058500003800380038001C001FC007C0000000085
:105860000000000000000000000000000000000038
:105870000000000000000000000000000000771C95
:105880007FBE71E771C771C771C771C771C771C733
:1058900071C771C771C771C771C771C700000000B8
:1058A00000000000000000000000000000000000F8
:1058B00000000000000000000000000000001CF0DC
:1058C0001DF81E3C1E1C1C1C1C1C1C1C1C1C1C1C17
:1058D0001C1C1C1C1C1C1C1C1C1C1C1C0000000078
:1058E00000000000000000000000000000000000B8
:1058F000000000000000000000000000000003E0C5
:105900000FF81E3C1C1C380E380E380E380E380EA0
:10591000380E380E1C1C1E3C0FF803E0000000007F
:105920000000000000000000000000000000000077
:1059300000000000000000000000000000001CF853
:105940001FFC1F1E1E0E1C071C071C071C071C0724
:105950001C071C071E0E1F1E1FFC1CF81C001C0031
:105960001C001C001C001C000000000000000000C7
:10597000000000000000000000000000000007CE52
:105980000FFE1E3E1C1E380E380E380E380E380E16
:10599000380E380E1C1E1E3E0FFE07CE000E000EE7
:1059A000000E000E000E000E0000000000000000BF
:1059B0000000000000000000000000000000073CA4
:1059C000077E07C20780078007000700070007005F
:1059D000070007000700070007000700000000009D
:1059E00000000000000000000000000000000000B7
:1059F000000000000000000000000000000003F0B4
:105A00000FF81E081C001C001F000FF007F800FC18
:105A1000003C001C001C103C1FF807E000000000C8
:105A20000000000000000000000000000000000076
:105A300000000000000003800380038003803FFE1D
:105A40003FFE038003800380038003800380038084
:105A500003800380038003C001FE00FE00000000FD
:105A60000000000000000000000000000000000036
:105A700000000000000000000000000000001C1CEE
:105A80001C1C1C1C1C1C1C1C1C1C1C1C1C1C1C1C56
:105A90001C1C1C1C1C3C1E3C0FDC079C0000000056
:105AA00000000000000000000000000000000000F6
:105AB0000000000000000000000000000000700E68
:105AC000381C381C381C1C381C381E780E700E70A0
:105AD0000FF007E007E007E003C003C0000000008C
:105AE00000000000000000000000000000000000B6
:105AF0000000000000000000000000000000E007BF
:105B0000E007700E700E718E718E7BDE3BDC3A5CAE
:105B10003A5C3E7C1E781C381C381C3800000000A3
:105B20000000000000000000000000000000000075
:105B300000000000000000000000000000003C3CED
:105B40001E780E700FF007E003C003C0018003C091
:105B500007E00FF00E701E783C3C781E000000003D
:105B60000000000000000000000000000000000035
:105B70000000000000000000000000000000700EA7
:105B8000381C381C3C3C1C381C381E780E700E70BB
:105B900007E007E007E003C003C003800380038041
:105BA00007000F003E003C00000000000000000065
:105BB00000000000000000000000000000001FFCCA
:105BC0001FFC003C0078007000F001E001C003C041
:105BD000078007000F001E001FFC1FFC00000000D4
:105BE00000000000000000000000000000000000B5
:105BF0000000007C00FC01E001C001C001C001C048
:105C000001C001C001C001C003801F001F0003804C
:105C100001C001C001C001C001C001C001C001C07C
:105C200001E000FC007C000000000000000000001B
:105C300000000180018001800180018001800180DD
:105C4000018001800180018001800180018001804C
:105C5000018001800180018001800180018001803C
:105C60000180018001800180000000000000000030
:105C700000001F001F8003C001C001C001C001C09F
:105C800001C001C001C001C000E0007C007C00E058
:105C900001C001C001C001C001C001C001C001C0FC
:105CA00003C01F801F0000006964203D2025780D7F
:105CB0000A0000005468657265206973206E6F20C9
:105CC000616E7920646566696E6520415343325F79
:105CD0003132303820262620415343325F3234316E
:105CE0003220262620415343325F3234313620267B
:105CF0002620415343325F333231362021000000E9
:105D0000666F6E742073697A65282564292069732B
:105D1000206E6F7420737570706F727421000000B4
:105D200053797374656D436C6B3A25640D0A0000FA
:105D3000574348205E565E0D0000000047414D4528
:105D4000204F5645520000000000000000000000F7
:105D50000000000000000000000000000000000043
:105D60000000000000000000000000000000000033
:105D70000000000000000000000000000000000023
:105D80000000000000000000000000000000000013
:105D90000000000000000000000000000000000003
:105DA0000000000000000000232D302B2000000028
:105DB000686C4C00656667454647000030313233F9
:105DC00034353637383941424344454600000000F7
:105DD0003031323334353637383961626364656661
:045DE00000000000BF
:105DE400000000000102030401020304060708097D
:105DF40000000000685D0000885D0000485D000050
:105E0400000000000000000000000000000000008E
:105E1400000000000000000000000000000000007E
:105E2400000000000000000000000000000000006E
:105E3400000000000000000000000000000000005E
:105E4400000000000000000000000000000000004E
:105E5400FFFF000000A24A0402040608100000200C
:085E6400100000200000000006
:00000001FF
