Archive member included to satisfy reference by file (symbol)

c:/mounriver/mounriver_studio/toolchain/risc-v embedded gcc/bin/../lib/gcc/riscv-none-embed/8.2.0/../../../../riscv-none-embed/lib/rv32imafc/ilp32f\libg_nano.a(lib_a-malloc.o)
                              ./User/main.o (malloc)
c:/mounriver/mounriver_studio/toolchain/risc-v embedded gcc/bin/../lib/gcc/riscv-none-embed/8.2.0/../../../../riscv-none-embed/lib/rv32imafc/ilp32f\libg_nano.a(lib_a-memset.o)
                              ./User/lcd.o (memset)
c:/mounriver/mounriver_studio/toolchain/risc-v embedded gcc/bin/../lib/gcc/riscv-none-embed/8.2.0/../../../../riscv-none-embed/lib/rv32imafc/ilp32f\libg_nano.a(lib_a-nano-freer.o)
                              c:/mounriver/mounriver_studio/toolchain/risc-v embedded gcc/bin/../lib/gcc/riscv-none-embed/8.2.0/../../../../riscv-none-embed/lib/rv32imafc/ilp32f\libg_nano.a(lib_a-malloc.o) (_free_r)
c:/mounriver/mounriver_studio/toolchain/risc-v embedded gcc/bin/../lib/gcc/riscv-none-embed/8.2.0/../../../../riscv-none-embed/lib/rv32imafc/ilp32f\libg_nano.a(lib_a-nano-mallocr.o)
                              c:/mounriver/mounriver_studio/toolchain/risc-v embedded gcc/bin/../lib/gcc/riscv-none-embed/8.2.0/../../../../riscv-none-embed/lib/rv32imafc/ilp32f\libg_nano.a(lib_a-malloc.o) (_malloc_r)
c:/mounriver/mounriver_studio/toolchain/risc-v embedded gcc/bin/../lib/gcc/riscv-none-embed/8.2.0/../../../../riscv-none-embed/lib/rv32imafc/ilp32f\libg_nano.a(lib_a-printf.o)
                              ./User/lcd.o (printf)
c:/mounriver/mounriver_studio/toolchain/risc-v embedded gcc/bin/../lib/gcc/riscv-none-embed/8.2.0/../../../../riscv-none-embed/lib/rv32imafc/ilp32f\libg_nano.a(lib_a-puts.o)
                              ./User/main.o (puts)
c:/mounriver/mounriver_studio/toolchain/risc-v embedded gcc/bin/../lib/gcc/riscv-none-embed/8.2.0/../../../../riscv-none-embed/lib/rv32imafc/ilp32f\libg_nano.a(lib_a-sbrkr.o)
                              c:/mounriver/mounriver_studio/toolchain/risc-v embedded gcc/bin/../lib/gcc/riscv-none-embed/8.2.0/../../../../riscv-none-embed/lib/rv32imafc/ilp32f\libg_nano.a(lib_a-nano-mallocr.o) (_sbrk_r)
c:/mounriver/mounriver_studio/toolchain/risc-v embedded gcc/bin/../lib/gcc/riscv-none-embed/8.2.0/../../../../riscv-none-embed/lib/rv32imafc/ilp32f\libg_nano.a(lib_a-vsnprintf.o)
                              ./User/lcd.o (vsnprintf)
c:/mounriver/mounriver_studio/toolchain/risc-v embedded gcc/bin/../lib/gcc/riscv-none-embed/8.2.0/../../../../riscv-none-embed/lib/rv32imafc/ilp32f\libg_nano.a(lib_a-wbuf.o)
                              c:/mounriver/mounriver_studio/toolchain/risc-v embedded gcc/bin/../lib/gcc/riscv-none-embed/8.2.0/../../../../riscv-none-embed/lib/rv32imafc/ilp32f\libg_nano.a(lib_a-puts.o) (__swbuf_r)
c:/mounriver/mounriver_studio/toolchain/risc-v embedded gcc/bin/../lib/gcc/riscv-none-embed/8.2.0/../../../../riscv-none-embed/lib/rv32imafc/ilp32f\libg_nano.a(lib_a-wsetup.o)
                              c:/mounriver/mounriver_studio/toolchain/risc-v embedded gcc/bin/../lib/gcc/riscv-none-embed/8.2.0/../../../../riscv-none-embed/lib/rv32imafc/ilp32f\libg_nano.a(lib_a-puts.o) (__swsetup_r)
c:/mounriver/mounriver_studio/toolchain/risc-v embedded gcc/bin/../lib/gcc/riscv-none-embed/8.2.0/../../../../riscv-none-embed/lib/rv32imafc/ilp32f\libg_nano.a(lib_a-fflush.o)
                              c:/mounriver/mounriver_studio/toolchain/risc-v embedded gcc/bin/../lib/gcc/riscv-none-embed/8.2.0/../../../../riscv-none-embed/lib/rv32imafc/ilp32f\libg_nano.a(lib_a-wbuf.o) (_fflush_r)
c:/mounriver/mounriver_studio/toolchain/risc-v embedded gcc/bin/../lib/gcc/riscv-none-embed/8.2.0/../../../../riscv-none-embed/lib/rv32imafc/ilp32f\libg_nano.a(lib_a-findfp.o)
                              c:/mounriver/mounriver_studio/toolchain/risc-v embedded gcc/bin/../lib/gcc/riscv-none-embed/8.2.0/../../../../riscv-none-embed/lib/rv32imafc/ilp32f\libg_nano.a(lib_a-printf.o) (__sinit)
c:/mounriver/mounriver_studio/toolchain/risc-v embedded gcc/bin/../lib/gcc/riscv-none-embed/8.2.0/../../../../riscv-none-embed/lib/rv32imafc/ilp32f\libg_nano.a(lib_a-fwalk.o)
                              c:/mounriver/mounriver_studio/toolchain/risc-v embedded gcc/bin/../lib/gcc/riscv-none-embed/8.2.0/../../../../riscv-none-embed/lib/rv32imafc/ilp32f\libg_nano.a(lib_a-findfp.o) (_fwalk)
c:/mounriver/mounriver_studio/toolchain/risc-v embedded gcc/bin/../lib/gcc/riscv-none-embed/8.2.0/../../../../riscv-none-embed/lib/rv32imafc/ilp32f\libg_nano.a(lib_a-impure.o)
                              c:/mounriver/mounriver_studio/toolchain/risc-v embedded gcc/bin/../lib/gcc/riscv-none-embed/8.2.0/../../../../riscv-none-embed/lib/rv32imafc/ilp32f\libg_nano.a(lib_a-fflush.o) (_global_impure_ptr)
c:/mounriver/mounriver_studio/toolchain/risc-v embedded gcc/bin/../lib/gcc/riscv-none-embed/8.2.0/../../../../riscv-none-embed/lib/rv32imafc/ilp32f\libg_nano.a(lib_a-makebuf.o)
                              c:/mounriver/mounriver_studio/toolchain/risc-v embedded gcc/bin/../lib/gcc/riscv-none-embed/8.2.0/../../../../riscv-none-embed/lib/rv32imafc/ilp32f\libg_nano.a(lib_a-wsetup.o) (__smakebuf_r)
c:/mounriver/mounriver_studio/toolchain/risc-v embedded gcc/bin/../lib/gcc/riscv-none-embed/8.2.0/../../../../riscv-none-embed/lib/rv32imafc/ilp32f\libg_nano.a(lib_a-mlock.o)
                              c:/mounriver/mounriver_studio/toolchain/risc-v embedded gcc/bin/../lib/gcc/riscv-none-embed/8.2.0/../../../../riscv-none-embed/lib/rv32imafc/ilp32f\libg_nano.a(lib_a-nano-freer.o) (__malloc_lock)
c:/mounriver/mounriver_studio/toolchain/risc-v embedded gcc/bin/../lib/gcc/riscv-none-embed/8.2.0/../../../../riscv-none-embed/lib/rv32imafc/ilp32f\libg_nano.a(lib_a-nano-svfprintf.o)
                              c:/mounriver/mounriver_studio/toolchain/risc-v embedded gcc/bin/../lib/gcc/riscv-none-embed/8.2.0/../../../../riscv-none-embed/lib/rv32imafc/ilp32f\libg_nano.a(lib_a-vsnprintf.o) (_svfprintf_r)
c:/mounriver/mounriver_studio/toolchain/risc-v embedded gcc/bin/../lib/gcc/riscv-none-embed/8.2.0/../../../../riscv-none-embed/lib/rv32imafc/ilp32f\libg_nano.a(lib_a-nano-vfprintf.o)
                              c:/mounriver/mounriver_studio/toolchain/risc-v embedded gcc/bin/../lib/gcc/riscv-none-embed/8.2.0/../../../../riscv-none-embed/lib/rv32imafc/ilp32f\libg_nano.a(lib_a-printf.o) (_vfprintf_r)
c:/mounriver/mounriver_studio/toolchain/risc-v embedded gcc/bin/../lib/gcc/riscv-none-embed/8.2.0/../../../../riscv-none-embed/lib/rv32imafc/ilp32f\libg_nano.a(lib_a-nano-vfprintf_i.o)
                              c:/mounriver/mounriver_studio/toolchain/risc-v embedded gcc/bin/../lib/gcc/riscv-none-embed/8.2.0/../../../../riscv-none-embed/lib/rv32imafc/ilp32f\libg_nano.a(lib_a-nano-svfprintf.o) (_printf_i)
c:/mounriver/mounriver_studio/toolchain/risc-v embedded gcc/bin/../lib/gcc/riscv-none-embed/8.2.0/../../../../riscv-none-embed/lib/rv32imafc/ilp32f\libg_nano.a(lib_a-reent.o)
                              c:/mounriver/mounriver_studio/toolchain/risc-v embedded gcc/bin/../lib/gcc/riscv-none-embed/8.2.0/../../../../riscv-none-embed/lib/rv32imafc/ilp32f\libg_nano.a(lib_a-sbrkr.o) (errno)
c:/mounriver/mounriver_studio/toolchain/risc-v embedded gcc/bin/../lib/gcc/riscv-none-embed/8.2.0/../../../../riscv-none-embed/lib/rv32imafc/ilp32f\libg_nano.a(lib_a-stdio.o)
                              c:/mounriver/mounriver_studio/toolchain/risc-v embedded gcc/bin/../lib/gcc/riscv-none-embed/8.2.0/../../../../riscv-none-embed/lib/rv32imafc/ilp32f\libg_nano.a(lib_a-findfp.o) (__sread)
c:/mounriver/mounriver_studio/toolchain/risc-v embedded gcc/bin/../lib/gcc/riscv-none-embed/8.2.0/../../../../riscv-none-embed/lib/rv32imafc/ilp32f\libg_nano.a(lib_a-writer.o)
                              c:/mounriver/mounriver_studio/toolchain/risc-v embedded gcc/bin/../lib/gcc/riscv-none-embed/8.2.0/../../../../riscv-none-embed/lib/rv32imafc/ilp32f\libg_nano.a(lib_a-stdio.o) (_write_r)
c:/mounriver/mounriver_studio/toolchain/risc-v embedded gcc/bin/../lib/gcc/riscv-none-embed/8.2.0/../../../../riscv-none-embed/lib/rv32imafc/ilp32f\libg_nano.a(lib_a-closer.o)
                              c:/mounriver/mounriver_studio/toolchain/risc-v embedded gcc/bin/../lib/gcc/riscv-none-embed/8.2.0/../../../../riscv-none-embed/lib/rv32imafc/ilp32f\libg_nano.a(lib_a-stdio.o) (_close_r)
c:/mounriver/mounriver_studio/toolchain/risc-v embedded gcc/bin/../lib/gcc/riscv-none-embed/8.2.0/../../../../riscv-none-embed/lib/rv32imafc/ilp32f\libg_nano.a(lib_a-fstatr.o)
                              c:/mounriver/mounriver_studio/toolchain/risc-v embedded gcc/bin/../lib/gcc/riscv-none-embed/8.2.0/../../../../riscv-none-embed/lib/rv32imafc/ilp32f\libg_nano.a(lib_a-makebuf.o) (_fstat_r)
c:/mounriver/mounriver_studio/toolchain/risc-v embedded gcc/bin/../lib/gcc/riscv-none-embed/8.2.0/../../../../riscv-none-embed/lib/rv32imafc/ilp32f\libg_nano.a(lib_a-fvwrite.o)
                              c:/mounriver/mounriver_studio/toolchain/risc-v embedded gcc/bin/../lib/gcc/riscv-none-embed/8.2.0/../../../../riscv-none-embed/lib/rv32imafc/ilp32f\libg_nano.a(lib_a-nano-vfprintf.o) (__sfvwrite_r)
c:/mounriver/mounriver_studio/toolchain/risc-v embedded gcc/bin/../lib/gcc/riscv-none-embed/8.2.0/../../../../riscv-none-embed/lib/rv32imafc/ilp32f\libg_nano.a(lib_a-isattyr.o)
                              c:/mounriver/mounriver_studio/toolchain/risc-v embedded gcc/bin/../lib/gcc/riscv-none-embed/8.2.0/../../../../riscv-none-embed/lib/rv32imafc/ilp32f\libg_nano.a(lib_a-makebuf.o) (_isatty_r)
c:/mounriver/mounriver_studio/toolchain/risc-v embedded gcc/bin/../lib/gcc/riscv-none-embed/8.2.0/../../../../riscv-none-embed/lib/rv32imafc/ilp32f\libg_nano.a(lib_a-lseekr.o)
                              c:/mounriver/mounriver_studio/toolchain/risc-v embedded gcc/bin/../lib/gcc/riscv-none-embed/8.2.0/../../../../riscv-none-embed/lib/rv32imafc/ilp32f\libg_nano.a(lib_a-stdio.o) (_lseek_r)
c:/mounriver/mounriver_studio/toolchain/risc-v embedded gcc/bin/../lib/gcc/riscv-none-embed/8.2.0/../../../../riscv-none-embed/lib/rv32imafc/ilp32f\libg_nano.a(lib_a-memchr.o)
                              c:/mounriver/mounriver_studio/toolchain/risc-v embedded gcc/bin/../lib/gcc/riscv-none-embed/8.2.0/../../../../riscv-none-embed/lib/rv32imafc/ilp32f\libg_nano.a(lib_a-nano-svfprintf.o) (memchr)
c:/mounriver/mounriver_studio/toolchain/risc-v embedded gcc/bin/../lib/gcc/riscv-none-embed/8.2.0/../../../../riscv-none-embed/lib/rv32imafc/ilp32f\libg_nano.a(lib_a-memcpy.o)
                              c:/mounriver/mounriver_studio/toolchain/risc-v embedded gcc/bin/../lib/gcc/riscv-none-embed/8.2.0/../../../../riscv-none-embed/lib/rv32imafc/ilp32f\libg_nano.a(lib_a-nano-svfprintf.o) (memcpy)
c:/mounriver/mounriver_studio/toolchain/risc-v embedded gcc/bin/../lib/gcc/riscv-none-embed/8.2.0/../../../../riscv-none-embed/lib/rv32imafc/ilp32f\libg_nano.a(lib_a-memmove.o)
                              c:/mounriver/mounriver_studio/toolchain/risc-v embedded gcc/bin/../lib/gcc/riscv-none-embed/8.2.0/../../../../riscv-none-embed/lib/rv32imafc/ilp32f\libg_nano.a(lib_a-nano-svfprintf.o) (memmove)
c:/mounriver/mounriver_studio/toolchain/risc-v embedded gcc/bin/../lib/gcc/riscv-none-embed/8.2.0/../../../../riscv-none-embed/lib/rv32imafc/ilp32f\libg_nano.a(lib_a-nano-reallocr.o)
                              c:/mounriver/mounriver_studio/toolchain/risc-v embedded gcc/bin/../lib/gcc/riscv-none-embed/8.2.0/../../../../riscv-none-embed/lib/rv32imafc/ilp32f\libg_nano.a(lib_a-nano-svfprintf.o) (_realloc_r)
c:/mounriver/mounriver_studio/toolchain/risc-v embedded gcc/bin/../lib/gcc/riscv-none-embed/8.2.0/../../../../riscv-none-embed/lib/rv32imafc/ilp32f\libg_nano.a(lib_a-readr.o)
                              c:/mounriver/mounriver_studio/toolchain/risc-v embedded gcc/bin/../lib/gcc/riscv-none-embed/8.2.0/../../../../riscv-none-embed/lib/rv32imafc/ilp32f\libg_nano.a(lib_a-stdio.o) (_read_r)
c:/mounriver/mounriver_studio/toolchain/risc-v embedded gcc/bin/../lib/gcc/riscv-none-embed/8.2.0/../../../../riscv-none-embed/lib/rv32imafc/ilp32f\libg_nano.a(lib_a-nano-msizer.o)
                              c:/mounriver/mounriver_studio/toolchain/risc-v embedded gcc/bin/../lib/gcc/riscv-none-embed/8.2.0/../../../../riscv-none-embed/lib/rv32imafc/ilp32f\libg_nano.a(lib_a-nano-reallocr.o) (_malloc_usable_size_r)
c:/mounriver/mounriver_studio/toolchain/risc-v embedded gcc/bin/../lib/gcc/riscv-none-embed/8.2.0/../../../../riscv-none-embed/lib/rv32imafc/ilp32f\libnosys.a(close.o)
                              c:/mounriver/mounriver_studio/toolchain/risc-v embedded gcc/bin/../lib/gcc/riscv-none-embed/8.2.0/../../../../riscv-none-embed/lib/rv32imafc/ilp32f\libg_nano.a(lib_a-closer.o) (_close)
c:/mounriver/mounriver_studio/toolchain/risc-v embedded gcc/bin/../lib/gcc/riscv-none-embed/8.2.0/../../../../riscv-none-embed/lib/rv32imafc/ilp32f\libnosys.a(fstat.o)
                              c:/mounriver/mounriver_studio/toolchain/risc-v embedded gcc/bin/../lib/gcc/riscv-none-embed/8.2.0/../../../../riscv-none-embed/lib/rv32imafc/ilp32f\libg_nano.a(lib_a-fstatr.o) (_fstat)
c:/mounriver/mounriver_studio/toolchain/risc-v embedded gcc/bin/../lib/gcc/riscv-none-embed/8.2.0/../../../../riscv-none-embed/lib/rv32imafc/ilp32f\libnosys.a(isatty.o)
                              c:/mounriver/mounriver_studio/toolchain/risc-v embedded gcc/bin/../lib/gcc/riscv-none-embed/8.2.0/../../../../riscv-none-embed/lib/rv32imafc/ilp32f\libg_nano.a(lib_a-isattyr.o) (_isatty)
c:/mounriver/mounriver_studio/toolchain/risc-v embedded gcc/bin/../lib/gcc/riscv-none-embed/8.2.0/../../../../riscv-none-embed/lib/rv32imafc/ilp32f\libnosys.a(lseek.o)
                              c:/mounriver/mounriver_studio/toolchain/risc-v embedded gcc/bin/../lib/gcc/riscv-none-embed/8.2.0/../../../../riscv-none-embed/lib/rv32imafc/ilp32f\libg_nano.a(lib_a-lseekr.o) (_lseek)
c:/mounriver/mounriver_studio/toolchain/risc-v embedded gcc/bin/../lib/gcc/riscv-none-embed/8.2.0/../../../../riscv-none-embed/lib/rv32imafc/ilp32f\libnosys.a(read.o)
                              c:/mounriver/mounriver_studio/toolchain/risc-v embedded gcc/bin/../lib/gcc/riscv-none-embed/8.2.0/../../../../riscv-none-embed/lib/rv32imafc/ilp32f\libg_nano.a(lib_a-readr.o) (_read)
c:/mounriver/mounriver_studio/toolchain/risc-v embedded gcc/bin/../lib/gcc/riscv-none-embed/8.2.0/../../../../riscv-none-embed/lib/rv32imafc/ilp32f\libnosys.a(sbrk.o)
                              c:/mounriver/mounriver_studio/toolchain/risc-v embedded gcc/bin/../lib/gcc/riscv-none-embed/8.2.0/../../../../riscv-none-embed/lib/rv32imafc/ilp32f\libg_nano.a(lib_a-sbrkr.o) (_sbrk)

Allocating common symbols
Common symbol       size              file

food                0x8               ./User/main.o
DMAPTPRxDescToGet   0x4               ./Peripheral/src/ch32v30x_eth.o
errno               0x4               c:/mounriver/mounriver_studio/toolchain/risc-v embedded gcc/bin/../lib/gcc/riscv-none-embed/8.2.0/../../../../riscv-none-embed/lib/rv32imafc/ilp32f\libg_nano.a(lib_a-reent.o)
DMARxDescToGet      0x4               ./Peripheral/src/ch32v30x_eth.o
DMATxDescToSet      0x4               ./Peripheral/src/ch32v30x_eth.o
head                0x4               ./User/main.o
DMAPTPTxDescToSet   0x4               ./Peripheral/src/ch32v30x_eth.o

Discarded input sections

 .text          0x0000000000000000        0x0 ./User/ch32v30x_it.o
 .data          0x0000000000000000        0x0 ./User/ch32v30x_it.o
 .bss           0x0000000000000000        0x0 ./User/ch32v30x_it.o
 .text          0x0000000000000000        0x0 ./User/lcd.o
 .data          0x0000000000000000        0x0 ./User/lcd.o
 .bss           0x0000000000000000        0x0 ./User/lcd.o
 .text.lcd_write_cmd
                0x0000000000000000        0xa ./User/lcd.o
 .text.lcd_write_data
                0x0000000000000000        0xa ./User/lcd.o
 .text.lcd_read_reg
                0x0000000000000000       0x22 ./User/lcd.o
 .text.TIM1_PWMOut_Init
                0x0000000000000000       0xc2 ./User/lcd.o
 .text.lcd_set_color
                0x0000000000000000       0x12 ./User/lcd.o
 .text.lcd_display_on
                0x0000000000000000       0x12 ./User/lcd.o
Memory Configuration

Name             Origin             Length             Attributes
FLASH            0x0000000000000000 0x0000000000048000 xr
RAM              0x0000000020000000 0x0000000000008000 xrw
*default*        0x0000000000000000 0xffffffffffffffff

Linker script and memory map

LOAD ./User/ch32v30x_it.o
LOAD ./User/lcd.o
LOAD ./User/main.o
LOAD ./User/system_ch32v30x.o
LOAD ./Startup/startup_ch32v30x.o
LOAD ./Peripheral/src/ch32v30x_adc.o
LOAD ./Peripheral/src/ch32v30x_bkp.o
LOAD ./Peripheral/src/ch32v30x_can.o
LOAD ./Peripheral/src/ch32v30x_crc.o
LOAD ./Peripheral/src/ch32v30x_dac.o
LOAD ./Peripheral/src/ch32v30x_dbgmcu.o
LOAD ./Peripheral/src/ch32v30x_dma.o
LOAD ./Peripheral/src/ch32v30x_dvp.o
LOAD ./Peripheral/src/ch32v30x_eth.o
LOAD ./Peripheral/src/ch32v30x_exti.o
LOAD ./Peripheral/src/ch32v30x_flash.o
LOAD ./Peripheral/src/ch32v30x_fsmc.o
LOAD ./Peripheral/src/ch32v30x_gpio.o
LOAD ./Peripheral/src/ch32v30x_i2c.o
LOAD ./Peripheral/src/ch32v30x_iwdg.o
LOAD ./Peripheral/src/ch32v30x_misc.o
LOAD ./Peripheral/src/ch32v30x_opa.o
LOAD ./Peripheral/src/ch32v30x_pwr.o
LOAD ./Peripheral/src/ch32v30x_rcc.o
LOAD ./Peripheral/src/ch32v30x_rng.o
LOAD ./Peripheral/src/ch32v30x_rtc.o
LOAD ./Peripheral/src/ch32v30x_sdio.o
LOAD ./Peripheral/src/ch32v30x_spi.o
LOAD ./Peripheral/src/ch32v30x_tim.o
LOAD ./Peripheral/src/ch32v30x_usart.o
LOAD ./Peripheral/src/ch32v30x_wwdg.o
LOAD ./Debug/debug.o
LOAD ./Core/core_riscv.o
LOAD c:/mounriver/mounriver_studio/toolchain/risc-v embedded gcc/bin/../lib/gcc/riscv-none-embed/8.2.0/rv32imafc/ilp32f\libgcc.a
LOAD c:/mounriver/mounriver_studio/toolchain/risc-v embedded gcc/bin/../lib/gcc/riscv-none-embed/8.2.0/../../../../riscv-none-embed/lib/rv32imafc/ilp32f\libg_nano.a
LOAD c:/mounriver/mounriver_studio/toolchain/risc-v embedded gcc/bin/../lib/gcc/riscv-none-embed/8.2.0/../../../../riscv-none-embed/lib/rv32imafc/ilp32f\libc_nano.a
LOAD c:/mounriver/mounriver_studio/toolchain/risc-v embedded gcc/bin/../lib/gcc/riscv-none-embed/8.2.0/rv32imafc/ilp32f\libgcc.a
START GROUP
LOAD c:/mounriver/mounriver_studio/toolchain/risc-v embedded gcc/bin/../lib/gcc/riscv-none-embed/8.2.0/rv32imafc/ilp32f\libgcc.a
LOAD c:/mounriver/mounriver_studio/toolchain/risc-v embedded gcc/bin/../lib/gcc/riscv-none-embed/8.2.0/../../../../riscv-none-embed/lib/rv32imafc/ilp32f\libc_nano.a
LOAD c:/mounriver/mounriver_studio/toolchain/risc-v embedded gcc/bin/../lib/gcc/riscv-none-embed/8.2.0/../../../../riscv-none-embed/lib/rv32imafc/ilp32f\libnosys.a
END GROUP
START GROUP
LOAD c:/mounriver/mounriver_studio/toolchain/risc-v embedded gcc/bin/../lib/gcc/riscv-none-embed/8.2.0/rv32imafc/ilp32f\libgcc.a
LOAD c:/mounriver/mounriver_studio/toolchain/risc-v embedded gcc/bin/../lib/gcc/riscv-none-embed/8.2.0/../../../../riscv-none-embed/lib/rv32imafc/ilp32f\libc_nano.a
LOAD c:/mounriver/mounriver_studio/toolchain/risc-v embedded gcc/bin/../lib/gcc/riscv-none-embed/8.2.0/../../../../riscv-none-embed/lib/rv32imafc/ilp32f\libnosys.a
END GROUP
                0x0000000000000800                __stack_size = 0x800
                [!provide]                        PROVIDE (_stack_size = __stack_size)

.init           0x0000000000000000       0x38
                0x0000000000000000                _sinit = .
                0x0000000000000000                . = ALIGN (0x4)
 *(SORT_NONE(.init))
 .init          0x0000000000000000       0x38 ./Startup/startup_ch32v30x.o
                0x0000000000000000                _start
                0x0000000000000038                . = ALIGN (0x4)
                0x0000000000000038                _einit = .

.vector         0x0000000000000038      0x1c8
 *(.vector)
 .vector        0x0000000000000038      0x1a0 ./Startup/startup_ch32v30x.o
                0x0000000000000200                . = ALIGN (0x40)
 *fill*         0x00000000000001d8       0x28 

.text           0x0000000000000200     0x5be4
                0x0000000000000200                . = ALIGN (0x4)
 *(.text)
 .text          0x0000000000000200       0xa8 c:/mounriver/mounriver_studio/toolchain/risc-v embedded gcc/bin/../lib/gcc/riscv-none-embed/8.2.0/../../../../riscv-none-embed/lib/rv32imafc/ilp32f\libg_nano.a(lib_a-memset.o)
                0x0000000000000200                memset
 *(.text.*)
 .text.NMI_Handler
                0x00000000000002a8        0x4 ./User/ch32v30x_it.o
                0x00000000000002a8                NMI_Handler
 .text.HardFault_Handler
                0x00000000000002ac        0x2 ./User/ch32v30x_it.o
                0x00000000000002ac                HardFault_Handler
 .text.lcd_write_half_word
                0x00000000000002ae       0x16 ./User/lcd.o
                0x00000000000002ae                lcd_write_half_word
 .text.lcd_read_data
                0x00000000000002c4       0x1a ./User/lcd.o
                0x00000000000002c4                lcd_read_data
 .text.lcd_fsmc_init
                0x00000000000002de      0x138 ./User/lcd.o
                0x00000000000002de                lcd_fsmc_init
 .text.lcd_gpio_init
                0x0000000000000416       0x5a ./User/lcd.o
                0x0000000000000416                lcd_gpio_init
 .text.lcd_address_set
                0x0000000000000470       0x5e ./User/lcd.o
                0x0000000000000470                lcd_address_set
 .text.lcd_clear
                0x00000000000004ce       0x4c ./User/lcd.o
                0x00000000000004ce                lcd_clear
 .text.lcd_init
                0x000000000000051a      0x1dc ./User/lcd.o
                0x000000000000051a                lcd_init
 .text.lcd_fill
                0x00000000000006f6       0x4c ./User/lcd.o
                0x00000000000006f6                lcd_fill
 .text.lcd_show_char
                0x0000000000000742      0x1ac ./User/lcd.o
                0x0000000000000742                lcd_show_char
 .text.lcd_show_string
                0x00000000000008ee       0xca ./User/lcd.o
                0x00000000000008ee                lcd_show_string
 .text.Basic_Key_Handle
                0x00000000000009b8      0x10a ./User/main.o
                0x00000000000009b8                Basic_Key_Handle
 .text.creatsnake
                0x0000000000000ac2       0x48 ./User/main.o
                0x0000000000000ac2                creatsnake
 .text.printsnake
                0x0000000000000b0a       0x58 ./User/main.o
                0x0000000000000b0a                printsnake
 .text.movesnake
                0x0000000000000b62      0x192 ./User/main.o
                0x0000000000000b62                movesnake
 .text.creatfood
                0x0000000000000cf4       0x90 ./User/main.o
                0x0000000000000cf4                creatfood
 .text.eatfood  0x0000000000000d84       0x42 ./User/main.o
                0x0000000000000d84                eatfood
 .text.judge    0x0000000000000dc6       0x4e ./User/main.o
                0x0000000000000dc6                judge
 .text.startup.main
                0x0000000000000e14       0x80 ./User/main.o
                0x0000000000000e14                main
 .text.SystemInit
                0x0000000000000e94      0x10e ./User/system_ch32v30x.o
                0x0000000000000e94                SystemInit
 .text.vector_handler
                0x0000000000000fa2       0xbe ./Startup/startup_ch32v30x.o
                0x0000000000000fa6                Ecall_M_Mode_Handler
                0x0000000000000fa8                Ecall_U_Mode_Handler
                0x0000000000000faa                Break_Point_Handler
                0x0000000000000fac                SysTick_Handler
                0x0000000000000fae                SW_handler
                0x0000000000000fb0                WWDG_IRQHandler
                0x0000000000000fb2                PVD_IRQHandler
                0x0000000000000fb4                TAMPER_IRQHandler
                0x0000000000000fb6                RTC_IRQHandler
                0x0000000000000fb8                FLASH_IRQHandler
                0x0000000000000fba                RCC_IRQHandler
                0x0000000000000fbc                EXTI0_IRQHandler
                0x0000000000000fbe                EXTI1_IRQHandler
                0x0000000000000fc0                EXTI2_IRQHandler
                0x0000000000000fc2                EXTI3_IRQHandler
                0x0000000000000fc4                EXTI4_IRQHandler
                0x0000000000000fc6                DMA1_Channel1_IRQHandler
                0x0000000000000fc8                DMA1_Channel2_IRQHandler
                0x0000000000000fca                DMA1_Channel3_IRQHandler
                0x0000000000000fcc                DMA1_Channel4_IRQHandler
                0x0000000000000fce                DMA1_Channel5_IRQHandler
                0x0000000000000fd0                DMA1_Channel6_IRQHandler
                0x0000000000000fd2                DMA1_Channel7_IRQHandler
                0x0000000000000fd4                ADC1_2_IRQHandler
                0x0000000000000fd6                USB_HP_CAN1_TX_IRQHandler
                0x0000000000000fd8                USB_LP_CAN1_RX0_IRQHandler
                0x0000000000000fda                CAN1_RX1_IRQHandler
                0x0000000000000fdc                CAN1_SCE_IRQHandler
                0x0000000000000fde                EXTI9_5_IRQHandler
                0x0000000000000fe0                TIM1_BRK_IRQHandler
                0x0000000000000fe2                TIM1_UP_IRQHandler
                0x0000000000000fe4                TIM1_TRG_COM_IRQHandler
                0x0000000000000fe6                TIM1_CC_IRQHandler
                0x0000000000000fe8                TIM2_IRQHandler
                0x0000000000000fea                TIM3_IRQHandler
                0x0000000000000fec                TIM4_IRQHandler
                0x0000000000000fee                I2C1_EV_IRQHandler
                0x0000000000000ff0                I2C1_ER_IRQHandler
                0x0000000000000ff2                I2C2_EV_IRQHandler
                0x0000000000000ff4                I2C2_ER_IRQHandler
                0x0000000000000ff6                SPI1_IRQHandler
                0x0000000000000ff8                SPI2_IRQHandler
                0x0000000000000ffa                USART1_IRQHandler
                0x0000000000000ffc                USART2_IRQHandler
                0x0000000000000ffe                USART3_IRQHandler
                0x0000000000001000                EXTI15_10_IRQHandler
                0x0000000000001002                RTCAlarm_IRQHandler
                0x0000000000001004                USBWakeUp_IRQHandler
                0x0000000000001006                TIM8_BRK_IRQHandler
                0x0000000000001008                TIM8_UP_IRQHandler
                0x000000000000100a                TIM8_TRG_COM_IRQHandler
                0x000000000000100c                TIM8_CC_IRQHandler
                0x000000000000100e                RNG_IRQHandler
                0x0000000000001010                FSMC_IRQHandler
                0x0000000000001012                SDIO_IRQHandler
                0x0000000000001014                TIM5_IRQHandler
                0x0000000000001016                SPI3_IRQHandler
                0x0000000000001018                UART4_IRQHandler
                0x000000000000101a                UART5_IRQHandler
                0x000000000000101c                TIM6_IRQHandler
                0x000000000000101e                TIM7_IRQHandler
                0x0000000000001020                DMA2_Channel1_IRQHandler
                0x0000000000001022                DMA2_Channel2_IRQHandler
                0x0000000000001024                DMA2_Channel3_IRQHandler
                0x0000000000001026                DMA2_Channel4_IRQHandler
                0x0000000000001028                DMA2_Channel5_IRQHandler
                0x000000000000102a                ETH_IRQHandler
                0x000000000000102c                ETH_WKUP_IRQHandler
                0x000000000000102e                CAN2_TX_IRQHandler
                0x0000000000001030                CAN2_RX0_IRQHandler
                0x0000000000001032                CAN2_RX1_IRQHandler
                0x0000000000001034                CAN2_SCE_IRQHandler
                0x0000000000001036                OTG_FS_IRQHandler
                0x0000000000001038                USBHSWakeup_IRQHandler
                0x000000000000103a                USBHS_IRQHandler
                0x000000000000103c                DVP_IRQHandler
                0x000000000000103e                UART6_IRQHandler
                0x0000000000001040                UART7_IRQHandler
                0x0000000000001042                UART8_IRQHandler
                0x0000000000001044                TIM9_BRK_IRQHandler
                0x0000000000001046                TIM9_UP_IRQHandler
                0x0000000000001048                TIM9_TRG_COM_IRQHandler
                0x000000000000104a                TIM9_CC_IRQHandler
                0x000000000000104c                TIM10_BRK_IRQHandler
                0x000000000000104e                TIM10_UP_IRQHandler
                0x0000000000001050                TIM10_TRG_COM_IRQHandler
                0x0000000000001052                TIM10_CC_IRQHandler
                0x0000000000001054                DMA2_Channel6_IRQHandler
                0x0000000000001056                DMA2_Channel7_IRQHandler
                0x0000000000001058                DMA2_Channel8_IRQHandler
                0x000000000000105a                DMA2_Channel9_IRQHandler
                0x000000000000105c                DMA2_Channel10_IRQHandler
                0x000000000000105e                DMA2_Channel11_IRQHandler
 .text.handle_reset
                0x0000000000001060       0x8a ./Startup/startup_ch32v30x.o
                0x0000000000001060                handle_reset
 .text.FSMC_NORSRAMInit
                0x00000000000010ea       0xba ./Peripheral/src/ch32v30x_fsmc.o
                0x00000000000010ea                FSMC_NORSRAMInit
 .text.FSMC_NORSRAMCmd
                0x00000000000011a4       0x1e ./Peripheral/src/ch32v30x_fsmc.o
                0x00000000000011a4                FSMC_NORSRAMCmd
 .text.GPIO_Init
                0x00000000000011c2       0xc2 ./Peripheral/src/ch32v30x_gpio.o
                0x00000000000011c2                GPIO_Init
 .text.GPIO_ReadInputDataBit
                0x0000000000001284        0xa ./Peripheral/src/ch32v30x_gpio.o
                0x0000000000001284                GPIO_ReadInputDataBit
 .text.GPIO_SetBits
                0x000000000000128e        0x4 ./Peripheral/src/ch32v30x_gpio.o
                0x000000000000128e                GPIO_SetBits
 .text.GPIO_ResetBits
                0x0000000000001292        0x4 ./Peripheral/src/ch32v30x_gpio.o
                0x0000000000001292                GPIO_ResetBits
 .text.RCC_GetClocksFreq
                0x0000000000001296      0x10e ./Peripheral/src/ch32v30x_rcc.o
                0x0000000000001296                RCC_GetClocksFreq
 .text.RCC_AHBPeriphClockCmd
                0x00000000000013a4       0x1e ./Peripheral/src/ch32v30x_rcc.o
                0x00000000000013a4                RCC_AHBPeriphClockCmd
 .text.RCC_APB2PeriphClockCmd
                0x00000000000013c2       0x1e ./Peripheral/src/ch32v30x_rcc.o
                0x00000000000013c2                RCC_APB2PeriphClockCmd
 .text.RNG_Cmd  0x00000000000013e0       0x18 ./Peripheral/src/ch32v30x_rng.o
                0x00000000000013e0                RNG_Cmd
 .text.RNG_GetRandomNumber
                0x00000000000013f8        0xa ./Peripheral/src/ch32v30x_rng.o
                0x00000000000013f8                RNG_GetRandomNumber
 .text.USART_Init
                0x0000000000001402       0xd8 ./Peripheral/src/ch32v30x_usart.o
                0x0000000000001402                USART_Init
 .text.USART_Cmd
                0x00000000000014da       0x1c ./Peripheral/src/ch32v30x_usart.o
                0x00000000000014da                USART_Cmd
 .text.USART_SendData
                0x00000000000014f6        0xa ./Peripheral/src/ch32v30x_usart.o
                0x00000000000014f6                USART_SendData
 .text.USART_GetFlagStatus
                0x0000000000001500        0xc ./Peripheral/src/ch32v30x_usart.o
                0x0000000000001500                USART_GetFlagStatus
 .text.Delay_Init
                0x000000000000150c       0x2a ./Debug/debug.o
                0x000000000000150c                Delay_Init
 .text.Delay_Ms
                0x0000000000001536       0x2c ./Debug/debug.o
                0x0000000000001536                Delay_Ms
 .text.USART_Printf_Init
                0x0000000000001562       0x56 ./Debug/debug.o
                0x0000000000001562                USART_Printf_Init
 .text._write   0x00000000000015b8       0x4c ./Debug/debug.o
                0x00000000000015b8                _write
 .text.malloc   0x0000000000001604        0xa c:/mounriver/mounriver_studio/toolchain/risc-v embedded gcc/bin/../lib/gcc/riscv-none-embed/8.2.0/../../../../riscv-none-embed/lib/rv32imafc/ilp32f\libg_nano.a(lib_a-malloc.o)
                0x0000000000001604                malloc
 .text.free     0x000000000000160e        0xa c:/mounriver/mounriver_studio/toolchain/risc-v embedded gcc/bin/../lib/gcc/riscv-none-embed/8.2.0/../../../../riscv-none-embed/lib/rv32imafc/ilp32f\libg_nano.a(lib_a-malloc.o)
                0x000000000000160e                free
 .text._free_r  0x0000000000001618       0xa8 c:/mounriver/mounriver_studio/toolchain/risc-v embedded gcc/bin/../lib/gcc/riscv-none-embed/8.2.0/../../../../riscv-none-embed/lib/rv32imafc/ilp32f\libg_nano.a(lib_a-nano-freer.o)
                0x0000000000001618                _free_r
 .text._malloc_r
                0x00000000000016c0       0xd4 c:/mounriver/mounriver_studio/toolchain/risc-v embedded gcc/bin/../lib/gcc/riscv-none-embed/8.2.0/../../../../riscv-none-embed/lib/rv32imafc/ilp32f\libg_nano.a(lib_a-nano-mallocr.o)
                0x00000000000016c0                _malloc_r
 .text.printf   0x0000000000001794       0x40 c:/mounriver/mounriver_studio/toolchain/risc-v embedded gcc/bin/../lib/gcc/riscv-none-embed/8.2.0/../../../../riscv-none-embed/lib/rv32imafc/ilp32f\libg_nano.a(lib_a-printf.o)
                0x0000000000001794                iprintf
                0x0000000000001794                printf
 .text._puts_r  0x00000000000017d4       0xda c:/mounriver/mounriver_studio/toolchain/risc-v embedded gcc/bin/../lib/gcc/riscv-none-embed/8.2.0/../../../../riscv-none-embed/lib/rv32imafc/ilp32f\libg_nano.a(lib_a-puts.o)
                0x00000000000017d4                _puts_r
 .text.puts     0x00000000000018ae        0xa c:/mounriver/mounriver_studio/toolchain/risc-v embedded gcc/bin/../lib/gcc/riscv-none-embed/8.2.0/../../../../riscv-none-embed/lib/rv32imafc/ilp32f\libg_nano.a(lib_a-puts.o)
                0x00000000000018ae                puts
 .text._sbrk_r  0x00000000000018b8       0x2a c:/mounriver/mounriver_studio/toolchain/risc-v embedded gcc/bin/../lib/gcc/riscv-none-embed/8.2.0/../../../../riscv-none-embed/lib/rv32imafc/ilp32f\libg_nano.a(lib_a-sbrkr.o)
                0x00000000000018b8                _sbrk_r
 .text._vsnprintf_r
                0x00000000000018e2       0x60 c:/mounriver/mounriver_studio/toolchain/risc-v embedded gcc/bin/../lib/gcc/riscv-none-embed/8.2.0/../../../../riscv-none-embed/lib/rv32imafc/ilp32f\libg_nano.a(lib_a-vsnprintf.o)
                0x00000000000018e2                _vsniprintf_r
                0x00000000000018e2                _vsnprintf_r
 .text.vsnprintf
                0x0000000000001942       0x10 c:/mounriver/mounriver_studio/toolchain/risc-v embedded gcc/bin/../lib/gcc/riscv-none-embed/8.2.0/../../../../riscv-none-embed/lib/rv32imafc/ilp32f\libg_nano.a(lib_a-vsnprintf.o)
                0x0000000000001942                vsniprintf
                0x0000000000001942                vsnprintf
 .text.__swbuf_r
                0x0000000000001952       0xc0 c:/mounriver/mounriver_studio/toolchain/risc-v embedded gcc/bin/../lib/gcc/riscv-none-embed/8.2.0/../../../../riscv-none-embed/lib/rv32imafc/ilp32f\libg_nano.a(lib_a-wbuf.o)
                0x0000000000001952                __swbuf_r
 .text.__swsetup_r
                0x0000000000001a12      0x10c c:/mounriver/mounriver_studio/toolchain/risc-v embedded gcc/bin/../lib/gcc/riscv-none-embed/8.2.0/../../../../riscv-none-embed/lib/rv32imafc/ilp32f\libg_nano.a(lib_a-wsetup.o)
                0x0000000000001a12                __swsetup_r
 .text.__sflush_r
                0x0000000000001b1e      0x13e c:/mounriver/mounriver_studio/toolchain/risc-v embedded gcc/bin/../lib/gcc/riscv-none-embed/8.2.0/../../../../riscv-none-embed/lib/rv32imafc/ilp32f\libg_nano.a(lib_a-fflush.o)
                0x0000000000001b1e                __sflush_r
 .text._fflush_r
                0x0000000000001c5c       0x64 c:/mounriver/mounriver_studio/toolchain/risc-v embedded gcc/bin/../lib/gcc/riscv-none-embed/8.2.0/../../../../riscv-none-embed/lib/rv32imafc/ilp32f\libg_nano.a(lib_a-fflush.o)
                0x0000000000001c5c                _fflush_r
 .text.std      0x0000000000001cc0       0x6a c:/mounriver/mounriver_studio/toolchain/risc-v embedded gcc/bin/../lib/gcc/riscv-none-embed/8.2.0/../../../../riscv-none-embed/lib/rv32imafc/ilp32f\libg_nano.a(lib_a-findfp.o)
 .text._cleanup_r
                0x0000000000001d2a        0xa c:/mounriver/mounriver_studio/toolchain/risc-v embedded gcc/bin/../lib/gcc/riscv-none-embed/8.2.0/../../../../riscv-none-embed/lib/rv32imafc/ilp32f\libg_nano.a(lib_a-findfp.o)
                0x0000000000001d2a                _cleanup_r
 .text.__sfmoreglue
                0x0000000000001d34       0x48 c:/mounriver/mounriver_studio/toolchain/risc-v embedded gcc/bin/../lib/gcc/riscv-none-embed/8.2.0/../../../../riscv-none-embed/lib/rv32imafc/ilp32f\libg_nano.a(lib_a-findfp.o)
                0x0000000000001d34                __sfmoreglue
 .text.__sinit  0x0000000000001d7c       0x66 c:/mounriver/mounriver_studio/toolchain/risc-v embedded gcc/bin/../lib/gcc/riscv-none-embed/8.2.0/../../../../riscv-none-embed/lib/rv32imafc/ilp32f\libg_nano.a(lib_a-findfp.o)
                0x0000000000001d7c                __sinit
 .text.__sfp    0x0000000000001de2       0x9c c:/mounriver/mounriver_studio/toolchain/risc-v embedded gcc/bin/../lib/gcc/riscv-none-embed/8.2.0/../../../../riscv-none-embed/lib/rv32imafc/ilp32f\libg_nano.a(lib_a-findfp.o)
                0x0000000000001de2                __sfp
 .text._fwalk_reent
                0x0000000000001e7e       0x6c c:/mounriver/mounriver_studio/toolchain/risc-v embedded gcc/bin/../lib/gcc/riscv-none-embed/8.2.0/../../../../riscv-none-embed/lib/rv32imafc/ilp32f\libg_nano.a(lib_a-fwalk.o)
                0x0000000000001e7e                _fwalk_reent
 .text.__swhatbuf_r
                0x0000000000001eea       0x5a c:/mounriver/mounriver_studio/toolchain/risc-v embedded gcc/bin/../lib/gcc/riscv-none-embed/8.2.0/../../../../riscv-none-embed/lib/rv32imafc/ilp32f\libg_nano.a(lib_a-makebuf.o)
                0x0000000000001eea                __swhatbuf_r
 .text.__smakebuf_r
                0x0000000000001f44       0xa0 c:/mounriver/mounriver_studio/toolchain/risc-v embedded gcc/bin/../lib/gcc/riscv-none-embed/8.2.0/../../../../riscv-none-embed/lib/rv32imafc/ilp32f\libg_nano.a(lib_a-makebuf.o)
                0x0000000000001f44                __smakebuf_r
 .text.__malloc_lock
                0x0000000000001fe4        0x2 c:/mounriver/mounriver_studio/toolchain/risc-v embedded gcc/bin/../lib/gcc/riscv-none-embed/8.2.0/../../../../riscv-none-embed/lib/rv32imafc/ilp32f\libg_nano.a(lib_a-mlock.o)
                0x0000000000001fe4                __malloc_lock
 .text.__malloc_unlock
                0x0000000000001fe6        0x2 c:/mounriver/mounriver_studio/toolchain/risc-v embedded gcc/bin/../lib/gcc/riscv-none-embed/8.2.0/../../../../riscv-none-embed/lib/rv32imafc/ilp32f\libg_nano.a(lib_a-mlock.o)
                0x0000000000001fe6                __malloc_unlock
 .text.__ssputs_r
                0x0000000000001fe8       0xee c:/mounriver/mounriver_studio/toolchain/risc-v embedded gcc/bin/../lib/gcc/riscv-none-embed/8.2.0/../../../../riscv-none-embed/lib/rv32imafc/ilp32f\libg_nano.a(lib_a-nano-svfprintf.o)
                0x0000000000001fe8                __ssputs_r
 .text._svfprintf_r
                0x00000000000020d6      0x27e c:/mounriver/mounriver_studio/toolchain/risc-v embedded gcc/bin/../lib/gcc/riscv-none-embed/8.2.0/../../../../riscv-none-embed/lib/rv32imafc/ilp32f\libg_nano.a(lib_a-nano-svfprintf.o)
                0x00000000000020d6                _svfiprintf_r
                0x00000000000020d6                _svfprintf_r
 .text.__sfputc_r
                0x0000000000002354       0x2a c:/mounriver/mounriver_studio/toolchain/risc-v embedded gcc/bin/../lib/gcc/riscv-none-embed/8.2.0/../../../../riscv-none-embed/lib/rv32imafc/ilp32f\libg_nano.a(lib_a-nano-vfprintf.o)
 .text.__sfputs_r
                0x000000000000237e       0x42 c:/mounriver/mounriver_studio/toolchain/risc-v embedded gcc/bin/../lib/gcc/riscv-none-embed/8.2.0/../../../../riscv-none-embed/lib/rv32imafc/ilp32f\libg_nano.a(lib_a-nano-vfprintf.o)
                0x000000000000237e                __sfputs_r
 .text._vfprintf_r
                0x00000000000023c0      0x29a c:/mounriver/mounriver_studio/toolchain/risc-v embedded gcc/bin/../lib/gcc/riscv-none-embed/8.2.0/../../../../riscv-none-embed/lib/rv32imafc/ilp32f\libg_nano.a(lib_a-nano-vfprintf.o)
                0x00000000000023c0                _vfprintf_r
                0x00000000000023c0                _vfiprintf_r
 .text._printf_common
                0x000000000000265a      0x10c c:/mounriver/mounriver_studio/toolchain/risc-v embedded gcc/bin/../lib/gcc/riscv-none-embed/8.2.0/../../../../riscv-none-embed/lib/rv32imafc/ilp32f\libg_nano.a(lib_a-nano-vfprintf_i.o)
                0x000000000000265a                _printf_common
 .text._printf_i
                0x0000000000002766      0x2a8 c:/mounriver/mounriver_studio/toolchain/risc-v embedded gcc/bin/../lib/gcc/riscv-none-embed/8.2.0/../../../../riscv-none-embed/lib/rv32imafc/ilp32f\libg_nano.a(lib_a-nano-vfprintf_i.o)
                0x0000000000002766                _printf_i
 .text.__sread  0x0000000000002a0e       0x30 c:/mounriver/mounriver_studio/toolchain/risc-v embedded gcc/bin/../lib/gcc/riscv-none-embed/8.2.0/../../../../riscv-none-embed/lib/rv32imafc/ilp32f\libg_nano.a(lib_a-stdio.o)
                0x0000000000002a0e                __sread
 .text.__swrite
                0x0000000000002a3e       0x4e c:/mounriver/mounriver_studio/toolchain/risc-v embedded gcc/bin/../lib/gcc/riscv-none-embed/8.2.0/../../../../riscv-none-embed/lib/rv32imafc/ilp32f\libg_nano.a(lib_a-stdio.o)
                0x0000000000002a3e                __swrite
 .text.__sseek  0x0000000000002a8c       0x36 c:/mounriver/mounriver_studio/toolchain/risc-v embedded gcc/bin/../lib/gcc/riscv-none-embed/8.2.0/../../../../riscv-none-embed/lib/rv32imafc/ilp32f\libg_nano.a(lib_a-stdio.o)
                0x0000000000002a8c                __sseek
 .text.__sclose
                0x0000000000002ac2        0x6 c:/mounriver/mounriver_studio/toolchain/risc-v embedded gcc/bin/../lib/gcc/riscv-none-embed/8.2.0/../../../../riscv-none-embed/lib/rv32imafc/ilp32f\libg_nano.a(lib_a-stdio.o)
                0x0000000000002ac2                __sclose
 .text._write_r
                0x0000000000002ac8       0x2e c:/mounriver/mounriver_studio/toolchain/risc-v embedded gcc/bin/../lib/gcc/riscv-none-embed/8.2.0/../../../../riscv-none-embed/lib/rv32imafc/ilp32f\libg_nano.a(lib_a-writer.o)
                0x0000000000002ac8                _write_r
 .text._close_r
                0x0000000000002af6       0x28 c:/mounriver/mounriver_studio/toolchain/risc-v embedded gcc/bin/../lib/gcc/riscv-none-embed/8.2.0/../../../../riscv-none-embed/lib/rv32imafc/ilp32f\libg_nano.a(lib_a-closer.o)
                0x0000000000002af6                _close_r
 .text._fstat_r
                0x0000000000002b1e       0x2a c:/mounriver/mounriver_studio/toolchain/risc-v embedded gcc/bin/../lib/gcc/riscv-none-embed/8.2.0/../../../../riscv-none-embed/lib/rv32imafc/ilp32f\libg_nano.a(lib_a-fstatr.o)
                0x0000000000002b1e                _fstat_r
 .text._isatty_r
                0x0000000000002b48       0x28 c:/mounriver/mounriver_studio/toolchain/risc-v embedded gcc/bin/../lib/gcc/riscv-none-embed/8.2.0/../../../../riscv-none-embed/lib/rv32imafc/ilp32f\libg_nano.a(lib_a-isattyr.o)
                0x0000000000002b48                _isatty_r
 .text._lseek_r
                0x0000000000002b70       0x2c c:/mounriver/mounriver_studio/toolchain/risc-v embedded gcc/bin/../lib/gcc/riscv-none-embed/8.2.0/../../../../riscv-none-embed/lib/rv32imafc/ilp32f\libg_nano.a(lib_a-lseekr.o)
                0x0000000000002b70                _lseek_r
 .text.memchr   0x0000000000002b9c       0x1a c:/mounriver/mounriver_studio/toolchain/risc-v embedded gcc/bin/../lib/gcc/riscv-none-embed/8.2.0/../../../../riscv-none-embed/lib/rv32imafc/ilp32f\libg_nano.a(lib_a-memchr.o)
                0x0000000000002b9c                memchr
 .text.memcpy   0x0000000000002bb6       0xb6 c:/mounriver/mounriver_studio/toolchain/risc-v embedded gcc/bin/../lib/gcc/riscv-none-embed/8.2.0/../../../../riscv-none-embed/lib/rv32imafc/ilp32f\libg_nano.a(lib_a-memcpy.o)
                0x0000000000002bb6                memcpy
 .text.memmove  0x0000000000002c6c       0x4a c:/mounriver/mounriver_studio/toolchain/risc-v embedded gcc/bin/../lib/gcc/riscv-none-embed/8.2.0/../../../../riscv-none-embed/lib/rv32imafc/ilp32f\libg_nano.a(lib_a-memmove.o)
                0x0000000000002c6c                memmove
 .text._realloc_r
                0x0000000000002cb6       0x56 c:/mounriver/mounriver_studio/toolchain/risc-v embedded gcc/bin/../lib/gcc/riscv-none-embed/8.2.0/../../../../riscv-none-embed/lib/rv32imafc/ilp32f\libg_nano.a(lib_a-nano-reallocr.o)
                0x0000000000002cb6                _realloc_r
 .text._read_r  0x0000000000002d0c       0x2c c:/mounriver/mounriver_studio/toolchain/risc-v embedded gcc/bin/../lib/gcc/riscv-none-embed/8.2.0/../../../../riscv-none-embed/lib/rv32imafc/ilp32f\libg_nano.a(lib_a-readr.o)
                0x0000000000002d0c                _read_r
 .text._malloc_usable_size_r
                0x0000000000002d38       0x14 c:/mounriver/mounriver_studio/toolchain/risc-v embedded gcc/bin/../lib/gcc/riscv-none-embed/8.2.0/../../../../riscv-none-embed/lib/rv32imafc/ilp32f\libg_nano.a(lib_a-nano-msizer.o)
                0x0000000000002d38                _malloc_usable_size_r
 .text._close   0x0000000000002d4c        0xc c:/mounriver/mounriver_studio/toolchain/risc-v embedded gcc/bin/../lib/gcc/riscv-none-embed/8.2.0/../../../../riscv-none-embed/lib/rv32imafc/ilp32f\libnosys.a(close.o)
                0x0000000000002d4c                _close
 .text._fstat   0x0000000000002d58        0xc c:/mounriver/mounriver_studio/toolchain/risc-v embedded gcc/bin/../lib/gcc/riscv-none-embed/8.2.0/../../../../riscv-none-embed/lib/rv32imafc/ilp32f\libnosys.a(fstat.o)
                0x0000000000002d58                _fstat
 .text._isatty  0x0000000000002d64        0xc c:/mounriver/mounriver_studio/toolchain/risc-v embedded gcc/bin/../lib/gcc/riscv-none-embed/8.2.0/../../../../riscv-none-embed/lib/rv32imafc/ilp32f\libnosys.a(isatty.o)
                0x0000000000002d64                _isatty
 .text._lseek   0x0000000000002d70        0xc c:/mounriver/mounriver_studio/toolchain/risc-v embedded gcc/bin/../lib/gcc/riscv-none-embed/8.2.0/../../../../riscv-none-embed/lib/rv32imafc/ilp32f\libnosys.a(lseek.o)
                0x0000000000002d70                _lseek
 .text._read    0x0000000000002d7c        0xc c:/mounriver/mounriver_studio/toolchain/risc-v embedded gcc/bin/../lib/gcc/riscv-none-embed/8.2.0/../../../../riscv-none-embed/lib/rv32imafc/ilp32f\libnosys.a(read.o)
                0x0000000000002d7c                _read
 .text._sbrk    0x0000000000002d88       0x20 c:/mounriver/mounriver_studio/toolchain/risc-v embedded gcc/bin/../lib/gcc/riscv-none-embed/8.2.0/../../../../riscv-none-embed/lib/rv32imafc/ilp32f\libnosys.a(sbrk.o)
                0x0000000000002d88                _sbrk
 *(.rodata)
 *(.rodata*)
 *fill*         0x0000000000002da8        0x0 
 .rodata.asc2_1608
                0x0000000000002da8      0x5e0 ./User/lcd.o
                0x0000000000002da8                asc2_1608
 .rodata.asc2_2412
                0x0000000000003388     0x11a0 ./User/lcd.o
                0x0000000000003388                asc2_2412
 .rodata.asc2_3216
                0x0000000000004528     0x1780 ./User/lcd.o
                0x0000000000004528                asc2_3216
 .rodata.lcd_init.str1.4
                0x0000000000005ca8        0xa ./User/lcd.o
 *fill*         0x0000000000005cb2        0x2 
 .rodata.lcd_show_char.str1.4
                0x0000000000005cb4       0x4a ./User/lcd.o
 *fill*         0x0000000000005cfe        0x2 
 .rodata.lcd_show_string.str1.4
                0x0000000000005d00       0x1e ./User/lcd.o
 *fill*         0x0000000000005d1e        0x2 
 .rodata.main.str1.4
                0x0000000000005d20       0x26 ./User/main.o
 *fill*         0x0000000000005d46        0x2 
 .rodata.__sf_fake_stderr
                0x0000000000005d48       0x20 c:/mounriver/mounriver_studio/toolchain/risc-v embedded gcc/bin/../lib/gcc/riscv-none-embed/8.2.0/../../../../riscv-none-embed/lib/rv32imafc/ilp32f\libg_nano.a(lib_a-findfp.o)
                0x0000000000005d48                __sf_fake_stderr
 .rodata.__sf_fake_stdin
                0x0000000000005d68       0x20 c:/mounriver/mounriver_studio/toolchain/risc-v embedded gcc/bin/../lib/gcc/riscv-none-embed/8.2.0/../../../../riscv-none-embed/lib/rv32imafc/ilp32f\libg_nano.a(lib_a-findfp.o)
                0x0000000000005d68                __sf_fake_stdin
 .rodata.__sf_fake_stdout
                0x0000000000005d88       0x20 c:/mounriver/mounriver_studio/toolchain/risc-v embedded gcc/bin/../lib/gcc/riscv-none-embed/8.2.0/../../../../riscv-none-embed/lib/rv32imafc/ilp32f\libg_nano.a(lib_a-findfp.o)
                0x0000000000005d88                __sf_fake_stdout
 .rodata._svfprintf_r.str1.4
                0x0000000000005da8       0x13 c:/mounriver/mounriver_studio/toolchain/risc-v embedded gcc/bin/../lib/gcc/riscv-none-embed/8.2.0/../../../../riscv-none-embed/lib/rv32imafc/ilp32f\libg_nano.a(lib_a-nano-svfprintf.o)
 .rodata._vfprintf_r.str1.4
                0x0000000000005dbb       0x13 c:/mounriver/mounriver_studio/toolchain/risc-v embedded gcc/bin/../lib/gcc/riscv-none-embed/8.2.0/../../../../riscv-none-embed/lib/rv32imafc/ilp32f\libg_nano.a(lib_a-nano-vfprintf.o)
 *fill*         0x0000000000005dbb        0x1 
 .rodata._printf_i.str1.4
                0x0000000000005dbc       0x28 c:/mounriver/mounriver_studio/toolchain/risc-v embedded gcc/bin/../lib/gcc/riscv-none-embed/8.2.0/../../../../riscv-none-embed/lib/rv32imafc/ilp32f\libg_nano.a(lib_a-nano-vfprintf_i.o)
                                         0x25 (size before relaxing)
 *(.glue_7)
 *(.glue_7t)
 *(.gnu.linkonce.t.*)
                0x0000000000005de4                . = ALIGN (0x4)

.rela.dyn       0x0000000000005de4        0x0
 .rela.text.creatsnake
                0x0000000000005de4        0x0 ./User/ch32v30x_it.o
 .rela.text.printsnake
                0x0000000000005de4        0x0 ./User/ch32v30x_it.o
 .rela.text.movesnake
                0x0000000000005de4        0x0 ./User/ch32v30x_it.o
 .rela.text.creatfood
                0x0000000000005de4        0x0 ./User/ch32v30x_it.o
 .rela.text.eatfood
                0x0000000000005de4        0x0 ./User/ch32v30x_it.o
 .rela.text.judge
                0x0000000000005de4        0x0 ./User/ch32v30x_it.o
 .rela.init     0x0000000000005de4        0x0 ./User/ch32v30x_it.o
 .rela.vector   0x0000000000005de4        0x0 ./User/ch32v30x_it.o
 .rela.text.handle_reset
                0x0000000000005de4        0x0 ./User/ch32v30x_it.o
 .rela.text._sbrk_r
                0x0000000000005de4        0x0 ./User/ch32v30x_it.o
 .rela.text._svfprintf_r
                0x0000000000005de4        0x0 ./User/ch32v30x_it.o
 .rela.text._vfprintf_r
                0x0000000000005de4        0x0 ./User/ch32v30x_it.o
 .rela.text._write_r
                0x0000000000005de4        0x0 ./User/ch32v30x_it.o
 .rela.text._close_r
                0x0000000000005de4        0x0 ./User/ch32v30x_it.o
 .rela.text._fstat_r
                0x0000000000005de4        0x0 ./User/ch32v30x_it.o
 .rela.text._isatty_r
                0x0000000000005de4        0x0 ./User/ch32v30x_it.o
 .rela.text._lseek_r
                0x0000000000005de4        0x0 ./User/ch32v30x_it.o
 .rela.text._read_r
                0x0000000000005de4        0x0 ./User/ch32v30x_it.o
 .rela.text._close
                0x0000000000005de4        0x0 ./User/ch32v30x_it.o
 .rela.text._fstat
                0x0000000000005de4        0x0 ./User/ch32v30x_it.o
 .rela.text._isatty
                0x0000000000005de4        0x0 ./User/ch32v30x_it.o
 .rela.text._lseek
                0x0000000000005de4        0x0 ./User/ch32v30x_it.o
 .rela.text._read
                0x0000000000005de4        0x0 ./User/ch32v30x_it.o
 .rela.text._sbrk
                0x0000000000005de4        0x0 ./User/ch32v30x_it.o

.fini           0x0000000000005de4        0x0
 *(SORT_NONE(.fini))
                0x0000000000005de4                . = ALIGN (0x4)
                [!provide]                        PROVIDE (_etext = .)
                [!provide]                        PROVIDE (_eitcm = .)

.preinit_array  0x0000000000005de4        0x0
                [!provide]                        PROVIDE (__preinit_array_start = .)
 *(.preinit_array)
                [!provide]                        PROVIDE (__preinit_array_end = .)

.init_array     0x0000000000005de4        0x0
                [!provide]                        PROVIDE (__init_array_start = .)
 *(SORT_BY_INIT_PRIORITY(.init_array.*) SORT_BY_INIT_PRIORITY(.ctors.*))
 *(.init_array EXCLUDE_FILE(*crtend?.o *crtend.o *crtbegin?.o *crtbegin.o) .ctors)
                [!provide]                        PROVIDE (__init_array_end = .)

.fini_array     0x0000000000005de4        0x0
                [!provide]                        PROVIDE (__fini_array_start = .)
 *(SORT_BY_INIT_PRIORITY(.fini_array.*) SORT_BY_INIT_PRIORITY(.dtors.*))
 *(.fini_array EXCLUDE_FILE(*crtend?.o *crtend.o *crtbegin?.o *crtbegin.o) .dtors)
                [!provide]                        PROVIDE (__fini_array_end = .)

.ctors
 *crtbegin.o(.ctors)
 *crtbegin?.o(.ctors)
 *(EXCLUDE_FILE(*crtend?.o *crtend.o) .ctors)
 *(SORT_BY_NAME(.ctors.*))
 *(.ctors)

.dtors
 *crtbegin.o(.dtors)
 *crtbegin?.o(.dtors)
 *(EXCLUDE_FILE(*crtend?.o *crtend.o) .dtors)
 *(SORT_BY_NAME(.dtors.*))
 *(.dtors)

.dalign         0x0000000020000000        0x0 load address 0x0000000000005de4
                0x0000000020000000                . = ALIGN (0x4)
                0x0000000020000000                PROVIDE (_data_vma = .)

.dlalign        0x0000000000005de4        0x0
                0x0000000000005de4                . = ALIGN (0x4)
                0x0000000000005de4                PROVIDE (_data_lma = .)

.data           0x0000000020000000       0x88 load address 0x0000000000005de4
 *(.gnu.linkonce.r.*)
 *(.data .data.*)
 .data.APBAHBPrescTable
                0x0000000020000000       0x10 ./Peripheral/src/ch32v30x_rcc.o
 .data.impure_data
                0x0000000020000010       0x60 c:/mounriver/mounriver_studio/toolchain/risc-v embedded gcc/bin/../lib/gcc/riscv-none-embed/8.2.0/../../../../riscv-none-embed/lib/rv32imafc/ilp32f\libg_nano.a(lib_a-impure.o)
 *(.gnu.linkonce.d.*)
                0x0000000020000070                . = ALIGN (0x8)
                0x0000000020000870                PROVIDE (__global_pointer$ = (. + 0x800))
 *(.sdata .sdata.*)
 .sdata.FORE_COLOR
                0x0000000020000070        0x2 ./User/lcd.o
                0x0000000020000070                FORE_COLOR
 *fill*         0x0000000020000072        0x2 
 .sdata.SystemCoreClock
                0x0000000020000074        0x4 ./User/system_ch32v30x.o
                0x0000000020000074                SystemCoreClock
 .sdata.ADCPrescTable
                0x0000000020000078        0x4 ./Peripheral/src/ch32v30x_rcc.o
 .sdata._impure_ptr
                0x000000002000007c        0x4 c:/mounriver/mounriver_studio/toolchain/risc-v embedded gcc/bin/../lib/gcc/riscv-none-embed/8.2.0/../../../../riscv-none-embed/lib/rv32imafc/ilp32f\libg_nano.a(lib_a-impure.o)
                0x000000002000007c                _impure_ptr
 *(.sdata2.*)
 .sdata2._global_impure_ptr
                0x0000000020000080        0x4 c:/mounriver/mounriver_studio/toolchain/risc-v embedded gcc/bin/../lib/gcc/riscv-none-embed/8.2.0/../../../../riscv-none-embed/lib/rv32imafc/ilp32f\libg_nano.a(lib_a-impure.o)
                0x0000000020000080                _global_impure_ptr
 *(.gnu.linkonce.s.*)
                0x0000000020000088                . = ALIGN (0x8)
 *fill*         0x0000000020000084        0x4 
 *(.srodata.cst16)
 *(.srodata.cst8)
 *(.srodata.cst4)
 *(.srodata.cst2)
 *(.srodata .srodata.*)
                0x0000000020000088                . = ALIGN (0x4)
                0x0000000020000088                PROVIDE (_edata = .)

.bss            0x0000000020000088       0x24 load address 0x0000000000005e6c
                0x0000000020000088                . = ALIGN (0x4)
                0x0000000020000088                PROVIDE (_sbss = .)
 *(.sbss*)
 .sbss.BACK_COLOR
                0x0000000020000088        0x2 ./User/lcd.o
                0x0000000020000088                BACK_COLOR
 .sbss.dir      0x000000002000008a        0x1 ./User/main.o
                0x000000002000008a                dir
 .sbss.key      0x000000002000008b        0x1 ./User/main.o
                0x000000002000008b                key
 .sbss.p_ms     0x000000002000008c        0x2 ./Debug/debug.o
 .sbss.p_us     0x000000002000008e        0x1 ./Debug/debug.o
 *fill*         0x000000002000008f        0x1 
 .sbss.__malloc_free_list
                0x0000000020000090        0x4 c:/mounriver/mounriver_studio/toolchain/risc-v embedded gcc/bin/../lib/gcc/riscv-none-embed/8.2.0/../../../../riscv-none-embed/lib/rv32imafc/ilp32f\libg_nano.a(lib_a-nano-mallocr.o)
                0x0000000020000090                __malloc_free_list
 .sbss.__malloc_sbrk_start
                0x0000000020000094        0x4 c:/mounriver/mounriver_studio/toolchain/risc-v embedded gcc/bin/../lib/gcc/riscv-none-embed/8.2.0/../../../../riscv-none-embed/lib/rv32imafc/ilp32f\libg_nano.a(lib_a-nano-mallocr.o)
                0x0000000020000094                __malloc_sbrk_start
 .sbss.heap_end.1520
                0x0000000020000098        0x4 c:/mounriver/mounriver_studio/toolchain/risc-v embedded gcc/bin/../lib/gcc/riscv-none-embed/8.2.0/../../../../riscv-none-embed/lib/rv32imafc/ilp32f\libnosys.a(sbrk.o)
 *(.gnu.linkonce.sb.*)
 *(.bss*)
 *(.gnu.linkonce.b.*)
 *(COMMON*)
 COMMON         0x000000002000009c        0xc ./User/main.o
                0x000000002000009c                food
                0x00000000200000a4                head
 COMMON         0x00000000200000a8        0x4 c:/mounriver/mounriver_studio/toolchain/risc-v embedded gcc/bin/../lib/gcc/riscv-none-embed/8.2.0/../../../../riscv-none-embed/lib/rv32imafc/ilp32f\libg_nano.a(lib_a-reent.o)
                0x00000000200000a8                errno
                0x00000000200000ac                . = ALIGN (0x4)
                0x00000000200000ac                PROVIDE (_ebss = .)
                [!provide]                        PROVIDE (_end = _ebss)
                0x00000000200000ac                PROVIDE (end = .)

.stack          0x0000000020007800      0x800
                0x0000000020007800                . = ALIGN (0x4)
                [!provide]                        PROVIDE (_susrstack = .)
                0x0000000020008000                . = (. + __stack_size)
 *fill*         0x0000000020007800      0x800 
                0x0000000020008000                PROVIDE (_eusrstack = .)
OUTPUT(snake_ex.elf elf32-littleriscv)

.debug_info     0x0000000000000000     0xb895
 .debug_info    0x0000000000000000      0x962 ./User/ch32v30x_it.o
 .debug_info    0x0000000000000962     0x2a42 ./User/lcd.o
 .debug_info    0x00000000000033a4     0x131f ./User/main.o
 .debug_info    0x00000000000046c3      0xc0a ./User/system_ch32v30x.o
 .debug_info    0x00000000000052cd       0x22 ./Startup/startup_ch32v30x.o
 .debug_info    0x00000000000052ef     0x1209 ./Peripheral/src/ch32v30x_fsmc.o
 .debug_info    0x00000000000064f8     0x10c3 ./Peripheral/src/ch32v30x_gpio.o
 .debug_info    0x00000000000075bb     0x1557 ./Peripheral/src/ch32v30x_rcc.o
 .debug_info    0x0000000000008b12      0xb02 ./Peripheral/src/ch32v30x_rng.o
 .debug_info    0x0000000000009614     0x13d1 ./Peripheral/src/ch32v30x_usart.o
 .debug_info    0x000000000000a9e5      0xeb0 ./Debug/debug.o

.debug_abbrev   0x0000000000000000     0x1f20
 .debug_abbrev  0x0000000000000000      0x1cf ./User/ch32v30x_it.o
 .debug_abbrev  0x00000000000001cf      0x496 ./User/lcd.o
 .debug_abbrev  0x0000000000000665      0x3bb ./User/main.o
 .debug_abbrev  0x0000000000000a20      0x2c0 ./User/system_ch32v30x.o
 .debug_abbrev  0x0000000000000ce0       0x12 ./Startup/startup_ch32v30x.o
 .debug_abbrev  0x0000000000000cf2      0x2e2 ./Peripheral/src/ch32v30x_fsmc.o
 .debug_abbrev  0x0000000000000fd4      0x31a ./Peripheral/src/ch32v30x_gpio.o
 .debug_abbrev  0x00000000000012ee      0x351 ./Peripheral/src/ch32v30x_rcc.o
 .debug_abbrev  0x000000000000163f      0x2c8 ./Peripheral/src/ch32v30x_rng.o
 .debug_abbrev  0x0000000000001907      0x325 ./Peripheral/src/ch32v30x_usart.o
 .debug_abbrev  0x0000000000001c2c      0x2f4 ./Debug/debug.o

.debug_aranges  0x0000000000000000      0x650
 .debug_aranges
                0x0000000000000000       0x28 ./User/ch32v30x_it.o
 .debug_aranges
                0x0000000000000028       0xe8 ./User/lcd.o
 .debug_aranges
                0x0000000000000110       0x60 ./User/main.o
 .debug_aranges
                0x0000000000000170       0x28 ./User/system_ch32v30x.o
 .debug_aranges
                0x0000000000000198       0x30 ./Startup/startup_ch32v30x.o
 .debug_aranges
                0x00000000000001c8       0xb0 ./Peripheral/src/ch32v30x_fsmc.o
 .debug_aranges
                0x0000000000000278       0xa8 ./Peripheral/src/ch32v30x_gpio.o
 .debug_aranges
                0x0000000000000320      0x1a8 ./Peripheral/src/ch32v30x_rcc.o
 .debug_aranges
                0x00000000000004c8       0x48 ./Peripheral/src/ch32v30x_rng.o
 .debug_aranges
                0x0000000000000510      0x100 ./Peripheral/src/ch32v30x_usart.o
 .debug_aranges
                0x0000000000000610       0x40 ./Debug/debug.o

.debug_ranges   0x0000000000000000      0x6b8
 .debug_ranges  0x0000000000000000       0x18 ./User/ch32v30x_it.o
 .debug_ranges  0x0000000000000018      0x158 ./User/lcd.o
 .debug_ranges  0x0000000000000170       0xc0 ./User/main.o
 .debug_ranges  0x0000000000000230       0x38 ./User/system_ch32v30x.o
 .debug_ranges  0x0000000000000268       0x28 ./Startup/startup_ch32v30x.o
 .debug_ranges  0x0000000000000290       0xa0 ./Peripheral/src/ch32v30x_fsmc.o
 .debug_ranges  0x0000000000000330       0x98 ./Peripheral/src/ch32v30x_gpio.o
 .debug_ranges  0x00000000000003c8      0x198 ./Peripheral/src/ch32v30x_rcc.o
 .debug_ranges  0x0000000000000560       0x38 ./Peripheral/src/ch32v30x_rng.o
 .debug_ranges  0x0000000000000598       0xf0 ./Peripheral/src/ch32v30x_usart.o
 .debug_ranges  0x0000000000000688       0x30 ./Debug/debug.o

.debug_line     0x0000000000000000     0x9250
 .debug_line    0x0000000000000000      0x225 ./User/ch32v30x_it.o
 .debug_line    0x0000000000000225     0x23c4 ./User/lcd.o
 .debug_line    0x00000000000025e9      0xf20 ./User/main.o
 .debug_line    0x0000000000003509      0x7a3 ./User/system_ch32v30x.o
 .debug_line    0x0000000000003cac      0x352 ./Startup/startup_ch32v30x.o
 .debug_line    0x0000000000003ffe     0x130a ./Peripheral/src/ch32v30x_fsmc.o
 .debug_line    0x0000000000005308      0xd39 ./Peripheral/src/ch32v30x_gpio.o
 .debug_line    0x0000000000006041     0x1791 ./Peripheral/src/ch32v30x_rcc.o
 .debug_line    0x00000000000077d2      0x417 ./Peripheral/src/ch32v30x_rng.o
 .debug_line    0x0000000000007be9     0x1035 ./Peripheral/src/ch32v30x_usart.o
 .debug_line    0x0000000000008c1e      0x632 ./Debug/debug.o

.debug_str      0x0000000000000000     0x219f
 .debug_str     0x0000000000000000      0x53c ./User/ch32v30x_it.o
                                        0x5a3 (size before relaxing)
 .debug_str     0x000000000000053c      0x95e ./User/lcd.o
                                        0xf1a (size before relaxing)
 .debug_str     0x0000000000000e9a      0x105 ./User/main.o
                                        0x87e (size before relaxing)
 .debug_str     0x0000000000000f9f      0x127 ./User/system_ch32v30x.o
                                        0x6da (size before relaxing)
 .debug_str     0x00000000000010c6       0x2a ./Startup/startup_ch32v30x.o
                                         0x5c (size before relaxing)
 .debug_str     0x00000000000010f0      0x3d2 ./Peripheral/src/ch32v30x_fsmc.o
                                        0xb95 (size before relaxing)
 .debug_str     0x00000000000014c2      0x21d ./Peripheral/src/ch32v30x_gpio.o
                                        0x95e (size before relaxing)
 .debug_str     0x00000000000016df      0x5ca ./Peripheral/src/ch32v30x_rcc.o
                                        0xcae (size before relaxing)
 .debug_str     0x0000000000001ca9       0x90 ./Peripheral/src/ch32v30x_rng.o
                                        0x679 (size before relaxing)
 .debug_str     0x0000000000001d39      0x416 ./Peripheral/src/ch32v30x_usart.o
                                        0xb04 (size before relaxing)
 .debug_str     0x000000000000214f       0x50 ./Debug/debug.o
                                        0x8c1 (size before relaxing)

.comment        0x0000000000000000       0x33
 .comment       0x0000000000000000       0x33 ./User/ch32v30x_it.o
                                         0x34 (size before relaxing)
 .comment       0x0000000000000033       0x34 ./User/lcd.o
 .comment       0x0000000000000033       0x34 ./User/main.o
 .comment       0x0000000000000033       0x34 ./User/system_ch32v30x.o
 .comment       0x0000000000000033       0x34 ./Peripheral/src/ch32v30x_fsmc.o
 .comment       0x0000000000000033       0x34 ./Peripheral/src/ch32v30x_gpio.o
 .comment       0x0000000000000033       0x34 ./Peripheral/src/ch32v30x_rcc.o
 .comment       0x0000000000000033       0x34 ./Peripheral/src/ch32v30x_rng.o
 .comment       0x0000000000000033       0x34 ./Peripheral/src/ch32v30x_usart.o
 .comment       0x0000000000000033       0x34 ./Debug/debug.o

.debug_frame    0x0000000000000000     0x19d8
 .debug_frame   0x0000000000000000       0x30 ./User/ch32v30x_it.o
 .debug_frame   0x0000000000000030      0x3dc ./User/lcd.o
 .debug_frame   0x000000000000040c      0x170 ./User/main.o
 .debug_frame   0x000000000000057c       0x3c ./User/system_ch32v30x.o
 .debug_frame   0x00000000000005b8      0x140 ./Peripheral/src/ch32v30x_fsmc.o
 .debug_frame   0x00000000000006f8      0x150 ./Peripheral/src/ch32v30x_gpio.o
 .debug_frame   0x0000000000000848      0x340 ./Peripheral/src/ch32v30x_rcc.o
 .debug_frame   0x0000000000000b88       0x80 ./Peripheral/src/ch32v30x_rng.o
 .debug_frame   0x0000000000000c08      0x210 ./Peripheral/src/ch32v30x_usart.o
 .debug_frame   0x0000000000000e18       0x94 ./Debug/debug.o
 .debug_frame   0x0000000000000eac       0x30 c:/mounriver/mounriver_studio/toolchain/risc-v embedded gcc/bin/../lib/gcc/riscv-none-embed/8.2.0/../../../../riscv-none-embed/lib/rv32imafc/ilp32f\libg_nano.a(lib_a-malloc.o)
 .debug_frame   0x0000000000000edc       0x40 c:/mounriver/mounriver_studio/toolchain/risc-v embedded gcc/bin/../lib/gcc/riscv-none-embed/8.2.0/../../../../riscv-none-embed/lib/rv32imafc/ilp32f\libg_nano.a(lib_a-nano-freer.o)
 .debug_frame   0x0000000000000f1c       0x40 c:/mounriver/mounriver_studio/toolchain/risc-v embedded gcc/bin/../lib/gcc/riscv-none-embed/8.2.0/../../../../riscv-none-embed/lib/rv32imafc/ilp32f\libg_nano.a(lib_a-nano-mallocr.o)
 .debug_frame   0x0000000000000f5c       0x54 c:/mounriver/mounriver_studio/toolchain/risc-v embedded gcc/bin/../lib/gcc/riscv-none-embed/8.2.0/../../../../riscv-none-embed/lib/rv32imafc/ilp32f\libg_nano.a(lib_a-printf.o)
 .debug_frame   0x0000000000000fb0       0x54 c:/mounriver/mounriver_studio/toolchain/risc-v embedded gcc/bin/../lib/gcc/riscv-none-embed/8.2.0/../../../../riscv-none-embed/lib/rv32imafc/ilp32f\libg_nano.a(lib_a-puts.o)
 .debug_frame   0x0000000000001004       0x30 c:/mounriver/mounriver_studio/toolchain/risc-v embedded gcc/bin/../lib/gcc/riscv-none-embed/8.2.0/../../../../riscv-none-embed/lib/rv32imafc/ilp32f\libg_nano.a(lib_a-sbrkr.o)
 .debug_frame   0x0000000000001034       0x48 c:/mounriver/mounriver_studio/toolchain/risc-v embedded gcc/bin/../lib/gcc/riscv-none-embed/8.2.0/../../../../riscv-none-embed/lib/rv32imafc/ilp32f\libg_nano.a(lib_a-vsnprintf.o)
 .debug_frame   0x000000000000107c       0x50 c:/mounriver/mounriver_studio/toolchain/risc-v embedded gcc/bin/../lib/gcc/riscv-none-embed/8.2.0/../../../../riscv-none-embed/lib/rv32imafc/ilp32f\libg_nano.a(lib_a-wbuf.o)
 .debug_frame   0x00000000000010cc       0x3c c:/mounriver/mounriver_studio/toolchain/risc-v embedded gcc/bin/../lib/gcc/riscv-none-embed/8.2.0/../../../../riscv-none-embed/lib/rv32imafc/ilp32f\libg_nano.a(lib_a-wsetup.o)
 .debug_frame   0x0000000000001108       0x7c c:/mounriver/mounriver_studio/toolchain/risc-v embedded gcc/bin/../lib/gcc/riscv-none-embed/8.2.0/../../../../riscv-none-embed/lib/rv32imafc/ilp32f\libg_nano.a(lib_a-fflush.o)
 .debug_frame   0x0000000000001184      0x148 c:/mounriver/mounriver_studio/toolchain/risc-v embedded gcc/bin/../lib/gcc/riscv-none-embed/8.2.0/../../../../riscv-none-embed/lib/rv32imafc/ilp32f\libg_nano.a(lib_a-findfp.o)
 .debug_frame   0x00000000000012cc       0x88 c:/mounriver/mounriver_studio/toolchain/risc-v embedded gcc/bin/../lib/gcc/riscv-none-embed/8.2.0/../../../../riscv-none-embed/lib/rv32imafc/ilp32f\libg_nano.a(lib_a-fwalk.o)
 .debug_frame   0x0000000000001354       0x64 c:/mounriver/mounriver_studio/toolchain/risc-v embedded gcc/bin/../lib/gcc/riscv-none-embed/8.2.0/../../../../riscv-none-embed/lib/rv32imafc/ilp32f\libg_nano.a(lib_a-makebuf.o)
 .debug_frame   0x00000000000013b8       0x30 c:/mounriver/mounriver_studio/toolchain/risc-v embedded gcc/bin/../lib/gcc/riscv-none-embed/8.2.0/../../../../riscv-none-embed/lib/rv32imafc/ilp32f\libg_nano.a(lib_a-mlock.o)
 .debug_frame   0x00000000000013e8       0xe0 c:/mounriver/mounriver_studio/toolchain/risc-v embedded gcc/bin/../lib/gcc/riscv-none-embed/8.2.0/../../../../riscv-none-embed/lib/rv32imafc/ilp32f\libg_nano.a(lib_a-nano-svfprintf.o)
 .debug_frame   0x00000000000014c8       0xd0 c:/mounriver/mounriver_studio/toolchain/risc-v embedded gcc/bin/../lib/gcc/riscv-none-embed/8.2.0/../../../../riscv-none-embed/lib/rv32imafc/ilp32f\libg_nano.a(lib_a-nano-vfprintf.o)
 .debug_frame   0x0000000000001598       0x8c c:/mounriver/mounriver_studio/toolchain/risc-v embedded gcc/bin/../lib/gcc/riscv-none-embed/8.2.0/../../../../riscv-none-embed/lib/rv32imafc/ilp32f\libg_nano.a(lib_a-nano-vfprintf_i.o)
 .debug_frame   0x0000000000001624       0x70 c:/mounriver/mounriver_studio/toolchain/risc-v embedded gcc/bin/../lib/gcc/riscv-none-embed/8.2.0/../../../../riscv-none-embed/lib/rv32imafc/ilp32f\libg_nano.a(lib_a-reent.o)
 .debug_frame   0x0000000000001694       0xa4 c:/mounriver/mounriver_studio/toolchain/risc-v embedded gcc/bin/../lib/gcc/riscv-none-embed/8.2.0/../../../../riscv-none-embed/lib/rv32imafc/ilp32f\libg_nano.a(lib_a-stdio.o)
 .debug_frame   0x0000000000001738       0x30 c:/mounriver/mounriver_studio/toolchain/risc-v embedded gcc/bin/../lib/gcc/riscv-none-embed/8.2.0/../../../../riscv-none-embed/lib/rv32imafc/ilp32f\libg_nano.a(lib_a-writer.o)
 .debug_frame   0x0000000000001768       0x30 c:/mounriver/mounriver_studio/toolchain/risc-v embedded gcc/bin/../lib/gcc/riscv-none-embed/8.2.0/../../../../riscv-none-embed/lib/rv32imafc/ilp32f\libg_nano.a(lib_a-closer.o)
 .debug_frame   0x0000000000001798       0x30 c:/mounriver/mounriver_studio/toolchain/risc-v embedded gcc/bin/../lib/gcc/riscv-none-embed/8.2.0/../../../../riscv-none-embed/lib/rv32imafc/ilp32f\libg_nano.a(lib_a-fstatr.o)
 .debug_frame   0x00000000000017c8       0x30 c:/mounriver/mounriver_studio/toolchain/risc-v embedded gcc/bin/../lib/gcc/riscv-none-embed/8.2.0/../../../../riscv-none-embed/lib/rv32imafc/ilp32f\libg_nano.a(lib_a-isattyr.o)
 .debug_frame   0x00000000000017f8       0x30 c:/mounriver/mounriver_studio/toolchain/risc-v embedded gcc/bin/../lib/gcc/riscv-none-embed/8.2.0/../../../../riscv-none-embed/lib/rv32imafc/ilp32f\libg_nano.a(lib_a-lseekr.o)
 .debug_frame   0x0000000000001828       0x20 c:/mounriver/mounriver_studio/toolchain/risc-v embedded gcc/bin/../lib/gcc/riscv-none-embed/8.2.0/../../../../riscv-none-embed/lib/rv32imafc/ilp32f\libg_nano.a(lib_a-memchr.o)
 .debug_frame   0x0000000000001848       0x20 c:/mounriver/mounriver_studio/toolchain/risc-v embedded gcc/bin/../lib/gcc/riscv-none-embed/8.2.0/../../../../riscv-none-embed/lib/rv32imafc/ilp32f\libg_nano.a(lib_a-memcpy.o)
 .debug_frame   0x0000000000001868       0x20 c:/mounriver/mounriver_studio/toolchain/risc-v embedded gcc/bin/../lib/gcc/riscv-none-embed/8.2.0/../../../../riscv-none-embed/lib/rv32imafc/ilp32f\libg_nano.a(lib_a-memmove.o)
 .debug_frame   0x0000000000001888       0x40 c:/mounriver/mounriver_studio/toolchain/risc-v embedded gcc/bin/../lib/gcc/riscv-none-embed/8.2.0/../../../../riscv-none-embed/lib/rv32imafc/ilp32f\libg_nano.a(lib_a-nano-reallocr.o)
 .debug_frame   0x00000000000018c8       0x30 c:/mounriver/mounriver_studio/toolchain/risc-v embedded gcc/bin/../lib/gcc/riscv-none-embed/8.2.0/../../../../riscv-none-embed/lib/rv32imafc/ilp32f\libg_nano.a(lib_a-readr.o)
 .debug_frame   0x00000000000018f8       0x20 c:/mounriver/mounriver_studio/toolchain/risc-v embedded gcc/bin/../lib/gcc/riscv-none-embed/8.2.0/../../../../riscv-none-embed/lib/rv32imafc/ilp32f\libg_nano.a(lib_a-nano-msizer.o)
 .debug_frame   0x0000000000001918       0x20 c:/mounriver/mounriver_studio/toolchain/risc-v embedded gcc/bin/../lib/gcc/riscv-none-embed/8.2.0/../../../../riscv-none-embed/lib/rv32imafc/ilp32f\libnosys.a(close.o)
 .debug_frame   0x0000000000001938       0x20 c:/mounriver/mounriver_studio/toolchain/risc-v embedded gcc/bin/../lib/gcc/riscv-none-embed/8.2.0/../../../../riscv-none-embed/lib/rv32imafc/ilp32f\libnosys.a(fstat.o)
 .debug_frame   0x0000000000001958       0x20 c:/mounriver/mounriver_studio/toolchain/risc-v embedded gcc/bin/../lib/gcc/riscv-none-embed/8.2.0/../../../../riscv-none-embed/lib/rv32imafc/ilp32f\libnosys.a(isatty.o)
 .debug_frame   0x0000000000001978       0x20 c:/mounriver/mounriver_studio/toolchain/risc-v embedded gcc/bin/../lib/gcc/riscv-none-embed/8.2.0/../../../../riscv-none-embed/lib/rv32imafc/ilp32f\libnosys.a(lseek.o)
 .debug_frame   0x0000000000001998       0x20 c:/mounriver/mounriver_studio/toolchain/risc-v embedded gcc/bin/../lib/gcc/riscv-none-embed/8.2.0/../../../../riscv-none-embed/lib/rv32imafc/ilp32f\libnosys.a(read.o)
 .debug_frame   0x00000000000019b8       0x20 c:/mounriver/mounriver_studio/toolchain/risc-v embedded gcc/bin/../lib/gcc/riscv-none-embed/8.2.0/../../../../riscv-none-embed/lib/rv32imafc/ilp32f\libnosys.a(sbrk.o)

.debug_loc      0x0000000000000000     0x36d3
 .debug_loc     0x0000000000000000     0x1524 ./User/lcd.o
 .debug_loc     0x0000000000001524      0x284 ./User/main.o
 .debug_loc     0x00000000000017a8      0x11a ./User/system_ch32v30x.o
 .debug_loc     0x00000000000018c2      0x392 ./Peripheral/src/ch32v30x_fsmc.o
 .debug_loc     0x0000000000001c54      0x647 ./Peripheral/src/ch32v30x_gpio.o
 .debug_loc     0x000000000000229b      0xa5c ./Peripheral/src/ch32v30x_rcc.o
 .debug_loc     0x0000000000002cf7       0xa8 ./Peripheral/src/ch32v30x_rng.o
 .debug_loc     0x0000000000002d9f      0x7ad ./Peripheral/src/ch32v30x_usart.o
 .debug_loc     0x000000000000354c      0x187 ./Debug/debug.o

.stab           0x0000000000000000       0x84
 .stab          0x0000000000000000       0x24 c:/mounriver/mounriver_studio/toolchain/risc-v embedded gcc/bin/../lib/gcc/riscv-none-embed/8.2.0/../../../../riscv-none-embed/lib/rv32imafc/ilp32f\libnosys.a(close.o)
 .stab          0x0000000000000024       0x18 c:/mounriver/mounriver_studio/toolchain/risc-v embedded gcc/bin/../lib/gcc/riscv-none-embed/8.2.0/../../../../riscv-none-embed/lib/rv32imafc/ilp32f\libnosys.a(fstat.o)
                                         0x24 (size before relaxing)
 .stab          0x000000000000003c       0x18 c:/mounriver/mounriver_studio/toolchain/risc-v embedded gcc/bin/../lib/gcc/riscv-none-embed/8.2.0/../../../../riscv-none-embed/lib/rv32imafc/ilp32f\libnosys.a(isatty.o)
                                         0x24 (size before relaxing)
 .stab          0x0000000000000054       0x18 c:/mounriver/mounriver_studio/toolchain/risc-v embedded gcc/bin/../lib/gcc/riscv-none-embed/8.2.0/../../../../riscv-none-embed/lib/rv32imafc/ilp32f\libnosys.a(lseek.o)
                                         0x24 (size before relaxing)
 .stab          0x000000000000006c       0x18 c:/mounriver/mounriver_studio/toolchain/risc-v embedded gcc/bin/../lib/gcc/riscv-none-embed/8.2.0/../../../../riscv-none-embed/lib/rv32imafc/ilp32f\libnosys.a(read.o)
                                         0x24 (size before relaxing)

.stabstr        0x0000000000000000      0x117
 .stabstr       0x0000000000000000      0x117 c:/mounriver/mounriver_studio/toolchain/risc-v embedded gcc/bin/../lib/gcc/riscv-none-embed/8.2.0/../../../../riscv-none-embed/lib/rv32imafc/ilp32f\libnosys.a(close.o)
