
snake_ex.elf:     file format elf32-littleriscv
snake_ex.elf
architecture: riscv:rv32, flags 0x00000112:
EXEC_P, HAS_SYMS, D_PAGED
start address 0x00000000

Program Header:
    LOAD off    0x00001000 vaddr 0x00000000 paddr 0x00000000 align 2**12
         filesz 0x00005de4 memsz 0x00005de4 flags r-x
    LOAD off    0x00007000 vaddr 0x20000000 paddr 0x00005de4 align 2**12
         filesz 0x00000088 memsz 0x000000ac flags rw-
    LOAD off    0x00007800 vaddr 0x20007800 paddr 0x20007800 align 2**12
         filesz 0x00000000 memsz 0x00000800 flags rw-

Sections:
Idx Name          Size      VMA       LMA       File off  Algn
  0 .init         00000038  00000000  00000000  00001000  2**1
                  CONTENTS, ALLOC, LOAD, READONLY, CODE
  1 .vector       000001c8  00000038  00000038  00001038  2**1
                  CONTENTS, ALLOC, LOAD, READONLY, CODE
  2 .text         00005be4  00000200  00000200  00001200  2**2
                  CONTENTS, ALLOC, LOAD, READONLY, CODE
  3 .fini         00000000  00005de4  00005de4  00007088  2**0
                  CONTENTS, ALLOC, LOAD, CODE
  4 .dalign       00000000  20000000  20000000  00007088  2**0
                  CONTENTS
  5 .dlalign      00000000  00005de4  00005de4  00007088  2**0
                  CONTENTS
  6 .data         00000088  20000000  00005de4  00007000  2**2
                  CONTENTS, ALLOC, LOAD, DATA
  7 .bss          00000024  20000088  00005e6c  00007088  2**2
                  ALLOC
  8 .stack        00000800  20007800  20007800  00007800  2**0
                  ALLOC
  9 .debug_info   0000b895  00000000  00000000  00007088  2**0
                  CONTENTS, READONLY, DEBUGGING
 10 .debug_abbrev 00001f20  00000000  00000000  0001291d  2**0
                  CONTENTS, READONLY, DEBUGGING
 11 .debug_aranges 00000650  00000000  00000000  00014840  2**3
                  CONTENTS, READONLY, DEBUGGING
 12 .debug_ranges 000006b8  00000000  00000000  00014e90  2**3
                  CONTENTS, READONLY, DEBUGGING
 13 .debug_line   00009250  00000000  00000000  00015548  2**0
                  CONTENTS, READONLY, DEBUGGING
 14 .debug_str    0000219f  00000000  00000000  0001e798  2**0
                  CONTENTS, READONLY, DEBUGGING
 15 .comment      00000033  00000000  00000000  00020937  2**0
                  CONTENTS, READONLY
 16 .debug_frame  000019d8  00000000  00000000  0002096c  2**2
                  CONTENTS, READONLY, DEBUGGING
 17 .debug_loc    000036d3  00000000  00000000  00022344  2**0
                  CONTENTS, READONLY, DEBUGGING
 18 .stab         00000084  00000000  00000000  00025a18  2**2
                  CONTENTS, READONLY, DEBUGGING
 19 .stabstr      00000117  00000000  00000000  00025a9c  2**0
                  CONTENTS, READONLY, DEBUGGING
SYMBOL TABLE:
00000000 l    d  .init	00000000 .init
00000038 l    d  .vector	00000000 .vector
00000200 l    d  .text	00000000 .text
00005de4 l    d  .fini	00000000 .fini
20000000 l    d  .dalign	00000000 .dalign
00005de4 l    d  .dlalign	00000000 .dlalign
20000000 l    d  .data	00000000 .data
20000088 l    d  .bss	00000000 .bss
20007800 l    d  .stack	00000000 .stack
00000000 l    d  .debug_info	00000000 .debug_info
00000000 l    d  .debug_abbrev	00000000 .debug_abbrev
00000000 l    d  .debug_aranges	00000000 .debug_aranges
00000000 l    d  .debug_ranges	00000000 .debug_ranges
00000000 l    d  .debug_line	00000000 .debug_line
00000000 l    d  .debug_str	00000000 .debug_str
00000000 l    d  .comment	00000000 .comment
00000000 l    d  .debug_frame	00000000 .debug_frame
00000000 l    d  .debug_loc	00000000 .debug_loc
00000000 l    d  .stab	00000000 .stab
00000000 l    d  .stabstr	00000000 .stabstr
00000000 l    df *ABS*	00000000 ./Startup/startup_ch32v30x.o
00000038 l       .vector	00000000 _vector_base
00000000 l    df *ABS*	00000000 ch32v30x_it.c
00000000 l    df *ABS*	00000000 lcd.c
00000000 l    df *ABS*	00000000 main.c
00000000 l    df *ABS*	00000000 system_ch32v30x.c
00000000 l    df *ABS*	00000000 ch32v30x_fsmc.c
00000000 l    df *ABS*	00000000 ch32v30x_gpio.c
00000000 l    df *ABS*	00000000 ch32v30x_rcc.c
20000000 l     O .data	00000010 APBAHBPrescTable
20000078 l     O .data	00000004 ADCPrescTable
00000000 l    df *ABS*	00000000 ch32v30x_rng.c
00000000 l    df *ABS*	00000000 ch32v30x_usart.c
00000000 l    df *ABS*	00000000 debug.c
2000008c l     O .bss	00000002 p_ms
2000008e l     O .bss	00000001 p_us
00000000 l    df *ABS*	00000000 malloc.c
00000000 l    df *ABS*	00000000 nano-mallocr.c
00000000 l    df *ABS*	00000000 nano-mallocr.c
00000000 l    df *ABS*	00000000 printf.c
00000000 l    df *ABS*	00000000 puts.c
00000000 l    df *ABS*	00000000 sbrkr.c
00000000 l    df *ABS*	00000000 vsnprintf.c
00000000 l    df *ABS*	00000000 wbuf.c
00000000 l    df *ABS*	00000000 wsetup.c
00000000 l    df *ABS*	00000000 fflush.c
00000000 l    df *ABS*	00000000 findfp.c
00001cc0 l     F .text	0000006a std
00000000 l    df *ABS*	00000000 fwalk.c
00000000 l    df *ABS*	00000000 makebuf.c
00000000 l    df *ABS*	00000000 mlock.c
00000000 l    df *ABS*	00000000 nano-vfprintf.c
00000000 l    df *ABS*	00000000 nano-vfprintf.c
00002354 l     F .text	0000002a __sfputc_r
00000000 l    df *ABS*	00000000 nano-vfprintf_i.c
00000000 l    df *ABS*	00000000 stdio.c
00000000 l    df *ABS*	00000000 writer.c
00000000 l    df *ABS*	00000000 closer.c
00000000 l    df *ABS*	00000000 fstatr.c
00000000 l    df *ABS*	00000000 isattyr.c
00000000 l    df *ABS*	00000000 lseekr.c
00000000 l    df *ABS*	00000000 memchr.c
00000000 l    df *ABS*	00000000 memcpy.c
00000000 l    df *ABS*	00000000 memmove.c
00000000 l    df *ABS*	00000000 nano-mallocr.c
00000000 l    df *ABS*	00000000 readr.c
00000000 l    df *ABS*	00000000 nano-mallocr.c
00000000 l    df *ABS*	00000000 close.c
00000000 l    df *ABS*	00000000 fstat.c
00000000 l    df *ABS*	00000000 isatty.c
00000000 l    df *ABS*	00000000 lseek.c
00000000 l    df *ABS*	00000000 read.c
00000000 l    df *ABS*	00000000 sbrk.c
20000098 l     O .bss	00000004 heap_end.1520
00000000 l    df *ABS*	00000000 impure.c
20000010 l     O .data	00000060 impure_data
00000000 l    df *ABS*	00000000 reent.c
00002d38 g     F .text	00000014 _malloc_usable_size_r
00000fc0  w      .text	00000000 EXTI2_IRQHandler
0000100a  w      .text	00000000 TIM8_TRG_COM_IRQHandler
0000100c  w      .text	00000000 TIM8_CC_IRQHandler
00002b48 g     F .text	00000028 _isatty_r
2000009c g     O .bss	00000008 food
000017d4 g     F .text	000000da _puts_r
00002b70 g     F .text	0000002c _lseek_r
00001042  w      .text	00000000 UART8_IRQHandler
20000088 g     O .bss	00000002 BACK_COLOR
00001794 g     F .text	00000040 printf
20000870 g       .data	00000000 __global_pointer$
00000fe6  w      .text	00000000 TIM1_CC_IRQHandler
00002a8c g     F .text	00000036 __sseek
00001d7c g     F .text	00000066 __sinit
00001952 g     F .text	000000c0 __swbuf_r
000002ac g     F .text	00000002 HardFault_Handler
00001d34 g     F .text	00000048 __sfmoreglue
00001fe6 g     F .text	00000002 __malloc_unlock
0000101c  w      .text	00000000 TIM6_IRQHandler
00000fac  w      .text	00000000 SysTick_Handler
00000fb2  w      .text	00000000 PVD_IRQHandler
00001012  w      .text	00000000 SDIO_IRQHandler
00002c6c g     F .text	0000004a memmove
00001044  w      .text	00000000 TIM9_BRK_IRQHandler
00001058  w      .text	00000000 DMA2_Channel8_IRQHandler
000002a8 g     F .text	00000004 NMI_Handler
000009b8 g     F .text	0000010a Basic_Key_Handle
00001032  w      .text	00000000 CAN2_RX1_IRQHandler
00000fc2  w      .text	00000000 EXTI3_IRQHandler
0000103a  w      .text	00000000 USBHS_IRQHandler
00000fae  w      .text	00000000 SW_handler
00001500 g     F .text	0000000c USART_GetFlagStatus
0000105a  w      .text	00000000 DMA2_Channel9_IRQHandler
00002b1e g     F .text	0000002a _fstat_r
00001052  w      .text	00000000 TIM10_CC_IRQHandler
200000a8 g     O .bss	00000004 errno
20000088 g       .bss	00000000 _sbss
00000800 g       *ABS*	00000000 __stack_size
00001562 g     F .text	00000056 USART_Printf_Init
00000470 g     F .text	0000005e lcd_address_set
000011a4 g     F .text	0000001e FSMC_NORSRAMCmd
00002bb6 g     F .text	000000b6 memcpy
00001d2a g     F .text	0000000a _cleanup_r
000020d6 g     F .text	0000027e _svfprintf_r
20000070 g     O .data	00000002 FORE_COLOR
00000fbc  w      .text	00000000 EXTI0_IRQHandler
00000ff2  w      .text	00000000 I2C2_EV_IRQHandler
00001050  w      .text	00000000 TIM10_TRG_COM_IRQHandler
000018ae g     F .text	0000000a puts
20000074 g     O .data	00000004 SystemCoreClock
00001604 g     F .text	0000000a malloc
00002d58 g     F .text	0000000c _fstat
00000038 g       .init	00000000 _einit
00000416 g     F .text	0000005a lcd_gpio_init
00001942 g     F .text	00000010 vsnprintf
000013c2 g     F .text	0000001e RCC_APB2PeriphClockCmd
00001034  w      .text	00000000 CAN2_SCE_IRQHandler
00000fd4  w      .text	00000000 ADC1_2_IRQHandler
000011c2 g     F .text	000000c2 GPIO_Init
00000faa  w      .text	00000000 Break_Point_Handler
00000ff6  w      .text	00000000 SPI1_IRQHandler
000014da g     F .text	0000001c USART_Cmd
000018b8 g     F .text	0000002a _sbrk_r
00000fb4  w      .text	00000000 TAMPER_IRQHandler
00003388 g     O .text	000011a0 asc2_2412
00002d0c g     F .text	0000002c _read_r
00001030  w      .text	00000000 CAN2_RX0_IRQHandler
00001008  w      .text	00000000 TIM8_UP_IRQHandler
00000fa6  w      .text	00000000 Ecall_M_Mode_Handler
00002d64 g     F .text	0000000c _isatty
20000080 g     O .data	00000004 _global_impure_ptr
00002cb6 g     F .text	00000056 _realloc_r
00001022  w      .text	00000000 DMA2_Channel2_IRQHandler
000013a4 g     F .text	0000001e RCC_AHBPeriphClockCmd
00000fcc  w      .text	00000000 DMA1_Channel4_IRQHandler
000004ce g     F .text	0000004c lcd_clear
00002d88 g     F .text	00000020 _sbrk
00000b0a g     F .text	00000058 printsnake
00000ac2 g     F .text	00000048 creatsnake
00001046  w      .text	00000000 TIM9_UP_IRQHandler
00000ffe  w      .text	00000000 USART3_IRQHandler
00000fb6  w      .text	00000000 RTC_IRQHandler
200000ac g       .bss	00000000 _ebss
00000fd2  w      .text	00000000 DMA1_Channel7_IRQHandler
00000742 g     F .text	000001ac lcd_show_char
00001942 g     F .text	00000010 vsniprintf
00000fda  w      .text	00000000 CAN1_RX1_IRQHandler
0000150c g     F .text	0000002a Delay_Init
0000103c  w      .text	00000000 DVP_IRQHandler
0000101a  w      .text	00000000 UART5_IRQHandler
00000cf4 g     F .text	00000090 creatfood
0000128e g     F .text	00000004 GPIO_SetBits
00000fec  w      .text	00000000 TIM4_IRQHandler
00001020  w      .text	00000000 DMA2_Channel1_IRQHandler
00005d48 g     O .text	00000020 __sf_fake_stderr
200000ac g       .bss	00000000 end
00000fee  w      .text	00000000 I2C1_EV_IRQHandler
00001fe8 g     F .text	000000ee __ssputs_r
200000a4 g     O .bss	00000004 head
00001296 g     F .text	0000010e RCC_GetClocksFreq
00000fd0  w      .text	00000000 DMA1_Channel6_IRQHandler
0000237e g     F .text	00000042 __sfputs_r
000013e0 g     F .text	00000018 RNG_Cmd
00001018  w      .text	00000000 UART4_IRQHandler
00001026  w      .text	00000000 DMA2_Channel4_IRQHandler
00002b9c g     F .text	0000001a memchr
00001402 g     F .text	000000d8 USART_Init
00001618 g     F .text	000000a8 _free_r
00000fea  w      .text	00000000 TIM3_IRQHandler
00000fba  w      .text	00000000 RCC_IRQHandler
00000fe4  w      .text	00000000 TIM1_TRG_COM_IRQHandler
00000fc6  w      .text	00000000 DMA1_Channel1_IRQHandler
00000000 g       .init	00000000 _start
00001056  w      .text	00000000 DMA2_Channel7_IRQHandler
00002d70 g     F .text	0000000c _lseek
00001000  w      .text	00000000 EXTI15_10_IRQHandler
000002ae g     F .text	00000016 lcd_write_half_word
00001292 g     F .text	00000004 GPIO_ResetBits
0000101e  w      .text	00000000 TIM7_IRQHandler
00002af6 g     F .text	00000028 _close_r
0000102e  w      .text	00000000 CAN2_TX_IRQHandler
20000000 g       .dalign	00000000 _data_vma
00001014  w      .text	00000000 TIM5_IRQHandler
000010ea g     F .text	000000ba FSMC_NORSRAMInit
00001a12 g     F .text	0000010c __swsetup_r
00000fde  w      .text	00000000 EXTI9_5_IRQHandler
00001de2 g     F .text	0000009c __sfp
000002de g     F .text	00000138 lcd_fsmc_init
000018e2 g     F .text	00000060 _vsnprintf_r
00002a0e g     F .text	00000030 __sread
0000102c  w      .text	00000000 ETH_WKUP_IRQHandler
00001fe4 g     F .text	00000002 __malloc_lock
00001c5c g     F .text	00000064 _fflush_r
00000ff8  w      .text	00000000 SPI2_IRQHandler
00005d68 g     O .text	00000020 __sf_fake_stdin
00000200 g     F .text	000000a8 memset
0000051a g     F .text	000001dc lcd_init
00000e14 g     F .text	00000080 main
00002da8 g     O .text	000005e0 asc2_1608
0000104c  w      .text	00000000 TIM10_BRK_IRQHandler
0000104a  w      .text	00000000 TIM9_CC_IRQHandler
00002ac2 g     F .text	00000006 __sclose
00001028  w      .text	00000000 DMA2_Channel5_IRQHandler
000016c0 g     F .text	000000d4 _malloc_r
2000008b g     O .bss	00000001 key
00000fce  w      .text	00000000 DMA1_Channel5_IRQHandler
000006f6 g     F .text	0000004c lcd_fill
00000fc4  w      .text	00000000 EXTI4_IRQHandler
00001536 g     F .text	0000002c Delay_Ms
00000fd8  w      .text	00000000 USB_LP_CAN1_RX0_IRQHandler
2000008a g     O .bss	00000001 dir
00000e94 g     F .text	0000010e SystemInit
0000100e  w      .text	00000000 RNG_IRQHandler
00001794 g     F .text	00000040 iprintf
00000fd6  w      .text	00000000 USB_HP_CAN1_TX_IRQHandler
00000000 g       .init	00000000 _sinit
00002ac8 g     F .text	0000002e _write_r
00000fca  w      .text	00000000 DMA1_Channel3_IRQHandler
00001010  w      .text	00000000 FSMC_IRQHandler
0000102a  w      .text	00000000 ETH_IRQHandler
0000265a g     F .text	0000010c _printf_common
2000007c g     O .data	00000004 _impure_ptr
00000fe2  w      .text	00000000 TIM1_UP_IRQHandler
00001b1e g     F .text	0000013e __sflush_r
000013f8 g     F .text	0000000a RNG_GetRandomNumber
000020d6 g     F .text	0000027e _svfiprintf_r
00000fb0  w      .text	00000000 WWDG_IRQHandler
00001038  w      .text	00000000 USBHSWakeup_IRQHandler
0000105e  w      .text	00000000 DMA2_Channel11_IRQHandler
00000fa8  w      .text	00000000 Ecall_U_Mode_Handler
00001054  w      .text	00000000 DMA2_Channel6_IRQHandler
00000fe8  w      .text	00000000 TIM2_IRQHandler
20008000 g       .stack	00000000 _eusrstack
000018e2 g     F .text	00000060 _vsniprintf_r
000008ee g     F .text	000000ca lcd_show_string
00000fe0  w      .text	00000000 TIM1_BRK_IRQHandler
00001eea g     F .text	0000005a __swhatbuf_r
000014f6 g     F .text	0000000a USART_SendData
0000105c  w      .text	00000000 DMA2_Channel10_IRQHandler
00000fbe  w      .text	00000000 EXTI1_IRQHandler
000015b8 g     F .text	0000004c _write
20000088 g       .data	00000000 _edata
00004528 g     O .text	00001780 asc2_3216
00001002  w      .text	00000000 RTCAlarm_IRQHandler
00005de4 g       .dlalign	00000000 _data_lma
0000104e  w      .text	00000000 TIM10_UP_IRQHandler
00001048  w      .text	00000000 TIM9_TRG_COM_IRQHandler
00001040  w      .text	00000000 UART7_IRQHandler
00000ffc  w      .text	00000000 USART2_IRQHandler
0000103e  w      .text	00000000 UART6_IRQHandler
00002a3e g     F .text	0000004e __swrite
00000dc6 g     F .text	0000004e judge
000023c0 g     F .text	0000029a _vfiprintf_r
00001e7e g     F .text	0000006c _fwalk_reent
00000ff4  w      .text	00000000 I2C2_ER_IRQHandler
000002c4 g     F .text	0000001a lcd_read_data
00000fc8  w      .text	00000000 DMA1_Channel2_IRQHandler
00005d88 g     O .text	00000020 __sf_fake_stdout
00001006  w      .text	00000000 TIM8_BRK_IRQHandler
00002d7c g     F .text	0000000c _read
00000d84 g     F .text	00000042 eatfood
00001060  w      .text	00000000 handle_reset
00000fdc  w      .text	00000000 CAN1_SCE_IRQHandler
00000fb8  w      .text	00000000 FLASH_IRQHandler
00000ffa  w      .text	00000000 USART1_IRQHandler
00001f44 g     F .text	000000a0 __smakebuf_r
00001036  w      .text	00000000 OTG_FS_IRQHandler
00002766 g     F .text	000002a8 _printf_i
00001016  w      .text	00000000 SPI3_IRQHandler
20000094 g     O .bss	00000004 __malloc_sbrk_start
00000ff0  w      .text	00000000 I2C1_ER_IRQHandler
20000090 g     O .bss	00000004 __malloc_free_list
000023c0 g     F .text	0000029a _vfprintf_r
00001284 g     F .text	0000000a GPIO_ReadInputDataBit
00000b62 g     F .text	00000192 movesnake
00001004  w      .text	00000000 USBWakeUp_IRQHandler
00002d4c g     F .text	0000000c _close
0000160e g     F .text	0000000a free
00001024  w      .text	00000000 DMA2_Channel3_IRQHandler



Disassembly of section .init:

00000000 <_sinit>:
   0:	0600106f          	j	1060 <handle_reset>
   4:	00000013          	nop
   8:	00000013          	nop
   c:	00000013          	nop
  10:	00000013          	nop
  14:	00000013          	nop
  18:	00000013          	nop
  1c:	00000013          	nop
  20:	00000013          	nop
  24:	00000013          	nop
  28:	00000013          	nop
  2c:	00000013          	nop
  30:	00000013          	nop
  34:	00100073          	ebreak

Disassembly of section .vector:

00000038 <_vector_base>:
	...
  40:	02a8                	addi	a0,sp,328
  42:	0000                	unimp
  44:	02ac                	addi	a1,sp,328
  46:	0000                	unimp
  48:	0000                	unimp
  4a:	0000                	unimp
  4c:	0fa6                	slli	t6,t6,0x9
	...
  56:	0000                	unimp
  58:	0fa8                	addi	a0,sp,984
  5a:	0000                	unimp
  5c:	0faa                	slli	t6,t6,0xa
	...
  66:	0000                	unimp
  68:	0fac                	addi	a1,sp,984
  6a:	0000                	unimp
  6c:	0000                	unimp
  6e:	0000                	unimp
  70:	0fae                	slli	t6,t6,0xb
  72:	0000                	unimp
  74:	0000                	unimp
  76:	0000                	unimp
  78:	0fb0                	addi	a2,sp,984
  7a:	0000                	unimp
  7c:	0fb2                	slli	t6,t6,0xc
  7e:	0000                	unimp
  80:	0fb4                	addi	a3,sp,984
  82:	0000                	unimp
  84:	0fb6                	slli	t6,t6,0xd
  86:	0000                	unimp
  88:	0fb8                	addi	a4,sp,984
  8a:	0000                	unimp
  8c:	0fba                	slli	t6,t6,0xe
  8e:	0000                	unimp
  90:	0fbc                	addi	a5,sp,984
  92:	0000                	unimp
  94:	0fbe                	slli	t6,t6,0xf
  96:	0000                	unimp
  98:	0fc0                	addi	s0,sp,980
  9a:	0000                	unimp
  9c:	0fc2                	slli	t6,t6,0x10
  9e:	0000                	unimp
  a0:	0fc4                	addi	s1,sp,980
  a2:	0000                	unimp
  a4:	0fc6                	slli	t6,t6,0x11
  a6:	0000                	unimp
  a8:	0fc8                	addi	a0,sp,980
  aa:	0000                	unimp
  ac:	0fca                	slli	t6,t6,0x12
  ae:	0000                	unimp
  b0:	0fcc                	addi	a1,sp,980
  b2:	0000                	unimp
  b4:	0fce                	slli	t6,t6,0x13
  b6:	0000                	unimp
  b8:	0fd0                	addi	a2,sp,980
  ba:	0000                	unimp
  bc:	0fd2                	slli	t6,t6,0x14
  be:	0000                	unimp
  c0:	0fd4                	addi	a3,sp,980
  c2:	0000                	unimp
  c4:	0fd6                	slli	t6,t6,0x15
  c6:	0000                	unimp
  c8:	0fd8                	addi	a4,sp,980
  ca:	0000                	unimp
  cc:	0fda                	slli	t6,t6,0x16
  ce:	0000                	unimp
  d0:	0fdc                	addi	a5,sp,980
  d2:	0000                	unimp
  d4:	0fde                	slli	t6,t6,0x17
  d6:	0000                	unimp
  d8:	0fe0                	addi	s0,sp,988
  da:	0000                	unimp
  dc:	0fe2                	slli	t6,t6,0x18
  de:	0000                	unimp
  e0:	0fe4                	addi	s1,sp,988
  e2:	0000                	unimp
  e4:	0fe6                	slli	t6,t6,0x19
  e6:	0000                	unimp
  e8:	0fe8                	addi	a0,sp,988
  ea:	0000                	unimp
  ec:	0fea                	slli	t6,t6,0x1a
  ee:	0000                	unimp
  f0:	0fec                	addi	a1,sp,988
  f2:	0000                	unimp
  f4:	0fee                	slli	t6,t6,0x1b
  f6:	0000                	unimp
  f8:	0ff0                	addi	a2,sp,988
  fa:	0000                	unimp
  fc:	0ff2                	slli	t6,t6,0x1c
  fe:	0000                	unimp
 100:	0ff4                	addi	a3,sp,988
 102:	0000                	unimp
 104:	0ff6                	slli	t6,t6,0x1d
 106:	0000                	unimp
 108:	0ff8                	addi	a4,sp,988
 10a:	0000                	unimp
 10c:	0ffa                	slli	t6,t6,0x1e
 10e:	0000                	unimp
 110:	0ffc                	addi	a5,sp,988
 112:	0000                	unimp
 114:	0ffe                	slli	t6,t6,0x1f
 116:	0000                	unimp
 118:	1000                	addi	s0,sp,32
 11a:	0000                	unimp
 11c:	1002                	c.slli	zero,0x20
 11e:	0000                	unimp
 120:	1004                	addi	s1,sp,32
 122:	0000                	unimp
 124:	1006                	c.slli	zero,0x21
 126:	0000                	unimp
 128:	1008                	addi	a0,sp,32
 12a:	0000                	unimp
 12c:	100a                	c.slli	zero,0x22
 12e:	0000                	unimp
 130:	100c                	addi	a1,sp,32
 132:	0000                	unimp
 134:	100e                	c.slli	zero,0x23
 136:	0000                	unimp
 138:	1010                	addi	a2,sp,32
 13a:	0000                	unimp
 13c:	1012                	c.slli	zero,0x24
 13e:	0000                	unimp
 140:	1014                	addi	a3,sp,32
 142:	0000                	unimp
 144:	1016                	c.slli	zero,0x25
 146:	0000                	unimp
 148:	1018                	addi	a4,sp,32
 14a:	0000                	unimp
 14c:	101a                	c.slli	zero,0x26
 14e:	0000                	unimp
 150:	101c                	addi	a5,sp,32
 152:	0000                	unimp
 154:	101e                	c.slli	zero,0x27
 156:	0000                	unimp
 158:	1020                	addi	s0,sp,40
 15a:	0000                	unimp
 15c:	1022                	c.slli	zero,0x28
 15e:	0000                	unimp
 160:	1024                	addi	s1,sp,40
 162:	0000                	unimp
 164:	1026                	c.slli	zero,0x29
 166:	0000                	unimp
 168:	1028                	addi	a0,sp,40
 16a:	0000                	unimp
 16c:	102a                	c.slli	zero,0x2a
 16e:	0000                	unimp
 170:	102c                	addi	a1,sp,40
 172:	0000                	unimp
 174:	102e                	c.slli	zero,0x2b
 176:	0000                	unimp
 178:	1030                	addi	a2,sp,40
 17a:	0000                	unimp
 17c:	1032                	c.slli	zero,0x2c
 17e:	0000                	unimp
 180:	1034                	addi	a3,sp,40
 182:	0000                	unimp
 184:	1036                	c.slli	zero,0x2d
 186:	0000                	unimp
 188:	1038                	addi	a4,sp,40
 18a:	0000                	unimp
 18c:	103a                	c.slli	zero,0x2e
 18e:	0000                	unimp
 190:	103c                	addi	a5,sp,40
 192:	0000                	unimp
 194:	103e                	c.slli	zero,0x2f
 196:	0000                	unimp
 198:	1040                	addi	s0,sp,36
 19a:	0000                	unimp
 19c:	1042                	c.slli	zero,0x30
 19e:	0000                	unimp
 1a0:	1044                	addi	s1,sp,36
 1a2:	0000                	unimp
 1a4:	1046                	c.slli	zero,0x31
 1a6:	0000                	unimp
 1a8:	1048                	addi	a0,sp,36
 1aa:	0000                	unimp
 1ac:	104a                	c.slli	zero,0x32
 1ae:	0000                	unimp
 1b0:	104c                	addi	a1,sp,36
 1b2:	0000                	unimp
 1b4:	104e                	c.slli	zero,0x33
 1b6:	0000                	unimp
 1b8:	1050                	addi	a2,sp,36
 1ba:	0000                	unimp
 1bc:	1052                	c.slli	zero,0x34
 1be:	0000                	unimp
 1c0:	1054                	addi	a3,sp,36
 1c2:	0000                	unimp
 1c4:	1056                	c.slli	zero,0x35
 1c6:	0000                	unimp
 1c8:	1058                	addi	a4,sp,36
 1ca:	0000                	unimp
 1cc:	105a                	c.slli	zero,0x36
 1ce:	0000                	unimp
 1d0:	105c                	addi	a5,sp,36
 1d2:	0000                	unimp
 1d4:	105e                	c.slli	zero,0x37
	...

Disassembly of section .text:

00000200 <memset>:
     200:	433d                	li	t1,15
     202:	872a                	mv	a4,a0
     204:	02c37363          	bgeu	t1,a2,22a <memset+0x2a>
     208:	00f77793          	andi	a5,a4,15
     20c:	efbd                	bnez	a5,28a <memset+0x8a>
     20e:	e5ad                	bnez	a1,278 <memset+0x78>
     210:	ff067693          	andi	a3,a2,-16
     214:	8a3d                	andi	a2,a2,15
     216:	96ba                	add	a3,a3,a4
     218:	c30c                	sw	a1,0(a4)
     21a:	c34c                	sw	a1,4(a4)
     21c:	c70c                	sw	a1,8(a4)
     21e:	c74c                	sw	a1,12(a4)
     220:	0741                	addi	a4,a4,16
     222:	fed76be3          	bltu	a4,a3,218 <memset+0x18>
     226:	e211                	bnez	a2,22a <memset+0x2a>
     228:	8082                	ret
     22a:	40c306b3          	sub	a3,t1,a2
     22e:	068a                	slli	a3,a3,0x2
     230:	00000297          	auipc	t0,0x0
     234:	9696                	add	a3,a3,t0
     236:	00a68067          	jr	10(a3)
     23a:	00b70723          	sb	a1,14(a4)
     23e:	00b706a3          	sb	a1,13(a4)
     242:	00b70623          	sb	a1,12(a4)
     246:	00b705a3          	sb	a1,11(a4)
     24a:	00b70523          	sb	a1,10(a4)
     24e:	00b704a3          	sb	a1,9(a4)
     252:	00b70423          	sb	a1,8(a4)
     256:	00b703a3          	sb	a1,7(a4)
     25a:	00b70323          	sb	a1,6(a4)
     25e:	00b702a3          	sb	a1,5(a4)
     262:	00b70223          	sb	a1,4(a4)
     266:	00b701a3          	sb	a1,3(a4)
     26a:	00b70123          	sb	a1,2(a4)
     26e:	00b700a3          	sb	a1,1(a4)
     272:	00b70023          	sb	a1,0(a4)
     276:	8082                	ret
     278:	0ff5f593          	andi	a1,a1,255
     27c:	00859693          	slli	a3,a1,0x8
     280:	8dd5                	or	a1,a1,a3
     282:	01059693          	slli	a3,a1,0x10
     286:	8dd5                	or	a1,a1,a3
     288:	b761                	j	210 <memset+0x10>
     28a:	00279693          	slli	a3,a5,0x2
     28e:	00000297          	auipc	t0,0x0
     292:	9696                	add	a3,a3,t0
     294:	8286                	mv	t0,ra
     296:	fa8680e7          	jalr	-88(a3)
     29a:	8096                	mv	ra,t0
     29c:	17c1                	addi	a5,a5,-16
     29e:	8f1d                	sub	a4,a4,a5
     2a0:	963e                	add	a2,a2,a5
     2a2:	f8c374e3          	bgeu	t1,a2,22a <memset+0x2a>
     2a6:	b7a5                	j	20e <memset+0xe>

000002a8 <NMI_Handler>:
     2a8:	30200073          	mret

000002ac <HardFault_Handler>:
     2ac:	a001                	j	2ac <HardFault_Handler>

000002ae <lcd_write_half_word>:
     2ae:	00855713          	srli	a4,a0,0x8
     2b2:	600207b7          	lui	a5,0x60020
     2b6:	00e78023          	sb	a4,0(a5) # 60020000 <_eusrstack+0x40018000>
     2ba:	0ff57513          	andi	a0,a0,255
     2be:	00a78023          	sb	a0,0(a5)
     2c2:	8082                	ret

000002c4 <lcd_read_data>:
     2c4:	600207b7          	lui	a5,0x60020
     2c8:	0007c783          	lbu	a5,0(a5) # 60020000 <_eusrstack+0x40018000>
     2cc:	1141                	addi	sp,sp,-16
     2ce:	0ff7f793          	andi	a5,a5,255
     2d2:	00f107a3          	sb	a5,15(sp)
     2d6:	00f14503          	lbu	a0,15(sp)
     2da:	0141                	addi	sp,sp,16
     2dc:	8082                	ret

000002de <lcd_fsmc_init>:
     2de:	7135                	addi	sp,sp,-160
     2e0:	03c00613          	li	a2,60
     2e4:	4581                	li	a1,0
     2e6:	00c8                	addi	a0,sp,68
     2e8:	cf06                	sw	ra,156(sp)
     2ea:	cd22                	sw	s0,152(sp)
     2ec:	cb26                	sw	s1,148(sp)
     2ee:	c94a                	sw	s2,144(sp)
     2f0:	c74e                	sw	s3,140(sp)
     2f2:	c552                	sw	s4,136(sp)
     2f4:	c356                	sw	s5,132(sp)
     2f6:	c15a                	sw	s6,128(sp)
     2f8:	00c10a93          	addi	s5,sp,12
     2fc:	c002                	sw	zero,0(sp)
     2fe:	c202                	sw	zero,4(sp)
     300:	c402                	sw	zero,8(sp)
     302:	3dfd                	jal	200 <memset>
     304:	4671                	li	a2,28
     306:	4581                	li	a1,0
     308:	8556                	mv	a0,s5
     30a:	3ddd                	jal	200 <memset>
     30c:	02810a13          	addi	s4,sp,40
     310:	4671                	li	a2,28
     312:	4581                	li	a1,0
     314:	8552                	mv	a0,s4
     316:	35ed                	jal	200 <memset>
     318:	4585                	li	a1,1
     31a:	10000513          	li	a0,256
     31e:	086010ef          	jal	ra,13a4 <RCC_AHBPeriphClockCmd>
     322:	4585                	li	a1,1
     324:	16800513          	li	a0,360
     328:	09a010ef          	jal	ra,13c2 <RCC_APB2PeriphClockCmd>
     32c:	400114b7          	lui	s1,0x40011
     330:	440d                	li	s0,3
     332:	6791                	lui	a5,0x4
     334:	4b41                	li	s6,16
     336:	858a                	mv	a1,sp
     338:	c0048513          	addi	a0,s1,-1024 # 40010c00 <_eusrstack+0x20008c00>
     33c:	00f11023          	sh	a5,0(sp)
     340:	c45a                	sw	s6,8(sp)
     342:	c222                	sw	s0,4(sp)
     344:	67f000ef          	jal	ra,11c2 <GPIO_Init>
     348:	77f1                	lui	a5,0xffffc
     34a:	49e1                	li	s3,24
     34c:	73378793          	addi	a5,a5,1843 # ffffc733 <_eusrstack+0xdfff4733>
     350:	858a                	mv	a1,sp
     352:	40048513          	addi	a0,s1,1024
     356:	00f11023          	sh	a5,0(sp)
     35a:	c44e                	sw	s3,8(sp)
     35c:	c222                	sw	s0,4(sp)
     35e:	665000ef          	jal	ra,11c2 <GPIO_Init>
     362:	40012537          	lui	a0,0x40012
     366:	f8000793          	li	a5,-128
     36a:	858a                	mv	a1,sp
     36c:	80050513          	addi	a0,a0,-2048 # 40011800 <_eusrstack+0x20009800>
     370:	00f11023          	sh	a5,0(sp)
     374:	c44e                	sw	s3,8(sp)
     376:	c222                	sw	s0,4(sp)
     378:	64b000ef          	jal	ra,11c2 <GPIO_Init>
     37c:	858a                	mv	a1,sp
     37e:	40048513          	addi	a0,s1,1024
     382:	6905                	lui	s2,0x1
     384:	01211023          	sh	s2,0(sp)
     388:	c44e                	sw	s3,8(sp)
     38a:	c222                	sw	s0,4(sp)
     38c:	637000ef          	jal	ra,11c2 <GPIO_Init>
     390:	858a                	mv	a1,sp
     392:	40048513          	addi	a0,s1,1024
     396:	80090913          	addi	s2,s2,-2048 # 800 <__stack_size>
     39a:	01211023          	sh	s2,0(sp)
     39e:	c45a                	sw	s6,8(sp)
     3a0:	c222                	sw	s0,4(sp)
     3a2:	6905                	lui	s2,0x1
     3a4:	61f000ef          	jal	ra,11c2 <GPIO_Init>
     3a8:	80090593          	addi	a1,s2,-2048 # 800 <__stack_size>
     3ac:	40048513          	addi	a0,s1,1024
     3b0:	6e3000ef          	jal	ra,1292 <GPIO_ResetBits>
     3b4:	4785                	li	a5,1
     3b6:	c63e                	sw	a5,12(sp)
     3b8:	47bd                	li	a5,15
     3ba:	ca3e                	sw	a5,20(sp)
     3bc:	00c8                	addi	a0,sp,68
     3be:	6791                	lui	a5,0x4
     3c0:	d822                	sw	s0,48(sp)
     3c2:	d4ca                	sw	s2,104(sp)
     3c4:	d8be                	sw	a5,112(sp)
     3c6:	dcd6                	sw	s5,120(sp)
     3c8:	ded2                	sw	s4,124(sp)
     3ca:	c802                	sw	zero,16(sp)
     3cc:	cc02                	sw	zero,24(sp)
     3ce:	ce02                	sw	zero,28(sp)
     3d0:	d002                	sw	zero,32(sp)
     3d2:	d202                	sw	zero,36(sp)
     3d4:	d402                	sw	zero,40(sp)
     3d6:	d602                	sw	zero,44(sp)
     3d8:	da02                	sw	zero,52(sp)
     3da:	dc02                	sw	zero,56(sp)
     3dc:	de02                	sw	zero,60(sp)
     3de:	c082                	sw	zero,64(sp)
     3e0:	c282                	sw	zero,68(sp)
     3e2:	c482                	sw	zero,72(sp)
     3e4:	c682                	sw	zero,76(sp)
     3e6:	c882                	sw	zero,80(sp)
     3e8:	ca82                	sw	zero,84(sp)
     3ea:	ce82                	sw	zero,92(sp)
     3ec:	cc82                	sw	zero,88(sp)
     3ee:	d082                	sw	zero,96(sp)
     3f0:	d282                	sw	zero,100(sp)
     3f2:	d682                	sw	zero,108(sp)
     3f4:	da82                	sw	zero,116(sp)
     3f6:	4f5000ef          	jal	ra,10ea <FSMC_NORSRAMInit>
     3fa:	4585                	li	a1,1
     3fc:	4501                	li	a0,0
     3fe:	5a7000ef          	jal	ra,11a4 <FSMC_NORSRAMCmd>
     402:	40fa                	lw	ra,156(sp)
     404:	446a                	lw	s0,152(sp)
     406:	44da                	lw	s1,148(sp)
     408:	494a                	lw	s2,144(sp)
     40a:	49ba                	lw	s3,140(sp)
     40c:	4a2a                	lw	s4,136(sp)
     40e:	4a9a                	lw	s5,132(sp)
     410:	4b0a                	lw	s6,128(sp)
     412:	610d                	addi	sp,sp,160
     414:	8082                	ret

00000416 <lcd_gpio_init>:
     416:	1101                	addi	sp,sp,-32
     418:	4585                	li	a1,1
     41a:	02000513          	li	a0,32
     41e:	ce06                	sw	ra,28(sp)
     420:	cc22                	sw	s0,24(sp)
     422:	7a1000ef          	jal	ra,13c2 <RCC_APB2PeriphClockCmd>
     426:	6789                	lui	a5,0x2
     428:	40011437          	lui	s0,0x40011
     42c:	00f11223          	sh	a5,4(sp)
     430:	47c1                	li	a5,16
     432:	c63e                	sw	a5,12(sp)
     434:	004c                	addi	a1,sp,4
     436:	478d                	li	a5,3
     438:	40040513          	addi	a0,s0,1024 # 40011400 <_eusrstack+0x20009400>
     43c:	c43e                	sw	a5,8(sp)
     43e:	585000ef          	jal	ra,11c2 <GPIO_Init>
     442:	40040513          	addi	a0,s0,1024
     446:	6589                	lui	a1,0x2
     448:	647000ef          	jal	ra,128e <GPIO_SetBits>
     44c:	6589                	lui	a1,0x2
     44e:	40040513          	addi	a0,s0,1024
     452:	641000ef          	jal	ra,1292 <GPIO_ResetBits>
     456:	06400513          	li	a0,100
     45a:	0dc010ef          	jal	ra,1536 <Delay_Ms>
     45e:	40040513          	addi	a0,s0,1024
     462:	6589                	lui	a1,0x2
     464:	62b000ef          	jal	ra,128e <GPIO_SetBits>
     468:	40f2                	lw	ra,28(sp)
     46a:	4462                	lw	s0,24(sp)
     46c:	6105                	addi	sp,sp,32
     46e:	8082                	ret

00000470 <lcd_address_set>:
     470:	600207b7          	lui	a5,0x60020
     474:	02a00713          	li	a4,42
     478:	fee78fa3          	sb	a4,-1(a5) # 6001ffff <_eusrstack+0x40017fff>
     47c:	00855713          	srli	a4,a0,0x8
     480:	00e78023          	sb	a4,0(a5)
     484:	0ff57513          	andi	a0,a0,255
     488:	00a78023          	sb	a0,0(a5)
     48c:	00865713          	srli	a4,a2,0x8
     490:	00e78023          	sb	a4,0(a5)
     494:	0ff67613          	andi	a2,a2,255
     498:	00c78023          	sb	a2,0(a5)
     49c:	02b00713          	li	a4,43
     4a0:	fee78fa3          	sb	a4,-1(a5)
     4a4:	0085d713          	srli	a4,a1,0x8
     4a8:	00e78023          	sb	a4,0(a5)
     4ac:	0ff5f593          	andi	a1,a1,255
     4b0:	00b78023          	sb	a1,0(a5)
     4b4:	0086d713          	srli	a4,a3,0x8
     4b8:	00e78023          	sb	a4,0(a5)
     4bc:	0ff6f693          	andi	a3,a3,255
     4c0:	00d78023          	sb	a3,0(a5)
     4c4:	02c00713          	li	a4,44
     4c8:	fee78fa3          	sb	a4,-1(a5)
     4cc:	8082                	ret

000004ce <lcd_clear>:
     4ce:	1141                	addi	sp,sp,-16
     4d0:	c422                	sw	s0,8(sp)
     4d2:	c226                	sw	s1,4(sp)
     4d4:	0ef00693          	li	a3,239
     4d8:	00855493          	srli	s1,a0,0x8
     4dc:	0ff57413          	andi	s0,a0,255
     4e0:	0ef00613          	li	a2,239
     4e4:	4581                	li	a1,0
     4e6:	4501                	li	a0,0
     4e8:	c606                	sw	ra,12(sp)
     4ea:	3759                	jal	470 <lcd_address_set>
     4ec:	0f000713          	li	a4,240
     4f0:	600206b7          	lui	a3,0x60020
     4f4:	0f000793          	li	a5,240
     4f8:	17fd                	addi	a5,a5,-1
     4fa:	00968023          	sb	s1,0(a3) # 60020000 <_eusrstack+0x40018000>
     4fe:	07c2                	slli	a5,a5,0x10
     500:	00868023          	sb	s0,0(a3)
     504:	83c1                	srli	a5,a5,0x10
     506:	fbed                	bnez	a5,4f8 <lcd_clear+0x2a>
     508:	177d                	addi	a4,a4,-1
     50a:	0742                	slli	a4,a4,0x10
     50c:	8341                	srli	a4,a4,0x10
     50e:	f37d                	bnez	a4,4f4 <lcd_clear+0x26>
     510:	40b2                	lw	ra,12(sp)
     512:	4422                	lw	s0,8(sp)
     514:	4492                	lw	s1,4(sp)
     516:	0141                	addi	sp,sp,16
     518:	8082                	ret

0000051a <lcd_init>:
     51a:	1141                	addi	sp,sp,-16
     51c:	c606                	sw	ra,12(sp)
     51e:	c422                	sw	s0,8(sp)
     520:	c226                	sw	s1,4(sp)
     522:	3dd5                	jal	416 <lcd_gpio_init>
     524:	3b6d                	jal	2de <lcd_fsmc_init>
     526:	60020437          	lui	s0,0x60020
     52a:	4791                	li	a5,4
     52c:	fef40fa3          	sb	a5,-1(s0) # 6001ffff <_eusrstack+0x40017fff>
     530:	3b51                	jal	2c4 <lcd_read_data>
     532:	3b49                	jal	2c4 <lcd_read_data>
     534:	3b41                	jal	2c4 <lcd_read_data>
     536:	01051493          	slli	s1,a0,0x10
     53a:	80c1                	srli	s1,s1,0x10
     53c:	04a2                	slli	s1,s1,0x8
     53e:	04c2                	slli	s1,s1,0x10
     540:	3351                	jal	2c4 <lcd_read_data>
     542:	80c1                	srli	s1,s1,0x10
     544:	8d45                	or	a0,a0,s1
     546:	01051593          	slli	a1,a0,0x10
     54a:	00006537          	lui	a0,0x6
     54e:	81c1                	srli	a1,a1,0x10
     550:	ca850513          	addi	a0,a0,-856 # 5ca8 <asc2_3216+0x1780>
     554:	240010ef          	jal	ra,1794 <iprintf>
     558:	03200513          	li	a0,50
     55c:	7db000ef          	jal	ra,1536 <Delay_Ms>
     560:	03600793          	li	a5,54
     564:	fef40fa3          	sb	a5,-1(s0)
     568:	00040023          	sb	zero,0(s0)
     56c:	03a00613          	li	a2,58
     570:	fec40fa3          	sb	a2,-1(s0)
     574:	4795                	li	a5,5
     576:	00f40023          	sb	a5,0(s0)
     57a:	fb200793          	li	a5,-78
     57e:	fef40fa3          	sb	a5,-1(s0)
     582:	46b1                	li	a3,12
     584:	00d40023          	sb	a3,0(s0)
     588:	00d40023          	sb	a3,0(s0)
     58c:	00040023          	sb	zero,0(s0)
     590:	03300793          	li	a5,51
     594:	00f40023          	sb	a5,0(s0)
     598:	00f40023          	sb	a5,0(s0)
     59c:	fb700713          	li	a4,-73
     5a0:	fee40fa3          	sb	a4,-1(s0)
     5a4:	00040023          	sb	zero,0(s0)
     5a8:	fbb00713          	li	a4,-69
     5ac:	fee40fa3          	sb	a4,-1(s0)
     5b0:	03f00313          	li	t1,63
     5b4:	00640023          	sb	t1,0(s0)
     5b8:	fc000713          	li	a4,-64
     5bc:	fee40fa3          	sb	a4,-1(s0)
     5c0:	02c00713          	li	a4,44
     5c4:	00e40023          	sb	a4,0(s0)
     5c8:	fc200713          	li	a4,-62
     5cc:	fee40fa3          	sb	a4,-1(s0)
     5d0:	4705                	li	a4,1
     5d2:	00e40023          	sb	a4,0(s0)
     5d6:	fc300713          	li	a4,-61
     5da:	fee40fa3          	sb	a4,-1(s0)
     5de:	48b5                	li	a7,13
     5e0:	01140023          	sb	a7,0(s0)
     5e4:	fc400713          	li	a4,-60
     5e8:	fee40fa3          	sb	a4,-1(s0)
     5ec:	02000713          	li	a4,32
     5f0:	00e40023          	sb	a4,0(s0)
     5f4:	fc600713          	li	a4,-58
     5f8:	fee40fa3          	sb	a4,-1(s0)
     5fc:	470d                	li	a4,3
     5fe:	00e40023          	sb	a4,0(s0)
     602:	fd000593          	li	a1,-48
     606:	feb40fa3          	sb	a1,-1(s0)
     60a:	fa400593          	li	a1,-92
     60e:	00b40023          	sb	a1,0(s0)
     612:	fa100593          	li	a1,-95
     616:	00b40023          	sb	a1,0(s0)
     61a:	5581                	li	a1,-32
     61c:	feb40fa3          	sb	a1,-1(s0)
     620:	5841                	li	a6,-16
     622:	01040023          	sb	a6,0(s0)
     626:	00e40023          	sb	a4,0(s0)
     62a:	45a5                	li	a1,9
     62c:	00b40023          	sb	a1,0(s0)
     630:	00e40023          	sb	a4,0(s0)
     634:	4541                	li	a0,16
     636:	00e40023          	sb	a4,0(s0)
     63a:	02d00593          	li	a1,45
     63e:	00a40023          	sb	a0,0(s0)
     642:	00b40023          	sb	a1,0(s0)
     646:	04300713          	li	a4,67
     64a:	00e40023          	sb	a4,0(s0)
     64e:	00640023          	sb	t1,0(s0)
     652:	00f40023          	sb	a5,0(s0)
     656:	01140023          	sb	a7,0(s0)
     65a:	4739                	li	a4,14
     65c:	00e40023          	sb	a4,0(s0)
     660:	02900493          	li	s1,41
     664:	00940023          	sb	s1,0(s0)
     668:	03200893          	li	a7,50
     66c:	01140023          	sb	a7,0(s0)
     670:	5885                	li	a7,-31
     672:	ff140fa3          	sb	a7,-1(s0)
     676:	01040023          	sb	a6,0(s0)
     67a:	00d40023          	sb	a3,0(s0)
     67e:	00a40023          	sb	a0,0(s0)
     682:	00e40023          	sb	a4,0(s0)
     686:	00e40023          	sb	a4,0(s0)
     68a:	4729                	li	a4,10
     68c:	00e40023          	sb	a4,0(s0)
     690:	00b40023          	sb	a1,0(s0)
     694:	00f40023          	sb	a5,0(s0)
     698:	04500793          	li	a5,69
     69c:	00f40023          	sb	a5,0(s0)
     6a0:	00c40023          	sb	a2,0(s0)
     6a4:	47d1                	li	a5,20
     6a6:	00f40023          	sb	a5,0(s0)
     6aa:	47e5                	li	a5,25
     6ac:	00f40023          	sb	a5,0(s0)
     6b0:	03100793          	li	a5,49
     6b4:	00f40023          	sb	a5,0(s0)
     6b8:	03700793          	li	a5,55
     6bc:	00f40023          	sb	a5,0(s0)
     6c0:	02100793          	li	a5,33
     6c4:	fef40fa3          	sb	a5,-1(s0)
     6c8:	47c5                	li	a5,17
     6ca:	fef40fa3          	sb	a5,-1(s0)
     6ce:	06400513          	li	a0,100
     6d2:	665000ef          	jal	ra,1536 <Delay_Ms>
     6d6:	4501                	li	a0,0
     6d8:	3bdd                	jal	4ce <lcd_clear>
     6da:	40011537          	lui	a0,0x40011
     6de:	6591                	lui	a1,0x4
     6e0:	c0050513          	addi	a0,a0,-1024 # 40010c00 <_eusrstack+0x20008c00>
     6e4:	3ab000ef          	jal	ra,128e <GPIO_SetBits>
     6e8:	fe940fa3          	sb	s1,-1(s0)
     6ec:	40b2                	lw	ra,12(sp)
     6ee:	4422                	lw	s0,8(sp)
     6f0:	4492                	lw	s1,4(sp)
     6f2:	0141                	addi	sp,sp,16
     6f4:	8082                	ret

000006f6 <lcd_fill>:
     6f6:	1101                	addi	sp,sp,-32
     6f8:	cc22                	sw	s0,24(sp)
     6fa:	c84a                	sw	s2,16(sp)
     6fc:	c64e                	sw	s3,12(sp)
     6fe:	c452                	sw	s4,8(sp)
     700:	c256                	sw	s5,4(sp)
     702:	ce06                	sw	ra,28(sp)
     704:	ca26                	sw	s1,20(sp)
     706:	89aa                	mv	s3,a0
     708:	842e                	mv	s0,a1
     70a:	8a32                	mv	s4,a2
     70c:	8936                	mv	s2,a3
     70e:	8aba                	mv	s5,a4
     710:	3385                	jal	470 <lcd_address_set>
     712:	02897663          	bgeu	s2,s0,73e <lcd_fill+0x48>
     716:	40f2                	lw	ra,28(sp)
     718:	4462                	lw	s0,24(sp)
     71a:	44d2                	lw	s1,20(sp)
     71c:	4942                	lw	s2,16(sp)
     71e:	49b2                	lw	s3,12(sp)
     720:	4a22                	lw	s4,8(sp)
     722:	4a92                	lw	s5,4(sp)
     724:	6105                	addi	sp,sp,32
     726:	8082                	ret
     728:	0485                	addi	s1,s1,1
     72a:	8556                	mv	a0,s5
     72c:	04c2                	slli	s1,s1,0x10
     72e:	3641                	jal	2ae <lcd_write_half_word>
     730:	80c1                	srli	s1,s1,0x10
     732:	fe9a7be3          	bgeu	s4,s1,728 <lcd_fill+0x32>
     736:	0405                	addi	s0,s0,1
     738:	0442                	slli	s0,s0,0x10
     73a:	8041                	srli	s0,s0,0x10
     73c:	bfd9                	j	712 <lcd_fill+0x1c>
     73e:	84ce                	mv	s1,s3
     740:	bfcd                	j	732 <lcd_fill+0x3c>

00000742 <lcd_show_char>:
     742:	0016d893          	srli	a7,a3,0x1
     746:	0f000813          	li	a6,240
     74a:	411808b3          	sub	a7,a6,a7
     74e:	18a8ef63          	bltu	a7,a0,8ec <__stack_size+0xec>
     752:	40d80833          	sub	a6,a6,a3
     756:	18b86b63          	bltu	a6,a1,8ec <__stack_size+0xec>
     75a:	7179                	addi	sp,sp,-48
     75c:	d422                	sw	s0,40(sp)
     75e:	d606                	sw	ra,44(sp)
     760:	fe060413          	addi	s0,a2,-32
     764:	d226                	sw	s1,36(sp)
     766:	d04a                	sw	s2,32(sp)
     768:	ce4e                	sw	s3,28(sp)
     76a:	cc52                	sw	s4,24(sp)
     76c:	ca56                	sw	s5,20(sp)
     76e:	c85a                	sw	s6,16(sp)
     770:	c65e                	sw	s7,12(sp)
     772:	c462                	sw	s8,8(sp)
     774:	4641                	li	a2,16
     776:	0ff47413          	andi	s0,s0,255
     77a:	06c69a63          	bne	a3,a2,7ee <lcd_show_char+0xac>
     77e:	00f58693          	addi	a3,a1,15 # 400f <asc2_2412+0xc87>
     782:	00750613          	addi	a2,a0,7
     786:	06c2                	slli	a3,a3,0x10
     788:	0642                	slli	a2,a2,0x10
     78a:	82c1                	srli	a3,a3,0x10
     78c:	8241                	srli	a2,a2,0x10
     78e:	6a0d                	lui	s4,0x3
     790:	31c5                	jal	470 <lcd_address_set>
     792:	0412                	slli	s0,s0,0x4
     794:	4981                	li	s3,0
     796:	da8a0a13          	addi	s4,s4,-600 # 2da8 <asc2_1608>
     79a:	20000bb7          	lui	s7,0x20000
     79e:	4ac1                	li	s5,16
     7a0:	013407b3          	add	a5,s0,s3
     7a4:	97d2                	add	a5,a5,s4
     7a6:	0007c903          	lbu	s2,0(a5)
     7aa:	44a1                	li	s1,8
     7ac:	01891793          	slli	a5,s2,0x18
     7b0:	87e1                	srai	a5,a5,0x18
     7b2:	0207db63          	bgez	a5,7e8 <lcd_show_char+0xa6>
     7b6:	070bd503          	lhu	a0,112(s7) # 20000070 <FORE_COLOR>
     7ba:	14fd                	addi	s1,s1,-1
     7bc:	0906                	slli	s2,s2,0x1
     7be:	0ff4f493          	andi	s1,s1,255
     7c2:	34f5                	jal	2ae <lcd_write_half_word>
     7c4:	0ff97913          	andi	s2,s2,255
     7c8:	f0f5                	bnez	s1,7ac <lcd_show_char+0x6a>
     7ca:	0985                	addi	s3,s3,1
     7cc:	fd599ae3          	bne	s3,s5,7a0 <lcd_show_char+0x5e>
     7d0:	50b2                	lw	ra,44(sp)
     7d2:	5422                	lw	s0,40(sp)
     7d4:	5492                	lw	s1,36(sp)
     7d6:	5902                	lw	s2,32(sp)
     7d8:	49f2                	lw	s3,28(sp)
     7da:	4a62                	lw	s4,24(sp)
     7dc:	4ad2                	lw	s5,20(sp)
     7de:	4b42                	lw	s6,16(sp)
     7e0:	4bb2                	lw	s7,12(sp)
     7e2:	4c22                	lw	s8,8(sp)
     7e4:	6145                	addi	sp,sp,48
     7e6:	8082                	ret
     7e8:	8181d503          	lhu	a0,-2024(gp) # 20000088 <_edata>
     7ec:	b7f9                	j	7ba <lcd_show_char+0x78>
     7ee:	4661                	li	a2,24
     7f0:	06c69b63          	bne	a3,a2,866 <__stack_size+0x66>
     7f4:	01758693          	addi	a3,a1,23
     7f8:	00b50613          	addi	a2,a0,11
     7fc:	06c2                	slli	a3,a3,0x10
     7fe:	0642                	slli	a2,a2,0x10
     800:	82c1                	srli	a3,a3,0x10
     802:	8241                	srli	a2,a2,0x10
     804:	31b5                	jal	470 <lcd_address_set>
     806:	18000793          	li	a5,384
     80a:	02f40433          	mul	s0,s0,a5
     80e:	6a0d                	lui	s4,0x3
     810:	4481                	li	s1,0
     812:	03000b13          	li	s6,48
     816:	388a0a13          	addi	s4,s4,904 # 3388 <asc2_2412>
     81a:	20000c37          	lui	s8,0x20000
     81e:	800d                	srli	s0,s0,0x3
     820:	0ff4f793          	andi	a5,s1,255
     824:	fb6486e3          	beq	s1,s6,7d0 <lcd_show_char+0x8e>
     828:	00940733          	add	a4,s0,s1
     82c:	9752                	add	a4,a4,s4
     82e:	8b85                	andi	a5,a5,1
     830:	00074983          	lbu	s3,0(a4)
     834:	4a91                	li	s5,4
     836:	e391                	bnez	a5,83a <__stack_size+0x3a>
     838:	4aa1                	li	s5,8
     83a:	4901                	li	s2,0
     83c:	01899793          	slli	a5,s3,0x18
     840:	87e1                	srai	a5,a5,0x18
     842:	0007df63          	bgez	a5,860 <__stack_size+0x60>
     846:	070c5503          	lhu	a0,112(s8) # 20000070 <FORE_COLOR>
     84a:	0905                	addi	s2,s2,1
     84c:	0986                	slli	s3,s3,0x1
     84e:	0ff97913          	andi	s2,s2,255
     852:	3cb1                	jal	2ae <lcd_write_half_word>
     854:	0ff9f993          	andi	s3,s3,255
     858:	ff2a92e3          	bne	s5,s2,83c <__stack_size+0x3c>
     85c:	0485                	addi	s1,s1,1
     85e:	b7c9                	j	820 <__stack_size+0x20>
     860:	8181d503          	lhu	a0,-2024(gp) # 20000088 <_edata>
     864:	b7dd                	j	84a <__stack_size+0x4a>
     866:	02000613          	li	a2,32
     86a:	06c69063          	bne	a3,a2,8ca <__stack_size+0xca>
     86e:	01f58693          	addi	a3,a1,31
     872:	00f50613          	addi	a2,a0,15
     876:	06c2                	slli	a3,a3,0x10
     878:	0642                	slli	a2,a2,0x10
     87a:	82c1                	srli	a3,a3,0x10
     87c:	8241                	srli	a2,a2,0x10
     87e:	6a11                	lui	s4,0x4
     880:	3ec5                	jal	470 <lcd_address_set>
     882:	041a                	slli	s0,s0,0x6
     884:	4981                	li	s3,0
     886:	528a0a13          	addi	s4,s4,1320 # 4528 <asc2_3216>
     88a:	20000bb7          	lui	s7,0x20000
     88e:	04000a93          	li	s5,64
     892:	008987b3          	add	a5,s3,s0
     896:	97d2                	add	a5,a5,s4
     898:	0007c903          	lbu	s2,0(a5)
     89c:	44a1                	li	s1,8
     89e:	01891793          	slli	a5,s2,0x18
     8a2:	87e1                	srai	a5,a5,0x18
     8a4:	0207d063          	bgez	a5,8c4 <__stack_size+0xc4>
     8a8:	070bd503          	lhu	a0,112(s7) # 20000070 <FORE_COLOR>
     8ac:	14fd                	addi	s1,s1,-1
     8ae:	0906                	slli	s2,s2,0x1
     8b0:	0ff4f493          	andi	s1,s1,255
     8b4:	3aed                	jal	2ae <lcd_write_half_word>
     8b6:	0ff97913          	andi	s2,s2,255
     8ba:	f0f5                	bnez	s1,89e <__stack_size+0x9e>
     8bc:	0985                	addi	s3,s3,1
     8be:	fd599ae3          	bne	s3,s5,892 <__stack_size+0x92>
     8c2:	b739                	j	7d0 <lcd_show_char+0x8e>
     8c4:	8181d503          	lhu	a0,-2024(gp) # 20000088 <_edata>
     8c8:	b7d5                	j	8ac <__stack_size+0xac>
     8ca:	5422                	lw	s0,40(sp)
     8cc:	50b2                	lw	ra,44(sp)
     8ce:	5492                	lw	s1,36(sp)
     8d0:	5902                	lw	s2,32(sp)
     8d2:	49f2                	lw	s3,28(sp)
     8d4:	4a62                	lw	s4,24(sp)
     8d6:	4ad2                	lw	s5,20(sp)
     8d8:	4b42                	lw	s6,16(sp)
     8da:	4bb2                	lw	s7,12(sp)
     8dc:	4c22                	lw	s8,8(sp)
     8de:	00006537          	lui	a0,0x6
     8e2:	cb450513          	addi	a0,a0,-844 # 5cb4 <asc2_3216+0x178c>
     8e6:	6145                	addi	sp,sp,48
     8e8:	6ad0006f          	j	1794 <iprintf>
     8ec:	8082                	ret

000008ee <lcd_show_string>:
     8ee:	7155                	addi	sp,sp,-208
     8f0:	db26                	sw	s1,180(sp)
     8f2:	d94a                	sw	s2,176(sp)
     8f4:	d74e                	sw	s3,172(sp)
     8f6:	84aa                	mv	s1,a0
     8f8:	89b2                	mv	s3,a2
     8fa:	892e                	mv	s2,a1
     8fc:	08000613          	li	a2,128
     900:	4581                	li	a1,0
     902:	0808                	addi	a0,sp,16
     904:	dd22                	sw	s0,184(sp)
     906:	c1ba                	sw	a4,192(sp)
     908:	c3be                	sw	a5,196(sp)
     90a:	df06                	sw	ra,188(sp)
     90c:	d552                	sw	s4,168(sp)
     90e:	d356                	sw	s5,164(sp)
     910:	d15a                	sw	s6,160(sp)
     912:	cf5e                	sw	s7,156(sp)
     914:	8436                	mv	s0,a3
     916:	c5c2                	sw	a6,200(sp)
     918:	c7c6                	sw	a7,204(sp)
     91a:	30dd                	jal	200 <memset>
     91c:	ff79f713          	andi	a4,s3,-9
     920:	47c1                	li	a5,16
     922:	00f70d63          	beq	a4,a5,93c <lcd_show_string+0x4e>
     926:	02000793          	li	a5,32
     92a:	00f98963          	beq	s3,a5,93c <lcd_show_string+0x4e>
     92e:	00006537          	lui	a0,0x6
     932:	85ce                	mv	a1,s3
     934:	d0050513          	addi	a0,a0,-768 # 5d00 <asc2_3216+0x17d8>
     938:	65d000ef          	jal	ra,1794 <iprintf>
     93c:	0194                	addi	a3,sp,192
     93e:	8622                	mv	a2,s0
     940:	06400593          	li	a1,100
     944:	0808                	addi	a0,sp,16
     946:	c636                	sw	a3,12(sp)
     948:	7fb000ef          	jal	ra,1942 <vsniprintf>
     94c:	0019d713          	srli	a4,s3,0x1
     950:	0f000793          	li	a5,240
     954:	01071b13          	slli	s6,a4,0x10
     958:	6ac1                	lui	s5,0x10
     95a:	40e78bb3          	sub	s7,a5,a4
     95e:	010b5b13          	srli	s6,s6,0x10
     962:	0800                	addi	s0,sp,16
     964:	41378a33          	sub	s4,a5,s3
     968:	800a8a93          	addi	s5,s5,-2048 # f800 <_data_lma+0x9a1c>
     96c:	00044783          	lbu	a5,0(s0)
     970:	ef81                	bnez	a5,988 <lcd_show_string+0x9a>
     972:	50fa                	lw	ra,188(sp)
     974:	546a                	lw	s0,184(sp)
     976:	54da                	lw	s1,180(sp)
     978:	594a                	lw	s2,176(sp)
     97a:	59ba                	lw	s3,172(sp)
     97c:	5a2a                	lw	s4,168(sp)
     97e:	5a9a                	lw	s5,164(sp)
     980:	5b0a                	lw	s6,160(sp)
     982:	4bfa                	lw	s7,156(sp)
     984:	6169                	addi	sp,sp,208
     986:	8082                	ret
     988:	009bf763          	bgeu	s7,s1,996 <lcd_show_string+0xa8>
     98c:	994e                	add	s2,s2,s3
     98e:	0942                	slli	s2,s2,0x10
     990:	01095913          	srli	s2,s2,0x10
     994:	4481                	li	s1,0
     996:	012a7663          	bgeu	s4,s2,9a2 <lcd_show_string+0xb4>
     99a:	8556                	mv	a0,s5
     99c:	3e0d                	jal	4ce <lcd_clear>
     99e:	4901                	li	s2,0
     9a0:	4481                	li	s1,0
     9a2:	00044603          	lbu	a2,0(s0)
     9a6:	8526                	mv	a0,s1
     9a8:	94da                	add	s1,s1,s6
     9aa:	86ce                	mv	a3,s3
     9ac:	85ca                	mv	a1,s2
     9ae:	04c2                	slli	s1,s1,0x10
     9b0:	3b49                	jal	742 <lcd_show_char>
     9b2:	80c1                	srli	s1,s1,0x10
     9b4:	0405                	addi	s0,s0,1
     9b6:	bf5d                	j	96c <lcd_show_string+0x7e>

000009b8 <Basic_Key_Handle>:
     9b8:	1141                	addi	sp,sp,-16
     9ba:	c422                	sw	s0,8(sp)
     9bc:	40012437          	lui	s0,0x40012
     9c0:	45c1                	li	a1,16
     9c2:	80040513          	addi	a0,s0,-2048 # 40011800 <_eusrstack+0x20009800>
     9c6:	c606                	sw	ra,12(sp)
     9c8:	0bd000ef          	jal	ra,1284 <GPIO_ReadInputDataBit>
     9cc:	e10d                	bnez	a0,9ee <Basic_Key_Handle+0x36>
     9ce:	4529                	li	a0,10
     9d0:	367000ef          	jal	ra,1536 <Delay_Ms>
     9d4:	45c1                	li	a1,16
     9d6:	80040513          	addi	a0,s0,-2048
     9da:	0ab000ef          	jal	ra,1284 <GPIO_ReadInputDataBit>
     9de:	4799                	li	a5,6
     9e0:	c111                	beqz	a0,9e4 <Basic_Key_Handle+0x2c>
     9e2:	4781                	li	a5,0
     9e4:	40b2                	lw	ra,12(sp)
     9e6:	4422                	lw	s0,8(sp)
     9e8:	853e                	mv	a0,a5
     9ea:	0141                	addi	sp,sp,16
     9ec:	8082                	ret
     9ee:	02000593          	li	a1,32
     9f2:	80040513          	addi	a0,s0,-2048
     9f6:	08f000ef          	jal	ra,1284 <GPIO_ReadInputDataBit>
     9fa:	ed01                	bnez	a0,a12 <Basic_Key_Handle+0x5a>
     9fc:	4529                	li	a0,10
     9fe:	339000ef          	jal	ra,1536 <Delay_Ms>
     a02:	02000593          	li	a1,32
     a06:	80040513          	addi	a0,s0,-2048
     a0a:	07b000ef          	jal	ra,1284 <GPIO_ReadInputDataBit>
     a0e:	479d                	li	a5,7
     a10:	bfc1                	j	9e0 <Basic_Key_Handle+0x28>
     a12:	4589                	li	a1,2
     a14:	80040513          	addi	a0,s0,-2048
     a18:	06d000ef          	jal	ra,1284 <GPIO_ReadInputDataBit>
     a1c:	ed01                	bnez	a0,a34 <Basic_Key_Handle+0x7c>
     a1e:	4529                	li	a0,10
     a20:	317000ef          	jal	ra,1536 <Delay_Ms>
     a24:	4589                	li	a1,2
     a26:	80040513          	addi	a0,s0,-2048
     a2a:	05b000ef          	jal	ra,1284 <GPIO_ReadInputDataBit>
     a2e:	00153793          	seqz	a5,a0
     a32:	bf4d                	j	9e4 <Basic_Key_Handle+0x2c>
     a34:	4591                	li	a1,4
     a36:	80040513          	addi	a0,s0,-2048
     a3a:	04b000ef          	jal	ra,1284 <GPIO_ReadInputDataBit>
     a3e:	e919                	bnez	a0,a54 <Basic_Key_Handle+0x9c>
     a40:	4529                	li	a0,10
     a42:	2f5000ef          	jal	ra,1536 <Delay_Ms>
     a46:	4591                	li	a1,4
     a48:	80040513          	addi	a0,s0,-2048
     a4c:	039000ef          	jal	ra,1284 <GPIO_ReadInputDataBit>
     a50:	4789                	li	a5,2
     a52:	b779                	j	9e0 <Basic_Key_Handle+0x28>
     a54:	45a1                	li	a1,8
     a56:	80040513          	addi	a0,s0,-2048
     a5a:	02b000ef          	jal	ra,1284 <GPIO_ReadInputDataBit>
     a5e:	e919                	bnez	a0,a74 <Basic_Key_Handle+0xbc>
     a60:	4529                	li	a0,10
     a62:	2d5000ef          	jal	ra,1536 <Delay_Ms>
     a66:	45a1                	li	a1,8
     a68:	80040513          	addi	a0,s0,-2048
     a6c:	019000ef          	jal	ra,1284 <GPIO_ReadInputDataBit>
     a70:	4791                	li	a5,4
     a72:	b7bd                	j	9e0 <Basic_Key_Handle+0x28>
     a74:	40011437          	lui	s0,0x40011
     a78:	04000593          	li	a1,64
     a7c:	40040513          	addi	a0,s0,1024 # 40011400 <_eusrstack+0x20009400>
     a80:	005000ef          	jal	ra,1284 <GPIO_ReadInputDataBit>
     a84:	ed01                	bnez	a0,a9c <Basic_Key_Handle+0xe4>
     a86:	4529                	li	a0,10
     a88:	2af000ef          	jal	ra,1536 <Delay_Ms>
     a8c:	04000593          	li	a1,64
     a90:	40040513          	addi	a0,s0,1024
     a94:	7f0000ef          	jal	ra,1284 <GPIO_ReadInputDataBit>
     a98:	478d                	li	a5,3
     a9a:	b799                	j	9e0 <Basic_Key_Handle+0x28>
     a9c:	6589                	lui	a1,0x2
     a9e:	40040513          	addi	a0,s0,1024
     aa2:	7e2000ef          	jal	ra,1284 <GPIO_ReadInputDataBit>
     aa6:	f2051ee3          	bnez	a0,9e2 <Basic_Key_Handle+0x2a>
     aaa:	4529                	li	a0,10
     aac:	28b000ef          	jal	ra,1536 <Delay_Ms>
     ab0:	6589                	lui	a1,0x2
     ab2:	40040513          	addi	a0,s0,1024
     ab6:	7ce000ef          	jal	ra,1284 <GPIO_ReadInputDataBit>
     aba:	f20514e3          	bnez	a0,9e2 <Basic_Key_Handle+0x2a>
     abe:	4795                	li	a5,5
     ac0:	b715                	j	9e4 <Basic_Key_Handle+0x2c>

00000ac2 <creatsnake>:
     ac2:	1141                	addi	sp,sp,-16
     ac4:	4531                	li	a0,12
     ac6:	c606                	sw	ra,12(sp)
     ac8:	c422                	sw	s0,8(sp)
     aca:	c226                	sw	s1,4(sp)
     acc:	339000ef          	jal	ra,1604 <malloc>
     ad0:	84aa                	mv	s1,a0
     ad2:	82a1aa23          	sw	a0,-1996(gp) # 200000a4 <head>
     ad6:	4531                	li	a0,12
     ad8:	32d000ef          	jal	ra,1604 <malloc>
     adc:	842a                	mv	s0,a0
     ade:	4531                	li	a0,12
     ae0:	325000ef          	jal	ra,1604 <malloc>
     ae4:	47c9                	li	a5,18
     ae6:	4771                	li	a4,28
     ae8:	c01c                	sw	a5,0(s0)
     aea:	c480                	sw	s0,8(s1)
     aec:	c058                	sw	a4,4(s0)
     aee:	c408                	sw	a0,8(s0)
     af0:	40b2                	lw	ra,12(sp)
     af2:	4422                	lw	s0,8(sp)
     af4:	c09c                	sw	a5,0(s1)
     af6:	c0dc                	sw	a5,4(s1)
     af8:	c11c                	sw	a5,0(a0)
     afa:	02600793          	li	a5,38
     afe:	c15c                	sw	a5,4(a0)
     b00:	00052423          	sw	zero,8(a0)
     b04:	4492                	lw	s1,4(sp)
     b06:	0141                	addi	sp,sp,16
     b08:	8082                	ret

00000b0a <printsnake>:
     b0a:	1141                	addi	sp,sp,-16
     b0c:	c226                	sw	s1,4(sp)
     b0e:	64c1                	lui	s1,0x10
     b10:	c422                	sw	s0,8(sp)
     b12:	c606                	sw	ra,12(sp)
     b14:	8341a403          	lw	s0,-1996(gp) # 200000a4 <head>
     b18:	80048493          	addi	s1,s1,-2048 # f800 <_data_lma+0x9a1c>
     b1c:	4781                	li	a5,0
     b1e:	00045603          	lhu	a2,0(s0)
     b22:	00445683          	lhu	a3,4(s0)
     b26:	4418                	lw	a4,8(s0)
     b28:	ffc60513          	addi	a0,a2,-4
     b2c:	ffc68593          	addi	a1,a3,-4
     b30:	0611                	addi	a2,a2,4
     b32:	0691                	addi	a3,a3,4
     b34:	0542                	slli	a0,a0,0x10
     b36:	05c2                	slli	a1,a1,0x10
     b38:	0642                	slli	a2,a2,0x10
     b3a:	06c2                	slli	a3,a3,0x10
     b3c:	8141                	srli	a0,a0,0x10
     b3e:	81c1                	srli	a1,a1,0x10
     b40:	8241                	srli	a2,a2,0x10
     b42:	82c1                	srli	a3,a3,0x10
     b44:	eb01                	bnez	a4,b54 <printsnake+0x4a>
     b46:	4422                	lw	s0,8(sp)
     b48:	40b2                	lw	ra,12(sp)
     b4a:	4492                	lw	s1,4(sp)
     b4c:	7e000713          	li	a4,2016
     b50:	0141                	addi	sp,sp,16
     b52:	b655                	j	6f6 <lcd_fill>
     b54:	8726                	mv	a4,s1
     b56:	c391                	beqz	a5,b5a <printsnake+0x50>
     b58:	477d                	li	a4,31
     b5a:	3e71                	jal	6f6 <lcd_fill>
     b5c:	4785                	li	a5,1
     b5e:	4400                	lw	s0,8(s0)
     b60:	bf7d                	j	b1e <printsnake+0x14>

00000b62 <movesnake>:
     b62:	1101                	addi	sp,sp,-32
     b64:	c64e                	sw	s3,12(sp)
     b66:	8341a783          	lw	a5,-1996(gp) # 200000a4 <head>
     b6a:	ca26                	sw	s1,20(sp)
     b6c:	c84a                	sw	s2,16(sp)
     b6e:	4384                	lw	s1,0(a5)
     b70:	0047a903          	lw	s2,4(a5)
     b74:	ce06                	sw	ra,28(sp)
     b76:	cc22                	sw	s0,24(sp)
     b78:	3581                	jal	9b8 <Basic_Key_Handle>
     b7a:	81b18793          	addi	a5,gp,-2021 # 2000008b <key>
     b7e:	c119                	beqz	a0,b84 <movesnake+0x22>
     b80:	00a78023          	sb	a0,0(a5)
     b84:	0007c783          	lbu	a5,0(a5)
     b88:	4689                	li	a3,2
     b8a:	12d78963          	beq	a5,a3,cbc <movesnake+0x15a>
     b8e:	0ef6ef63          	bltu	a3,a5,c8c <movesnake+0x12a>
     b92:	4705                	li	a4,1
     b94:	10e78a63          	beq	a5,a4,ca8 <movesnake+0x146>
     b98:	8341a403          	lw	s0,-1996(gp) # 200000a4 <head>
     b9c:	401c                	lw	a5,0(s0)
     b9e:	00979563          	bne	a5,s1,ba8 <movesnake+0x46>
     ba2:	405c                	lw	a5,4(s0)
     ba4:	15278163          	beq	a5,s2,ce6 <movesnake+0x184>
     ba8:	4531                	li	a0,12
     baa:	25b000ef          	jal	ra,1604 <malloc>
     bae:	c104                	sw	s1,0(a0)
     bb0:	01252223          	sw	s2,4(a0)
     bb4:	04c2                	slli	s1,s1,0x10
     bb6:	0942                	slli	s2,s2,0x10
     bb8:	80c1                	srli	s1,s1,0x10
     bba:	01095913          	srli	s2,s2,0x10
     bbe:	00490693          	addi	a3,s2,4
     bc2:	00448613          	addi	a2,s1,4
     bc6:	1971                	addi	s2,s2,-4
     bc8:	14f1                	addi	s1,s1,-4
     bca:	c500                	sw	s0,8(a0)
     bcc:	82a1aa23          	sw	a0,-1996(gp) # 200000a4 <head>
     bd0:	6741                	lui	a4,0x10
     bd2:	01049513          	slli	a0,s1,0x10
     bd6:	06c2                	slli	a3,a3,0x10
     bd8:	0642                	slli	a2,a2,0x10
     bda:	01091593          	slli	a1,s2,0x10
     bde:	80070713          	addi	a4,a4,-2048 # f800 <_data_lma+0x9a1c>
     be2:	82c1                	srli	a3,a3,0x10
     be4:	8241                	srli	a2,a2,0x10
     be6:	81c1                	srli	a1,a1,0x10
     be8:	8141                	srli	a0,a0,0x10
     bea:	3631                	jal	6f6 <lcd_fill>
     bec:	00045503          	lhu	a0,0(s0)
     bf0:	00445583          	lhu	a1,4(s0)
     bf4:	477d                	li	a4,31
     bf6:	00450613          	addi	a2,a0,4
     bfa:	00458693          	addi	a3,a1,4 # 2004 <__ssputs_r+0x1c>
     bfe:	1571                	addi	a0,a0,-4
     c00:	15f1                	addi	a1,a1,-4
     c02:	06c2                	slli	a3,a3,0x10
     c04:	0642                	slli	a2,a2,0x10
     c06:	05c2                	slli	a1,a1,0x10
     c08:	0542                	slli	a0,a0,0x10
     c0a:	82c1                	srli	a3,a3,0x10
     c0c:	8241                	srli	a2,a2,0x10
     c0e:	81c1                	srli	a1,a1,0x10
     c10:	8141                	srli	a0,a0,0x10
     c12:	34d5                	jal	6f6 <lcd_fill>
     c14:	84a2                	mv	s1,s0
     c16:	441c                	lw	a5,8(s0)
     c18:	e7e1                	bnez	a5,ce0 <movesnake+0x17e>
     c1a:	00045503          	lhu	a0,0(s0)
     c1e:	00445583          	lhu	a1,4(s0)
     c22:	6741                	lui	a4,0x10
     c24:	00450613          	addi	a2,a0,4
     c28:	00458693          	addi	a3,a1,4
     c2c:	1571                	addi	a0,a0,-4
     c2e:	15f1                	addi	a1,a1,-4
     c30:	06c2                	slli	a3,a3,0x10
     c32:	0642                	slli	a2,a2,0x10
     c34:	05c2                	slli	a1,a1,0x10
     c36:	0542                	slli	a0,a0,0x10
     c38:	177d                	addi	a4,a4,-1
     c3a:	82c1                	srli	a3,a3,0x10
     c3c:	8241                	srli	a2,a2,0x10
     c3e:	81c1                	srli	a1,a1,0x10
     c40:	8141                	srli	a0,a0,0x10
     c42:	3c55                	jal	6f6 <lcd_fill>
     c44:	0004d503          	lhu	a0,0(s1)
     c48:	0044d583          	lhu	a1,4(s1)
     c4c:	0004a423          	sw	zero,8(s1)
     c50:	00450613          	addi	a2,a0,4
     c54:	00458693          	addi	a3,a1,4
     c58:	1571                	addi	a0,a0,-4
     c5a:	15f1                	addi	a1,a1,-4
     c5c:	06c2                	slli	a3,a3,0x10
     c5e:	0642                	slli	a2,a2,0x10
     c60:	05c2                	slli	a1,a1,0x10
     c62:	0542                	slli	a0,a0,0x10
     c64:	7e000713          	li	a4,2016
     c68:	82c1                	srli	a3,a3,0x10
     c6a:	8241                	srli	a2,a2,0x10
     c6c:	81c1                	srli	a1,a1,0x10
     c6e:	8141                	srli	a0,a0,0x10
     c70:	3459                	jal	6f6 <lcd_fill>
     c72:	8522                	mv	a0,s0
     c74:	19b000ef          	jal	ra,160e <free>
     c78:	4462                	lw	s0,24(sp)
     c7a:	40f2                	lw	ra,28(sp)
     c7c:	44d2                	lw	s1,20(sp)
     c7e:	4942                	lw	s2,16(sp)
     c80:	49b2                	lw	s3,12(sp)
     c82:	0fa00513          	li	a0,250
     c86:	6105                	addi	sp,sp,32
     c88:	0af0006f          	j	1536 <Delay_Ms>
     c8c:	468d                	li	a3,3
     c8e:	04d78063          	beq	a5,a3,cce <movesnake+0x16c>
     c92:	4711                	li	a4,4
     c94:	f0e792e3          	bne	a5,a4,b98 <movesnake+0x36>
     c98:	81a18713          	addi	a4,gp,-2022 # 2000008a <dir>
     c9c:	00074603          	lbu	a2,0(a4) # 10000 <_data_lma+0xa21c>
     ca0:	eed60ce3          	beq	a2,a3,b98 <movesnake+0x36>
     ca4:	04a9                	addi	s1,s1,10
     ca6:	a801                	j	cb6 <movesnake+0x154>
     ca8:	81a18713          	addi	a4,gp,-2022 # 2000008a <dir>
     cac:	00074603          	lbu	a2,0(a4)
     cb0:	eed604e3          	beq	a2,a3,b98 <movesnake+0x36>
     cb4:	1959                	addi	s2,s2,-10
     cb6:	00f70023          	sb	a5,0(a4)
     cba:	bdf9                	j	b98 <movesnake+0x36>
     cbc:	81a18713          	addi	a4,gp,-2022 # 2000008a <dir>
     cc0:	00074603          	lbu	a2,0(a4)
     cc4:	4685                	li	a3,1
     cc6:	ecd609e3          	beq	a2,a3,b98 <movesnake+0x36>
     cca:	0929                	addi	s2,s2,10
     ccc:	b7ed                	j	cb6 <movesnake+0x154>
     cce:	81a18713          	addi	a4,gp,-2022 # 2000008a <dir>
     cd2:	00074603          	lbu	a2,0(a4)
     cd6:	4691                	li	a3,4
     cd8:	ecd600e3          	beq	a2,a3,b98 <movesnake+0x36>
     cdc:	14d9                	addi	s1,s1,-10
     cde:	bfe1                	j	cb6 <movesnake+0x154>
     ce0:	84a2                	mv	s1,s0
     ce2:	843e                	mv	s0,a5
     ce4:	bf0d                	j	c16 <movesnake+0xb4>
     ce6:	40f2                	lw	ra,28(sp)
     ce8:	4462                	lw	s0,24(sp)
     cea:	44d2                	lw	s1,20(sp)
     cec:	4942                	lw	s2,16(sp)
     cee:	49b2                	lw	s3,12(sp)
     cf0:	6105                	addi	sp,sp,32
     cf2:	8082                	ret

00000cf4 <creatfood>:
     cf4:	1101                	addi	sp,sp,-32
     cf6:	cc22                	sw	s0,24(sp)
     cf8:	ca26                	sw	s1,20(sp)
     cfa:	c84a                	sw	s2,16(sp)
     cfc:	c64e                	sw	s3,12(sp)
     cfe:	c452                	sw	s4,8(sp)
     d00:	ce06                	sw	ra,28(sp)
     d02:	44dd                	li	s1,23
     d04:	4929                	li	s2,10
     d06:	82c18993          	addi	s3,gp,-2004 # 2000009c <food>
     d0a:	25fd                	jal	13f8 <RNG_GetRandomNumber>
     d0c:	02957533          	remu	a0,a0,s1
     d10:	03250533          	mul	a0,a0,s2
     d14:	0521                	addi	a0,a0,8
     d16:	82a1a623          	sw	a0,-2004(gp) # 2000009c <food>
     d1a:	2df9                	jal	13f8 <RNG_GetRandomNumber>
     d1c:	029576b3          	remu	a3,a0,s1
     d20:	8341a783          	lw	a5,-1996(gp) # 200000a4 <head>
     d24:	82c1a503          	lw	a0,-2004(gp) # 2000009c <food>
     d28:	4705                	li	a4,1
     d2a:	032686b3          	mul	a3,a3,s2
     d2e:	06a1                	addi	a3,a3,8
     d30:	00d9a223          	sw	a3,4(s3)
     d34:	4790                	lw	a2,8(a5)
     d36:	ca11                	beqz	a2,d4a <creatfood+0x56>
     d38:	438c                	lw	a1,0(a5)
     d3a:	00b51663          	bne	a0,a1,d46 <creatfood+0x52>
     d3e:	43dc                	lw	a5,4(a5)
     d40:	00f69363          	bne	a3,a5,d46 <creatfood+0x52>
     d44:	4701                	li	a4,0
     d46:	87b2                	mv	a5,a2
     d48:	b7f5                	j	d34 <creatfood+0x40>
     d4a:	d361                	beqz	a4,d0a <creatfood+0x16>
     d4c:	0542                	slli	a0,a0,0x10
     d4e:	06c2                	slli	a3,a3,0x10
     d50:	8141                	srli	a0,a0,0x10
     d52:	82c1                	srli	a3,a3,0x10
     d54:	4462                	lw	s0,24(sp)
     d56:	00450613          	addi	a2,a0,4
     d5a:	ffc68593          	addi	a1,a3,-4
     d5e:	40f2                	lw	ra,28(sp)
     d60:	44d2                	lw	s1,20(sp)
     d62:	4942                	lw	s2,16(sp)
     d64:	49b2                	lw	s3,12(sp)
     d66:	4a22                	lw	s4,8(sp)
     d68:	1571                	addi	a0,a0,-4
     d6a:	05c2                	slli	a1,a1,0x10
     d6c:	6741                	lui	a4,0x10
     d6e:	0642                	slli	a2,a2,0x10
     d70:	0542                	slli	a0,a0,0x10
     d72:	81c1                	srli	a1,a1,0x10
     d74:	80070713          	addi	a4,a4,-2048 # f800 <_data_lma+0x9a1c>
     d78:	0691                	addi	a3,a3,4
     d7a:	8241                	srli	a2,a2,0x10
     d7c:	8141                	srli	a0,a0,0x10
     d7e:	6105                	addi	sp,sp,32
     d80:	977ff06f          	j	6f6 <lcd_fill>

00000d84 <eatfood>:
     d84:	1141                	addi	sp,sp,-16
     d86:	c422                	sw	s0,8(sp)
     d88:	8341a703          	lw	a4,-1996(gp) # 200000a4 <head>
     d8c:	82c1a683          	lw	a3,-2004(gp) # 2000009c <food>
     d90:	4310                	lw	a2,0(a4)
     d92:	c606                	sw	ra,12(sp)
     d94:	02d61363          	bne	a2,a3,dba <eatfood+0x36>
     d98:	82c18793          	addi	a5,gp,-2004 # 2000009c <food>
     d9c:	4358                	lw	a4,4(a4)
     d9e:	43dc                	lw	a5,4(a5)
     da0:	00f71d63          	bne	a4,a5,dba <eatfood+0x36>
     da4:	3f81                	jal	cf4 <creatfood>
     da6:	4531                	li	a0,12
     da8:	05d000ef          	jal	ra,1604 <malloc>
     dac:	8341a783          	lw	a5,-1996(gp) # 200000a4 <head>
     db0:	4798                	lw	a4,8(a5)
     db2:	eb01                	bnez	a4,dc2 <eatfood+0x3e>
     db4:	c788                	sw	a0,8(a5)
     db6:	00052423          	sw	zero,8(a0)
     dba:	40b2                	lw	ra,12(sp)
     dbc:	4422                	lw	s0,8(sp)
     dbe:	0141                	addi	sp,sp,16
     dc0:	8082                	ret
     dc2:	87ba                	mv	a5,a4
     dc4:	b7f5                	j	db0 <eatfood+0x2c>

00000dc6 <judge>:
     dc6:	8341a783          	lw	a5,-1996(gp) # 200000a4 <head>
     dca:	468d                	li	a3,3
     dcc:	4501                	li	a0,0
     dce:	4398                	lw	a4,0(a5)
     dd0:	04e6d163          	bge	a3,a4,e12 <judge+0x4c>
     dd4:	43d4                	lw	a3,4(a5)
     dd6:	0e600613          	li	a2,230
     dda:	ffc68593          	addi	a1,a3,-4
     dde:	02b66a63          	bltu	a2,a1,e12 <judge+0x4c>
     de2:	0ea00613          	li	a2,234
     de6:	02e64663          	blt	a2,a4,e12 <judge+0x4c>
     dea:	479c                	lw	a5,8(a5)
     dec:	478c                	lw	a1,8(a5)
     dee:	4390                	lw	a2,0(a5)
     df0:	e989                	bnez	a1,e02 <judge+0x3c>
     df2:	4505                	li	a0,1
     df4:	00c71f63          	bne	a4,a2,e12 <judge+0x4c>
     df8:	43c8                	lw	a0,4(a5)
     dfa:	8d15                	sub	a0,a0,a3
     dfc:	00a03533          	snez	a0,a0
     e00:	8082                	ret
     e02:	00c71563          	bne	a4,a2,e0c <judge+0x46>
     e06:	43dc                	lw	a5,4(a5)
     e08:	00f68463          	beq	a3,a5,e10 <judge+0x4a>
     e0c:	87ae                	mv	a5,a1
     e0e:	bff9                	j	dec <judge+0x26>
     e10:	4501                	li	a0,0
     e12:	8082                	ret

00000e14 <main>:
     e14:	1141                	addi	sp,sp,-16
     e16:	c606                	sw	ra,12(sp)
     e18:	2dd5                	jal	150c <Delay_Init>
     e1a:	6571                	lui	a0,0x1c
     e1c:	20050513          	addi	a0,a0,512 # 1c200 <_data_lma+0x1641c>
     e20:	2789                	jal	1562 <USART_Printf_Init>
     e22:	200007b7          	lui	a5,0x20000
     e26:	0747a583          	lw	a1,116(a5) # 20000074 <SystemCoreClock>
     e2a:	00006537          	lui	a0,0x6
     e2e:	d2050513          	addi	a0,a0,-736 # 5d20 <asc2_3216+0x17f8>
     e32:	163000ef          	jal	ra,1794 <iprintf>
     e36:	00006537          	lui	a0,0x6
     e3a:	d3050513          	addi	a0,a0,-720 # 5d30 <asc2_3216+0x1808>
     e3e:	271000ef          	jal	ra,18ae <puts>
     e42:	4585                	li	a1,1
     e44:	20000513          	li	a0,512
     e48:	2bb1                	jal	13a4 <RCC_AHBPeriphClockCmd>
     e4a:	4505                	li	a0,1
     e4c:	2b51                	jal	13e0 <RNG_Cmd>
     e4e:	eccff0ef          	jal	ra,51a <lcd_init>
     e52:	6741                	lui	a4,0x10
     e54:	177d                	addi	a4,a4,-1
     e56:	0ef00693          	li	a3,239
     e5a:	0ef00613          	li	a2,239
     e5e:	4581                	li	a1,0
     e60:	4501                	li	a0,0
     e62:	895ff0ef          	jal	ra,6f6 <lcd_fill>
     e66:	39b1                	jal	ac2 <creatsnake>
     e68:	314d                	jal	b0a <printsnake>
     e6a:	3569                	jal	cf4 <creatfood>
     e6c:	3fa9                	jal	dc6 <judge>
     e6e:	e105                	bnez	a0,e8e <main+0x7a>
     e70:	000066b7          	lui	a3,0x6
     e74:	03200513          	li	a0,50
     e78:	d3c68693          	addi	a3,a3,-708 # 5d3c <asc2_3216+0x1814>
     e7c:	02000613          	li	a2,32
     e80:	07800593          	li	a1,120
     e84:	34ad                	jal	8ee <lcd_show_string>
     e86:	40b2                	lw	ra,12(sp)
     e88:	4501                	li	a0,0
     e8a:	0141                	addi	sp,sp,16
     e8c:	8082                	ret
     e8e:	39d1                	jal	b62 <movesnake>
     e90:	3dd5                	jal	d84 <eatfood>
     e92:	bfe9                	j	e6c <main+0x58>

00000e94 <SystemInit>:
     e94:	400217b7          	lui	a5,0x40021
     e98:	4398                	lw	a4,0(a5)
     e9a:	f8ff06b7          	lui	a3,0xf8ff0
     e9e:	1141                	addi	sp,sp,-16
     ea0:	00176713          	ori	a4,a4,1
     ea4:	c398                	sw	a4,0(a5)
     ea6:	43d8                	lw	a4,4(a5)
     ea8:	00020637          	lui	a2,0x20
     eac:	8f75                	and	a4,a4,a3
     eae:	c3d8                	sw	a4,4(a5)
     eb0:	4398                	lw	a4,0(a5)
     eb2:	fef706b7          	lui	a3,0xfef70
     eb6:	16fd                	addi	a3,a3,-1
     eb8:	8f75                	and	a4,a4,a3
     eba:	c398                	sw	a4,0(a5)
     ebc:	4398                	lw	a4,0(a5)
     ebe:	fffc06b7          	lui	a3,0xfffc0
     ec2:	16fd                	addi	a3,a3,-1
     ec4:	8f75                	and	a4,a4,a3
     ec6:	c398                	sw	a4,0(a5)
     ec8:	43d8                	lw	a4,4(a5)
     eca:	ff8106b7          	lui	a3,0xff810
     ece:	16fd                	addi	a3,a3,-1
     ed0:	8f75                	and	a4,a4,a3
     ed2:	c3d8                	sw	a4,4(a5)
     ed4:	009f0737          	lui	a4,0x9f0
     ed8:	c798                	sw	a4,8(a5)
     eda:	c402                	sw	zero,8(sp)
     edc:	c602                	sw	zero,12(sp)
     ede:	4398                	lw	a4,0(a5)
     ee0:	66c1                	lui	a3,0x10
     ee2:	8f55                	or	a4,a4,a3
     ee4:	c398                	sw	a4,0(a5)
     ee6:	400216b7          	lui	a3,0x40021
     eea:	50000713          	li	a4,1280
     eee:	429c                	lw	a5,0(a3)
     ef0:	8ff1                	and	a5,a5,a2
     ef2:	c63e                	sw	a5,12(sp)
     ef4:	47a2                	lw	a5,8(sp)
     ef6:	0785                	addi	a5,a5,1
     ef8:	c43e                	sw	a5,8(sp)
     efa:	47b2                	lw	a5,12(sp)
     efc:	e781                	bnez	a5,f04 <SystemInit+0x70>
     efe:	47a2                	lw	a5,8(sp)
     f00:	fee797e3          	bne	a5,a4,eee <SystemInit+0x5a>
     f04:	400217b7          	lui	a5,0x40021
     f08:	439c                	lw	a5,0(a5)
     f0a:	00e79713          	slli	a4,a5,0xe
     f0e:	08075863          	bgez	a4,f9e <SystemInit+0x10a>
     f12:	4785                	li	a5,1
     f14:	c63e                	sw	a5,12(sp)
     f16:	4732                	lw	a4,12(sp)
     f18:	4785                	li	a5,1
     f1a:	08f71063          	bne	a4,a5,f9a <SystemInit+0x106>
     f1e:	400227b7          	lui	a5,0x40022
     f22:	4398                	lw	a4,0(a5)
     f24:	ffc106b7          	lui	a3,0xffc10
     f28:	16fd                	addi	a3,a3,-1
     f2a:	01076713          	ori	a4,a4,16
     f2e:	c398                	sw	a4,0(a5)
     f30:	4398                	lw	a4,0(a5)
     f32:	9b71                	andi	a4,a4,-4
     f34:	c398                	sw	a4,0(a5)
     f36:	4398                	lw	a4,0(a5)
     f38:	00276713          	ori	a4,a4,2
     f3c:	c398                	sw	a4,0(a5)
     f3e:	400217b7          	lui	a5,0x40021
     f42:	43d8                	lw	a4,4(a5)
     f44:	c3d8                	sw	a4,4(a5)
     f46:	43d8                	lw	a4,4(a5)
     f48:	c3d8                	sw	a4,4(a5)
     f4a:	43d8                	lw	a4,4(a5)
     f4c:	40076713          	ori	a4,a4,1024
     f50:	c3d8                	sw	a4,4(a5)
     f52:	43d8                	lw	a4,4(a5)
     f54:	8f75                	and	a4,a4,a3
     f56:	c3d8                	sw	a4,4(a5)
     f58:	43d8                	lw	a4,4(a5)
     f5a:	001d06b7          	lui	a3,0x1d0
     f5e:	8f55                	or	a4,a4,a3
     f60:	c3d8                	sw	a4,4(a5)
     f62:	40021737          	lui	a4,0x40021
     f66:	431c                	lw	a5,0(a4)
     f68:	010006b7          	lui	a3,0x1000
     f6c:	8fd5                	or	a5,a5,a3
     f6e:	c31c                	sw	a5,0(a4)
     f70:	400217b7          	lui	a5,0x40021
     f74:	4398                	lw	a4,0(a5)
     f76:	00671693          	slli	a3,a4,0x6
     f7a:	fe06dde3          	bgez	a3,f74 <SystemInit+0xe0>
     f7e:	43d8                	lw	a4,4(a5)
     f80:	400216b7          	lui	a3,0x40021
     f84:	9b71                	andi	a4,a4,-4
     f86:	c3d8                	sw	a4,4(a5)
     f88:	43d8                	lw	a4,4(a5)
     f8a:	00276713          	ori	a4,a4,2
     f8e:	c3d8                	sw	a4,4(a5)
     f90:	4721                	li	a4,8
     f92:	42dc                	lw	a5,4(a3)
     f94:	8bb1                	andi	a5,a5,12
     f96:	fee79ee3          	bne	a5,a4,f92 <SystemInit+0xfe>
     f9a:	0141                	addi	sp,sp,16
     f9c:	8082                	ret
     f9e:	c602                	sw	zero,12(sp)
     fa0:	bf9d                	j	f16 <SystemInit+0x82>
     fa2:	a001                	j	fa2 <SystemInit+0x10e>
     fa4:	a001                	j	fa4 <SystemInit+0x110>

00000fa6 <Ecall_M_Mode_Handler>:
     fa6:	a001                	j	fa6 <Ecall_M_Mode_Handler>

00000fa8 <Ecall_U_Mode_Handler>:
     fa8:	a001                	j	fa8 <Ecall_U_Mode_Handler>

00000faa <Break_Point_Handler>:
     faa:	a001                	j	faa <Break_Point_Handler>

00000fac <SysTick_Handler>:
     fac:	a001                	j	fac <SysTick_Handler>

00000fae <SW_handler>:
     fae:	a001                	j	fae <SW_handler>

00000fb0 <WWDG_IRQHandler>:
     fb0:	a001                	j	fb0 <WWDG_IRQHandler>

00000fb2 <PVD_IRQHandler>:
     fb2:	a001                	j	fb2 <PVD_IRQHandler>

00000fb4 <TAMPER_IRQHandler>:
     fb4:	a001                	j	fb4 <TAMPER_IRQHandler>

00000fb6 <RTC_IRQHandler>:
     fb6:	a001                	j	fb6 <RTC_IRQHandler>

00000fb8 <FLASH_IRQHandler>:
     fb8:	a001                	j	fb8 <FLASH_IRQHandler>

00000fba <RCC_IRQHandler>:
     fba:	a001                	j	fba <RCC_IRQHandler>

00000fbc <EXTI0_IRQHandler>:
     fbc:	a001                	j	fbc <EXTI0_IRQHandler>

00000fbe <EXTI1_IRQHandler>:
     fbe:	a001                	j	fbe <EXTI1_IRQHandler>

00000fc0 <EXTI2_IRQHandler>:
     fc0:	a001                	j	fc0 <EXTI2_IRQHandler>

00000fc2 <EXTI3_IRQHandler>:
     fc2:	a001                	j	fc2 <EXTI3_IRQHandler>

00000fc4 <EXTI4_IRQHandler>:
     fc4:	a001                	j	fc4 <EXTI4_IRQHandler>

00000fc6 <DMA1_Channel1_IRQHandler>:
     fc6:	a001                	j	fc6 <DMA1_Channel1_IRQHandler>

00000fc8 <DMA1_Channel2_IRQHandler>:
     fc8:	a001                	j	fc8 <DMA1_Channel2_IRQHandler>

00000fca <DMA1_Channel3_IRQHandler>:
     fca:	a001                	j	fca <DMA1_Channel3_IRQHandler>

00000fcc <DMA1_Channel4_IRQHandler>:
     fcc:	a001                	j	fcc <DMA1_Channel4_IRQHandler>

00000fce <DMA1_Channel5_IRQHandler>:
     fce:	a001                	j	fce <DMA1_Channel5_IRQHandler>

00000fd0 <DMA1_Channel6_IRQHandler>:
     fd0:	a001                	j	fd0 <DMA1_Channel6_IRQHandler>

00000fd2 <DMA1_Channel7_IRQHandler>:
     fd2:	a001                	j	fd2 <DMA1_Channel7_IRQHandler>

00000fd4 <ADC1_2_IRQHandler>:
     fd4:	a001                	j	fd4 <ADC1_2_IRQHandler>

00000fd6 <USB_HP_CAN1_TX_IRQHandler>:
     fd6:	a001                	j	fd6 <USB_HP_CAN1_TX_IRQHandler>

00000fd8 <USB_LP_CAN1_RX0_IRQHandler>:
     fd8:	a001                	j	fd8 <USB_LP_CAN1_RX0_IRQHandler>

00000fda <CAN1_RX1_IRQHandler>:
     fda:	a001                	j	fda <CAN1_RX1_IRQHandler>

00000fdc <CAN1_SCE_IRQHandler>:
     fdc:	a001                	j	fdc <CAN1_SCE_IRQHandler>

00000fde <EXTI9_5_IRQHandler>:
     fde:	a001                	j	fde <EXTI9_5_IRQHandler>

00000fe0 <TIM1_BRK_IRQHandler>:
     fe0:	a001                	j	fe0 <TIM1_BRK_IRQHandler>

00000fe2 <TIM1_UP_IRQHandler>:
     fe2:	a001                	j	fe2 <TIM1_UP_IRQHandler>

00000fe4 <TIM1_TRG_COM_IRQHandler>:
     fe4:	a001                	j	fe4 <TIM1_TRG_COM_IRQHandler>

00000fe6 <TIM1_CC_IRQHandler>:
     fe6:	a001                	j	fe6 <TIM1_CC_IRQHandler>

00000fe8 <TIM2_IRQHandler>:
     fe8:	a001                	j	fe8 <TIM2_IRQHandler>

00000fea <TIM3_IRQHandler>:
     fea:	a001                	j	fea <TIM3_IRQHandler>

00000fec <TIM4_IRQHandler>:
     fec:	a001                	j	fec <TIM4_IRQHandler>

00000fee <I2C1_EV_IRQHandler>:
     fee:	a001                	j	fee <I2C1_EV_IRQHandler>

00000ff0 <I2C1_ER_IRQHandler>:
     ff0:	a001                	j	ff0 <I2C1_ER_IRQHandler>

00000ff2 <I2C2_EV_IRQHandler>:
     ff2:	a001                	j	ff2 <I2C2_EV_IRQHandler>

00000ff4 <I2C2_ER_IRQHandler>:
     ff4:	a001                	j	ff4 <I2C2_ER_IRQHandler>

00000ff6 <SPI1_IRQHandler>:
     ff6:	a001                	j	ff6 <SPI1_IRQHandler>

00000ff8 <SPI2_IRQHandler>:
     ff8:	a001                	j	ff8 <SPI2_IRQHandler>

00000ffa <USART1_IRQHandler>:
     ffa:	a001                	j	ffa <USART1_IRQHandler>

00000ffc <USART2_IRQHandler>:
     ffc:	a001                	j	ffc <USART2_IRQHandler>

00000ffe <USART3_IRQHandler>:
     ffe:	a001                	j	ffe <USART3_IRQHandler>

00001000 <EXTI15_10_IRQHandler>:
    1000:	a001                	j	1000 <EXTI15_10_IRQHandler>

00001002 <RTCAlarm_IRQHandler>:
    1002:	a001                	j	1002 <RTCAlarm_IRQHandler>

00001004 <USBWakeUp_IRQHandler>:
    1004:	a001                	j	1004 <USBWakeUp_IRQHandler>

00001006 <TIM8_BRK_IRQHandler>:
    1006:	a001                	j	1006 <TIM8_BRK_IRQHandler>

00001008 <TIM8_UP_IRQHandler>:
    1008:	a001                	j	1008 <TIM8_UP_IRQHandler>

0000100a <TIM8_TRG_COM_IRQHandler>:
    100a:	a001                	j	100a <TIM8_TRG_COM_IRQHandler>

0000100c <TIM8_CC_IRQHandler>:
    100c:	a001                	j	100c <TIM8_CC_IRQHandler>

0000100e <RNG_IRQHandler>:
    100e:	a001                	j	100e <RNG_IRQHandler>

00001010 <FSMC_IRQHandler>:
    1010:	a001                	j	1010 <FSMC_IRQHandler>

00001012 <SDIO_IRQHandler>:
    1012:	a001                	j	1012 <SDIO_IRQHandler>

00001014 <TIM5_IRQHandler>:
    1014:	a001                	j	1014 <TIM5_IRQHandler>

00001016 <SPI3_IRQHandler>:
    1016:	a001                	j	1016 <SPI3_IRQHandler>

00001018 <UART4_IRQHandler>:
    1018:	a001                	j	1018 <UART4_IRQHandler>

0000101a <UART5_IRQHandler>:
    101a:	a001                	j	101a <UART5_IRQHandler>

0000101c <TIM6_IRQHandler>:
    101c:	a001                	j	101c <TIM6_IRQHandler>

0000101e <TIM7_IRQHandler>:
    101e:	a001                	j	101e <TIM7_IRQHandler>

00001020 <DMA2_Channel1_IRQHandler>:
    1020:	a001                	j	1020 <DMA2_Channel1_IRQHandler>

00001022 <DMA2_Channel2_IRQHandler>:
    1022:	a001                	j	1022 <DMA2_Channel2_IRQHandler>

00001024 <DMA2_Channel3_IRQHandler>:
    1024:	a001                	j	1024 <DMA2_Channel3_IRQHandler>

00001026 <DMA2_Channel4_IRQHandler>:
    1026:	a001                	j	1026 <DMA2_Channel4_IRQHandler>

00001028 <DMA2_Channel5_IRQHandler>:
    1028:	a001                	j	1028 <DMA2_Channel5_IRQHandler>

0000102a <ETH_IRQHandler>:
    102a:	a001                	j	102a <ETH_IRQHandler>

0000102c <ETH_WKUP_IRQHandler>:
    102c:	a001                	j	102c <ETH_WKUP_IRQHandler>

0000102e <CAN2_TX_IRQHandler>:
    102e:	a001                	j	102e <CAN2_TX_IRQHandler>

00001030 <CAN2_RX0_IRQHandler>:
    1030:	a001                	j	1030 <CAN2_RX0_IRQHandler>

00001032 <CAN2_RX1_IRQHandler>:
    1032:	a001                	j	1032 <CAN2_RX1_IRQHandler>

00001034 <CAN2_SCE_IRQHandler>:
    1034:	a001                	j	1034 <CAN2_SCE_IRQHandler>

00001036 <OTG_FS_IRQHandler>:
    1036:	a001                	j	1036 <OTG_FS_IRQHandler>

00001038 <USBHSWakeup_IRQHandler>:
    1038:	a001                	j	1038 <USBHSWakeup_IRQHandler>

0000103a <USBHS_IRQHandler>:
    103a:	a001                	j	103a <USBHS_IRQHandler>

0000103c <DVP_IRQHandler>:
    103c:	a001                	j	103c <DVP_IRQHandler>

0000103e <UART6_IRQHandler>:
    103e:	a001                	j	103e <UART6_IRQHandler>

00001040 <UART7_IRQHandler>:
    1040:	a001                	j	1040 <UART7_IRQHandler>

00001042 <UART8_IRQHandler>:
    1042:	a001                	j	1042 <UART8_IRQHandler>

00001044 <TIM9_BRK_IRQHandler>:
    1044:	a001                	j	1044 <TIM9_BRK_IRQHandler>

00001046 <TIM9_UP_IRQHandler>:
    1046:	a001                	j	1046 <TIM9_UP_IRQHandler>

00001048 <TIM9_TRG_COM_IRQHandler>:
    1048:	a001                	j	1048 <TIM9_TRG_COM_IRQHandler>

0000104a <TIM9_CC_IRQHandler>:
    104a:	a001                	j	104a <TIM9_CC_IRQHandler>

0000104c <TIM10_BRK_IRQHandler>:
    104c:	a001                	j	104c <TIM10_BRK_IRQHandler>

0000104e <TIM10_UP_IRQHandler>:
    104e:	a001                	j	104e <TIM10_UP_IRQHandler>

00001050 <TIM10_TRG_COM_IRQHandler>:
    1050:	a001                	j	1050 <TIM10_TRG_COM_IRQHandler>

00001052 <TIM10_CC_IRQHandler>:
    1052:	a001                	j	1052 <TIM10_CC_IRQHandler>

00001054 <DMA2_Channel6_IRQHandler>:
    1054:	a001                	j	1054 <DMA2_Channel6_IRQHandler>

00001056 <DMA2_Channel7_IRQHandler>:
    1056:	a001                	j	1056 <DMA2_Channel7_IRQHandler>

00001058 <DMA2_Channel8_IRQHandler>:
    1058:	a001                	j	1058 <DMA2_Channel8_IRQHandler>

0000105a <DMA2_Channel9_IRQHandler>:
    105a:	a001                	j	105a <DMA2_Channel9_IRQHandler>

0000105c <DMA2_Channel10_IRQHandler>:
    105c:	a001                	j	105c <DMA2_Channel10_IRQHandler>

0000105e <DMA2_Channel11_IRQHandler>:
    105e:	a001                	j	105e <DMA2_Channel11_IRQHandler>

00001060 <handle_reset>:
    1060:	20000197          	auipc	gp,0x20000
    1064:	81018193          	addi	gp,gp,-2032 # 20000870 <__global_pointer$>
    1068:	20007117          	auipc	sp,0x20007
    106c:	f9810113          	addi	sp,sp,-104 # 20008000 <_eusrstack>
    1070:	00005517          	auipc	a0,0x5
    1074:	d7450513          	addi	a0,a0,-652 # 5de4 <_data_lma>
    1078:	1ffff597          	auipc	a1,0x1ffff
    107c:	f8858593          	addi	a1,a1,-120 # 20000000 <_data_vma>
    1080:	81818613          	addi	a2,gp,-2024 # 20000088 <_edata>
    1084:	00c5fa63          	bgeu	a1,a2,1098 <handle_reset+0x38>
    1088:	00052283          	lw	t0,0(a0)
    108c:	0055a023          	sw	t0,0(a1)
    1090:	0511                	addi	a0,a0,4
    1092:	0591                	addi	a1,a1,4
    1094:	fec5eae3          	bltu	a1,a2,1088 <handle_reset+0x28>
    1098:	81818513          	addi	a0,gp,-2024 # 20000088 <_edata>
    109c:	83c18593          	addi	a1,gp,-1988 # 200000ac <_ebss>
    10a0:	00b57763          	bgeu	a0,a1,10ae <handle_reset+0x4e>
    10a4:	00052023          	sw	zero,0(a0)
    10a8:	0511                	addi	a0,a0,4
    10aa:	feb56de3          	bltu	a0,a1,10a4 <handle_reset+0x44>
    10ae:	42fd                	li	t0,31
    10b0:	bc029073          	csrw	0xbc0,t0
    10b4:	42fd                	li	t0,31
    10b6:	80429073          	csrw	0x804,t0
    10ba:	000062b7          	lui	t0,0x6
    10be:	08828293          	addi	t0,t0,136 # 6088 <_data_lma+0x2a4>
    10c2:	3002a073          	csrs	mstatus,t0
    10c6:	fffff297          	auipc	t0,0xfffff
    10ca:	f7228293          	addi	t0,t0,-142 # 38 <_einit>
    10ce:	0032e293          	ori	t0,t0,3
    10d2:	30529073          	csrw	mtvec,t0
    10d6:	dbfff0ef          	jal	ra,e94 <SystemInit>
    10da:	00000297          	auipc	t0,0x0
    10de:	d3a28293          	addi	t0,t0,-710 # e14 <main>
    10e2:	34129073          	csrw	mepc,t0
    10e6:	30200073          	mret

000010ea <FSMC_NORSRAMInit>:
    10ea:	4514                	lw	a3,8(a0)
    10ec:	415c                	lw	a5,4(a0)
    10ee:	4558                	lw	a4,12(a0)
    10f0:	02c52803          	lw	a6,44(a0)
    10f4:	8fd5                	or	a5,a5,a3
    10f6:	8fd9                	or	a5,a5,a4
    10f8:	4918                	lw	a4,16(a0)
    10fa:	a0000637          	lui	a2,0xa0000
    10fe:	8fd9                	or	a5,a5,a4
    1100:	4958                	lw	a4,20(a0)
    1102:	8fd9                	or	a5,a5,a4
    1104:	4d18                	lw	a4,24(a0)
    1106:	8fd9                	or	a5,a5,a4
    1108:	4d58                	lw	a4,28(a0)
    110a:	8fd9                	or	a5,a5,a4
    110c:	5118                	lw	a4,32(a0)
    110e:	8fd9                	or	a5,a5,a4
    1110:	5158                	lw	a4,36(a0)
    1112:	8fd9                	or	a5,a5,a4
    1114:	5518                	lw	a4,40(a0)
    1116:	8fd9                	or	a5,a5,a4
    1118:	5918                	lw	a4,48(a0)
    111a:	0107e7b3          	or	a5,a5,a6
    111e:	8fd9                	or	a5,a5,a4
    1120:	4118                	lw	a4,0(a0)
    1122:	070a                	slli	a4,a4,0x2
    1124:	963a                	add	a2,a2,a4
    1126:	c21c                	sw	a5,0(a2)
    1128:	47a1                	li	a5,8
    112a:	00f69663          	bne	a3,a5,1136 <FSMC_NORSRAMInit+0x4c>
    112e:	421c                	lw	a5,0(a2)
    1130:	0407e793          	ori	a5,a5,64
    1134:	c21c                	sw	a5,0(a2)
    1136:	5954                	lw	a3,52(a0)
    1138:	4e8c                	lw	a1,24(a3)
    113a:	429c                	lw	a5,0(a3)
    113c:	8fcd                	or	a5,a5,a1
    113e:	42cc                	lw	a1,4(a3)
    1140:	0592                	slli	a1,a1,0x4
    1142:	8fcd                	or	a5,a5,a1
    1144:	468c                	lw	a1,8(a3)
    1146:	05a2                	slli	a1,a1,0x8
    1148:	8fcd                	or	a5,a5,a1
    114a:	46cc                	lw	a1,12(a3)
    114c:	05c2                	slli	a1,a1,0x10
    114e:	8fcd                	or	a5,a5,a1
    1150:	4a8c                	lw	a1,16(a3)
    1152:	4ad4                	lw	a3,20(a3)
    1154:	05d2                	slli	a1,a1,0x14
    1156:	8fcd                	or	a5,a5,a1
    1158:	06e2                	slli	a3,a3,0x18
    115a:	8fd5                	or	a5,a5,a3
    115c:	c25c                	sw	a5,4(a2)
    115e:	6791                	lui	a5,0x4
    1160:	02f81963          	bne	a6,a5,1192 <FSMC_NORSRAMInit+0xa8>
    1164:	5d14                	lw	a3,56(a0)
    1166:	4e90                	lw	a2,24(a3)
    1168:	429c                	lw	a5,0(a3)
    116a:	8fd1                	or	a5,a5,a2
    116c:	42d0                	lw	a2,4(a3)
    116e:	0612                	slli	a2,a2,0x4
    1170:	8fd1                	or	a5,a5,a2
    1172:	4690                	lw	a2,8(a3)
    1174:	0622                	slli	a2,a2,0x8
    1176:	8fd1                	or	a5,a5,a2
    1178:	4a90                	lw	a2,16(a3)
    117a:	4ad4                	lw	a3,20(a3)
    117c:	0652                	slli	a2,a2,0x14
    117e:	06e2                	slli	a3,a3,0x18
    1180:	8fd1                	or	a5,a5,a2
    1182:	8fd5                	or	a5,a5,a3
    1184:	a00006b7          	lui	a3,0xa0000
    1188:	10468693          	addi	a3,a3,260 # a0000104 <_eusrstack+0x7fff8104>
    118c:	9736                	add	a4,a4,a3
    118e:	c31c                	sw	a5,0(a4)
    1190:	8082                	ret
    1192:	a00007b7          	lui	a5,0xa0000
    1196:	10478793          	addi	a5,a5,260 # a0000104 <_eusrstack+0x7fff8104>
    119a:	973e                	add	a4,a4,a5
    119c:	100007b7          	lui	a5,0x10000
    11a0:	17fd                	addi	a5,a5,-1
    11a2:	b7f5                	j	118e <FSMC_NORSRAMInit+0xa4>

000011a4 <FSMC_NORSRAMCmd>:
    11a4:	a00007b7          	lui	a5,0xa0000
    11a8:	050a                	slli	a0,a0,0x2
    11aa:	953e                	add	a0,a0,a5
    11ac:	411c                	lw	a5,0(a0)
    11ae:	c589                	beqz	a1,11b8 <FSMC_NORSRAMCmd+0x14>
    11b0:	0017e793          	ori	a5,a5,1
    11b4:	c11c                	sw	a5,0(a0)
    11b6:	8082                	ret
    11b8:	00100737          	lui	a4,0x100
    11bc:	1779                	addi	a4,a4,-2
    11be:	8ff9                	and	a5,a5,a4
    11c0:	bfd5                	j	11b4 <FSMC_NORSRAMCmd+0x10>

000011c2 <GPIO_Init>:
    11c2:	459c                	lw	a5,8(a1)
    11c4:	0107f713          	andi	a4,a5,16
    11c8:	00f7f813          	andi	a6,a5,15
    11cc:	c701                	beqz	a4,11d4 <GPIO_Init+0x12>
    11ce:	41d8                	lw	a4,4(a1)
    11d0:	00e86833          	or	a6,a6,a4
    11d4:	0005d583          	lhu	a1,0(a1)
    11d8:	0ff5f713          	andi	a4,a1,255
    11dc:	c339                	beqz	a4,1222 <GPIO_Init+0x60>
    11de:	4118                	lw	a4,0(a0)
    11e0:	4681                	li	a3,0
    11e2:	4e85                	li	t4,1
    11e4:	4f3d                	li	t5,15
    11e6:	02800f93          	li	t6,40
    11ea:	04800293          	li	t0,72
    11ee:	4e21                	li	t3,8
    11f0:	00de9633          	sll	a2,t4,a3
    11f4:	00c5f8b3          	and	a7,a1,a2
    11f8:	03161163          	bne	a2,a7,121a <GPIO_Init+0x58>
    11fc:	00269893          	slli	a7,a3,0x2
    1200:	011f1333          	sll	t1,t5,a7
    1204:	fff34313          	not	t1,t1
    1208:	00e37733          	and	a4,t1,a4
    120c:	011818b3          	sll	a7,a6,a7
    1210:	00e8e733          	or	a4,a7,a4
    1214:	05f79f63          	bne	a5,t6,1272 <GPIO_Init+0xb0>
    1218:	c950                	sw	a2,20(a0)
    121a:	0685                	addi	a3,a3,1
    121c:	fdc69ae3          	bne	a3,t3,11f0 <GPIO_Init+0x2e>
    1220:	c118                	sw	a4,0(a0)
    1222:	0ff00713          	li	a4,255
    1226:	04b77563          	bgeu	a4,a1,1270 <GPIO_Init+0xae>
    122a:	4154                	lw	a3,4(a0)
    122c:	4621                	li	a2,8
    122e:	4e85                	li	t4,1
    1230:	4f3d                	li	t5,15
    1232:	02800f93          	li	t6,40
    1236:	04800293          	li	t0,72
    123a:	4e41                	li	t3,16
    123c:	00ce98b3          	sll	a7,t4,a2
    1240:	0115f733          	and	a4,a1,a7
    1244:	02e89263          	bne	a7,a4,1268 <GPIO_Init+0xa6>
    1248:	00261713          	slli	a4,a2,0x2
    124c:	1701                	addi	a4,a4,-32
    124e:	00ef1333          	sll	t1,t5,a4
    1252:	fff34313          	not	t1,t1
    1256:	00d376b3          	and	a3,t1,a3
    125a:	00e81733          	sll	a4,a6,a4
    125e:	8ed9                	or	a3,a3,a4
    1260:	01f79d63          	bne	a5,t6,127a <GPIO_Init+0xb8>
    1264:	01152a23          	sw	a7,20(a0)
    1268:	0605                	addi	a2,a2,1
    126a:	fdc619e3          	bne	a2,t3,123c <GPIO_Init+0x7a>
    126e:	c154                	sw	a3,4(a0)
    1270:	8082                	ret
    1272:	fa5794e3          	bne	a5,t0,121a <GPIO_Init+0x58>
    1276:	c910                	sw	a2,16(a0)
    1278:	b74d                	j	121a <GPIO_Init+0x58>
    127a:	fe5797e3          	bne	a5,t0,1268 <GPIO_Init+0xa6>
    127e:	01152823          	sw	a7,16(a0)
    1282:	b7dd                	j	1268 <GPIO_Init+0xa6>

00001284 <GPIO_ReadInputDataBit>:
    1284:	4508                	lw	a0,8(a0)
    1286:	8d6d                	and	a0,a0,a1
    1288:	00a03533          	snez	a0,a0
    128c:	8082                	ret

0000128e <GPIO_SetBits>:
    128e:	c90c                	sw	a1,16(a0)
    1290:	8082                	ret

00001292 <GPIO_ResetBits>:
    1292:	c94c                	sw	a1,20(a0)
    1294:	8082                	ret

00001296 <RCC_GetClocksFreq>:
    1296:	40021737          	lui	a4,0x40021
    129a:	435c                	lw	a5,4(a4)
    129c:	4691                	li	a3,4
    129e:	8bb1                	andi	a5,a5,12
    12a0:	00d78563          	beq	a5,a3,12aa <RCC_GetClocksFreq+0x14>
    12a4:	46a1                	li	a3,8
    12a6:	06d78663          	beq	a5,a3,1312 <RCC_GetClocksFreq+0x7c>
    12aa:	007a17b7          	lui	a5,0x7a1
    12ae:	20078793          	addi	a5,a5,512 # 7a1200 <_data_lma+0x79b41c>
    12b2:	c11c                	sw	a5,0(a0)
    12b4:	40021637          	lui	a2,0x40021
    12b8:	425c                	lw	a5,4(a2)
    12ba:	20000737          	lui	a4,0x20000
    12be:	00070713          	mv	a4,a4
    12c2:	8391                	srli	a5,a5,0x4
    12c4:	8bbd                	andi	a5,a5,15
    12c6:	97ba                	add	a5,a5,a4
    12c8:	0007c683          	lbu	a3,0(a5)
    12cc:	411c                	lw	a5,0(a0)
    12ce:	00d7d7b3          	srl	a5,a5,a3
    12d2:	c15c                	sw	a5,4(a0)
    12d4:	4254                	lw	a3,4(a2)
    12d6:	82a1                	srli	a3,a3,0x8
    12d8:	8a9d                	andi	a3,a3,7
    12da:	96ba                	add	a3,a3,a4
    12dc:	0006c683          	lbu	a3,0(a3)
    12e0:	00d7d6b3          	srl	a3,a5,a3
    12e4:	c514                	sw	a3,8(a0)
    12e6:	4254                	lw	a3,4(a2)
    12e8:	82ad                	srli	a3,a3,0xb
    12ea:	8a9d                	andi	a3,a3,7
    12ec:	9736                	add	a4,a4,a3
    12ee:	00074703          	lbu	a4,0(a4) # 20000000 <_data_vma>
    12f2:	00e7d7b3          	srl	a5,a5,a4
    12f6:	c55c                	sw	a5,12(a0)
    12f8:	4258                	lw	a4,4(a2)
    12fa:	8339                	srli	a4,a4,0xe
    12fc:	00377693          	andi	a3,a4,3
    1300:	80818713          	addi	a4,gp,-2040 # 20000078 <ADCPrescTable>
    1304:	9736                	add	a4,a4,a3
    1306:	00074703          	lbu	a4,0(a4)
    130a:	02e7d7b3          	divu	a5,a5,a4
    130e:	c91c                	sw	a5,16(a0)
    1310:	8082                	ret
    1312:	435c                	lw	a5,4(a4)
    1314:	4354                	lw	a3,4(a4)
    1316:	6741                	lui	a4,0x10
    1318:	83c9                	srli	a5,a5,0x12
    131a:	8ef9                	and	a3,a3,a4
    131c:	1ffff737          	lui	a4,0x1ffff
    1320:	70c72703          	lw	a4,1804(a4) # 1ffff70c <_data_lma+0x1fff9928>
    1324:	8bbd                	andi	a5,a5,15
    1326:	0789                	addi	a5,a5,2
    1328:	01171613          	slli	a2,a4,0x11
    132c:	00064863          	bltz	a2,133c <RCC_GetClocksFreq+0xa6>
    1330:	4645                	li	a2,17
    1332:	4701                	li	a4,0
    1334:	02c79263          	bne	a5,a2,1358 <RCC_GetClocksFreq+0xc2>
    1338:	47c9                	li	a5,18
    133a:	a839                	j	1358 <RCC_GetClocksFreq+0xc2>
    133c:	4709                	li	a4,2
    133e:	02e78963          	beq	a5,a4,1370 <RCC_GetClocksFreq+0xda>
    1342:	473d                	li	a4,15
    1344:	02e78863          	beq	a5,a4,1374 <RCC_GetClocksFreq+0xde>
    1348:	4741                	li	a4,16
    134a:	02e78863          	beq	a5,a4,137a <RCC_GetClocksFreq+0xe4>
    134e:	4645                	li	a2,17
    1350:	4701                	li	a4,0
    1352:	00c79363          	bne	a5,a2,1358 <RCC_GetClocksFreq+0xc2>
    1356:	47c1                	li	a5,16
    1358:	e685                	bnez	a3,1380 <RCC_GetClocksFreq+0xea>
    135a:	400246b7          	lui	a3,0x40024
    135e:	8006a683          	lw	a3,-2048(a3) # 40023800 <_eusrstack+0x2001b800>
    1362:	8ac1                	andi	a3,a3,16
    1364:	c68d                	beqz	a3,138e <RCC_GetClocksFreq+0xf8>
    1366:	007a16b7          	lui	a3,0x7a1
    136a:	20068693          	addi	a3,a3,512 # 7a1200 <_data_lma+0x79b41c>
    136e:	a025                	j	1396 <RCC_GetClocksFreq+0x100>
    1370:	4701                	li	a4,0
    1372:	b7d9                	j	1338 <RCC_GetClocksFreq+0xa2>
    1374:	4705                	li	a4,1
    1376:	47b5                	li	a5,13
    1378:	b7c5                	j	1358 <RCC_GetClocksFreq+0xc2>
    137a:	4701                	li	a4,0
    137c:	47bd                	li	a5,15
    137e:	bfe9                	j	1358 <RCC_GetClocksFreq+0xc2>
    1380:	400216b7          	lui	a3,0x40021
    1384:	42d4                	lw	a3,4(a3)
    1386:	00e69613          	slli	a2,a3,0xe
    138a:	fc065ee3          	bgez	a2,1366 <RCC_GetClocksFreq+0xd0>
    138e:	003d16b7          	lui	a3,0x3d1
    1392:	90068693          	addi	a3,a3,-1792 # 3d0900 <_data_lma+0x3cab1c>
    1396:	02d787b3          	mul	a5,a5,a3
    139a:	c11c                	sw	a5,0(a0)
    139c:	df01                	beqz	a4,12b4 <RCC_GetClocksFreq+0x1e>
    139e:	411c                	lw	a5,0(a0)
    13a0:	8385                	srli	a5,a5,0x1
    13a2:	bf01                	j	12b2 <RCC_GetClocksFreq+0x1c>

000013a4 <RCC_AHBPeriphClockCmd>:
    13a4:	c599                	beqz	a1,13b2 <RCC_AHBPeriphClockCmd+0xe>
    13a6:	40021737          	lui	a4,0x40021
    13aa:	4b5c                	lw	a5,20(a4)
    13ac:	8d5d                	or	a0,a0,a5
    13ae:	cb48                	sw	a0,20(a4)
    13b0:	8082                	ret
    13b2:	400217b7          	lui	a5,0x40021
    13b6:	4bd8                	lw	a4,20(a5)
    13b8:	fff54513          	not	a0,a0
    13bc:	8d79                	and	a0,a0,a4
    13be:	cbc8                	sw	a0,20(a5)
    13c0:	8082                	ret

000013c2 <RCC_APB2PeriphClockCmd>:
    13c2:	c599                	beqz	a1,13d0 <RCC_APB2PeriphClockCmd+0xe>
    13c4:	40021737          	lui	a4,0x40021
    13c8:	4f1c                	lw	a5,24(a4)
    13ca:	8d5d                	or	a0,a0,a5
    13cc:	cf08                	sw	a0,24(a4)
    13ce:	8082                	ret
    13d0:	400217b7          	lui	a5,0x40021
    13d4:	4f98                	lw	a4,24(a5)
    13d6:	fff54513          	not	a0,a0
    13da:	8d79                	and	a0,a0,a4
    13dc:	cf88                	sw	a0,24(a5)
    13de:	8082                	ret

000013e0 <RNG_Cmd>:
    13e0:	40024737          	lui	a4,0x40024
    13e4:	c0072783          	lw	a5,-1024(a4) # 40023c00 <_eusrstack+0x2001bc00>
    13e8:	c511                	beqz	a0,13f4 <RNG_Cmd+0x14>
    13ea:	0047e793          	ori	a5,a5,4
    13ee:	c0f72023          	sw	a5,-1024(a4)
    13f2:	8082                	ret
    13f4:	9bed                	andi	a5,a5,-5
    13f6:	bfe5                	j	13ee <RNG_Cmd+0xe>

000013f8 <RNG_GetRandomNumber>:
    13f8:	400247b7          	lui	a5,0x40024
    13fc:	c087a503          	lw	a0,-1016(a5) # 40023c08 <_eusrstack+0x2001bc08>
    1400:	8082                	ret

00001402 <USART_Init>:
    1402:	01055683          	lhu	a3,16(a0)
    1406:	77f5                	lui	a5,0xffffd
    1408:	17fd                	addi	a5,a5,-1
    140a:	8ff5                	and	a5,a5,a3
    140c:	0065d683          	lhu	a3,6(a1)
    1410:	7139                	addi	sp,sp,-64
    1412:	dc22                	sw	s0,56(sp)
    1414:	de06                	sw	ra,60(sp)
    1416:	8fd5                	or	a5,a5,a3
    1418:	00c5d703          	lhu	a4,12(a1)
    141c:	00f51823          	sh	a5,16(a0)
    1420:	00c55683          	lhu	a3,12(a0)
    1424:	77fd                	lui	a5,0xfffff
    1426:	9f378793          	addi	a5,a5,-1549 # ffffe9f3 <_eusrstack+0xdfff69f3>
    142a:	8ff5                	and	a5,a5,a3
    142c:	0045d683          	lhu	a3,4(a1)
    1430:	842a                	mv	s0,a0
    1432:	c62e                	sw	a1,12(sp)
    1434:	8fd5                	or	a5,a5,a3
    1436:	0085d683          	lhu	a3,8(a1)
    143a:	8fd5                	or	a5,a5,a3
    143c:	00a5d683          	lhu	a3,10(a1)
    1440:	8fd5                	or	a5,a5,a3
    1442:	00f51623          	sh	a5,12(a0)
    1446:	01455783          	lhu	a5,20(a0)
    144a:	07c2                	slli	a5,a5,0x10
    144c:	83c1                	srli	a5,a5,0x10
    144e:	cff7f793          	andi	a5,a5,-769
    1452:	8fd9                	or	a5,a5,a4
    1454:	00f51a23          	sh	a5,20(a0)
    1458:	0868                	addi	a0,sp,28
    145a:	3d35                	jal	1296 <RCC_GetClocksFreq>
    145c:	400147b7          	lui	a5,0x40014
    1460:	80078793          	addi	a5,a5,-2048 # 40013800 <_eusrstack+0x2000b800>
    1464:	45b2                	lw	a1,12(sp)
    1466:	04f41e63          	bne	s0,a5,14c2 <USART_Init+0xc0>
    146a:	57a2                	lw	a5,40(sp)
    146c:	00c45683          	lhu	a3,12(s0)
    1470:	4765                	li	a4,25
    1472:	02e787b3          	mul	a5,a5,a4
    1476:	06c2                	slli	a3,a3,0x10
    1478:	86c1                	srai	a3,a3,0x10
    147a:	4198                	lw	a4,0(a1)
    147c:	0406d563          	bgez	a3,14c6 <USART_Init+0xc4>
    1480:	0706                	slli	a4,a4,0x1
    1482:	00c45603          	lhu	a2,12(s0)
    1486:	0642                	slli	a2,a2,0x10
    1488:	02e7d7b3          	divu	a5,a5,a4
    148c:	06400713          	li	a4,100
    1490:	8641                	srai	a2,a2,0x10
    1492:	02e7d6b3          	divu	a3,a5,a4
    1496:	02e7f7b3          	remu	a5,a5,a4
    149a:	0692                	slli	a3,a3,0x4
    149c:	02065763          	bgez	a2,14ca <USART_Init+0xc8>
    14a0:	078e                	slli	a5,a5,0x3
    14a2:	03278793          	addi	a5,a5,50
    14a6:	02e7d7b3          	divu	a5,a5,a4
    14aa:	0077f713          	andi	a4,a5,7
    14ae:	00d767b3          	or	a5,a4,a3
    14b2:	07c2                	slli	a5,a5,0x10
    14b4:	83c1                	srli	a5,a5,0x10
    14b6:	00f41423          	sh	a5,8(s0)
    14ba:	50f2                	lw	ra,60(sp)
    14bc:	5462                	lw	s0,56(sp)
    14be:	6121                	addi	sp,sp,64
    14c0:	8082                	ret
    14c2:	5792                	lw	a5,36(sp)
    14c4:	b765                	j	146c <USART_Init+0x6a>
    14c6:	070a                	slli	a4,a4,0x2
    14c8:	bf6d                	j	1482 <USART_Init+0x80>
    14ca:	0792                	slli	a5,a5,0x4
    14cc:	03278793          	addi	a5,a5,50
    14d0:	02e7d7b3          	divu	a5,a5,a4
    14d4:	8bbd                	andi	a5,a5,15
    14d6:	8fd5                	or	a5,a5,a3
    14d8:	bfe9                	j	14b2 <USART_Init+0xb0>

000014da <USART_Cmd>:
    14da:	c981                	beqz	a1,14ea <USART_Cmd+0x10>
    14dc:	00c55783          	lhu	a5,12(a0)
    14e0:	6709                	lui	a4,0x2
    14e2:	8fd9                	or	a5,a5,a4
    14e4:	00f51623          	sh	a5,12(a0)
    14e8:	8082                	ret
    14ea:	00c55703          	lhu	a4,12(a0)
    14ee:	77f9                	lui	a5,0xffffe
    14f0:	17fd                	addi	a5,a5,-1
    14f2:	8ff9                	and	a5,a5,a4
    14f4:	bfc5                	j	14e4 <USART_Cmd+0xa>

000014f6 <USART_SendData>:
    14f6:	1ff5f593          	andi	a1,a1,511
    14fa:	00b51223          	sh	a1,4(a0)
    14fe:	8082                	ret

00001500 <USART_GetFlagStatus>:
    1500:	00055503          	lhu	a0,0(a0)
    1504:	8d6d                	and	a0,a0,a1
    1506:	00a03533          	snez	a0,a0
    150a:	8082                	ret

0000150c <Delay_Init>:
    150c:	200007b7          	lui	a5,0x20000
    1510:	0747a783          	lw	a5,116(a5) # 20000074 <SystemCoreClock>
    1514:	007a1737          	lui	a4,0x7a1
    1518:	20070713          	addi	a4,a4,512 # 7a1200 <_data_lma+0x79b41c>
    151c:	02e7d7b3          	divu	a5,a5,a4
    1520:	0ff7f793          	andi	a5,a5,255
    1524:	80f18f23          	sb	a5,-2018(gp) # 2000008e <p_us>
    1528:	3e800713          	li	a4,1000
    152c:	02e787b3          	mul	a5,a5,a4
    1530:	80f19e23          	sh	a5,-2020(gp) # 2000008c <p_ms>
    1534:	8082                	ret

00001536 <Delay_Ms>:
    1536:	e000f7b7          	lui	a5,0xe000f
    153a:	4741                	li	a4,16
    153c:	c398                	sw	a4,0(a5)
    153e:	81c1d703          	lhu	a4,-2020(gp) # 2000008c <p_ms>
    1542:	4681                	li	a3,0
    1544:	02a70633          	mul	a2,a4,a0
    1548:	cb90                	sw	a2,16(a5)
    154a:	cbd4                	sw	a3,20(a5)
    154c:	4398                	lw	a4,0(a5)
    154e:	02176713          	ori	a4,a4,33
    1552:	c398                	sw	a4,0(a5)
    1554:	43d8                	lw	a4,4(a5)
    1556:	8b05                	andi	a4,a4,1
    1558:	df75                	beqz	a4,1554 <Delay_Ms+0x1e>
    155a:	43d8                	lw	a4,4(a5)
    155c:	9b79                	andi	a4,a4,-2
    155e:	c3d8                	sw	a4,4(a5)
    1560:	8082                	ret

00001562 <USART_Printf_Init>:
    1562:	7179                	addi	sp,sp,-48
    1564:	d422                	sw	s0,40(sp)
    1566:	842a                	mv	s0,a0
    1568:	6511                	lui	a0,0x4
    156a:	4585                	li	a1,1
    156c:	0511                	addi	a0,a0,4
    156e:	d606                	sw	ra,44(sp)
    1570:	3d89                	jal	13c2 <RCC_APB2PeriphClockCmd>
    1572:	20000793          	li	a5,512
    1576:	00f11223          	sh	a5,4(sp)
    157a:	40011537          	lui	a0,0x40011
    157e:	478d                	li	a5,3
    1580:	c43e                	sw	a5,8(sp)
    1582:	004c                	addi	a1,sp,4
    1584:	47e1                	li	a5,24
    1586:	80050513          	addi	a0,a0,-2048 # 40010800 <_eusrstack+0x20008800>
    158a:	c63e                	sw	a5,12(sp)
    158c:	391d                	jal	11c2 <GPIO_Init>
    158e:	c822                	sw	s0,16(sp)
    1590:	40014437          	lui	s0,0x40014
    1594:	000807b7          	lui	a5,0x80
    1598:	080c                	addi	a1,sp,16
    159a:	80040513          	addi	a0,s0,-2048 # 40013800 <_eusrstack+0x2000b800>
    159e:	cc3e                	sw	a5,24(sp)
    15a0:	ca02                	sw	zero,20(sp)
    15a2:	00011e23          	sh	zero,28(sp)
    15a6:	3db1                	jal	1402 <USART_Init>
    15a8:	80040513          	addi	a0,s0,-2048
    15ac:	4585                	li	a1,1
    15ae:	3735                	jal	14da <USART_Cmd>
    15b0:	50b2                	lw	ra,44(sp)
    15b2:	5422                	lw	s0,40(sp)
    15b4:	6145                	addi	sp,sp,48
    15b6:	8082                	ret

000015b8 <_write>:
    15b8:	1101                	addi	sp,sp,-32
    15ba:	ca26                	sw	s1,20(sp)
    15bc:	400144b7          	lui	s1,0x40014
    15c0:	cc22                	sw	s0,24(sp)
    15c2:	c84a                	sw	s2,16(sp)
    15c4:	c64e                	sw	s3,12(sp)
    15c6:	ce06                	sw	ra,28(sp)
    15c8:	89ae                	mv	s3,a1
    15ca:	8932                	mv	s2,a2
    15cc:	4401                	li	s0,0
    15ce:	80048493          	addi	s1,s1,-2048 # 40013800 <_eusrstack+0x2000b800>
    15d2:	01244a63          	blt	s0,s2,15e6 <_write+0x2e>
    15d6:	40f2                	lw	ra,28(sp)
    15d8:	4462                	lw	s0,24(sp)
    15da:	854a                	mv	a0,s2
    15dc:	44d2                	lw	s1,20(sp)
    15de:	4942                	lw	s2,16(sp)
    15e0:	49b2                	lw	s3,12(sp)
    15e2:	6105                	addi	sp,sp,32
    15e4:	8082                	ret
    15e6:	04000593          	li	a1,64
    15ea:	8526                	mv	a0,s1
    15ec:	3f11                	jal	1500 <USART_GetFlagStatus>
    15ee:	dd65                	beqz	a0,15e6 <_write+0x2e>
    15f0:	008987b3          	add	a5,s3,s0
    15f4:	00078583          	lb	a1,0(a5) # 80000 <_data_lma+0x7a21c>
    15f8:	8526                	mv	a0,s1
    15fa:	0405                	addi	s0,s0,1
    15fc:	05c2                	slli	a1,a1,0x10
    15fe:	81c1                	srli	a1,a1,0x10
    1600:	3ddd                	jal	14f6 <USART_SendData>
    1602:	bfc1                	j	15d2 <_write+0x1a>

00001604 <malloc>:
    1604:	80c18793          	addi	a5,gp,-2036 # 2000007c <_impure_ptr>
    1608:	85aa                	mv	a1,a0
    160a:	4388                	lw	a0,0(a5)
    160c:	a855                	j	16c0 <_malloc_r>

0000160e <free>:
    160e:	80c18793          	addi	a5,gp,-2036 # 2000007c <_impure_ptr>
    1612:	85aa                	mv	a1,a0
    1614:	4388                	lw	a0,0(a5)
    1616:	a009                	j	1618 <_free_r>

00001618 <_free_r>:
    1618:	c1dd                	beqz	a1,16be <_free_r+0xa6>
    161a:	ffc5a783          	lw	a5,-4(a1)
    161e:	1141                	addi	sp,sp,-16
    1620:	c422                	sw	s0,8(sp)
    1622:	c606                	sw	ra,12(sp)
    1624:	c226                	sw	s1,4(sp)
    1626:	ffc58413          	addi	s0,a1,-4
    162a:	0007d363          	bgez	a5,1630 <_free_r+0x18>
    162e:	943e                	add	s0,s0,a5
    1630:	84aa                	mv	s1,a0
    1632:	1b3000ef          	jal	ra,1fe4 <__malloc_lock>
    1636:	82018793          	addi	a5,gp,-2016 # 20000090 <__malloc_free_list>
    163a:	439c                	lw	a5,0(a5)
    163c:	ef81                	bnez	a5,1654 <_free_r+0x3c>
    163e:	00042223          	sw	zero,4(s0)
    1642:	8281a023          	sw	s0,-2016(gp) # 20000090 <__malloc_free_list>
    1646:	4422                	lw	s0,8(sp)
    1648:	40b2                	lw	ra,12(sp)
    164a:	8526                	mv	a0,s1
    164c:	4492                	lw	s1,4(sp)
    164e:	0141                	addi	sp,sp,16
    1650:	1970006f          	j	1fe6 <__malloc_unlock>
    1654:	00f47e63          	bgeu	s0,a5,1670 <_free_r+0x58>
    1658:	4014                	lw	a3,0(s0)
    165a:	00d40733          	add	a4,s0,a3
    165e:	00e79663          	bne	a5,a4,166a <_free_r+0x52>
    1662:	4398                	lw	a4,0(a5)
    1664:	43dc                	lw	a5,4(a5)
    1666:	9736                	add	a4,a4,a3
    1668:	c018                	sw	a4,0(s0)
    166a:	c05c                	sw	a5,4(s0)
    166c:	bfd9                	j	1642 <_free_r+0x2a>
    166e:	87ba                	mv	a5,a4
    1670:	43d8                	lw	a4,4(a5)
    1672:	c319                	beqz	a4,1678 <_free_r+0x60>
    1674:	fee47de3          	bgeu	s0,a4,166e <_free_r+0x56>
    1678:	4394                	lw	a3,0(a5)
    167a:	00d78633          	add	a2,a5,a3
    167e:	00861f63          	bne	a2,s0,169c <_free_r+0x84>
    1682:	4010                	lw	a2,0(s0)
    1684:	96b2                	add	a3,a3,a2
    1686:	c394                	sw	a3,0(a5)
    1688:	00d78633          	add	a2,a5,a3
    168c:	fac71de3          	bne	a4,a2,1646 <_free_r+0x2e>
    1690:	4310                	lw	a2,0(a4)
    1692:	4358                	lw	a4,4(a4)
    1694:	96b2                	add	a3,a3,a2
    1696:	c394                	sw	a3,0(a5)
    1698:	c3d8                	sw	a4,4(a5)
    169a:	b775                	j	1646 <_free_r+0x2e>
    169c:	00c47563          	bgeu	s0,a2,16a6 <_free_r+0x8e>
    16a0:	47b1                	li	a5,12
    16a2:	c09c                	sw	a5,0(s1)
    16a4:	b74d                	j	1646 <_free_r+0x2e>
    16a6:	4010                	lw	a2,0(s0)
    16a8:	00c406b3          	add	a3,s0,a2
    16ac:	00d71663          	bne	a4,a3,16b8 <_free_r+0xa0>
    16b0:	4314                	lw	a3,0(a4)
    16b2:	4358                	lw	a4,4(a4)
    16b4:	96b2                	add	a3,a3,a2
    16b6:	c014                	sw	a3,0(s0)
    16b8:	c058                	sw	a4,4(s0)
    16ba:	c3c0                	sw	s0,4(a5)
    16bc:	b769                	j	1646 <_free_r+0x2e>
    16be:	8082                	ret

000016c0 <_malloc_r>:
    16c0:	1101                	addi	sp,sp,-32
    16c2:	ca26                	sw	s1,20(sp)
    16c4:	00358493          	addi	s1,a1,3
    16c8:	98f1                	andi	s1,s1,-4
    16ca:	ce06                	sw	ra,28(sp)
    16cc:	cc22                	sw	s0,24(sp)
    16ce:	c84a                	sw	s2,16(sp)
    16d0:	c64e                	sw	s3,12(sp)
    16d2:	04a1                	addi	s1,s1,8
    16d4:	47b1                	li	a5,12
    16d6:	04f4f363          	bgeu	s1,a5,171c <_malloc_r+0x5c>
    16da:	44b1                	li	s1,12
    16dc:	04b4e263          	bltu	s1,a1,1720 <_malloc_r+0x60>
    16e0:	892a                	mv	s2,a0
    16e2:	103000ef          	jal	ra,1fe4 <__malloc_lock>
    16e6:	82018793          	addi	a5,gp,-2016 # 20000090 <__malloc_free_list>
    16ea:	4398                	lw	a4,0(a5)
    16ec:	843a                	mv	s0,a4
    16ee:	e039                	bnez	s0,1734 <_malloc_r+0x74>
    16f0:	82418793          	addi	a5,gp,-2012 # 20000094 <__malloc_sbrk_start>
    16f4:	439c                	lw	a5,0(a5)
    16f6:	e791                	bnez	a5,1702 <_malloc_r+0x42>
    16f8:	4581                	li	a1,0
    16fa:	854a                	mv	a0,s2
    16fc:	2a75                	jal	18b8 <_sbrk_r>
    16fe:	82a1a223          	sw	a0,-2012(gp) # 20000094 <__malloc_sbrk_start>
    1702:	85a6                	mv	a1,s1
    1704:	854a                	mv	a0,s2
    1706:	2a4d                	jal	18b8 <_sbrk_r>
    1708:	59fd                	li	s3,-1
    170a:	07351963          	bne	a0,s3,177c <_malloc_r+0xbc>
    170e:	47b1                	li	a5,12
    1710:	00f92023          	sw	a5,0(s2)
    1714:	854a                	mv	a0,s2
    1716:	0d1000ef          	jal	ra,1fe6 <__malloc_unlock>
    171a:	a029                	j	1724 <_malloc_r+0x64>
    171c:	fc04d0e3          	bgez	s1,16dc <_malloc_r+0x1c>
    1720:	47b1                	li	a5,12
    1722:	c11c                	sw	a5,0(a0)
    1724:	4501                	li	a0,0
    1726:	40f2                	lw	ra,28(sp)
    1728:	4462                	lw	s0,24(sp)
    172a:	44d2                	lw	s1,20(sp)
    172c:	4942                	lw	s2,16(sp)
    172e:	49b2                	lw	s3,12(sp)
    1730:	6105                	addi	sp,sp,32
    1732:	8082                	ret
    1734:	401c                	lw	a5,0(s0)
    1736:	8f85                	sub	a5,a5,s1
    1738:	0207cf63          	bltz	a5,1776 <_malloc_r+0xb6>
    173c:	46ad                	li	a3,11
    173e:	00f6f663          	bgeu	a3,a5,174a <_malloc_r+0x8a>
    1742:	c01c                	sw	a5,0(s0)
    1744:	943e                	add	s0,s0,a5
    1746:	c004                	sw	s1,0(s0)
    1748:	a031                	j	1754 <_malloc_r+0x94>
    174a:	405c                	lw	a5,4(s0)
    174c:	02871363          	bne	a4,s0,1772 <_malloc_r+0xb2>
    1750:	82f1a023          	sw	a5,-2016(gp) # 20000090 <__malloc_free_list>
    1754:	854a                	mv	a0,s2
    1756:	091000ef          	jal	ra,1fe6 <__malloc_unlock>
    175a:	00b40513          	addi	a0,s0,11
    175e:	00440793          	addi	a5,s0,4
    1762:	9961                	andi	a0,a0,-8
    1764:	40f50733          	sub	a4,a0,a5
    1768:	df5d                	beqz	a4,1726 <_malloc_r+0x66>
    176a:	943a                	add	s0,s0,a4
    176c:	8f89                	sub	a5,a5,a0
    176e:	c01c                	sw	a5,0(s0)
    1770:	bf5d                	j	1726 <_malloc_r+0x66>
    1772:	c35c                	sw	a5,4(a4)
    1774:	b7c5                	j	1754 <_malloc_r+0x94>
    1776:	8722                	mv	a4,s0
    1778:	4040                	lw	s0,4(s0)
    177a:	bf95                	j	16ee <_malloc_r+0x2e>
    177c:	00350413          	addi	s0,a0,3
    1780:	9871                	andi	s0,s0,-4
    1782:	fc8502e3          	beq	a0,s0,1746 <_malloc_r+0x86>
    1786:	40a405b3          	sub	a1,s0,a0
    178a:	854a                	mv	a0,s2
    178c:	2235                	jal	18b8 <_sbrk_r>
    178e:	fb351ce3          	bne	a0,s3,1746 <_malloc_r+0x86>
    1792:	bfb5                	j	170e <_malloc_r+0x4e>

00001794 <iprintf>:
    1794:	7139                	addi	sp,sp,-64
    1796:	da3e                	sw	a5,52(sp)
    1798:	d22e                	sw	a1,36(sp)
    179a:	d432                	sw	a2,40(sp)
    179c:	d636                	sw	a3,44(sp)
    179e:	d83a                	sw	a4,48(sp)
    17a0:	dc42                	sw	a6,56(sp)
    17a2:	de46                	sw	a7,60(sp)
    17a4:	80c18793          	addi	a5,gp,-2036 # 2000007c <_impure_ptr>
    17a8:	cc22                	sw	s0,24(sp)
    17aa:	4380                	lw	s0,0(a5)
    17ac:	ca26                	sw	s1,20(sp)
    17ae:	ce06                	sw	ra,28(sp)
    17b0:	84aa                	mv	s1,a0
    17b2:	c409                	beqz	s0,17bc <iprintf+0x28>
    17b4:	4c1c                	lw	a5,24(s0)
    17b6:	e399                	bnez	a5,17bc <iprintf+0x28>
    17b8:	8522                	mv	a0,s0
    17ba:	23c9                	jal	1d7c <__sinit>
    17bc:	440c                	lw	a1,8(s0)
    17be:	1054                	addi	a3,sp,36
    17c0:	8626                	mv	a2,s1
    17c2:	8522                	mv	a0,s0
    17c4:	c636                	sw	a3,12(sp)
    17c6:	3fb000ef          	jal	ra,23c0 <_vfiprintf_r>
    17ca:	40f2                	lw	ra,28(sp)
    17cc:	4462                	lw	s0,24(sp)
    17ce:	44d2                	lw	s1,20(sp)
    17d0:	6121                	addi	sp,sp,64
    17d2:	8082                	ret

000017d4 <_puts_r>:
    17d4:	1101                	addi	sp,sp,-32
    17d6:	ca26                	sw	s1,20(sp)
    17d8:	c84a                	sw	s2,16(sp)
    17da:	ce06                	sw	ra,28(sp)
    17dc:	cc22                	sw	s0,24(sp)
    17de:	c64e                	sw	s3,12(sp)
    17e0:	c452                	sw	s4,8(sp)
    17e2:	84aa                	mv	s1,a0
    17e4:	892e                	mv	s2,a1
    17e6:	c501                	beqz	a0,17ee <_puts_r+0x1a>
    17e8:	4d1c                	lw	a5,24(a0)
    17ea:	e391                	bnez	a5,17ee <_puts_r+0x1a>
    17ec:	2b41                	jal	1d7c <__sinit>
    17ee:	4c9c                	lw	a5,24(s1)
    17f0:	4480                	lw	s0,8(s1)
    17f2:	e399                	bnez	a5,17f8 <_puts_r+0x24>
    17f4:	8526                	mv	a0,s1
    17f6:	2359                	jal	1d7c <__sinit>
    17f8:	00004797          	auipc	a5,0x4
    17fc:	57078793          	addi	a5,a5,1392 # 5d68 <__sf_fake_stdin>
    1800:	02f41c63          	bne	s0,a5,1838 <_puts_r+0x64>
    1804:	40c0                	lw	s0,4(s1)
    1806:	00c45783          	lhu	a5,12(s0)
    180a:	8ba1                	andi	a5,a5,8
    180c:	c7b1                	beqz	a5,1858 <_puts_r+0x84>
    180e:	481c                	lw	a5,16(s0)
    1810:	c7a1                	beqz	a5,1858 <_puts_r+0x84>
    1812:	59fd                	li	s3,-1
    1814:	4a29                	li	s4,10
    1816:	441c                	lw	a5,8(s0)
    1818:	00094583          	lbu	a1,0(s2)
    181c:	17fd                	addi	a5,a5,-1
    181e:	e9b1                	bnez	a1,1872 <_puts_r+0x9e>
    1820:	c41c                	sw	a5,8(s0)
    1822:	0607de63          	bgez	a5,189e <_puts_r+0xca>
    1826:	8622                	mv	a2,s0
    1828:	45a9                	li	a1,10
    182a:	8526                	mv	a0,s1
    182c:	221d                	jal	1952 <__swbuf_r>
    182e:	57fd                	li	a5,-1
    1830:	02f50863          	beq	a0,a5,1860 <_puts_r+0x8c>
    1834:	4529                	li	a0,10
    1836:	a035                	j	1862 <_puts_r+0x8e>
    1838:	00004797          	auipc	a5,0x4
    183c:	55078793          	addi	a5,a5,1360 # 5d88 <__sf_fake_stdout>
    1840:	00f41463          	bne	s0,a5,1848 <_puts_r+0x74>
    1844:	4480                	lw	s0,8(s1)
    1846:	b7c1                	j	1806 <_puts_r+0x32>
    1848:	00004797          	auipc	a5,0x4
    184c:	50078793          	addi	a5,a5,1280 # 5d48 <__sf_fake_stderr>
    1850:	faf41be3          	bne	s0,a5,1806 <_puts_r+0x32>
    1854:	44c0                	lw	s0,12(s1)
    1856:	bf45                	j	1806 <_puts_r+0x32>
    1858:	85a2                	mv	a1,s0
    185a:	8526                	mv	a0,s1
    185c:	2a5d                	jal	1a12 <__swsetup_r>
    185e:	d955                	beqz	a0,1812 <_puts_r+0x3e>
    1860:	557d                	li	a0,-1
    1862:	40f2                	lw	ra,28(sp)
    1864:	4462                	lw	s0,24(sp)
    1866:	44d2                	lw	s1,20(sp)
    1868:	4942                	lw	s2,16(sp)
    186a:	49b2                	lw	s3,12(sp)
    186c:	4a22                	lw	s4,8(sp)
    186e:	6105                	addi	sp,sp,32
    1870:	8082                	ret
    1872:	c41c                	sw	a5,8(s0)
    1874:	0905                	addi	s2,s2,1
    1876:	0007d763          	bgez	a5,1884 <_puts_r+0xb0>
    187a:	4c18                	lw	a4,24(s0)
    187c:	00e7cb63          	blt	a5,a4,1892 <_puts_r+0xbe>
    1880:	01458963          	beq	a1,s4,1892 <_puts_r+0xbe>
    1884:	401c                	lw	a5,0(s0)
    1886:	00178713          	addi	a4,a5,1
    188a:	c018                	sw	a4,0(s0)
    188c:	00b78023          	sb	a1,0(a5)
    1890:	b759                	j	1816 <_puts_r+0x42>
    1892:	8622                	mv	a2,s0
    1894:	8526                	mv	a0,s1
    1896:	2875                	jal	1952 <__swbuf_r>
    1898:	f7351fe3          	bne	a0,s3,1816 <_puts_r+0x42>
    189c:	b7d1                	j	1860 <_puts_r+0x8c>
    189e:	401c                	lw	a5,0(s0)
    18a0:	00178713          	addi	a4,a5,1
    18a4:	c018                	sw	a4,0(s0)
    18a6:	4729                	li	a4,10
    18a8:	00e78023          	sb	a4,0(a5)
    18ac:	b761                	j	1834 <_puts_r+0x60>

000018ae <puts>:
    18ae:	80c18793          	addi	a5,gp,-2036 # 2000007c <_impure_ptr>
    18b2:	85aa                	mv	a1,a0
    18b4:	4388                	lw	a0,0(a5)
    18b6:	bf39                	j	17d4 <_puts_r>

000018b8 <_sbrk_r>:
    18b8:	1141                	addi	sp,sp,-16
    18ba:	c422                	sw	s0,8(sp)
    18bc:	842a                	mv	s0,a0
    18be:	852e                	mv	a0,a1
    18c0:	8201ac23          	sw	zero,-1992(gp) # 200000a8 <errno>
    18c4:	c606                	sw	ra,12(sp)
    18c6:	4c2010ef          	jal	ra,2d88 <_sbrk>
    18ca:	57fd                	li	a5,-1
    18cc:	00f51763          	bne	a0,a5,18da <_sbrk_r+0x22>
    18d0:	83818793          	addi	a5,gp,-1992 # 200000a8 <errno>
    18d4:	439c                	lw	a5,0(a5)
    18d6:	c391                	beqz	a5,18da <_sbrk_r+0x22>
    18d8:	c01c                	sw	a5,0(s0)
    18da:	40b2                	lw	ra,12(sp)
    18dc:	4422                	lw	s0,8(sp)
    18de:	0141                	addi	sp,sp,16
    18e0:	8082                	ret

000018e2 <_vsniprintf_r>:
    18e2:	7119                	addi	sp,sp,-128
    18e4:	dca2                	sw	s0,120(sp)
    18e6:	de86                	sw	ra,124(sp)
    18e8:	daa6                	sw	s1,116(sp)
    18ea:	8432                	mv	s0,a2
    18ec:	00065b63          	bgez	a2,1902 <_vsniprintf_r+0x20>
    18f0:	08b00793          	li	a5,139
    18f4:	c11c                	sw	a5,0(a0)
    18f6:	557d                	li	a0,-1
    18f8:	50f6                	lw	ra,124(sp)
    18fa:	5466                	lw	s0,120(sp)
    18fc:	54d6                	lw	s1,116(sp)
    18fe:	6109                	addi	sp,sp,128
    1900:	8082                	ret
    1902:	8636                	mv	a2,a3
    1904:	20800693          	li	a3,520
    1908:	c42e                	sw	a1,8(sp)
    190a:	cc2e                	sw	a1,24(sp)
    190c:	00d11a23          	sh	a3,20(sp)
    1910:	4581                	li	a1,0
    1912:	c019                	beqz	s0,1918 <_vsniprintf_r+0x36>
    1914:	fff40593          	addi	a1,s0,-1
    1918:	57fd                	li	a5,-1
    191a:	c82e                	sw	a1,16(sp)
    191c:	ce2e                	sw	a1,28(sp)
    191e:	86ba                	mv	a3,a4
    1920:	002c                	addi	a1,sp,8
    1922:	00f11b23          	sh	a5,22(sp)
    1926:	84aa                	mv	s1,a0
    1928:	7ae000ef          	jal	ra,20d6 <_svfiprintf_r>
    192c:	57fd                	li	a5,-1
    192e:	00f55563          	bge	a0,a5,1938 <_vsniprintf_r+0x56>
    1932:	08b00793          	li	a5,139
    1936:	c09c                	sw	a5,0(s1)
    1938:	d061                	beqz	s0,18f8 <_vsniprintf_r+0x16>
    193a:	47a2                	lw	a5,8(sp)
    193c:	00078023          	sb	zero,0(a5)
    1940:	bf65                	j	18f8 <_vsniprintf_r+0x16>

00001942 <vsniprintf>:
    1942:	80c18793          	addi	a5,gp,-2036 # 2000007c <_impure_ptr>
    1946:	8736                	mv	a4,a3
    1948:	86b2                	mv	a3,a2
    194a:	862e                	mv	a2,a1
    194c:	85aa                	mv	a1,a0
    194e:	4388                	lw	a0,0(a5)
    1950:	bf49                	j	18e2 <_vsniprintf_r>

00001952 <__swbuf_r>:
    1952:	1101                	addi	sp,sp,-32
    1954:	cc22                	sw	s0,24(sp)
    1956:	ca26                	sw	s1,20(sp)
    1958:	c84a                	sw	s2,16(sp)
    195a:	ce06                	sw	ra,28(sp)
    195c:	c64e                	sw	s3,12(sp)
    195e:	84aa                	mv	s1,a0
    1960:	892e                	mv	s2,a1
    1962:	8432                	mv	s0,a2
    1964:	c501                	beqz	a0,196c <__swbuf_r+0x1a>
    1966:	4d1c                	lw	a5,24(a0)
    1968:	e391                	bnez	a5,196c <__swbuf_r+0x1a>
    196a:	2909                	jal	1d7c <__sinit>
    196c:	00004797          	auipc	a5,0x4
    1970:	3fc78793          	addi	a5,a5,1020 # 5d68 <__sf_fake_stdin>
    1974:	06f41963          	bne	s0,a5,19e6 <__swbuf_r+0x94>
    1978:	40c0                	lw	s0,4(s1)
    197a:	4c1c                	lw	a5,24(s0)
    197c:	c41c                	sw	a5,8(s0)
    197e:	00c45783          	lhu	a5,12(s0)
    1982:	8ba1                	andi	a5,a5,8
    1984:	c3c9                	beqz	a5,1a06 <__swbuf_r+0xb4>
    1986:	481c                	lw	a5,16(s0)
    1988:	cfbd                	beqz	a5,1a06 <__swbuf_r+0xb4>
    198a:	481c                	lw	a5,16(s0)
    198c:	4008                	lw	a0,0(s0)
    198e:	0ff97993          	andi	s3,s2,255
    1992:	0ff97913          	andi	s2,s2,255
    1996:	8d1d                	sub	a0,a0,a5
    1998:	485c                	lw	a5,20(s0)
    199a:	00f54663          	blt	a0,a5,19a6 <__swbuf_r+0x54>
    199e:	85a2                	mv	a1,s0
    19a0:	8526                	mv	a0,s1
    19a2:	2c6d                	jal	1c5c <_fflush_r>
    19a4:	e52d                	bnez	a0,1a0e <__swbuf_r+0xbc>
    19a6:	441c                	lw	a5,8(s0)
    19a8:	0505                	addi	a0,a0,1
    19aa:	17fd                	addi	a5,a5,-1
    19ac:	c41c                	sw	a5,8(s0)
    19ae:	401c                	lw	a5,0(s0)
    19b0:	00178713          	addi	a4,a5,1
    19b4:	c018                	sw	a4,0(s0)
    19b6:	01378023          	sb	s3,0(a5)
    19ba:	485c                	lw	a5,20(s0)
    19bc:	00a78963          	beq	a5,a0,19ce <__swbuf_r+0x7c>
    19c0:	00c45783          	lhu	a5,12(s0)
    19c4:	8b85                	andi	a5,a5,1
    19c6:	cb81                	beqz	a5,19d6 <__swbuf_r+0x84>
    19c8:	47a9                	li	a5,10
    19ca:	00f91663          	bne	s2,a5,19d6 <__swbuf_r+0x84>
    19ce:	85a2                	mv	a1,s0
    19d0:	8526                	mv	a0,s1
    19d2:	2469                	jal	1c5c <_fflush_r>
    19d4:	ed0d                	bnez	a0,1a0e <__swbuf_r+0xbc>
    19d6:	40f2                	lw	ra,28(sp)
    19d8:	4462                	lw	s0,24(sp)
    19da:	854a                	mv	a0,s2
    19dc:	44d2                	lw	s1,20(sp)
    19de:	4942                	lw	s2,16(sp)
    19e0:	49b2                	lw	s3,12(sp)
    19e2:	6105                	addi	sp,sp,32
    19e4:	8082                	ret
    19e6:	00004797          	auipc	a5,0x4
    19ea:	3a278793          	addi	a5,a5,930 # 5d88 <__sf_fake_stdout>
    19ee:	00f41463          	bne	s0,a5,19f6 <__swbuf_r+0xa4>
    19f2:	4480                	lw	s0,8(s1)
    19f4:	b759                	j	197a <__swbuf_r+0x28>
    19f6:	00004797          	auipc	a5,0x4
    19fa:	35278793          	addi	a5,a5,850 # 5d48 <__sf_fake_stderr>
    19fe:	f6f41ee3          	bne	s0,a5,197a <__swbuf_r+0x28>
    1a02:	44c0                	lw	s0,12(s1)
    1a04:	bf9d                	j	197a <__swbuf_r+0x28>
    1a06:	85a2                	mv	a1,s0
    1a08:	8526                	mv	a0,s1
    1a0a:	2021                	jal	1a12 <__swsetup_r>
    1a0c:	dd3d                	beqz	a0,198a <__swbuf_r+0x38>
    1a0e:	597d                	li	s2,-1
    1a10:	b7d9                	j	19d6 <__swbuf_r+0x84>

00001a12 <__swsetup_r>:
    1a12:	1141                	addi	sp,sp,-16
    1a14:	80c18793          	addi	a5,gp,-2036 # 2000007c <_impure_ptr>
    1a18:	c226                	sw	s1,4(sp)
    1a1a:	4384                	lw	s1,0(a5)
    1a1c:	c422                	sw	s0,8(sp)
    1a1e:	c04a                	sw	s2,0(sp)
    1a20:	c606                	sw	ra,12(sp)
    1a22:	892a                	mv	s2,a0
    1a24:	842e                	mv	s0,a1
    1a26:	c489                	beqz	s1,1a30 <__swsetup_r+0x1e>
    1a28:	4c9c                	lw	a5,24(s1)
    1a2a:	e399                	bnez	a5,1a30 <__swsetup_r+0x1e>
    1a2c:	8526                	mv	a0,s1
    1a2e:	26b9                	jal	1d7c <__sinit>
    1a30:	00004797          	auipc	a5,0x4
    1a34:	33878793          	addi	a5,a5,824 # 5d68 <__sf_fake_stdin>
    1a38:	02f41c63          	bne	s0,a5,1a70 <__swsetup_r+0x5e>
    1a3c:	40c0                	lw	s0,4(s1)
    1a3e:	00c41703          	lh	a4,12(s0)
    1a42:	01071793          	slli	a5,a4,0x10
    1a46:	83c1                	srli	a5,a5,0x10
    1a48:	0087f693          	andi	a3,a5,8
    1a4c:	eeb5                	bnez	a3,1ac8 <__swsetup_r+0xb6>
    1a4e:	0107f693          	andi	a3,a5,16
    1a52:	ee9d                	bnez	a3,1a90 <__swsetup_r+0x7e>
    1a54:	47a5                	li	a5,9
    1a56:	00f92023          	sw	a5,0(s2)
    1a5a:	04076713          	ori	a4,a4,64
    1a5e:	00e41623          	sh	a4,12(s0)
    1a62:	557d                	li	a0,-1
    1a64:	40b2                	lw	ra,12(sp)
    1a66:	4422                	lw	s0,8(sp)
    1a68:	4492                	lw	s1,4(sp)
    1a6a:	4902                	lw	s2,0(sp)
    1a6c:	0141                	addi	sp,sp,16
    1a6e:	8082                	ret
    1a70:	00004797          	auipc	a5,0x4
    1a74:	31878793          	addi	a5,a5,792 # 5d88 <__sf_fake_stdout>
    1a78:	00f41463          	bne	s0,a5,1a80 <__swsetup_r+0x6e>
    1a7c:	4480                	lw	s0,8(s1)
    1a7e:	b7c1                	j	1a3e <__swsetup_r+0x2c>
    1a80:	00004797          	auipc	a5,0x4
    1a84:	2c878793          	addi	a5,a5,712 # 5d48 <__sf_fake_stderr>
    1a88:	faf41be3          	bne	s0,a5,1a3e <__swsetup_r+0x2c>
    1a8c:	44c0                	lw	s0,12(s1)
    1a8e:	bf45                	j	1a3e <__swsetup_r+0x2c>
    1a90:	8b91                	andi	a5,a5,4
    1a92:	c78d                	beqz	a5,1abc <__swsetup_r+0xaa>
    1a94:	584c                	lw	a1,52(s0)
    1a96:	c989                	beqz	a1,1aa8 <__swsetup_r+0x96>
    1a98:	04440793          	addi	a5,s0,68
    1a9c:	00f58463          	beq	a1,a5,1aa4 <__swsetup_r+0x92>
    1aa0:	854a                	mv	a0,s2
    1aa2:	3e9d                	jal	1618 <_free_r>
    1aa4:	02042a23          	sw	zero,52(s0)
    1aa8:	00c45783          	lhu	a5,12(s0)
    1aac:	00042223          	sw	zero,4(s0)
    1ab0:	fdb7f793          	andi	a5,a5,-37
    1ab4:	00f41623          	sh	a5,12(s0)
    1ab8:	481c                	lw	a5,16(s0)
    1aba:	c01c                	sw	a5,0(s0)
    1abc:	00c45783          	lhu	a5,12(s0)
    1ac0:	0087e793          	ori	a5,a5,8
    1ac4:	00f41623          	sh	a5,12(s0)
    1ac8:	481c                	lw	a5,16(s0)
    1aca:	ef81                	bnez	a5,1ae2 <__swsetup_r+0xd0>
    1acc:	00c45783          	lhu	a5,12(s0)
    1ad0:	20000713          	li	a4,512
    1ad4:	2807f793          	andi	a5,a5,640
    1ad8:	00e78563          	beq	a5,a4,1ae2 <__swsetup_r+0xd0>
    1adc:	85a2                	mv	a1,s0
    1ade:	854a                	mv	a0,s2
    1ae0:	2195                	jal	1f44 <__smakebuf_r>
    1ae2:	00c45783          	lhu	a5,12(s0)
    1ae6:	0017f713          	andi	a4,a5,1
    1aea:	c705                	beqz	a4,1b12 <__swsetup_r+0x100>
    1aec:	485c                	lw	a5,20(s0)
    1aee:	00042423          	sw	zero,8(s0)
    1af2:	40f007b3          	neg	a5,a5
    1af6:	cc1c                	sw	a5,24(s0)
    1af8:	481c                	lw	a5,16(s0)
    1afa:	4501                	li	a0,0
    1afc:	f7a5                	bnez	a5,1a64 <__swsetup_r+0x52>
    1afe:	00c41783          	lh	a5,12(s0)
    1b02:	0807f713          	andi	a4,a5,128
    1b06:	df39                	beqz	a4,1a64 <__swsetup_r+0x52>
    1b08:	0407e793          	ori	a5,a5,64
    1b0c:	00f41623          	sh	a5,12(s0)
    1b10:	bf89                	j	1a62 <__swsetup_r+0x50>
    1b12:	8b89                	andi	a5,a5,2
    1b14:	4701                	li	a4,0
    1b16:	e391                	bnez	a5,1b1a <__swsetup_r+0x108>
    1b18:	4858                	lw	a4,20(s0)
    1b1a:	c418                	sw	a4,8(s0)
    1b1c:	bff1                	j	1af8 <__swsetup_r+0xe6>

00001b1e <__sflush_r>:
    1b1e:	00c5d783          	lhu	a5,12(a1)
    1b22:	1101                	addi	sp,sp,-32
    1b24:	cc22                	sw	s0,24(sp)
    1b26:	ca26                	sw	s1,20(sp)
    1b28:	ce06                	sw	ra,28(sp)
    1b2a:	c84a                	sw	s2,16(sp)
    1b2c:	c64e                	sw	s3,12(sp)
    1b2e:	0087f713          	andi	a4,a5,8
    1b32:	84aa                	mv	s1,a0
    1b34:	842e                	mv	s0,a1
    1b36:	ef79                	bnez	a4,1c14 <__sflush_r+0xf6>
    1b38:	41d8                	lw	a4,4(a1)
    1b3a:	00e04d63          	bgtz	a4,1b54 <__sflush_r+0x36>
    1b3e:	41b8                	lw	a4,64(a1)
    1b40:	00e04a63          	bgtz	a4,1b54 <__sflush_r+0x36>
    1b44:	4501                	li	a0,0
    1b46:	40f2                	lw	ra,28(sp)
    1b48:	4462                	lw	s0,24(sp)
    1b4a:	44d2                	lw	s1,20(sp)
    1b4c:	4942                	lw	s2,16(sp)
    1b4e:	49b2                	lw	s3,12(sp)
    1b50:	6105                	addi	sp,sp,32
    1b52:	8082                	ret
    1b54:	5458                	lw	a4,44(s0)
    1b56:	d77d                	beqz	a4,1b44 <__sflush_r+0x26>
    1b58:	0004a903          	lw	s2,0(s1)
    1b5c:	01379693          	slli	a3,a5,0x13
    1b60:	0004a023          	sw	zero,0(s1)
    1b64:	0606de63          	bgez	a3,1be0 <__sflush_r+0xc2>
    1b68:	4870                	lw	a2,84(s0)
    1b6a:	00c45783          	lhu	a5,12(s0)
    1b6e:	8b91                	andi	a5,a5,4
    1b70:	c799                	beqz	a5,1b7e <__sflush_r+0x60>
    1b72:	405c                	lw	a5,4(s0)
    1b74:	8e1d                	sub	a2,a2,a5
    1b76:	585c                	lw	a5,52(s0)
    1b78:	c399                	beqz	a5,1b7e <__sflush_r+0x60>
    1b7a:	403c                	lw	a5,64(s0)
    1b7c:	8e1d                	sub	a2,a2,a5
    1b7e:	545c                	lw	a5,44(s0)
    1b80:	500c                	lw	a1,32(s0)
    1b82:	4681                	li	a3,0
    1b84:	8526                	mv	a0,s1
    1b86:	9782                	jalr	a5
    1b88:	57fd                	li	a5,-1
    1b8a:	00c45703          	lhu	a4,12(s0)
    1b8e:	00f51d63          	bne	a0,a5,1ba8 <__sflush_r+0x8a>
    1b92:	4094                	lw	a3,0(s1)
    1b94:	47f5                	li	a5,29
    1b96:	06d7e963          	bltu	a5,a3,1c08 <__sflush_r+0xea>
    1b9a:	204007b7          	lui	a5,0x20400
    1b9e:	0785                	addi	a5,a5,1
    1ba0:	00d7d7b3          	srl	a5,a5,a3
    1ba4:	8b85                	andi	a5,a5,1
    1ba6:	c3ad                	beqz	a5,1c08 <__sflush_r+0xea>
    1ba8:	481c                	lw	a5,16(s0)
    1baa:	00042223          	sw	zero,4(s0)
    1bae:	c01c                	sw	a5,0(s0)
    1bb0:	01371793          	slli	a5,a4,0x13
    1bb4:	0007d863          	bgez	a5,1bc4 <__sflush_r+0xa6>
    1bb8:	57fd                	li	a5,-1
    1bba:	00f51463          	bne	a0,a5,1bc2 <__sflush_r+0xa4>
    1bbe:	409c                	lw	a5,0(s1)
    1bc0:	e391                	bnez	a5,1bc4 <__sflush_r+0xa6>
    1bc2:	c868                	sw	a0,84(s0)
    1bc4:	584c                	lw	a1,52(s0)
    1bc6:	0124a023          	sw	s2,0(s1)
    1bca:	ddad                	beqz	a1,1b44 <__sflush_r+0x26>
    1bcc:	04440793          	addi	a5,s0,68
    1bd0:	00f58563          	beq	a1,a5,1bda <__sflush_r+0xbc>
    1bd4:	8526                	mv	a0,s1
    1bd6:	a43ff0ef          	jal	ra,1618 <_free_r>
    1bda:	02042a23          	sw	zero,52(s0)
    1bde:	b79d                	j	1b44 <__sflush_r+0x26>
    1be0:	500c                	lw	a1,32(s0)
    1be2:	4601                	li	a2,0
    1be4:	4685                	li	a3,1
    1be6:	8526                	mv	a0,s1
    1be8:	9702                	jalr	a4
    1bea:	57fd                	li	a5,-1
    1bec:	862a                	mv	a2,a0
    1bee:	f6f51ee3          	bne	a0,a5,1b6a <__sflush_r+0x4c>
    1bf2:	409c                	lw	a5,0(s1)
    1bf4:	dbbd                	beqz	a5,1b6a <__sflush_r+0x4c>
    1bf6:	4775                	li	a4,29
    1bf8:	00e78563          	beq	a5,a4,1c02 <__sflush_r+0xe4>
    1bfc:	4759                	li	a4,22
    1bfe:	04e79463          	bne	a5,a4,1c46 <__sflush_r+0x128>
    1c02:	0124a023          	sw	s2,0(s1)
    1c06:	bf3d                	j	1b44 <__sflush_r+0x26>
    1c08:	04076713          	ori	a4,a4,64
    1c0c:	00e41623          	sh	a4,12(s0)
    1c10:	557d                	li	a0,-1
    1c12:	bf15                	j	1b46 <__sflush_r+0x28>
    1c14:	0105a983          	lw	s3,16(a1)
    1c18:	f20986e3          	beqz	s3,1b44 <__sflush_r+0x26>
    1c1c:	0005a903          	lw	s2,0(a1)
    1c20:	8b8d                	andi	a5,a5,3
    1c22:	0135a023          	sw	s3,0(a1)
    1c26:	41390933          	sub	s2,s2,s3
    1c2a:	4701                	li	a4,0
    1c2c:	e391                	bnez	a5,1c30 <__sflush_r+0x112>
    1c2e:	49d8                	lw	a4,20(a1)
    1c30:	c418                	sw	a4,8(s0)
    1c32:	f12059e3          	blez	s2,1b44 <__sflush_r+0x26>
    1c36:	541c                	lw	a5,40(s0)
    1c38:	500c                	lw	a1,32(s0)
    1c3a:	86ca                	mv	a3,s2
    1c3c:	864e                	mv	a2,s3
    1c3e:	8526                	mv	a0,s1
    1c40:	9782                	jalr	a5
    1c42:	00a04963          	bgtz	a0,1c54 <__sflush_r+0x136>
    1c46:	00c45783          	lhu	a5,12(s0)
    1c4a:	0407e793          	ori	a5,a5,64
    1c4e:	00f41623          	sh	a5,12(s0)
    1c52:	bf7d                	j	1c10 <__sflush_r+0xf2>
    1c54:	99aa                	add	s3,s3,a0
    1c56:	40a90933          	sub	s2,s2,a0
    1c5a:	bfe1                	j	1c32 <__sflush_r+0x114>

00001c5c <_fflush_r>:
    1c5c:	499c                	lw	a5,16(a1)
    1c5e:	cfb9                	beqz	a5,1cbc <_fflush_r+0x60>
    1c60:	1101                	addi	sp,sp,-32
    1c62:	cc22                	sw	s0,24(sp)
    1c64:	ce06                	sw	ra,28(sp)
    1c66:	842a                	mv	s0,a0
    1c68:	c511                	beqz	a0,1c74 <_fflush_r+0x18>
    1c6a:	4d1c                	lw	a5,24(a0)
    1c6c:	e781                	bnez	a5,1c74 <_fflush_r+0x18>
    1c6e:	c62e                	sw	a1,12(sp)
    1c70:	2231                	jal	1d7c <__sinit>
    1c72:	45b2                	lw	a1,12(sp)
    1c74:	00004797          	auipc	a5,0x4
    1c78:	0f478793          	addi	a5,a5,244 # 5d68 <__sf_fake_stdin>
    1c7c:	00f59b63          	bne	a1,a5,1c92 <_fflush_r+0x36>
    1c80:	404c                	lw	a1,4(s0)
    1c82:	00c59783          	lh	a5,12(a1)
    1c86:	c795                	beqz	a5,1cb2 <_fflush_r+0x56>
    1c88:	8522                	mv	a0,s0
    1c8a:	4462                	lw	s0,24(sp)
    1c8c:	40f2                	lw	ra,28(sp)
    1c8e:	6105                	addi	sp,sp,32
    1c90:	b579                	j	1b1e <__sflush_r>
    1c92:	00004797          	auipc	a5,0x4
    1c96:	0f678793          	addi	a5,a5,246 # 5d88 <__sf_fake_stdout>
    1c9a:	00f59463          	bne	a1,a5,1ca2 <_fflush_r+0x46>
    1c9e:	440c                	lw	a1,8(s0)
    1ca0:	b7cd                	j	1c82 <_fflush_r+0x26>
    1ca2:	00004797          	auipc	a5,0x4
    1ca6:	0a678793          	addi	a5,a5,166 # 5d48 <__sf_fake_stderr>
    1caa:	fcf59ce3          	bne	a1,a5,1c82 <_fflush_r+0x26>
    1cae:	444c                	lw	a1,12(s0)
    1cb0:	bfc9                	j	1c82 <_fflush_r+0x26>
    1cb2:	40f2                	lw	ra,28(sp)
    1cb4:	4462                	lw	s0,24(sp)
    1cb6:	4501                	li	a0,0
    1cb8:	6105                	addi	sp,sp,32
    1cba:	8082                	ret
    1cbc:	4501                	li	a0,0
    1cbe:	8082                	ret

00001cc0 <std>:
    1cc0:	1141                	addi	sp,sp,-16
    1cc2:	c422                	sw	s0,8(sp)
    1cc4:	c606                	sw	ra,12(sp)
    1cc6:	842a                	mv	s0,a0
    1cc8:	00b51623          	sh	a1,12(a0)
    1ccc:	00c51723          	sh	a2,14(a0)
    1cd0:	00052023          	sw	zero,0(a0)
    1cd4:	00052223          	sw	zero,4(a0)
    1cd8:	00052423          	sw	zero,8(a0)
    1cdc:	06052223          	sw	zero,100(a0)
    1ce0:	00052823          	sw	zero,16(a0)
    1ce4:	00052a23          	sw	zero,20(a0)
    1ce8:	00052c23          	sw	zero,24(a0)
    1cec:	4621                	li	a2,8
    1cee:	4581                	li	a1,0
    1cf0:	05c50513          	addi	a0,a0,92
    1cf4:	d0cfe0ef          	jal	ra,200 <memset>
    1cf8:	00001797          	auipc	a5,0x1
    1cfc:	d1678793          	addi	a5,a5,-746 # 2a0e <__sread>
    1d00:	d05c                	sw	a5,36(s0)
    1d02:	00001797          	auipc	a5,0x1
    1d06:	d3c78793          	addi	a5,a5,-708 # 2a3e <__swrite>
    1d0a:	d41c                	sw	a5,40(s0)
    1d0c:	00001797          	auipc	a5,0x1
    1d10:	d8078793          	addi	a5,a5,-640 # 2a8c <__sseek>
    1d14:	d45c                	sw	a5,44(s0)
    1d16:	00001797          	auipc	a5,0x1
    1d1a:	dac78793          	addi	a5,a5,-596 # 2ac2 <__sclose>
    1d1e:	d000                	sw	s0,32(s0)
    1d20:	d81c                	sw	a5,48(s0)
    1d22:	40b2                	lw	ra,12(sp)
    1d24:	4422                	lw	s0,8(sp)
    1d26:	0141                	addi	sp,sp,16
    1d28:	8082                	ret

00001d2a <_cleanup_r>:
    1d2a:	00000597          	auipc	a1,0x0
    1d2e:	f3258593          	addi	a1,a1,-206 # 1c5c <_fflush_r>
    1d32:	a2b1                	j	1e7e <_fwalk_reent>

00001d34 <__sfmoreglue>:
    1d34:	1141                	addi	sp,sp,-16
    1d36:	c226                	sw	s1,4(sp)
    1d38:	06800613          	li	a2,104
    1d3c:	fff58493          	addi	s1,a1,-1
    1d40:	02c484b3          	mul	s1,s1,a2
    1d44:	c04a                	sw	s2,0(sp)
    1d46:	892e                	mv	s2,a1
    1d48:	c422                	sw	s0,8(sp)
    1d4a:	c606                	sw	ra,12(sp)
    1d4c:	07448593          	addi	a1,s1,116
    1d50:	971ff0ef          	jal	ra,16c0 <_malloc_r>
    1d54:	842a                	mv	s0,a0
    1d56:	cd01                	beqz	a0,1d6e <__sfmoreglue+0x3a>
    1d58:	00052023          	sw	zero,0(a0)
    1d5c:	01252223          	sw	s2,4(a0)
    1d60:	0531                	addi	a0,a0,12
    1d62:	c408                	sw	a0,8(s0)
    1d64:	06848613          	addi	a2,s1,104
    1d68:	4581                	li	a1,0
    1d6a:	c96fe0ef          	jal	ra,200 <memset>
    1d6e:	8522                	mv	a0,s0
    1d70:	40b2                	lw	ra,12(sp)
    1d72:	4422                	lw	s0,8(sp)
    1d74:	4492                	lw	s1,4(sp)
    1d76:	4902                	lw	s2,0(sp)
    1d78:	0141                	addi	sp,sp,16
    1d7a:	8082                	ret

00001d7c <__sinit>:
    1d7c:	4d1c                	lw	a5,24(a0)
    1d7e:	e3ad                	bnez	a5,1de0 <__sinit+0x64>
    1d80:	1141                	addi	sp,sp,-16
    1d82:	c606                	sw	ra,12(sp)
    1d84:	c422                	sw	s0,8(sp)
    1d86:	00000797          	auipc	a5,0x0
    1d8a:	fa478793          	addi	a5,a5,-92 # 1d2a <_cleanup_r>
    1d8e:	d51c                	sw	a5,40(a0)
    1d90:	81018793          	addi	a5,gp,-2032 # 20000080 <_global_impure_ptr>
    1d94:	439c                	lw	a5,0(a5)
    1d96:	04052423          	sw	zero,72(a0)
    1d9a:	04052623          	sw	zero,76(a0)
    1d9e:	04052823          	sw	zero,80(a0)
    1da2:	00f51463          	bne	a0,a5,1daa <__sinit+0x2e>
    1da6:	4785                	li	a5,1
    1da8:	cd1c                	sw	a5,24(a0)
    1daa:	842a                	mv	s0,a0
    1dac:	281d                	jal	1de2 <__sfp>
    1dae:	c048                	sw	a0,4(s0)
    1db0:	8522                	mv	a0,s0
    1db2:	2805                	jal	1de2 <__sfp>
    1db4:	c408                	sw	a0,8(s0)
    1db6:	8522                	mv	a0,s0
    1db8:	202d                	jal	1de2 <__sfp>
    1dba:	c448                	sw	a0,12(s0)
    1dbc:	4048                	lw	a0,4(s0)
    1dbe:	4601                	li	a2,0
    1dc0:	4591                	li	a1,4
    1dc2:	3dfd                	jal	1cc0 <std>
    1dc4:	4408                	lw	a0,8(s0)
    1dc6:	4605                	li	a2,1
    1dc8:	45a5                	li	a1,9
    1dca:	3ddd                	jal	1cc0 <std>
    1dcc:	4448                	lw	a0,12(s0)
    1dce:	4609                	li	a2,2
    1dd0:	45c9                	li	a1,18
    1dd2:	35fd                	jal	1cc0 <std>
    1dd4:	4785                	li	a5,1
    1dd6:	cc1c                	sw	a5,24(s0)
    1dd8:	40b2                	lw	ra,12(sp)
    1dda:	4422                	lw	s0,8(sp)
    1ddc:	0141                	addi	sp,sp,16
    1dde:	8082                	ret
    1de0:	8082                	ret

00001de2 <__sfp>:
    1de2:	1141                	addi	sp,sp,-16
    1de4:	81018793          	addi	a5,gp,-2032 # 20000080 <_global_impure_ptr>
    1de8:	c226                	sw	s1,4(sp)
    1dea:	4384                	lw	s1,0(a5)
    1dec:	c04a                	sw	s2,0(sp)
    1dee:	c606                	sw	ra,12(sp)
    1df0:	4c9c                	lw	a5,24(s1)
    1df2:	c422                	sw	s0,8(sp)
    1df4:	892a                	mv	s2,a0
    1df6:	e399                	bnez	a5,1dfc <__sfp+0x1a>
    1df8:	8526                	mv	a0,s1
    1dfa:	3749                	jal	1d7c <__sinit>
    1dfc:	04848493          	addi	s1,s1,72
    1e00:	4480                	lw	s0,8(s1)
    1e02:	40dc                	lw	a5,4(s1)
    1e04:	17fd                	addi	a5,a5,-1
    1e06:	0007d663          	bgez	a5,1e12 <__sfp+0x30>
    1e0a:	409c                	lw	a5,0(s1)
    1e0c:	cfb9                	beqz	a5,1e6a <__sfp+0x88>
    1e0e:	4084                	lw	s1,0(s1)
    1e10:	bfc5                	j	1e00 <__sfp+0x1e>
    1e12:	00c41703          	lh	a4,12(s0)
    1e16:	e739                	bnez	a4,1e64 <__sfp+0x82>
    1e18:	77c1                	lui	a5,0xffff0
    1e1a:	0785                	addi	a5,a5,1
    1e1c:	06042223          	sw	zero,100(s0)
    1e20:	00042023          	sw	zero,0(s0)
    1e24:	00042223          	sw	zero,4(s0)
    1e28:	00042423          	sw	zero,8(s0)
    1e2c:	c45c                	sw	a5,12(s0)
    1e2e:	00042823          	sw	zero,16(s0)
    1e32:	00042a23          	sw	zero,20(s0)
    1e36:	00042c23          	sw	zero,24(s0)
    1e3a:	4621                	li	a2,8
    1e3c:	4581                	li	a1,0
    1e3e:	05c40513          	addi	a0,s0,92
    1e42:	bbefe0ef          	jal	ra,200 <memset>
    1e46:	02042a23          	sw	zero,52(s0)
    1e4a:	02042c23          	sw	zero,56(s0)
    1e4e:	04042423          	sw	zero,72(s0)
    1e52:	04042623          	sw	zero,76(s0)
    1e56:	8522                	mv	a0,s0
    1e58:	40b2                	lw	ra,12(sp)
    1e5a:	4422                	lw	s0,8(sp)
    1e5c:	4492                	lw	s1,4(sp)
    1e5e:	4902                	lw	s2,0(sp)
    1e60:	0141                	addi	sp,sp,16
    1e62:	8082                	ret
    1e64:	06840413          	addi	s0,s0,104
    1e68:	bf71                	j	1e04 <__sfp+0x22>
    1e6a:	4591                	li	a1,4
    1e6c:	854a                	mv	a0,s2
    1e6e:	35d9                	jal	1d34 <__sfmoreglue>
    1e70:	c088                	sw	a0,0(s1)
    1e72:	fd51                	bnez	a0,1e0e <__sfp+0x2c>
    1e74:	47b1                	li	a5,12
    1e76:	00f92023          	sw	a5,0(s2)
    1e7a:	4401                	li	s0,0
    1e7c:	bfe9                	j	1e56 <__sfp+0x74>

00001e7e <_fwalk_reent>:
    1e7e:	7179                	addi	sp,sp,-48
    1e80:	d422                	sw	s0,40(sp)
    1e82:	d04a                	sw	s2,32(sp)
    1e84:	cc52                	sw	s4,24(sp)
    1e86:	ca56                	sw	s5,20(sp)
    1e88:	c85a                	sw	s6,16(sp)
    1e8a:	c65e                	sw	s7,12(sp)
    1e8c:	d606                	sw	ra,44(sp)
    1e8e:	d226                	sw	s1,36(sp)
    1e90:	ce4e                	sw	s3,28(sp)
    1e92:	8a2a                	mv	s4,a0
    1e94:	8aae                	mv	s5,a1
    1e96:	04850413          	addi	s0,a0,72
    1e9a:	4901                	li	s2,0
    1e9c:	4b05                	li	s6,1
    1e9e:	5bfd                	li	s7,-1
    1ea0:	ec09                	bnez	s0,1eba <_fwalk_reent+0x3c>
    1ea2:	50b2                	lw	ra,44(sp)
    1ea4:	5422                	lw	s0,40(sp)
    1ea6:	854a                	mv	a0,s2
    1ea8:	5492                	lw	s1,36(sp)
    1eaa:	5902                	lw	s2,32(sp)
    1eac:	49f2                	lw	s3,28(sp)
    1eae:	4a62                	lw	s4,24(sp)
    1eb0:	4ad2                	lw	s5,20(sp)
    1eb2:	4b42                	lw	s6,16(sp)
    1eb4:	4bb2                	lw	s7,12(sp)
    1eb6:	6145                	addi	sp,sp,48
    1eb8:	8082                	ret
    1eba:	4404                	lw	s1,8(s0)
    1ebc:	00442983          	lw	s3,4(s0)
    1ec0:	19fd                	addi	s3,s3,-1
    1ec2:	0009d463          	bgez	s3,1eca <_fwalk_reent+0x4c>
    1ec6:	4000                	lw	s0,0(s0)
    1ec8:	bfe1                	j	1ea0 <_fwalk_reent+0x22>
    1eca:	00c4d783          	lhu	a5,12(s1)
    1ece:	00fb7b63          	bgeu	s6,a5,1ee4 <_fwalk_reent+0x66>
    1ed2:	00e49783          	lh	a5,14(s1)
    1ed6:	01778763          	beq	a5,s7,1ee4 <_fwalk_reent+0x66>
    1eda:	85a6                	mv	a1,s1
    1edc:	8552                	mv	a0,s4
    1ede:	9a82                	jalr	s5
    1ee0:	00a96933          	or	s2,s2,a0
    1ee4:	06848493          	addi	s1,s1,104
    1ee8:	bfe1                	j	1ec0 <_fwalk_reent+0x42>

00001eea <__swhatbuf_r>:
    1eea:	7119                	addi	sp,sp,-128
    1eec:	daa6                	sw	s1,116(sp)
    1eee:	84ae                	mv	s1,a1
    1ef0:	00e59583          	lh	a1,14(a1)
    1ef4:	dca2                	sw	s0,120(sp)
    1ef6:	de86                	sw	ra,124(sp)
    1ef8:	8432                	mv	s0,a2
    1efa:	0005dc63          	bgez	a1,1f12 <__swhatbuf_r+0x28>
    1efe:	00c4d783          	lhu	a5,12(s1)
    1f02:	0006a023          	sw	zero,0(a3)
    1f06:	0807f793          	andi	a5,a5,128
    1f0a:	e785                	bnez	a5,1f32 <__swhatbuf_r+0x48>
    1f0c:	40000793          	li	a5,1024
    1f10:	a01d                	j	1f36 <__swhatbuf_r+0x4c>
    1f12:	0830                	addi	a2,sp,24
    1f14:	c636                	sw	a3,12(sp)
    1f16:	409000ef          	jal	ra,2b1e <_fstat_r>
    1f1a:	46b2                	lw	a3,12(sp)
    1f1c:	fe0541e3          	bltz	a0,1efe <__swhatbuf_r+0x14>
    1f20:	4772                	lw	a4,28(sp)
    1f22:	67bd                	lui	a5,0xf
    1f24:	8ff9                	and	a5,a5,a4
    1f26:	7779                	lui	a4,0xffffe
    1f28:	97ba                	add	a5,a5,a4
    1f2a:	0017b793          	seqz	a5,a5
    1f2e:	c29c                	sw	a5,0(a3)
    1f30:	bff1                	j	1f0c <__swhatbuf_r+0x22>
    1f32:	04000793          	li	a5,64
    1f36:	c01c                	sw	a5,0(s0)
    1f38:	50f6                	lw	ra,124(sp)
    1f3a:	5466                	lw	s0,120(sp)
    1f3c:	54d6                	lw	s1,116(sp)
    1f3e:	4501                	li	a0,0
    1f40:	6109                	addi	sp,sp,128
    1f42:	8082                	ret

00001f44 <__smakebuf_r>:
    1f44:	00c5d783          	lhu	a5,12(a1)
    1f48:	1101                	addi	sp,sp,-32
    1f4a:	cc22                	sw	s0,24(sp)
    1f4c:	ce06                	sw	ra,28(sp)
    1f4e:	ca26                	sw	s1,20(sp)
    1f50:	c84a                	sw	s2,16(sp)
    1f52:	8b89                	andi	a5,a5,2
    1f54:	842e                	mv	s0,a1
    1f56:	cf89                	beqz	a5,1f70 <__smakebuf_r+0x2c>
    1f58:	04740793          	addi	a5,s0,71
    1f5c:	c01c                	sw	a5,0(s0)
    1f5e:	c81c                	sw	a5,16(s0)
    1f60:	4785                	li	a5,1
    1f62:	c85c                	sw	a5,20(s0)
    1f64:	40f2                	lw	ra,28(sp)
    1f66:	4462                	lw	s0,24(sp)
    1f68:	44d2                	lw	s1,20(sp)
    1f6a:	4942                	lw	s2,16(sp)
    1f6c:	6105                	addi	sp,sp,32
    1f6e:	8082                	ret
    1f70:	0074                	addi	a3,sp,12
    1f72:	0030                	addi	a2,sp,8
    1f74:	84aa                	mv	s1,a0
    1f76:	3f95                	jal	1eea <__swhatbuf_r>
    1f78:	45a2                	lw	a1,8(sp)
    1f7a:	892a                	mv	s2,a0
    1f7c:	8526                	mv	a0,s1
    1f7e:	f42ff0ef          	jal	ra,16c0 <_malloc_r>
    1f82:	ed01                	bnez	a0,1f9a <__smakebuf_r+0x56>
    1f84:	00c41783          	lh	a5,12(s0)
    1f88:	2007f713          	andi	a4,a5,512
    1f8c:	ff61                	bnez	a4,1f64 <__smakebuf_r+0x20>
    1f8e:	9bf1                	andi	a5,a5,-4
    1f90:	0027e793          	ori	a5,a5,2
    1f94:	00f41623          	sh	a5,12(s0)
    1f98:	b7c1                	j	1f58 <__smakebuf_r+0x14>
    1f9a:	00000797          	auipc	a5,0x0
    1f9e:	d9078793          	addi	a5,a5,-624 # 1d2a <_cleanup_r>
    1fa2:	d49c                	sw	a5,40(s1)
    1fa4:	00c45783          	lhu	a5,12(s0)
    1fa8:	c008                	sw	a0,0(s0)
    1faa:	c808                	sw	a0,16(s0)
    1fac:	0807e793          	ori	a5,a5,128
    1fb0:	00f41623          	sh	a5,12(s0)
    1fb4:	47a2                	lw	a5,8(sp)
    1fb6:	c85c                	sw	a5,20(s0)
    1fb8:	47b2                	lw	a5,12(sp)
    1fba:	cf91                	beqz	a5,1fd6 <__smakebuf_r+0x92>
    1fbc:	00e41583          	lh	a1,14(s0)
    1fc0:	8526                	mv	a0,s1
    1fc2:	387000ef          	jal	ra,2b48 <_isatty_r>
    1fc6:	c901                	beqz	a0,1fd6 <__smakebuf_r+0x92>
    1fc8:	00c45783          	lhu	a5,12(s0)
    1fcc:	9bf1                	andi	a5,a5,-4
    1fce:	0017e793          	ori	a5,a5,1
    1fd2:	00f41623          	sh	a5,12(s0)
    1fd6:	00c45783          	lhu	a5,12(s0)
    1fda:	00f96933          	or	s2,s2,a5
    1fde:	01241623          	sh	s2,12(s0)
    1fe2:	b749                	j	1f64 <__smakebuf_r+0x20>

00001fe4 <__malloc_lock>:
    1fe4:	8082                	ret

00001fe6 <__malloc_unlock>:
    1fe6:	8082                	ret

00001fe8 <__ssputs_r>:
    1fe8:	1101                	addi	sp,sp,-32
    1fea:	c84a                	sw	s2,16(sp)
    1fec:	0085a903          	lw	s2,8(a1)
    1ff0:	cc22                	sw	s0,24(sp)
    1ff2:	c452                	sw	s4,8(sp)
    1ff4:	c05a                	sw	s6,0(sp)
    1ff6:	ce06                	sw	ra,28(sp)
    1ff8:	ca26                	sw	s1,20(sp)
    1ffa:	c64e                	sw	s3,12(sp)
    1ffc:	c256                	sw	s5,4(sp)
    1ffe:	842e                	mv	s0,a1
    2000:	8b32                	mv	s6,a2
    2002:	8a36                	mv	s4,a3
    2004:	0926ee63          	bltu	a3,s2,20a0 <__ssputs_r+0xb8>
    2008:	00c5d783          	lhu	a5,12(a1)
    200c:	4807f713          	andi	a4,a5,1152
    2010:	c751                	beqz	a4,209c <__ssputs_r+0xb4>
    2012:	4004                	lw	s1,0(s0)
    2014:	498c                	lw	a1,16(a1)
    2016:	4858                	lw	a4,20(s0)
    2018:	8aaa                	mv	s5,a0
    201a:	40b489b3          	sub	s3,s1,a1
    201e:	448d                	li	s1,3
    2020:	02e484b3          	mul	s1,s1,a4
    2024:	4709                	li	a4,2
    2026:	02e4c4b3          	div	s1,s1,a4
    202a:	00168713          	addi	a4,a3,1
    202e:	974e                	add	a4,a4,s3
    2030:	00e4f363          	bgeu	s1,a4,2036 <__ssputs_r+0x4e>
    2034:	84ba                	mv	s1,a4
    2036:	4007f793          	andi	a5,a5,1024
    203a:	c3d9                	beqz	a5,20c0 <__ssputs_r+0xd8>
    203c:	85a6                	mv	a1,s1
    203e:	8556                	mv	a0,s5
    2040:	e80ff0ef          	jal	ra,16c0 <_malloc_r>
    2044:	892a                	mv	s2,a0
    2046:	e50d                	bnez	a0,2070 <__ssputs_r+0x88>
    2048:	47b1                	li	a5,12
    204a:	00faa023          	sw	a5,0(s5)
    204e:	00c45783          	lhu	a5,12(s0)
    2052:	557d                	li	a0,-1
    2054:	0407e793          	ori	a5,a5,64
    2058:	00f41623          	sh	a5,12(s0)
    205c:	40f2                	lw	ra,28(sp)
    205e:	4462                	lw	s0,24(sp)
    2060:	44d2                	lw	s1,20(sp)
    2062:	4942                	lw	s2,16(sp)
    2064:	49b2                	lw	s3,12(sp)
    2066:	4a22                	lw	s4,8(sp)
    2068:	4a92                	lw	s5,4(sp)
    206a:	4b02                	lw	s6,0(sp)
    206c:	6105                	addi	sp,sp,32
    206e:	8082                	ret
    2070:	480c                	lw	a1,16(s0)
    2072:	864e                	mv	a2,s3
    2074:	343000ef          	jal	ra,2bb6 <memcpy>
    2078:	00c45783          	lhu	a5,12(s0)
    207c:	b7f7f793          	andi	a5,a5,-1153
    2080:	0807e793          	ori	a5,a5,128
    2084:	00f41623          	sh	a5,12(s0)
    2088:	01242823          	sw	s2,16(s0)
    208c:	c844                	sw	s1,20(s0)
    208e:	994e                	add	s2,s2,s3
    2090:	413484b3          	sub	s1,s1,s3
    2094:	01242023          	sw	s2,0(s0)
    2098:	c404                	sw	s1,8(s0)
    209a:	8952                	mv	s2,s4
    209c:	012a7363          	bgeu	s4,s2,20a2 <__ssputs_r+0xba>
    20a0:	8952                	mv	s2,s4
    20a2:	4008                	lw	a0,0(s0)
    20a4:	864a                	mv	a2,s2
    20a6:	85da                	mv	a1,s6
    20a8:	3c5000ef          	jal	ra,2c6c <memmove>
    20ac:	441c                	lw	a5,8(s0)
    20ae:	4501                	li	a0,0
    20b0:	412787b3          	sub	a5,a5,s2
    20b4:	c41c                	sw	a5,8(s0)
    20b6:	401c                	lw	a5,0(s0)
    20b8:	993e                	add	s2,s2,a5
    20ba:	01242023          	sw	s2,0(s0)
    20be:	bf79                	j	205c <__ssputs_r+0x74>
    20c0:	8626                	mv	a2,s1
    20c2:	8556                	mv	a0,s5
    20c4:	3f3000ef          	jal	ra,2cb6 <_realloc_r>
    20c8:	892a                	mv	s2,a0
    20ca:	fd5d                	bnez	a0,2088 <__ssputs_r+0xa0>
    20cc:	480c                	lw	a1,16(s0)
    20ce:	8556                	mv	a0,s5
    20d0:	d48ff0ef          	jal	ra,1618 <_free_r>
    20d4:	bf95                	j	2048 <__ssputs_r+0x60>

000020d6 <_svfiprintf_r>:
    20d6:	00c5d783          	lhu	a5,12(a1)
    20da:	7171                	addi	sp,sp,-176
    20dc:	d326                	sw	s1,164(sp)
    20de:	d14a                	sw	s2,160(sp)
    20e0:	cf4e                	sw	s3,156(sp)
    20e2:	d706                	sw	ra,172(sp)
    20e4:	d522                	sw	s0,168(sp)
    20e6:	cd52                	sw	s4,152(sp)
    20e8:	cb56                	sw	s5,148(sp)
    20ea:	c95a                	sw	s6,144(sp)
    20ec:	c75e                	sw	s7,140(sp)
    20ee:	c562                	sw	s8,136(sp)
    20f0:	c366                	sw	s9,132(sp)
    20f2:	0807f793          	andi	a5,a5,128
    20f6:	89aa                	mv	s3,a0
    20f8:	892e                	mv	s2,a1
    20fa:	84b2                	mv	s1,a2
    20fc:	c3b9                	beqz	a5,2142 <_svfiprintf_r+0x6c>
    20fe:	499c                	lw	a5,16(a1)
    2100:	e3a9                	bnez	a5,2142 <_svfiprintf_r+0x6c>
    2102:	04000593          	li	a1,64
    2106:	c636                	sw	a3,12(sp)
    2108:	db8ff0ef          	jal	ra,16c0 <_malloc_r>
    210c:	00a92023          	sw	a0,0(s2)
    2110:	00a92823          	sw	a0,16(s2)
    2114:	46b2                	lw	a3,12(sp)
    2116:	e115                	bnez	a0,213a <_svfiprintf_r+0x64>
    2118:	47b1                	li	a5,12
    211a:	00f9a023          	sw	a5,0(s3)
    211e:	557d                	li	a0,-1
    2120:	50ba                	lw	ra,172(sp)
    2122:	542a                	lw	s0,168(sp)
    2124:	549a                	lw	s1,164(sp)
    2126:	590a                	lw	s2,160(sp)
    2128:	49fa                	lw	s3,156(sp)
    212a:	4a6a                	lw	s4,152(sp)
    212c:	4ada                	lw	s5,148(sp)
    212e:	4b4a                	lw	s6,144(sp)
    2130:	4bba                	lw	s7,140(sp)
    2132:	4c2a                	lw	s8,136(sp)
    2134:	4c9a                	lw	s9,132(sp)
    2136:	614d                	addi	sp,sp,176
    2138:	8082                	ret
    213a:	04000793          	li	a5,64
    213e:	00f92a23          	sw	a5,20(s2)
    2142:	02000793          	li	a5,32
    2146:	02f10ca3          	sb	a5,57(sp)
    214a:	03000793          	li	a5,48
    214e:	da02                	sw	zero,52(sp)
    2150:	02f10d23          	sb	a5,58(sp)
    2154:	ce36                	sw	a3,28(sp)
    2156:	02500b93          	li	s7,37
    215a:	00004a97          	auipc	s5,0x4
    215e:	c4ea8a93          	addi	s5,s5,-946 # 5da8 <__sf_fake_stdout+0x20>
    2162:	4c05                	li	s8,1
    2164:	4b29                	li	s6,10
    2166:	8426                	mv	s0,s1
    2168:	00044783          	lbu	a5,0(s0)
    216c:	c399                	beqz	a5,2172 <_svfiprintf_r+0x9c>
    216e:	09779c63          	bne	a5,s7,2206 <_svfiprintf_r+0x130>
    2172:	40940cb3          	sub	s9,s0,s1
    2176:	000c8d63          	beqz	s9,2190 <_svfiprintf_r+0xba>
    217a:	86e6                	mv	a3,s9
    217c:	8626                	mv	a2,s1
    217e:	85ca                	mv	a1,s2
    2180:	854e                	mv	a0,s3
    2182:	359d                	jal	1fe8 <__ssputs_r>
    2184:	57fd                	li	a5,-1
    2186:	1af50463          	beq	a0,a5,232e <_svfiprintf_r+0x258>
    218a:	56d2                	lw	a3,52(sp)
    218c:	96e6                	add	a3,a3,s9
    218e:	da36                	sw	a3,52(sp)
    2190:	00044783          	lbu	a5,0(s0)
    2194:	18078d63          	beqz	a5,232e <_svfiprintf_r+0x258>
    2198:	57fd                	li	a5,-1
    219a:	00140493          	addi	s1,s0,1
    219e:	d002                	sw	zero,32(sp)
    21a0:	d602                	sw	zero,44(sp)
    21a2:	d23e                	sw	a5,36(sp)
    21a4:	d402                	sw	zero,40(sp)
    21a6:	060101a3          	sb	zero,99(sp)
    21aa:	dc82                	sw	zero,120(sp)
    21ac:	0004c583          	lbu	a1,0(s1)
    21b0:	4615                	li	a2,5
    21b2:	8556                	mv	a0,s5
    21b4:	1e9000ef          	jal	ra,2b9c <memchr>
    21b8:	00148413          	addi	s0,s1,1
    21bc:	5782                	lw	a5,32(sp)
    21be:	e531                	bnez	a0,220a <_svfiprintf_r+0x134>
    21c0:	0107f713          	andi	a4,a5,16
    21c4:	c709                	beqz	a4,21ce <_svfiprintf_r+0xf8>
    21c6:	02000713          	li	a4,32
    21ca:	06e101a3          	sb	a4,99(sp)
    21ce:	0087f713          	andi	a4,a5,8
    21d2:	c709                	beqz	a4,21dc <_svfiprintf_r+0x106>
    21d4:	02b00713          	li	a4,43
    21d8:	06e101a3          	sb	a4,99(sp)
    21dc:	0004c683          	lbu	a3,0(s1)
    21e0:	02a00713          	li	a4,42
    21e4:	02e68b63          	beq	a3,a4,221a <_svfiprintf_r+0x144>
    21e8:	57b2                	lw	a5,44(sp)
    21ea:	8426                	mv	s0,s1
    21ec:	4681                	li	a3,0
    21ee:	4625                	li	a2,9
    21f0:	00044703          	lbu	a4,0(s0)
    21f4:	00140593          	addi	a1,s0,1
    21f8:	fd070713          	addi	a4,a4,-48 # ffffdfd0 <_eusrstack+0xdfff5fd0>
    21fc:	06e67463          	bgeu	a2,a4,2264 <_svfiprintf_r+0x18e>
    2200:	c68d                	beqz	a3,222a <_svfiprintf_r+0x154>
    2202:	d63e                	sw	a5,44(sp)
    2204:	a01d                	j	222a <_svfiprintf_r+0x154>
    2206:	0405                	addi	s0,s0,1
    2208:	b785                	j	2168 <_svfiprintf_r+0x92>
    220a:	41550533          	sub	a0,a0,s5
    220e:	00ac1533          	sll	a0,s8,a0
    2212:	8fc9                	or	a5,a5,a0
    2214:	d03e                	sw	a5,32(sp)
    2216:	84a2                	mv	s1,s0
    2218:	bf51                	j	21ac <_svfiprintf_r+0xd6>
    221a:	4772                	lw	a4,28(sp)
    221c:	00470693          	addi	a3,a4,4
    2220:	4318                	lw	a4,0(a4)
    2222:	ce36                	sw	a3,28(sp)
    2224:	02074963          	bltz	a4,2256 <_svfiprintf_r+0x180>
    2228:	d63a                	sw	a4,44(sp)
    222a:	00044703          	lbu	a4,0(s0)
    222e:	02e00793          	li	a5,46
    2232:	04f71f63          	bne	a4,a5,2290 <_svfiprintf_r+0x1ba>
    2236:	00144703          	lbu	a4,1(s0)
    223a:	02a00793          	li	a5,42
    223e:	02f71b63          	bne	a4,a5,2274 <_svfiprintf_r+0x19e>
    2242:	47f2                	lw	a5,28(sp)
    2244:	0409                	addi	s0,s0,2
    2246:	00478713          	addi	a4,a5,4
    224a:	439c                	lw	a5,0(a5)
    224c:	ce3a                	sw	a4,28(sp)
    224e:	0207c163          	bltz	a5,2270 <_svfiprintf_r+0x19a>
    2252:	d23e                	sw	a5,36(sp)
    2254:	a835                	j	2290 <_svfiprintf_r+0x1ba>
    2256:	40e00733          	neg	a4,a4
    225a:	0027e793          	ori	a5,a5,2
    225e:	d63a                	sw	a4,44(sp)
    2260:	d03e                	sw	a5,32(sp)
    2262:	b7e1                	j	222a <_svfiprintf_r+0x154>
    2264:	036787b3          	mul	a5,a5,s6
    2268:	4685                	li	a3,1
    226a:	842e                	mv	s0,a1
    226c:	97ba                	add	a5,a5,a4
    226e:	b749                	j	21f0 <_svfiprintf_r+0x11a>
    2270:	57fd                	li	a5,-1
    2272:	b7c5                	j	2252 <_svfiprintf_r+0x17c>
    2274:	0405                	addi	s0,s0,1
    2276:	d202                	sw	zero,36(sp)
    2278:	4681                	li	a3,0
    227a:	4781                	li	a5,0
    227c:	4625                	li	a2,9
    227e:	00044703          	lbu	a4,0(s0)
    2282:	00140593          	addi	a1,s0,1
    2286:	fd070713          	addi	a4,a4,-48
    228a:	06e67863          	bgeu	a2,a4,22fa <_svfiprintf_r+0x224>
    228e:	f2f1                	bnez	a3,2252 <_svfiprintf_r+0x17c>
    2290:	00044583          	lbu	a1,0(s0)
    2294:	460d                	li	a2,3
    2296:	00004517          	auipc	a0,0x4
    229a:	b1a50513          	addi	a0,a0,-1254 # 5db0 <__sf_fake_stdout+0x28>
    229e:	0ff000ef          	jal	ra,2b9c <memchr>
    22a2:	cd11                	beqz	a0,22be <_svfiprintf_r+0x1e8>
    22a4:	00004797          	auipc	a5,0x4
    22a8:	b0c78793          	addi	a5,a5,-1268 # 5db0 <__sf_fake_stdout+0x28>
    22ac:	8d1d                	sub	a0,a0,a5
    22ae:	04000793          	li	a5,64
    22b2:	00a797b3          	sll	a5,a5,a0
    22b6:	5502                	lw	a0,32(sp)
    22b8:	0405                	addi	s0,s0,1
    22ba:	8d5d                	or	a0,a0,a5
    22bc:	d02a                	sw	a0,32(sp)
    22be:	00044583          	lbu	a1,0(s0)
    22c2:	4619                	li	a2,6
    22c4:	00004517          	auipc	a0,0x4
    22c8:	af050513          	addi	a0,a0,-1296 # 5db4 <__sf_fake_stdout+0x2c>
    22cc:	00140493          	addi	s1,s0,1
    22d0:	02b10c23          	sb	a1,56(sp)
    22d4:	0c9000ef          	jal	ra,2b9c <memchr>
    22d8:	c525                	beqz	a0,2340 <_svfiprintf_r+0x26a>
    22da:	ffffe797          	auipc	a5,0xffffe
    22de:	d2678793          	addi	a5,a5,-730 # 0 <_sinit>
    22e2:	e795                	bnez	a5,230e <_svfiprintf_r+0x238>
    22e4:	5702                	lw	a4,32(sp)
    22e6:	47f2                	lw	a5,28(sp)
    22e8:	10077713          	andi	a4,a4,256
    22ec:	cf09                	beqz	a4,2306 <_svfiprintf_r+0x230>
    22ee:	0791                	addi	a5,a5,4
    22f0:	ce3e                	sw	a5,28(sp)
    22f2:	57d2                	lw	a5,52(sp)
    22f4:	97d2                	add	a5,a5,s4
    22f6:	da3e                	sw	a5,52(sp)
    22f8:	b5bd                	j	2166 <_svfiprintf_r+0x90>
    22fa:	036787b3          	mul	a5,a5,s6
    22fe:	4685                	li	a3,1
    2300:	842e                	mv	s0,a1
    2302:	97ba                	add	a5,a5,a4
    2304:	bfad                	j	227e <_svfiprintf_r+0x1a8>
    2306:	079d                	addi	a5,a5,7
    2308:	9be1                	andi	a5,a5,-8
    230a:	07a1                	addi	a5,a5,8
    230c:	b7d5                	j	22f0 <_svfiprintf_r+0x21a>
    230e:	0878                	addi	a4,sp,28
    2310:	00000697          	auipc	a3,0x0
    2314:	cd868693          	addi	a3,a3,-808 # 1fe8 <__ssputs_r>
    2318:	864a                	mv	a2,s2
    231a:	100c                	addi	a1,sp,32
    231c:	854e                	mv	a0,s3
    231e:	00000097          	auipc	ra,0x0
    2322:	000000e7          	jalr	zero # 0 <_sinit>
    2326:	57fd                	li	a5,-1
    2328:	8a2a                	mv	s4,a0
    232a:	fcf514e3          	bne	a0,a5,22f2 <_svfiprintf_r+0x21c>
    232e:	00c95783          	lhu	a5,12(s2)
    2332:	557d                	li	a0,-1
    2334:	0407f793          	andi	a5,a5,64
    2338:	de0794e3          	bnez	a5,2120 <_svfiprintf_r+0x4a>
    233c:	5552                	lw	a0,52(sp)
    233e:	b3cd                	j	2120 <_svfiprintf_r+0x4a>
    2340:	0878                	addi	a4,sp,28
    2342:	00000697          	auipc	a3,0x0
    2346:	ca668693          	addi	a3,a3,-858 # 1fe8 <__ssputs_r>
    234a:	864a                	mv	a2,s2
    234c:	100c                	addi	a1,sp,32
    234e:	854e                	mv	a0,s3
    2350:	2919                	jal	2766 <_printf_i>
    2352:	bfd1                	j	2326 <_svfiprintf_r+0x250>

00002354 <__sfputc_r>:
    2354:	461c                	lw	a5,8(a2)
    2356:	17fd                	addi	a5,a5,-1
    2358:	c61c                	sw	a5,8(a2)
    235a:	0007da63          	bgez	a5,236e <__sfputc_r+0x1a>
    235e:	4e18                	lw	a4,24(a2)
    2360:	00e7c563          	blt	a5,a4,236a <__sfputc_r+0x16>
    2364:	47a9                	li	a5,10
    2366:	00f59463          	bne	a1,a5,236e <__sfputc_r+0x1a>
    236a:	de8ff06f          	j	1952 <__swbuf_r>
    236e:	421c                	lw	a5,0(a2)
    2370:	852e                	mv	a0,a1
    2372:	00178713          	addi	a4,a5,1
    2376:	c218                	sw	a4,0(a2)
    2378:	00b78023          	sb	a1,0(a5)
    237c:	8082                	ret

0000237e <__sfputs_r>:
    237e:	1101                	addi	sp,sp,-32
    2380:	cc22                	sw	s0,24(sp)
    2382:	ca26                	sw	s1,20(sp)
    2384:	c84a                	sw	s2,16(sp)
    2386:	c64e                	sw	s3,12(sp)
    2388:	c452                	sw	s4,8(sp)
    238a:	ce06                	sw	ra,28(sp)
    238c:	892a                	mv	s2,a0
    238e:	89ae                	mv	s3,a1
    2390:	8432                	mv	s0,a2
    2392:	00d604b3          	add	s1,a2,a3
    2396:	5a7d                	li	s4,-1
    2398:	00941463          	bne	s0,s1,23a0 <__sfputs_r+0x22>
    239c:	4501                	li	a0,0
    239e:	a809                	j	23b0 <__sfputs_r+0x32>
    23a0:	00044583          	lbu	a1,0(s0)
    23a4:	864e                	mv	a2,s3
    23a6:	854a                	mv	a0,s2
    23a8:	3775                	jal	2354 <__sfputc_r>
    23aa:	0405                	addi	s0,s0,1
    23ac:	ff4516e3          	bne	a0,s4,2398 <__sfputs_r+0x1a>
    23b0:	40f2                	lw	ra,28(sp)
    23b2:	4462                	lw	s0,24(sp)
    23b4:	44d2                	lw	s1,20(sp)
    23b6:	4942                	lw	s2,16(sp)
    23b8:	49b2                	lw	s3,12(sp)
    23ba:	4a22                	lw	s4,8(sp)
    23bc:	6105                	addi	sp,sp,32
    23be:	8082                	ret

000023c0 <_vfiprintf_r>:
    23c0:	7135                	addi	sp,sp,-160
    23c2:	cd22                	sw	s0,152(sp)
    23c4:	cb26                	sw	s1,148(sp)
    23c6:	c94a                	sw	s2,144(sp)
    23c8:	c74e                	sw	s3,140(sp)
    23ca:	cf06                	sw	ra,156(sp)
    23cc:	c552                	sw	s4,136(sp)
    23ce:	c356                	sw	s5,132(sp)
    23d0:	c15a                	sw	s6,128(sp)
    23d2:	dede                	sw	s7,124(sp)
    23d4:	dce2                	sw	s8,120(sp)
    23d6:	dae6                	sw	s9,116(sp)
    23d8:	89aa                	mv	s3,a0
    23da:	84ae                	mv	s1,a1
    23dc:	8932                	mv	s2,a2
    23de:	8436                	mv	s0,a3
    23e0:	c509                	beqz	a0,23ea <_vfiprintf_r+0x2a>
    23e2:	4d1c                	lw	a5,24(a0)
    23e4:	e399                	bnez	a5,23ea <_vfiprintf_r+0x2a>
    23e6:	997ff0ef          	jal	ra,1d7c <__sinit>
    23ea:	00004797          	auipc	a5,0x4
    23ee:	97e78793          	addi	a5,a5,-1666 # 5d68 <__sf_fake_stdin>
    23f2:	0cf49b63          	bne	s1,a5,24c8 <_vfiprintf_r+0x108>
    23f6:	0049a483          	lw	s1,4(s3)
    23fa:	00c4d783          	lhu	a5,12(s1)
    23fe:	8ba1                	andi	a5,a5,8
    2400:	c7f5                	beqz	a5,24ec <_vfiprintf_r+0x12c>
    2402:	489c                	lw	a5,16(s1)
    2404:	c7e5                	beqz	a5,24ec <_vfiprintf_r+0x12c>
    2406:	02000793          	li	a5,32
    240a:	02f104a3          	sb	a5,41(sp)
    240e:	03000793          	li	a5,48
    2412:	d202                	sw	zero,36(sp)
    2414:	02f10523          	sb	a5,42(sp)
    2418:	c622                	sw	s0,12(sp)
    241a:	02500b93          	li	s7,37
    241e:	00004a97          	auipc	s5,0x4
    2422:	98aa8a93          	addi	s5,s5,-1654 # 5da8 <__sf_fake_stdout+0x20>
    2426:	4c05                	li	s8,1
    2428:	4b29                	li	s6,10
    242a:	844a                	mv	s0,s2
    242c:	00044783          	lbu	a5,0(s0)
    2430:	c399                	beqz	a5,2436 <_vfiprintf_r+0x76>
    2432:	0f779063          	bne	a5,s7,2512 <_vfiprintf_r+0x152>
    2436:	41240cb3          	sub	s9,s0,s2
    243a:	000c8d63          	beqz	s9,2454 <_vfiprintf_r+0x94>
    243e:	86e6                	mv	a3,s9
    2440:	864a                	mv	a2,s2
    2442:	85a6                	mv	a1,s1
    2444:	854e                	mv	a0,s3
    2446:	3f25                	jal	237e <__sfputs_r>
    2448:	57fd                	li	a5,-1
    244a:	1ef50663          	beq	a0,a5,2636 <_vfiprintf_r+0x276>
    244e:	5692                	lw	a3,36(sp)
    2450:	96e6                	add	a3,a3,s9
    2452:	d236                	sw	a3,36(sp)
    2454:	00044783          	lbu	a5,0(s0)
    2458:	1c078f63          	beqz	a5,2636 <_vfiprintf_r+0x276>
    245c:	57fd                	li	a5,-1
    245e:	00140913          	addi	s2,s0,1
    2462:	c802                	sw	zero,16(sp)
    2464:	ce02                	sw	zero,28(sp)
    2466:	ca3e                	sw	a5,20(sp)
    2468:	cc02                	sw	zero,24(sp)
    246a:	040109a3          	sb	zero,83(sp)
    246e:	d482                	sw	zero,104(sp)
    2470:	00094583          	lbu	a1,0(s2)
    2474:	4615                	li	a2,5
    2476:	8556                	mv	a0,s5
    2478:	2715                	jal	2b9c <memchr>
    247a:	00190413          	addi	s0,s2,1
    247e:	47c2                	lw	a5,16(sp)
    2480:	e959                	bnez	a0,2516 <_vfiprintf_r+0x156>
    2482:	0107f713          	andi	a4,a5,16
    2486:	c709                	beqz	a4,2490 <_vfiprintf_r+0xd0>
    2488:	02000713          	li	a4,32
    248c:	04e109a3          	sb	a4,83(sp)
    2490:	0087f713          	andi	a4,a5,8
    2494:	c709                	beqz	a4,249e <_vfiprintf_r+0xde>
    2496:	02b00713          	li	a4,43
    249a:	04e109a3          	sb	a4,83(sp)
    249e:	00094683          	lbu	a3,0(s2)
    24a2:	02a00713          	li	a4,42
    24a6:	08e68063          	beq	a3,a4,2526 <_vfiprintf_r+0x166>
    24aa:	47f2                	lw	a5,28(sp)
    24ac:	844a                	mv	s0,s2
    24ae:	4681                	li	a3,0
    24b0:	4625                	li	a2,9
    24b2:	00044703          	lbu	a4,0(s0)
    24b6:	00140593          	addi	a1,s0,1
    24ba:	fd070713          	addi	a4,a4,-48
    24be:	0ae67963          	bgeu	a2,a4,2570 <_vfiprintf_r+0x1b0>
    24c2:	cab5                	beqz	a3,2536 <_vfiprintf_r+0x176>
    24c4:	ce3e                	sw	a5,28(sp)
    24c6:	a885                	j	2536 <_vfiprintf_r+0x176>
    24c8:	00004797          	auipc	a5,0x4
    24cc:	8c078793          	addi	a5,a5,-1856 # 5d88 <__sf_fake_stdout>
    24d0:	00f49563          	bne	s1,a5,24da <_vfiprintf_r+0x11a>
    24d4:	0089a483          	lw	s1,8(s3)
    24d8:	b70d                	j	23fa <_vfiprintf_r+0x3a>
    24da:	00004797          	auipc	a5,0x4
    24de:	86e78793          	addi	a5,a5,-1938 # 5d48 <__sf_fake_stderr>
    24e2:	f0f49ce3          	bne	s1,a5,23fa <_vfiprintf_r+0x3a>
    24e6:	00c9a483          	lw	s1,12(s3)
    24ea:	bf01                	j	23fa <_vfiprintf_r+0x3a>
    24ec:	85a6                	mv	a1,s1
    24ee:	854e                	mv	a0,s3
    24f0:	d22ff0ef          	jal	ra,1a12 <__swsetup_r>
    24f4:	d909                	beqz	a0,2406 <_vfiprintf_r+0x46>
    24f6:	557d                	li	a0,-1
    24f8:	40fa                	lw	ra,156(sp)
    24fa:	446a                	lw	s0,152(sp)
    24fc:	44da                	lw	s1,148(sp)
    24fe:	494a                	lw	s2,144(sp)
    2500:	49ba                	lw	s3,140(sp)
    2502:	4a2a                	lw	s4,136(sp)
    2504:	4a9a                	lw	s5,132(sp)
    2506:	4b0a                	lw	s6,128(sp)
    2508:	5bf6                	lw	s7,124(sp)
    250a:	5c66                	lw	s8,120(sp)
    250c:	5cd6                	lw	s9,116(sp)
    250e:	610d                	addi	sp,sp,160
    2510:	8082                	ret
    2512:	0405                	addi	s0,s0,1
    2514:	bf21                	j	242c <_vfiprintf_r+0x6c>
    2516:	41550533          	sub	a0,a0,s5
    251a:	00ac1533          	sll	a0,s8,a0
    251e:	8fc9                	or	a5,a5,a0
    2520:	c83e                	sw	a5,16(sp)
    2522:	8922                	mv	s2,s0
    2524:	b7b1                	j	2470 <_vfiprintf_r+0xb0>
    2526:	4732                	lw	a4,12(sp)
    2528:	00470693          	addi	a3,a4,4
    252c:	4318                	lw	a4,0(a4)
    252e:	c636                	sw	a3,12(sp)
    2530:	02074963          	bltz	a4,2562 <_vfiprintf_r+0x1a2>
    2534:	ce3a                	sw	a4,28(sp)
    2536:	00044703          	lbu	a4,0(s0)
    253a:	02e00793          	li	a5,46
    253e:	04f71f63          	bne	a4,a5,259c <_vfiprintf_r+0x1dc>
    2542:	00144703          	lbu	a4,1(s0)
    2546:	02a00793          	li	a5,42
    254a:	02f71b63          	bne	a4,a5,2580 <_vfiprintf_r+0x1c0>
    254e:	47b2                	lw	a5,12(sp)
    2550:	0409                	addi	s0,s0,2
    2552:	00478713          	addi	a4,a5,4
    2556:	439c                	lw	a5,0(a5)
    2558:	c63a                	sw	a4,12(sp)
    255a:	0207c163          	bltz	a5,257c <_vfiprintf_r+0x1bc>
    255e:	ca3e                	sw	a5,20(sp)
    2560:	a835                	j	259c <_vfiprintf_r+0x1dc>
    2562:	40e00733          	neg	a4,a4
    2566:	0027e793          	ori	a5,a5,2
    256a:	ce3a                	sw	a4,28(sp)
    256c:	c83e                	sw	a5,16(sp)
    256e:	b7e1                	j	2536 <_vfiprintf_r+0x176>
    2570:	036787b3          	mul	a5,a5,s6
    2574:	4685                	li	a3,1
    2576:	842e                	mv	s0,a1
    2578:	97ba                	add	a5,a5,a4
    257a:	bf25                	j	24b2 <_vfiprintf_r+0xf2>
    257c:	57fd                	li	a5,-1
    257e:	b7c5                	j	255e <_vfiprintf_r+0x19e>
    2580:	0405                	addi	s0,s0,1
    2582:	ca02                	sw	zero,20(sp)
    2584:	4681                	li	a3,0
    2586:	4781                	li	a5,0
    2588:	4625                	li	a2,9
    258a:	00044703          	lbu	a4,0(s0)
    258e:	00140593          	addi	a1,s0,1
    2592:	fd070713          	addi	a4,a4,-48
    2596:	06e67663          	bgeu	a2,a4,2602 <_vfiprintf_r+0x242>
    259a:	f2f1                	bnez	a3,255e <_vfiprintf_r+0x19e>
    259c:	00044583          	lbu	a1,0(s0)
    25a0:	460d                	li	a2,3
    25a2:	00004517          	auipc	a0,0x4
    25a6:	80e50513          	addi	a0,a0,-2034 # 5db0 <__sf_fake_stdout+0x28>
    25aa:	2bcd                	jal	2b9c <memchr>
    25ac:	cd11                	beqz	a0,25c8 <_vfiprintf_r+0x208>
    25ae:	00004797          	auipc	a5,0x4
    25b2:	80278793          	addi	a5,a5,-2046 # 5db0 <__sf_fake_stdout+0x28>
    25b6:	8d1d                	sub	a0,a0,a5
    25b8:	04000793          	li	a5,64
    25bc:	00a797b3          	sll	a5,a5,a0
    25c0:	4542                	lw	a0,16(sp)
    25c2:	0405                	addi	s0,s0,1
    25c4:	8d5d                	or	a0,a0,a5
    25c6:	c82a                	sw	a0,16(sp)
    25c8:	00044583          	lbu	a1,0(s0)
    25cc:	4619                	li	a2,6
    25ce:	00003517          	auipc	a0,0x3
    25d2:	7e650513          	addi	a0,a0,2022 # 5db4 <__sf_fake_stdout+0x2c>
    25d6:	00140913          	addi	s2,s0,1
    25da:	02b10423          	sb	a1,40(sp)
    25de:	2b7d                	jal	2b9c <memchr>
    25e0:	c13d                	beqz	a0,2646 <_vfiprintf_r+0x286>
    25e2:	ffffe797          	auipc	a5,0xffffe
    25e6:	a1e78793          	addi	a5,a5,-1506 # 0 <_sinit>
    25ea:	e795                	bnez	a5,2616 <_vfiprintf_r+0x256>
    25ec:	4742                	lw	a4,16(sp)
    25ee:	47b2                	lw	a5,12(sp)
    25f0:	10077713          	andi	a4,a4,256
    25f4:	cf09                	beqz	a4,260e <_vfiprintf_r+0x24e>
    25f6:	0791                	addi	a5,a5,4
    25f8:	c63e                	sw	a5,12(sp)
    25fa:	5792                	lw	a5,36(sp)
    25fc:	97d2                	add	a5,a5,s4
    25fe:	d23e                	sw	a5,36(sp)
    2600:	b52d                	j	242a <_vfiprintf_r+0x6a>
    2602:	036787b3          	mul	a5,a5,s6
    2606:	4685                	li	a3,1
    2608:	842e                	mv	s0,a1
    260a:	97ba                	add	a5,a5,a4
    260c:	bfbd                	j	258a <_vfiprintf_r+0x1ca>
    260e:	079d                	addi	a5,a5,7
    2610:	9be1                	andi	a5,a5,-8
    2612:	07a1                	addi	a5,a5,8
    2614:	b7d5                	j	25f8 <_vfiprintf_r+0x238>
    2616:	0078                	addi	a4,sp,12
    2618:	00000697          	auipc	a3,0x0
    261c:	d6668693          	addi	a3,a3,-666 # 237e <__sfputs_r>
    2620:	8626                	mv	a2,s1
    2622:	080c                	addi	a1,sp,16
    2624:	854e                	mv	a0,s3
    2626:	00000097          	auipc	ra,0x0
    262a:	000000e7          	jalr	zero # 0 <_sinit>
    262e:	57fd                	li	a5,-1
    2630:	8a2a                	mv	s4,a0
    2632:	fcf514e3          	bne	a0,a5,25fa <_vfiprintf_r+0x23a>
    2636:	00c4d783          	lhu	a5,12(s1)
    263a:	0407f793          	andi	a5,a5,64
    263e:	ea079ce3          	bnez	a5,24f6 <_vfiprintf_r+0x136>
    2642:	5512                	lw	a0,36(sp)
    2644:	bd55                	j	24f8 <_vfiprintf_r+0x138>
    2646:	0078                	addi	a4,sp,12
    2648:	00000697          	auipc	a3,0x0
    264c:	d3668693          	addi	a3,a3,-714 # 237e <__sfputs_r>
    2650:	8626                	mv	a2,s1
    2652:	080c                	addi	a1,sp,16
    2654:	854e                	mv	a0,s3
    2656:	2a01                	jal	2766 <_printf_i>
    2658:	bfd9                	j	262e <_vfiprintf_r+0x26e>

0000265a <_printf_common>:
    265a:	7179                	addi	sp,sp,-48
    265c:	ca56                	sw	s5,20(sp)
    265e:	499c                	lw	a5,16(a1)
    2660:	8aba                	mv	s5,a4
    2662:	4598                	lw	a4,8(a1)
    2664:	d422                	sw	s0,40(sp)
    2666:	d226                	sw	s1,36(sp)
    2668:	ce4e                	sw	s3,28(sp)
    266a:	cc52                	sw	s4,24(sp)
    266c:	d606                	sw	ra,44(sp)
    266e:	d04a                	sw	s2,32(sp)
    2670:	c85a                	sw	s6,16(sp)
    2672:	c65e                	sw	s7,12(sp)
    2674:	89aa                	mv	s3,a0
    2676:	842e                	mv	s0,a1
    2678:	84b2                	mv	s1,a2
    267a:	8a36                	mv	s4,a3
    267c:	00e7d363          	bge	a5,a4,2682 <_printf_common+0x28>
    2680:	87ba                	mv	a5,a4
    2682:	c09c                	sw	a5,0(s1)
    2684:	04344703          	lbu	a4,67(s0)
    2688:	c319                	beqz	a4,268e <_printf_common+0x34>
    268a:	0785                	addi	a5,a5,1
    268c:	c09c                	sw	a5,0(s1)
    268e:	401c                	lw	a5,0(s0)
    2690:	0207f793          	andi	a5,a5,32
    2694:	c781                	beqz	a5,269c <_printf_common+0x42>
    2696:	409c                	lw	a5,0(s1)
    2698:	0789                	addi	a5,a5,2
    269a:	c09c                	sw	a5,0(s1)
    269c:	00042903          	lw	s2,0(s0)
    26a0:	00697913          	andi	s2,s2,6
    26a4:	00091a63          	bnez	s2,26b8 <_printf_common+0x5e>
    26a8:	01940b13          	addi	s6,s0,25
    26ac:	5bfd                	li	s7,-1
    26ae:	445c                	lw	a5,12(s0)
    26b0:	4098                	lw	a4,0(s1)
    26b2:	8f99                	sub	a5,a5,a4
    26b4:	04f94c63          	blt	s2,a5,270c <_printf_common+0xb2>
    26b8:	401c                	lw	a5,0(s0)
    26ba:	04344683          	lbu	a3,67(s0)
    26be:	0207f793          	andi	a5,a5,32
    26c2:	00d036b3          	snez	a3,a3
    26c6:	eba5                	bnez	a5,2736 <_printf_common+0xdc>
    26c8:	04340613          	addi	a2,s0,67
    26cc:	85d2                	mv	a1,s4
    26ce:	854e                	mv	a0,s3
    26d0:	9a82                	jalr	s5
    26d2:	57fd                	li	a5,-1
    26d4:	04f50363          	beq	a0,a5,271a <_printf_common+0xc0>
    26d8:	401c                	lw	a5,0(s0)
    26da:	4611                	li	a2,4
    26dc:	4098                	lw	a4,0(s1)
    26de:	8b99                	andi	a5,a5,6
    26e0:	4454                	lw	a3,12(s0)
    26e2:	4481                	li	s1,0
    26e4:	00c79763          	bne	a5,a2,26f2 <_printf_common+0x98>
    26e8:	40e684b3          	sub	s1,a3,a4
    26ec:	0004d363          	bgez	s1,26f2 <_printf_common+0x98>
    26f0:	4481                	li	s1,0
    26f2:	441c                	lw	a5,8(s0)
    26f4:	4818                	lw	a4,16(s0)
    26f6:	00f75463          	bge	a4,a5,26fe <_printf_common+0xa4>
    26fa:	8f99                	sub	a5,a5,a4
    26fc:	94be                	add	s1,s1,a5
    26fe:	4901                	li	s2,0
    2700:	0469                	addi	s0,s0,26
    2702:	5b7d                	li	s6,-1
    2704:	05249863          	bne	s1,s2,2754 <_printf_common+0xfa>
    2708:	4501                	li	a0,0
    270a:	a809                	j	271c <_printf_common+0xc2>
    270c:	4685                	li	a3,1
    270e:	865a                	mv	a2,s6
    2710:	85d2                	mv	a1,s4
    2712:	854e                	mv	a0,s3
    2714:	9a82                	jalr	s5
    2716:	01751e63          	bne	a0,s7,2732 <_printf_common+0xd8>
    271a:	557d                	li	a0,-1
    271c:	50b2                	lw	ra,44(sp)
    271e:	5422                	lw	s0,40(sp)
    2720:	5492                	lw	s1,36(sp)
    2722:	5902                	lw	s2,32(sp)
    2724:	49f2                	lw	s3,28(sp)
    2726:	4a62                	lw	s4,24(sp)
    2728:	4ad2                	lw	s5,20(sp)
    272a:	4b42                	lw	s6,16(sp)
    272c:	4bb2                	lw	s7,12(sp)
    272e:	6145                	addi	sp,sp,48
    2730:	8082                	ret
    2732:	0905                	addi	s2,s2,1
    2734:	bfad                	j	26ae <_printf_common+0x54>
    2736:	00d40733          	add	a4,s0,a3
    273a:	03000613          	li	a2,48
    273e:	04c701a3          	sb	a2,67(a4)
    2742:	04544703          	lbu	a4,69(s0)
    2746:	00168793          	addi	a5,a3,1
    274a:	97a2                	add	a5,a5,s0
    274c:	0689                	addi	a3,a3,2
    274e:	04e781a3          	sb	a4,67(a5)
    2752:	bf9d                	j	26c8 <_printf_common+0x6e>
    2754:	4685                	li	a3,1
    2756:	8622                	mv	a2,s0
    2758:	85d2                	mv	a1,s4
    275a:	854e                	mv	a0,s3
    275c:	9a82                	jalr	s5
    275e:	fb650ee3          	beq	a0,s6,271a <_printf_common+0xc0>
    2762:	0905                	addi	s2,s2,1
    2764:	b745                	j	2704 <_printf_common+0xaa>

00002766 <_printf_i>:
    2766:	7179                	addi	sp,sp,-48
    2768:	d422                	sw	s0,40(sp)
    276a:	d226                	sw	s1,36(sp)
    276c:	d04a                	sw	s2,32(sp)
    276e:	ce4e                	sw	s3,28(sp)
    2770:	d606                	sw	ra,44(sp)
    2772:	cc52                	sw	s4,24(sp)
    2774:	ca56                	sw	s5,20(sp)
    2776:	c85a                	sw	s6,16(sp)
    2778:	89b6                	mv	s3,a3
    277a:	0185c683          	lbu	a3,24(a1)
    277e:	06900793          	li	a5,105
    2782:	8932                	mv	s2,a2
    2784:	84aa                	mv	s1,a0
    2786:	842e                	mv	s0,a1
    2788:	04358613          	addi	a2,a1,67
    278c:	02f68d63          	beq	a3,a5,27c6 <_printf_i+0x60>
    2790:	06d7e263          	bltu	a5,a3,27f4 <_printf_i+0x8e>
    2794:	05800793          	li	a5,88
    2798:	18f68763          	beq	a3,a5,2926 <_printf_i+0x1c0>
    279c:	00d7ed63          	bltu	a5,a3,27b6 <_printf_i+0x50>
    27a0:	22068063          	beqz	a3,29c0 <_printf_i+0x25a>
    27a4:	04300793          	li	a5,67
    27a8:	0af68e63          	beq	a3,a5,2864 <_printf_i+0xfe>
    27ac:	04240a93          	addi	s5,s0,66
    27b0:	04d40123          	sb	a3,66(s0)
    27b4:	a0c9                	j	2876 <_printf_i+0x110>
    27b6:	06300793          	li	a5,99
    27ba:	0af68563          	beq	a3,a5,2864 <_printf_i+0xfe>
    27be:	06400793          	li	a5,100
    27c2:	fef695e3          	bne	a3,a5,27ac <_printf_i+0x46>
    27c6:	401c                	lw	a5,0(s0)
    27c8:	4308                	lw	a0,0(a4)
    27ca:	0807f693          	andi	a3,a5,128
    27ce:	00450593          	addi	a1,a0,4
    27d2:	c6c5                	beqz	a3,287a <_printf_i+0x114>
    27d4:	411c                	lw	a5,0(a0)
    27d6:	c30c                	sw	a1,0(a4)
    27d8:	0007d863          	bgez	a5,27e8 <_printf_i+0x82>
    27dc:	02d00713          	li	a4,45
    27e0:	40f007b3          	neg	a5,a5
    27e4:	04e401a3          	sb	a4,67(s0)
    27e8:	00003697          	auipc	a3,0x3
    27ec:	5d468693          	addi	a3,a3,1492 # 5dbc <__sf_fake_stdout+0x34>
    27f0:	4729                	li	a4,10
    27f2:	a86d                	j	28ac <_printf_i+0x146>
    27f4:	07000793          	li	a5,112
    27f8:	16f68363          	beq	a3,a5,295e <_printf_i+0x1f8>
    27fc:	02d7e563          	bltu	a5,a3,2826 <_printf_i+0xc0>
    2800:	06e00793          	li	a5,110
    2804:	18f68a63          	beq	a3,a5,2998 <_printf_i+0x232>
    2808:	06f00793          	li	a5,111
    280c:	faf690e3          	bne	a3,a5,27ac <_printf_i+0x46>
    2810:	400c                	lw	a1,0(s0)
    2812:	431c                	lw	a5,0(a4)
    2814:	0805f813          	andi	a6,a1,128
    2818:	00478513          	addi	a0,a5,4
    281c:	06080763          	beqz	a6,288a <_printf_i+0x124>
    2820:	c308                	sw	a0,0(a4)
    2822:	439c                	lw	a5,0(a5)
    2824:	a88d                	j	2896 <_printf_i+0x130>
    2826:	07500793          	li	a5,117
    282a:	fef683e3          	beq	a3,a5,2810 <_printf_i+0xaa>
    282e:	07800793          	li	a5,120
    2832:	12f68a63          	beq	a3,a5,2966 <_printf_i+0x200>
    2836:	07300793          	li	a5,115
    283a:	f6f699e3          	bne	a3,a5,27ac <_printf_i+0x46>
    283e:	431c                	lw	a5,0(a4)
    2840:	41d0                	lw	a2,4(a1)
    2842:	4581                	li	a1,0
    2844:	00478693          	addi	a3,a5,4
    2848:	c314                	sw	a3,0(a4)
    284a:	0007aa83          	lw	s5,0(a5)
